:10000000F7C700000C9420080C9420080C942008DA
:100010000C9420080C9420080C9420080C942008C0
:100020000C9420080C9420080C94832A0C94F22A37
:100030000C9420080C9420080C9420080C942008A0
:100040000C942008FDC70000FBC70000F9C70000A2
:10005000F7C70000F5C70000F3C700000C94212D7E
:10006000EFC70000EDC70000EBC70000E9C70000C4
:10007000E7C70000E5C70000E3C70000E1C70000D4
:10008000DFC70000DDC70000DBC70000D9C70000E4
:10009000D7C70000D5C70000D3C70000D1C70000F4
:1000A000CFC70000CDC70000CBC700004C6F616414
:1000B000696E672E2E2E00546865200074686520D6
:1000C000006F6D657468696E6700617265006973C1
:1000D000006375727365642000666F6F64207261DF
:1000E00074696F6E006172726F770073776F7264FC
:1000F00000205B40642061746B5D00626F770020BC
:100100005B4064206465665D0072696E67206F669F
:10011000200000205B4064207374725D00205B400F
:1001200064206465785D00205B40645D0020726936
:100130006E6700616D756C6574206F662000205BD2
:1001400040634075207370645D0020616D756C655F
:100150007400706F74696F6E00206F662000706F9E
:1001600074696F6E007363726F6C6C00206F662031
:10017000007363726F6C6C0052616E643A20407859
:1001800040782F4078407800537461636B3A204088
:10019000750057616C6C205374796C653A207B2034
:1001A0004075207D0040752028406429004075007E
:1001B000506C6179657220496E666F726D61746909
:1001C0006F6E004075004075004566666563747328
:1001D0003A00636F6E667573656400706172616C7E
:1001E000797A6564007765616B656E656400696E38
:1001F00076697369626C65006E6F6E6500406900B8
:1002000044726F70207768696368206974656D3F18
:1002100000496E76656E746F72790055736520774C
:1002200068696368206974656D3F00486967682084
:1002300053636F7265730040750044756E67656F38
:100240006E204C6576656C20407500485000585013
:1002500000576869636820646972656374696F6ECA
:100260003F005363726F6C6C2044756E67656F6EF0
:10027000005B6D6F72655D0073746F7020757369DC
:100280006E6700596F752061726520756E61626CD2
:100290006520746F204070207468652040692E00CE
:1002A00074616B65206F666600596F752040702021
:1002B0007468652040692E004053204041207765D6
:1002C000616B656E656421006265636F6D650040FA
:1002D0005320405620636F6E66757365642100730A
:1002E0006C696768746C792000596F752066656564
:1002F0006C2040706265747465722E00004053205B
:100300006C6F6F6B732040706265747465722E0041
:10031000596F757220737472656E677468207265A8
:100320007475726E732E00596F75206665656C204A
:100330007374726F6E6765722100596F75206172F8
:100340006520706172616C797A65642100596F75FE
:100350002061726520636F6E66757365642100723B
:100360006561647900596F7520407020746865205C
:1003700040692E00456E6368616E7420776869631A
:1003800068206974656D3F004E6F7468696E672000
:1003900068617070656E732E00596F7520626563B9
:1003A0006F6D65206177617265206F6620796F756A
:1003B0007220737572726F756E64696E67732E004A
:1003C0004964656E74696679207768696368206935
:1003D00074656D3F0054686520406920676C6F77D5
:1003E0007320626C756520666F722061206D6F6D81
:1003F000656E742E00556E6375727365207768693B
:100400006368206974656D3F005468652040692009
:10041000676C6F777320776869746520666F7220E8
:1004200061206D6F6D656E742E00596F7520666961
:100430006E6420796F757273656C6620696E2061D9
:100440006E6F74686572206C6F636174696F6E2E75
:1004500000707574206F6E0054686520646F6F7251
:1004600020697320616C726561647920636C6F73BD
:1004700065642E0054686520646F6F722069732074
:10048000626C6F636B65642E00596F7520736565D0
:10049000206E6F20646F6F722074686572652E0025
:1004A0006D69737300405320407620404F2E0059F1
:1004B0006F7520686561722074686520736F756E52
:1004C00064206F662064656174682E004053206468
:1004D0007261696E7320796F7572206865616C74E2
:1004E0006821006469650040532040562100596F1F
:1004F0007520666F756E6420612068696464656E3E
:1005000020646F6F722100596F75206172652075CC
:100510006E61626C6520746F2064726F7020746805
:10052000652040692E00596F752064726F702074C9
:1005300068652040692E0054686520406920627219
:1005400065616B732E0000546865204069206869FE
:10055000747320404F2100546865204069207368FF
:100560006174746572732E00686974004053204092
:100570005620404F2E0064696500405320405621AC
:1005800000596F7520616476616E636520746F2019
:100590006C6576656C2040752100596F7520666525
:1005A000656C207374726F6E6765722E00596F757B
:1005B000206665656C20717569636B65722E0040FD
:1005C00053204041206E6F206C6F6E676572206310
:1005D0006F6E66757365642E004053204041206E37
:1005E0006F206C6F6E67657220706172616C797AD2
:1005F00065642E00596F7520617265206E6F206CE6
:100600006F6E67657220696E76697369626C652EBC
:10061000005468726F7720776861743F0059657382
:10062000004E6F0041726475526F677565005072BD
:10063000657373204120746F20706C61792E0057B0
:10064000656C636F6D65204070746F2041726475D6
:10065000526F6775652E005069636B20757020744A
:1006600068652040693F00596F752063616E27748B
:1006700020686F6C6420616E79206D6F7265206FE9
:10068000662074686F73652E00596F752063616E04
:10069000277420686F6C6420616E79206D6F7265BD
:1006A000206974656D732E00596F75206E6F772009
:1006B000686176652040692E00476F20646F776E11
:1006C00020746F20746865206E6578742064756E80
:1006D00067656F6E3F0052657475726E20746F208F
:1006E00074686520737572666163653F00596F7544
:1006F0002068617665206573636170656420776941
:1007000074682074686520616D756C6574206F660F
:100710002059656E646F72210050726573732042B8
:1007200020746F20636F6E74696E75652E00476F5D
:10073000206261636B20757020746865207374613A
:100740006972733F00596F75206C6561766520771B
:100750006974686F75742074686520616D756C6567
:1007600074206F662059656E646F722E007B204185
:100770006374696F6E73207D007B2047616D652017
:100780004D656E75207D00006261636B2000596FBE
:100790007520676F74207468652040692E000044DE
:1007A0006561746820627920404D004162616E6429
:1007B0006F6E6564207468652067616D65005265C1
:1007C0007475726E656420746F207468652073752B
:1007D0007266616365004573636170656420776963
:1007E00074682074686520616D756C6574004D696E
:1007F0007363005363726F6C6C7300506F74696F36
:100800006E73004A6577656C72790041726D6F7224
:1008100000576561706F6E730053706565643A00D0
:10082000446566656E73653A0041747461636B3A42
:10083000004465787465726974793A00537472651E
:100840006E6774683A004D6178204865616C746821
:100850003A004C6576656C3A0053636F72653A00F6
:100860007368696D6D6572696E6700676C6F776933
:100870006E670074617474657265640079656C6C90
:100880006F776564006661646564006D61676963C4
:10089000206D617070696E670074656C65706F7251
:1008A000746174696F6E0072656D6F766520637533
:1008B00072736500656E6368616E74696E67006966
:1008C00064656E7469667900626C7565006772654F
:1008D000656E006F72616E676500636C65617200C2
:1008E00072656400696E7669736962696C697479AE
:1008F00000737472656E67746800706F69736F6EF1
:1009000000636F6E667573696F6E006865616C6910
:100910006E670059656E646F7200726567656E651B
:10092000726174696F6E00636F6E73657276617465
:10093000696F6E00636C61726974790073706565CC
:100940006400746F70617A00656D6572616C64003B
:1009500072756279006469616D6F6E640070726FA8
:1009600074656374696F6E00646578746572697428
:100970007900737472656E677468007365652069C9
:100980006E76697369626C6500626F6F747300687C
:10099000656C6D0061726D6F72004C6F7264206FD8
:1009A00066204461726B6E65737300647261676F79
:1009B0006E0066616C6C656E20616E67656C0067C9
:1009C00072696666696E0074726F6C6C00696E6342
:1009D00075627573006D696D696300686F62676F3A
:1009E000626C696E00746172616E74756C61006F27
:1009F0007263007068616E746F6D00676F626C691E
:100A00006E007A6F6D62696500726174746C6573F3
:100A10006E616B6500736E616B65006261740044AA
:100A20006562756720496E666F0053617665205078
:100A3000726F677265737300486967682053636FEC
:100A400072657300506C6179657220496E666F0043
:100A5000496E76656E746F7279005363726F6C6C59
:100A60002044756E67656F6E0056696577204D6925
:100A70006E696D6170005468726F7720506F746991
:100A80006F6E0044726F70204974656D0053686F1B
:100A90006F7400557365202F205B556E5D65717511
:100AA00069700057616974202F2053656172636813
:100AB0000009010604050105044909260685058586
:100AC000050000F66FA40FD00B5A0FB99DF00B5222
:100AD0000F9F0FA0072C0FBEEFF909F1019D065ED5
:100AE0000E96F9880F00002994B00BB301E444601E
:100AF00009F404AA0A0606900F900F900FBEEF1E8D
:100B0000E1010204081A264985000000000A0609CE
:100B100005010410020800000000000101010101AC
:100B20000202020202080808080814141414141F10
:100B30000000000000060000000000001F00000090
:100B400016001F000000180800001C041418000004
:100B50000000041C0000000000000101000003026E
:100B600002010000000002030000000404F0F0F0A5
:100B7000F0FFFFFFFF0505E0E0E0E0E0FFFFFF061C
:100B800006C0C0C0C0C0C0FFFF0606E1C0CCCCC0DC
:100B9000E1FFFF0606E1C0C0C0C0E1FFFF0707801C
:100BA000808080808080FF0707F7E3C180C1E3F782
:100BB000FF0707E3E3808080E3E3FF0707E3E388C1
:100BC0009C88E3E3FF0808C3810000000081C3089C
:100BD00008E7E7C30000C3E7E70808006642000033
:100BE00042660010101FF807E003C001800180E09A
:100BF00007200420042004200460060180018003F3
:100C0000C007E01FF810101FF807E003C001803193
:100C10008C300C0000000000000000300C318C0112
:100C20008003C007E01FF80D0DBFFF1FFF0FFE0779
:100C3000FC03F801F000E001F003F807FC0FFE1FD1
:100C4000FFBFFFFFFFFFFFFFFF0C0C03FC01F800DD
:100C5000F000F000F000F000F000F000F000F00113
:100C6000F803FCFFFFFFFFFFFFFFFFFF01FF010194
:100C7000FF0000FFFF0101000001FF02030300006D
:100C80000000000304000000000000020300000058
:100C9000000000020300000000000002030000004A
:100CA000000000020300000000000002030000003A
:100CB000000000020300000000000002030000002A
:100CC000000000020300000000000002030000001A
:100CD000000000020300000000000002030000000A
:100CE00000000002030000000000000203000000FA
:100CF0000000000203000000000000D607BE07ABA2
:100D0000079F079E0711080B080308FB07F307EE70
:100D1000071C3E7F7F7F3E1CFFFF03FFFFFFFFFF9F
:100D2000FFFFFFFF436C6F736520446F6F7200FF1E
:100D3000050304000000020201010159085208469F
:100D4000083C08310829082008190853657474699B
:100D50006E6773006D61737465722065643530373A
:100D6000393720323032322D30342D31340000000A
:100D7000FF01FF01000085087C0873086B0860080C
:100D8000BF08B408A70899088B08E008DA08D30858
:100D9000CD08C8080B090109FA08F108E4083C0964
:100DA000340927091A091309550950094809420944
:100DB0007B09720968095D0994098F098909000096
:100DC00000001B0A150A090A020AFB09F309EF09C8
:100DD000E509DB09D509CD09C709BF09B209AB0986
:100DE0009A09303132333435363738394142434449
:100DF000454600D5F08D14A1C881CFD9F1AF2000B0
:100E000033177E1E141DE41BB41DC01A812AB41AA8
:100E1000520B1A1D500B011D7227761E690A5A0AC1
:100E2000500A440A380A4B0D2A0A1F0AA30A930AD9
:100E30008D0A830A760A240D0000000000000000DD
:100E40000102040404000A00000001060800010178
:100E50000100020303000302110003030300040363
:100E600001020402020006050102050404010A064B
:100E70000902060404010C07010207040403100818
:100E80008100050404000C09010208040402140B8B
:100E9000030007040403140B410209040403180EA1
:100EA00005020A03030520120100070606011812B5
:100EB000C1020A060603181201010C0404083019C5
:100EC000F502100608084032080B0002020200007A
:100ED000090400000102020000052400100105249D
:100EE000010101042402060524060001070581030F
:100EF00010004009040100020A0000000705020278
:100F000040000007058302400000040309041201A9
:100F10000002EF020140412336800001010203017B
:100F200041726475696E6F204C4C43004172647568
:100F3000626F79001700030CCE390000994C000055
:100F400003002E02D1010000C41110018410100012
:100F5000980C2E3AF243B94AB12A877CB726AE22C2
:100F6000211FAA2AA23A0A00500184284A298A107D
:100F7000A10A0000BE78BF2A2E463F3ABF46BF04F2
:100F80002E669F7CF147F1019F6C1F425F7C3F788A
:100F90003F7EBF082E7ABF68B226E1071F7E071F7B
:100FA0001F7D9B6C833EB94E3F028360F103220894
:100FB000104241004C7A5F324C4A4C7E4C53BE008A
:100FC000D6035F701D00B0019F681F009E785E70A1
:100FD0004C325E1144799E0856034F020E7A061B6E
:100FE0001E799249823ADA02C47D0000DF116B2D2E
:100FF00011241FBECFEFDAE0DEBFCDBF11E0A0E0CD
:10100000B1E0ECE5F6E602C005900D92AC32B10716
:10101000D9F729E0ACE2B1E001C01D92AB37B207CD
:10102000E1F717E0C8EFD7E004C02197FE010E9466
:10103000EF32C73FD107C9F70E94802D0C942C33A3
:101040000C940000DC0181E0ED91EE23D9F0E03258
:1010500099F0EE0FFF0BEE50F14F25913491932F45
:10106000969596959F7151F495E0369527959A95AA
:10107000E1F72F7192E019F491E001C093E09F5FD6
:10108000890FE2CF08959091AD01911103C08FEFC8
:101090009FEF08954FB7F89492E09093E9009091F4
:1010A000F200292F30E01216130614F421E030E08C
:1010B000232B31F0289884E68093AC018091F100D5
:1010C000992339F02091F200211103C02BE62093DF
:1010D000E8004FBF9923D9F290E008952FB7F89414
:1010E00083E08093E9009091E800892F807295FF5A
:1010F00004C09091F20080E4891B2FBF0895809175
:10110000A40181110DC082E08093A00184E080934E
:10111000A1011092A3011092A20181E08093A40189
:1011200080EA91E00895A1E0B0E0E9E9F8E00C94EC
:1011300005336983DC01ED91FC910280F381E02DA0
:1011400041E050E0BE016F5F7F4F09952196E2E0DC
:101150000C94213383E08093E9008091F20088238E
:1011600019F08AE38093E8000895B8DF90E00895CD
:10117000FC018485958597FD05C02FEF3FEF3587EE
:101180002487089580CF0895CF93DF93EC018C8559
:101190009D8597FF03C077DF9D878C878C859D8514
:1011A000DF91CF910895FC018485958597FD0BC053
:1011B0009FB7F89482E08093E9008091F2009FBF8E
:1011C00090E0019608959FB7F89482E08093E9003B
:1011D0008091F2009FBF90E0089540914A015091A4
:1011E0004B01209148013091490142175307B4F453
:1011F0009091E8009570E1F39091E80092FD19C09C
:101200008093F10080914A0190914B0101968F7378
:101210009927892B19F48EEF8093E80080914A0179
:1012200090914B01019690934B0180934A0181E08C
:10123000089580E00895EF92FF920F931F93CF934C
:10124000DF93F82E192FE62E042F81E0860F880FEA
:10125000C4DF83E0C2DFCF2DD12FEC0EFD2EF11CB9
:10126000CE15DF0599F007FF0FC0FE018491B5DFB1
:10127000182F80E0B2DF812321968111F1CFCDB705
:10128000DEB7E6E00C941D338881F1CF81E0F7CF23
:10129000B0E0A0E0EEE4F9E00C940033D82E8A012F
:1012A000EB017B01E40EF51ECE15DF0551F0D7FEF4
:1012B0000EC0FE01849191DF21968111F5CF0FEFD1
:1012C0001FEFC801CDB7DEB7E7E00C941C3388816F
:1012D000F2CFA1E0B0E0EFE6F9E00C94033382E056
:1012E000898342E450E068EC7EE080E8D1DF07DFEC
:1012F000FC01028113810115110589F0D801ED91DE
:10130000FC910280F381E02DBE016F5F7F4FC80129
:10131000099597FD04C0F80100851185ECCF8981FE
:101320002196E4E00C941F33615030F02091F100DD
:10133000FC0120830196F8CF289884E68093AC01C5
:1013400008953FB7F8948091440190914501A09190
:101350004601B091470126B5A89B05C02F3F19F063
:101360000196A11DB11D3FBFBA2FA92F982F882725
:10137000BC01CD01620F711D811D911D42E0660F00
:10138000771F881F991F4A95D1F708958F929F92D2
:10139000AF92BF92CF92DF92EF92FF926B017C01EE
:1013A000D0DF4B015C01C114D104E104F104B1F0C0
:1013B000C8DF681979098A099B09683E734081056D
:1013C000910588F321E0C21AD108E108F10888EEFE
:1013D000880E83E0981EA11CB11CE5CFFF90EF9012
:1013E000DF90CF90BF90AF909F908F90089565E071
:1013F00070E080E090E0CACF0895B0E0A0E0E3E0C4
:10140000FAE00C94FD326C01B62EA72E7A01809181
:101410000B01882309F455C08091AD01882309F49C
:1014200050C080914F0180FF05C08091E000826034
:101430008093E000E70110E00AEF209711F41123F8
:10144000C9F14CDE811108C00150D9F161E070E0B2
:1014500080E090E09BDFF1CF8C171D0611F00CF0BF
:101460008C2F9FB7F89423E02093E9002091E800A7
:1014700025FD02C09FBFE1CFC81BD109EB2DFA2D7E
:10148000BE2EAF2E815020F021912093F100F8CF95
:10149000112329F08AE38093E80010E0EBCF8091DC
:1014A000E80085FDE7CF8AE38093E80011E020970C
:1014B00009F3F3CF5D9884E680934E011E141F0458
:1014C0003CF081E090E0F60193838283F12CE12CE3
:1014D000C701CDB7DEB7EAE00C9419338FB1809520
:1014E000807F669B88601C9B846008958EBD000091
:1014F0000DB407FEFDCF0895CF93C82F5C9881E20D
:10150000F5DF8C2FF3DF8FE38C0FF0DF5C9AE0EBDD
:10151000F1E081E0A0E0B4E000800EBC8111012C7C
:101520001197A0FDFDCF0192B9F70DB4CF910895A9
:1015300080E4E2CF089580E0DFCF089590E0880F47
:10154000991FFC01E654F94F2081206420838554C3
:10155000994FFC018081982F9F709330F9F018F417
:10156000923031F00895973041F1983059F1089553
:1015700082958F70E82FF0E033E0F695E7953A9585
:10158000E1F7E153F74F877021E030E001C0220F0F
:101590008A95EAF78081822B8083089582958F70E7
:1015A00090E00596FC0123E0F695E7952A95E1F792
:1015B000E153F74F87709927E7CF82958F7090E0BE
:1015C0000A96F0CF82958F7090E00E96EBCFFB01DC
:1015D00024916F5F7F4F222321F0FC012193CF01E3
:1015E000F6CF08951F93CF93DF93FC01E9016111BA
:1015F0000EC0BA01ECDF209731F020E2FC0120831D
:10160000BE010196E4DFDF91CF911F91089581E043
:10161000860F6AE00E94BC32882319F0805D8083C7
:101620003196905D908310E21183BA01CF0102964A
:10163000CEDFFC01209729F01083BE010196C7DFA1
:10164000FC01CF01019623E72083DDCFCF93DF9309
:1016500081110BC088E0EDEBF8E0DB0101900D9209
:101660008A95E1F7DF91CF91089525E0829FF001FF
:101670001124E650F94F848128E0829FC001112493
:10168000885C914FEB0130E020E0FC01E20FF31F9A
:10169000E491E9932F5F3F4F28303105B1F7E2CF56
:1016A00080E00895FC01108281E008958034C0F448
:1016B0006032B0F4E62FE695E695E69590E4E99F72
:1016C000F0011124E80FF11DE055FB4F677021E098
:1016D00030E001C0220F6A95EAF78081822B808377
:1016E00008959B0143E0369527954A95E1F7820FCF
:1016F000931FFC01808190E06770772702C0959569
:1017000087956A95E2F781700895E62FE695E6954C
:10171000E69590E4E99FF0011124E80FF11DE055F2
:10172000FC4F677081E090E001C0880F6A95EAF78E
:1017300080959081892380830895CF93DF93D0E0B3
:10174000C0E08091BB088C171D0681F17CF19E01E1
:10175000220F331FF901E558F74F9081692F6F77FA
:1017600022553E4FF901E453F94F80818F7723537F
:10177000394FF901208127FF03C0C7DF2196E1CF50
:1017800066956695669520E4629FF0011124E80F46
:10179000F11DE055FC4F977021E030E001C0220FB1
:1017A0009A95EAF78081822B8083E8CFDF91CF91F1
:1017B0000895FC019281E42F97FF19C0EE0F462F88
:1017C000469546954695E40FF0E09F7782E2989F14
:1017D000E00DF11D1124EB51F44F849190E06770FE
:1017E00002C0959587956A95E2F781700895F0E0BB
:1017F0008AE0989FE00DF11D1124E359F44F849184
:1018000090E0EECFCF93DF93EC01EA81E7FF0BC0CE
:10181000EF77D2E2ED9FF0011124EC51F44F849167
:10182000DF91CF9108958AE0E89FF0011124E459F7
:10183000F44FF5CFCF93DF93EC01EA81E7FF0BC0C4
:10184000EF77D2E2ED9FF0011124ED51F44F849136
:10185000DF91CF9108958AE0E89FF0011124E559C6
:10186000F44FF5CFFF920F931F93CF93DF93EC01CB
:10187000042F8881162F181BF980CE01DBDF181783
:1018800030F080E0CDB7DEB7E5E00C941E330F19E1
:10189000CE01B8DF0817A8F7402F612FCE0189DFEE
:1018A00091E08927EFCFCF93DF93E82FF0E0DF01BE
:1018B000AA0FBB1FED01C554D94F98819F70953079
:1018C00060F0EE0FFF1FE654F94F8F31A0F4228134
:1018D0003381219331938F5FF8CFA654B94F9C91F8
:1018E000292F2F7371F3215C2F73907C922B9C9383
:1018F000DF91CF9108958091F906807F8093F9065A
:10190000F7CFEAEFF6E030E020E09481992379F018
:10191000908198130CC09181961309C045E0429FB5
:10192000C001439F900D11248650994F08952F5F59
:101930003F4F35962032310541F790E080E0089521
:101940007091BB0830E020E0271700F5A901440F93
:10195000551FFA01E658F74F90819F77E82FF0E086
:101960009E171F0681F44558574FFA0190819F77C3
:10197000462F50E09417150631F4C901880F991FBE
:101980008658974F08952F5F3F4FDECF90E080E05D
:1019900008958034C8F46032B8F4962F96959695E1
:1019A000969540E4949F9001112420553B4F280FB9
:1019B000311DF901808190E0677002C0959587958F
:1019C0006A95E2F78170089580E008958034C8F444
:1019D0006032B8F4962F96959695969540E4949F2C
:1019E0009001112420553C4F280F311DF9018081B1
:1019F00090E0677002C0959587956A95E2F78170CF
:101A0000089581E00895B0E0A0E0E9E0FDE00C94E5
:101A1000FD320091FA061091FB06C02FC81BD12F92
:101A2000D61BDD0290011124CC02200D311D1124A2
:101A30002B3131050CF044C0AA24A394081730F0D0
:101A400091E0081301C090E0A92EA194CC24C39486
:101A5000161730F091E0161301C090E0C92EC19422
:101A6000E62EF82EC7FDC195D7FDD195BD2EB694B3
:101A7000DC2ED694F01202C0E116E1F0612F802F27
:101A8000A5DF81111DC0BC0EDD0E8B2D0B2C000CB3
:101A9000990BD817190609F014F40A0DBD1A8D2DEB
:101AA0000D2C000C990BC817190609F01CF71C0D1A
:101AB000DC1AE0CF81E0CDB7DEB7EAE00C94193351
:101AC00080E0F9CFA3E0B0E0E8E6FDE00C94FD3261
:101AD0009091FA068091FB061BEF180F2BEFD22E88
:101AE000D90E36E0F32EF80E46E0E42EE90E1F156F
:101AF00079F00D2D0E1551F0612F802F84DF882392
:101B000019F0612F802FD2DD0F5FF4CF1F5FEFCF71
:101B1000F12C8091BA08F81608F057C00F2D10E08C
:101B20008091BC0820E1829FC0011124B8018E532E
:101B30009A4FD7DD882311F0F394EBCFF801EE0F25
:101B4000FF1FE00FF11FE65EF74F80812181928138
:101B500089832A839B83C82ECE0101966BDEC80E33
:101B6000BA80CE0101964EDEB80EEA8093E016955B
:101B700007959A95E1F791E08F2D8770A92E01C006
:101B8000AA0C8A95EAF7EB14B8F6D980DC14D8F4DD
:101B90006E2D8D2DFEDE8823A1F04E2D6D2DCE01F4
:101BA000019660DE882369F0E091BC0880E1E89F3F
:101BB000F0011124EE53FA4FE00FF11F80818A29C2
:101BC0008083D394E3CFE394DECF2396EAE00C94B2
:101BD0001933B0E0A0E0EFEEFDE00C94FB32E62E0E
:101BE000C42F0091BA08202F30E0F901EE0FFF1F3B
:101BF000E20FF31FE65EF74F6083C18382832FE31A
:101C0000261730F480E0CDB7DEB7ECE00C94173344
:101C1000C032C0F783E0089F80011124065E174F91
:101C2000C80108DEC82ECE0CC801ECDD90E49C157E
:101C300048F3F82EFC0EE0E2EF1520F3DC2FDF1561
:101C400030F5DE2CDC1408F54D2F6D2DC8010ADEB1
:101C50008823C9F08BE6882E8CE0982E93E7A92E76
:101C60009CE0B92EF40138966491F40184916D0FD3
:101C70008D0DACDE882309F4C5CFFFEF8F1A9F0AC4
:101C8000A814B90479F7D394DDCFDF5FD8CF609182
:101C9000BA0870E08091BC0820E1829FC001112445
:101CA0008E539A4F1EDDD82ECF15A8F4DE2DDC15ED
:101CB00080F44C2F6D2FC801D5DD882341F06C2FA7
:101CC0008D2F23DDDD2019F06C2F8D2FEFDCDF5FF2
:101CD000EECFCF5FE9CF8091BA088F5F8093BA08CB
:101CE00081E091CF803440F5603230F5262F269583
:101CF0002695269590E4299F90011124820F932F19
:101D0000911DFC01E055FB4F208130E0209530957E
:101D100080559C4FFC018081282B677081E090E00A
:101D200002C0880F991F6A95E2F72823392381E0C2
:101D3000232B19F480E0089581E00895EEEAF1E0A4
:101D4000808191819C013695322F222737952795E6
:101D500028273927C901892F9927869528273927C8
:101D6000922F882782279327918380830895FF925B
:101D70000F931F93CF93DF93182F062FC6DCDEDF60
:101D8000843CC0F5C091BB08C032A0F5602F812F04
:101D9000D7DD892B79F5D0E0D1DFF82E6091BB0833
:101DA00070E08091BC0820E1829FC00111248A5319
:101DB0009A4F97DCCC0FDD1F882309F1602F812F0C
:101DC00075DCFE01E658F74F818180688183FE0152
:101DD000E658F74F1F7780818078182B1083602F8B
:101DE0006F7781818078682B61838091BB088F5FDA
:101DF0008093BB08CDB7DEB7E5E00C941E338FE2CD
:101E00008F1528F3FE01E658F74F808180688083A4
:101E1000602F812F4BDCDBCFCF93C82F8FDF8C1748
:101E200010F08C1BFCCFCF910895B0E0A0E0EBE167
:101E3000FFE00C94FF327C018B01C12C54E0D52EC5
:101E400080E4EADFD82F80E2E7DFC82F682F8D2FEC
:101E5000BDDD811151C08091B005D81305C08091BE
:101E6000B105C81709F448C08091B205D81305C060
:101E70008091B305C81709F43FC0EAEFF6E084810A
:101E8000882331F08081D81303C08181C817A1F164
:101E9000359687E0EA39F80791F7EAE9F7E08181BA
:101EA0008F7031F08281D81303C08381C81721F16C
:101EB000349688E0EA31F80791F75091BB0890E03A
:101EC00080E0851720F59C01220F331FF901E658A9
:101ED000F74F40814F776D2F70E04617170651F48A
:101EE0002558374FF90120812F776C2F70E0261786
:101EF000170611F00196E5CFF1E0CF1AD10809F0ED
:101F00009FCF80E0CDB7DEB7E8E00C941B33F7013C
:101F1000D083F801C08381E0F5CF0F931F93CF9357
:101F2000DF93EC018B01B801CE017FDF8823D9F369
:101F3000DF91CF911F910F910895B0E0A0E0E3EA07
:101F4000FFE00C940033D62E172FE82EF12C809151
:101F5000BC0820E1829FC0011124B70186549A4F2A
:101F6000C0DB811120C0012F0F70E701CC0FDD1FF6
:101F7000CC0FDD1FBE016356784FCE018456984FBB
:101F8000CCDF8091BC0820E1829FC0011124B70101
:101F900086549A4FA6DB811100E0107F102BC656A5
:101FA000D84FD8821983CDB7DEB7E7E00C941C3345
:101FB000CF92DF92EF92FF921F93CF93DF9300D0E7
:101FC0001F92CDB7DEB7182F6A01790119821A82E4
:101FD0001B826B83CE0101962DDC1EDF8983CE012F
:101FE000019610DC19DF8A83123019F1133019F1D0
:101FF0001130C9F01A824A816981CE010196D9DB7C
:102000008111E8CF8981F60180838A81F70180837D
:102010000F900F900F90DF91CF911F91FF90EF9055
:10202000DF90CF900895CE010196ECDB81508A833A
:10203000E2CF1982E0CFCE010196FCDB815089838B
:10204000DACF7CDE803420F484E0E6DE8058089528
:102050008CE0E2CE0895EF92FF920F931F93CF93FF
:10206000DF937C01FC01C0E0C193CF5F6C13FCCF18
:10207000D0E00D2F10E083E090E0C43011F084E058
:1020800090E0081719077CF48C2F8D1BC5DED70153
:10209000A80FB11DF701E00FF11F80819C91908383
:1020A0008C93DF5FE6CFCDB7DEB7E6E00C941D334F
:1020B000680F791FFC011192CF01E617F707D1F7DE
:1020C0000895E62FF0E0E753F74F20812032B0F477
:1020D00030E0220F331FF901E554F94F408142955A
:1020E0004F7090E04817190649F42654394FF9010A
:1020F00080818095881F8827881F089580E0089533
:10210000CF93DF93C82FD0E095E0899FF001112491
:10211000E450F94F808184FF05C064E080E0D1DFA6
:10212000882359F085E08C9FF0018D9FF00D1124DC
:10213000E650F94F6181808166DCDF91CF9108958F
:102140001F93CF93DF93182F90E00196EC01CC0FF3
:10215000DD1FC80FD91F2196D595C795D595C79571
:102160008C2F5ADE1F5F1C1B810FDF91CF911F91B7
:102170000895811143C08091C2082091CD0820327A
:10218000B0F430E0220F331F22553E4FF901E35FD8
:10219000FA4F9081907F903351F4245F3A4FF901C8
:1021A0002081922F9F739F5F27FF26C0891BAAEC77
:1021B000B8E04DEC58E02D912032C0F430E0220F11
:1021C000331FF901E654F94F6081962F2554394F9A
:1021D000F90120812F709F7367FF03C03EEF391B09
:1021E000932FECE0E80FE21B892F8E0F4A175B0755
:1021F00011F787FD80E00895890FD9CF95E0899F79
:10220000F0011124E650F94FE48188E0E89FF001E5
:102210001124E35CF14F8491ECCF811121C08091B6
:10222000C0082091CD082032B0F430E0220F331FD7
:1022300022553E4FF901E35FFA4F9081907F903233
:1022400051F4245F3A4FF9012081922F9F739F5FD1
:1022500027FF04C0891B87FD80E00895890FFBCF0D
:1022600095E0899FF0011124E650F94FE48188E060
:10227000E89FF0011124E55CF14F8491ECCF282F09
:1022800030E0E091BF08882381F095E0929FF00153
:10229000939FF00D1124E650F94FE48198E0E99FF7
:1022A000F0011124E65CF14FE49195E0929FD0019A
:1022B000939FB00D1124A450B94F9C9192FF04C07C
:1022C000F0E03196F595E79581111AC08091CD081F
:1022D0008032B0F490E0880F991F82559E4FDC0148
:1022E000A35FBA4F2C91207F203151F4845F9A4F25
:1022F000DC019C91892F8F738F5F97FF05C0E81BCE
:10230000E7FDE0E08E2F0895E80FFACFCF93C82FB6
:10231000B6DFC1111AC02091C9082032B0F430E0F4
:10232000220F331FF901E654F94F50814181952F57
:102330009F7357FF03C02EEF291B922F4F7023E08E
:10234000453009F421E0890F820F87FD80E0CF91AD
:102350000895811108C09091C3082091C8082917D9
:1023600080F4892F089595E0899FF0011124E650AB
:10237000F94FE48188E0E89FF0011124E25CF14F1D
:1023800084910895811122C08091C1082091CE08C6
:102390002032B0F430E0220F331F22553E4FF901B6
:1023A000E35FFA4F9081907F59F4245F3A4FF9012F
:1023B0002081922F9F7396959F5F27FF05C0891BF1
:1023C00018160CF081E00895890FFACF95E0899FE7
:1023D000F0011124E650F94FE48188E0E89FF00114
:1023E0001124E45CF14F8491EBCFFF920F931F9384
:1023F000CF93DF93D82FF62E0BE61CE080E0C82F9A
:10240000CC0FF8018491389664916F0D8D0F6ADCC2
:102410008C2B0F5F1F4FFCE003371F0781F7CDB7F1
:10242000DEB7E5E00C941E33982F962B907CB1F428
:10243000E62FE695E695E69590E4E99FF0011124F4
:10244000E80FF11DE255FE4F677021E030E001C05A
:10245000220F6A95EAF78281822782830895A3E09A
:10246000B0E0E5E3F2E10C94FC32182FF62EE42FF5
:10247000EE0FFF0BEE50F14F25913491822F8F71AB
:102480008983C90145E0969587954A95E1F78F7153
:102490008A83932F969596959F719B8303E0911164
:1024A00004C002E0811101C001E0CE0101965C018F
:1024B000902E910EF50181915F01EF2C882361F040
:1024C000C82ED12C80FF03C06E2D812FADDFE39489
:1024D000C60195958795F2CF1F5F1911EBCF802F1D
:1024E0002396EBE00C941833FF920F931F93CF9336
:1024F000DF93C82FD62FF22E8A01F801FF2049F072
:102500004491403274F0403231F4CE5F0F5F1F4F80
:10251000F4CF4081F6CF6D2F8C2FA1DFCF5FC80F96
:10252000F5CFCDB7DEB7E5E00C941E3321E0DCCF6C
:102530000895982F962B907CB9F4E62FE695E695B2
:10254000E69590E4E99FF0011124E80FF11DE255B2
:10255000FE4F677081E090E001C0880F6A95EAF74E
:1025600080959281892382830895B0E0A0E0EBEB0F
:10257000F2E10C94FE32D62EC42E7C01C0E0BD2CBC
:10258000BC0EF70181917F01DC2D882361F0082FBB
:1025900010E080FF03C06D2F8B2DCBDFC801959518
:1025A0008795DF5FF2CFCF5FC43049F7CDB7DEB795
:1025B000E9E00C941A331F93CF93DF93C82F162FA3
:1025C000D42F1C1728F06D2F8C2FB3DFCF5FF9CFDE
:1025D000DF91CF911F910895982F962B907CB1F4A5
:1025E000E62FE695E695E69590E4E99FF001112443
:1025F000E80FF11DE255FE4F677021E030E001C0A9
:10260000220F6A95EAF78281822B82830895B0E0D7
:10261000A0E0EDE0F3E10C94FE32B62ED42E8C0156
:10262000C0E0CB2CCC0EF8018491DD2D882361F025
:10263000E82EF12C80FF03C06D2F8C2DCDDFC7015C
:1026400095958795DF5FF2CFF8013596E491DD2D02
:10265000EE2361F0EE2EF12CE0FF03C06D2F8C2DE8
:1026600068DFF701F595E795DF5FF2CFCF5F0F5F8A
:102670001F4FC530B1F6CDB7DEB7E9E00C941A3381
:10268000B0E0A0E0E6E4F3E10C94FF32C42F022FA7
:102690006C01D42FD60FF60181916F01102F882382
:1026A00061F0E82EF12C80FF03C0612F8C2F94DFA6
:1026B000C701959587951F5FF2CFCF5FCD13EBCF05
:1026C000CDB7DEB7E8E00C941B33A4E0B0E0EBE656
:1026D000F3E10C940033162F042F292F22952F702D
:1026E0002983292F2F702A839C0194E03695279502
:1026F0009A95E1F72F702B838F708C83FF24FA94C7
:10270000F40EDD24DA94D60E4F2D6D2DCE010196F8
:102710002CDF4F2D612FCE01019627DFEE24E394AD
:10272000E10E4F2D6E2DCE0101961FDF402F6D2D36
:10273000CE0101961ADF402F6E2DCE01019615DFD6
:10274000202F412F64E0CE0101969ADF2496E7E026
:102750000C941C331F93CF93DF93D82FC62F142FC5
:102760001C1728F06C2F8D2F37DFCF5FF9CFDF914B
:10277000CF911F9108951F93CF93DF93C82F162FEA
:10278000D42F1C1728F06D2F8C2F26DFCF5FF9CFA9
:10279000DF91CF911F910895B0E0A0E0E2EDF3E169
:1027A0000C94FB32082F10E0C0E0D12F6C2F8D2F3E
:1027B00013DFDE5FD034D0F3CE5F81E01827C03462
:1027C000A1F7DD24DA9410E0B12EBB0C42E0942E88
:1027D0009D0CE12CC02FCE0DFE2CFF0C612F8C2FF9
:1027E00081DA882309F483C0612F8C2FEFD88823E6
:1027F00009F43FC0612F8C2FF8DDA82E8FEFA816AB
:1028000009F437C0D2E0DF0DCD2D9C1630F04C2FEF
:102810006D2F8F2DD0DECF5FF8CF882483948F0C5F
:102820006B2D882DD9DE30E1C32EECEFCE0ECC2DF2
:10283000D0E0FE01EF54F54F8491FE01EE54F54FC8
:102840009491EA2DE823E91303C06D2D882DC4DE91
:10285000FE01ED54F54F8491CC54D54FFE01C49147
:10286000EA2DE823EC1303C06B2D8F2DB5DEC110CC
:10287000DCCFE394F0E2EF12ADCF1F5FD92C103222
:1028800009F0A2CF10E08091BB08181708F03BC0F8
:10289000812F90E0880F991FFC01E658F74FC08107
:1028A000C7FB222720F98558974FFC01D081D7FB21
:1028B000882780F9822B29F5CF77DF776D2F8C2F32
:1028C00068D88823F1F0C01BCC0FDD0FDD24D39432
:1028D000DD0EFF24FA94FD0E82E0E82EEC0EDF14EC
:1028E00060F04F2D6E2D8C2F66DEF394F8CF61E0F3
:1028F0006F0D4B2D8F2D5FDEBCCF6D2F81E08C0FC8
:102900006BDE1F5FC0CFD091B105C091B0056D2FB8
:102910008C2F3FD8882361F0C01BCC0FDD0F41E026
:102920004D0F61E06C0F8C2F26DF6D2F8C2F54DE46
:10293000D091B305C091B2056D2F8C2F2AD8882372
:1029400071F08C2F801B880FCD2FCC0FD1E0D80FCA
:1029500041E04C0F6D2F0FDF6C2F8D2F3DDECDB77B
:10296000DEB7ECE00C9417330F931F93CF93DF93F4
:10297000082FC62FD42F122FFEDE412F6C2F802F51
:10298000FADE412F6D2F802FE5DE412F6D2F8C2F2A
:10299000E1DEDF91CF911F910F910895B0E0A0E0AB
:1029A000E4EDF4E10C94FA32DAEFD80F7AEFF72E77
:1029B000F60EE9EF9E2E960E0F2D10E0A02EA69497
:1029C000A694A69480E4A89E5001112491E0802F43
:1029D0008770892E01C0880C8A95EAF7ED2EC0E039
:1029E0009FE39E1508F474C0003208F071C0F50131
:1029F000E055FB4FEE0DF11D8081882109F068C084
:102A0000412F6C2F81E19BE002DEE394CB5FC13468
:102A100039F70F5F1B5F9394113481F6C12C8091BD
:102A2000BB08C81608F0E9C0AC2CB12CAA0CBB1C22
:102A3000F501E658F74FC081C7FDDDC0CF77EC2E1A
:102A4000ED1AECE0EE1508F4D6C0F501E558F74FA5
:102A500010811F77012F0F190D3008F0CCC0612FA6
:102A60008C2F0E94C90C1F5F81110DC0612F8C2F0C
:102A70000E94E60C8111BFC0612F8C2F0E94C90CEF
:102A8000882309F4B8C08E2D880F880FE80ED02E49
:102A9000DD0CDD0CD00E612F8C2F24D9811182C06A
:102AA0008091D40804E00D0D080F34E0832E8E0CC5
:102AB00099249A949E0CE11001C0912C1D2D0117B0
:102AC00008F472C0412F682D892D75DD1F5FF7CF87
:102AD000602F8E2D8ADC782E602F8E2D03D98111E8
:102AE0003BC0602F8E2D0E94030D882359F061E0BA
:102AF0008091D408833009F060E06E5F610F82E05E
:102B00008C0F6ADD692D8E2D0E94E60C882309F456
:102B10007CCF8FEF8C0F77FE8C2F76FE15C064E094
:102B2000762E7C0ED82EDD1CDD24DD1CD80EC12CAB
:102B30008091D4084FEF410FC81648F44C0D672D13
:102B40008D2D19DEC394F4CF53E0752EEACF480FD4
:102B5000672D8D2D30DD59CF412F6C2F81E19BE00A
:102B600056DDD12CC12CF601EF5FF44F8491F601B4
:102B7000E75FF44F9491E72DE823E9130BC02AE0B7
:102B80002C9DC0012D9D900D1124412F6C2F855E31
:102B9000944F3DDDAFEFCA1ADA0AB8E0CB16D10484
:102BA00011F733CF80E07ECF85010558174FD8014C
:102BB000EC91E7FBEE27E0F9F0E0EE0FFF1FE350AA
:102BC000F54F859194914D2D6E2D7FDDF80160813B
:102BD0006F778FEF8C0F0E94E60C882361F0C3E0C3
:102BE000CD0D4C2F6D2D8EEF8E0DB4DD4C2F6D2D38
:102BF00085E08E0DAFDDC39412CF8091B005C82F54
:102C0000CD1BCD30A8F46091B105162F1F191D30D2
:102C100078F40E94C90C882359F0412F440F440FC7
:102C2000410F6C2F660F660F6C0F88EC9EEF4DDD29
:102C30008091B205C82FCD1BCD30A8F46091B305AB
:102C4000162F1F191D3078F40E94C90C882359F0E3
:102C5000412F440F440F410F6C2F660F660F6C0F0E
:102C60008FEE9CE832DD0AE917E0F801C181CF70F0
:102C700011F18281E82EED1AFCE0FE15E0F0F8017A
:102C80006381D62EDF18FCE0FD15A8F00E94C90C68
:102C9000882389F0EC2FF0E0EE0FFF1FEB51F54F8A
:102CA000859194914D2D440F440F4D0D6E2D660F5F
:102CB000660F6E0D0ADD0C5F1F4F88E00A311807A2
:102CC000A1F60AEF16E0F801C481CC2339F1C13036
:102CD00019F0828184FD22C0D8018C91E82EED1A72
:102CE000BCE0BE15D8F0F8016181D62EDF18BD1505
:102CF000A8F00E94030D882389F0EC2FF0E0EE0F7E
:102D0000FF1FEF53F54F859194914D2D440F440FC4
:102D10004D0D6E2D660F660F6E0DD7DC0B5F1F4FCE
:102D2000F7E00A391F0779F68091BA0881111AC0B5
:102D3000C7E14C2F66E389E03EDCCF5FCB32C9F7B9
:102D400028E248E164E38AE00FDE49E265E38BE0D4
:102D500012DD49E269E185E3FDDC4CEA50E06EE119
:102D600081E1E4DBCDB7DEB7EDE00C941633CF9311
:102D70008091600083FF07C0F89487E78093000884
:102D800080930108FFCFC0913E01CC2341F08FEF2B
:102D90008C0F8C2380933E018C27CF9108952FB701
:102DA000F8948091400190914101A0914201B0912D
:102DB00043012FBF2FB7F89440914001509141013A
:102DC00060914201709143012FBF481B590B443061
:102DD000510528F421E023BF889513BEEBCF0E9454
:102DE0006E0A90913D018927E5E3F1E030E020E0B3
:102DF00041E0542F582371F150815F5F533010F53B
:102E00005083440F2F5F3F4F31962830310589F7AB
:102E1000C927C0933D01EDE2F1E081E02C2F28238A
:102E200021F020812150C1F02083880F319621E0CC
:102E3000E533F20799F790932C019095C923C0933D
:102E40003E0196CF1082C42B50E5D901A35DBE4F41
:102E50005C93D7CF1082D5CF28E22083282F2095EE
:102E60002F609223E2CF80E097DC0E949B0A80E2F1
:102E700093DC0E94980A7BDF8430E9F70895B0E084
:102E8000A0E0E5E4F7E10C940533AE01475F5F4F46
:102E90006F8178858D819E8103D0E2E00C9421338F
:102EA000A5E0B0E0E6E5F7E10C94F7323C015B0108
:102EB0008C01B5016F5F7F4FF5012491203451F0F3
:102EC000C8010196D8012C93222309F4D9C24A01E2
:102ED0005B0122C0B2E0AB0EB11CFB01F4904A01D1
:102EE000F2E08F0E911CDA01CD90DC90B3E6FB1678
:102EF00009F492C0BF15E8F1E0E5EF1580F0FFE4BA
:102F0000FF1608F0BFC021E4F21609F40DC18DE4EC
:102F1000F81609F4ABC0C801A4018C01CACF93E52F
:102F2000F916C8F3A4E5AF1508F0ACC0B6E5FB127E
:102F3000F2CF25E0C29EF0011124E650F94FE48063
:102F40004A0184E0880E911CFA0162817381C801F4
:102F50000E94E70AF1E0EF16F9F226E7F21204C048
:102F600025E6DC012C93019623E7FC0120830196E2
:102F7000D3CFE3E7FE1609F46CC0EF1508F440C0A8
:102F8000F9E6FF1609F4DFC020E7B601F21609F4EE
:102F900075C084E6F812BFCF9601207833278DE202
:102FA000C7FE8BE278019FEFE91AF90AD8018C93EA
:102FB000232B11F0C194D12C20E041E0420F30E0EE
:102FC0008E010F5F1F4FF801E20FF31FC6016AE089
:102FD00070E00E94C83280836B01672B09F04EC2FB
:102FE0002F5F3F4FF801E20FF31FC70101962291B7
:102FF000205DD7012C937C010E171F07B1F78CCFF2
:1030000096E7F91609F495CFA8E7FA1651F0B5E757
:10301000FB1281CF7801D0CFC8010196F801C082A0
:103020007BCFF601B4E0F595E795BA95E1F7EF703F
:10303000FF27EE51F24FE491D801EC93F601EF70C7
:10304000FF27EE51F24F2491C8010296F801218327
:1030500063CFF801CF01D601A01BB10BAE0FBF1F8C
:103060002C91222309F458CF2193F4CFF601FF27A6
:10307000EE0FFF1FE254F24F65917491C8010E9458
:10308000E70A4ACFC982FF2DF170EF2EC11015C09B
:1030900022E589E52F150CF089E7D8018C938FE69E
:1030A000F801818385E78283C801EE2011F0039641
:1030B00033CF049622E723832FCF8C2D21D888236A
:1030C00029F1F2E5FF15FCF467EB70E025E0C29E04
:1030D000F0011124E650F94FF480C8010E94E70A7C
:1030E000EF2DF0E0EE0FFF1FE254F24F6591749167
:1030F0000E94E70AE11010CF27E2FC01208323E7BA
:103100002183029609CF6CEB70E0E0CF82E593E576
:103110008F150CF093E798012F5F3F4FD8019C93D8
:1031200061EC70E0C901E4CF25E0C29EF0011124FA
:10313000E650F94F8481813019F46AEC70E09ECF3B
:103140006EEC70E09BCF8D2D8F70482EED2CE294AD
:103150006FE0E6229C2D9F73F92E5C2CEC2DE07C19
:10316000E03C31F461ED70E0C8010E94E70A8C0197
:10317000EFEFE40DEB3008F0CECEF0E0EE53F74E7B
:103180000C94EF32CD18D119081AD618D918D918BD
:1031900021197B1904190419041949ED50E030E094
:1031A00020E06F2DC8010E94F20AA3C045EE50E056
:1031B000F6CFA6E04A1225C06BEE70E0C8010E946F
:1031C000E70A8C0156FEA7CE57FE03C08EEF8F197B
:1031D000F82EB5E083E04B1201C081E021EF30E032
:1031E000F80E1F92FF923F932F931F930F9347DE8A
:1031F000080F111D0F900F900F900F900F900F90D0
:103200008ACE6BEF70E0DACF842D8950990BFC01E8
:10321000EE0FFF1FE854F24F65917491C8010E94B0
:10322000E70A8C0156FE77CE57FE03C08EEF8F194A
:10323000F82E2FEF30E08F2D8419845F1F928F932B
:10324000D2CFCE2CD12C9601265F3F4FF90143E01F
:10325000F695E7954A95E1F7E153F74F808190E0C5
:103260002770332702C0959587952A95E2F780FF4E
:103270002EC069E071E0C8010E94E70AF601EE0F76
:10328000FF1FE055F24F659174910E94E70A8C018F
:1032900056FE41CE82E191E057FC11C0F394A2E0CA
:1032A000EA1679F0B3E0EB1679F0E1E0EE1202C035
:1032B00083E191E01F92FF929F938F9396CFF094BA
:1032C000EECF8DE191E0F6CF87E291E0F3CFF6010A
:1032D000EE58F64FE081F0E0EE0FFF1FE855F24F99
:1032E00065917491C8010E94E70A6DE271E00E9445
:1032F000E70A8C0110CECE2CD12C9601225F3F4FD5
:10330000F90183E0F695E7958A95E1F7E153F74FE8
:10331000808190E02770332702C0959587952A9584
:10332000E2F780FF2DC063E371E0C8010E94E70A65
:10333000F601EE0FFF1FE256F24F659174910E9465
:10334000E70A8C0156FEE7CDE110E5CDF6948F2D0E
:1033500090E001964DE257FE4BE22EE331E09F9361
:103360008F931F924F933F932F931F930F9387DD5C
:10337000080F111D0FB6F894DEBF0FBECDBFCBCD29
:10338000F601EA58F64FE081F0E0EE0FFF1FE85536
:10339000F24F65917491C8010E94E70A6AE471E0F6
:1033A000A6CFCE2CD12CF60173E0F695E7957A9551
:1033B000E1F7E153F74F808190E02E2D277002C096
:1033C000959587952A95E2F780FF14C042E551E074
:1033D00030E020E06F2DC8010E94F20A69E571E03B
:1033E0000E94E70AF601EE0FFF1FEC56F24F6591BF
:1033F00074917DCF2EE531E0F601E859F64FE0817A
:10340000F0E0EE0FFF1FE657F24F45915491C9CE01
:10341000CE2CD12C96012B5F3F4FF90143E0F6955E
:10342000E7954A95E1F7E153F74F808190E02770E7
:10343000332702C0959587952A95E2F780FF12C041
:1034400045E651E030E020E06F2DC8010E94F20A0D
:103450006CE671E00E94E70AF601EE0FFF1FE058EC
:10346000F24FC5CF21E731E0F601E359F64FE08195
:10347000F0E0EE0FFF1FEA58F24FC7CF242F9DCD8B
:103480008619970981502596E0E10C941333A0E446
:10349000B0E0EDE4FAE10C940533AE01475B5F4F19
:1034A00029966EAD7FAD2997CE010196F9DC20E01B
:1034B000AE014F5F5F4F27966FAD279726968FAD72
:1034C000269712D8C05CDF4FE2E00C942133CF93F3
:1034D000C82F44E55DE060E029D84091AE015091ED
:1034E000AF012091B4053091B50588E791E0BA01AC
:1034F00077277F936F931F925F93A90155275F935F
:103500004F931F923F939F938F9386E08F93CF9318
:10351000BEDF2BE739E08DB79EB70C960FB6F89457
:103520009EBF0FBE8DBF80E0F9014DB75EB7421759
:10353000530740F02F5F3F4F9081953A19F48F5F0A
:103540008F3F91F728E831E01F928F933F932F939D
:103550008CE08F93CF939BDF0F900F900F900F9085
:103560000F900F90CF91089580E0B1DF0E949B0AE9
:1035700080ECADDF0E94980AFADB8430E9F7089509
:10358000CF93C091D4088091D40883708093D408DD
:103590006091FB068091FA0601DA0E949B0A4BE4D7
:1035A0005DE061E084E10E94961282E991E0209161
:1035B000D4081F922F939F938F9389E08F9383E07A
:1035C0008F9365DF0E94980AD2DB0F900F900F90C7
:1035D0000F900F900F909091D4089150803229F065
:1035E000803429F49091D4089F5F9093D408982F49
:1035F0009C7009F4C8CF843011F4C093D408CF91E3
:103600000895E5EAF1E09E2F3F2F421304C0EDEA52
:10361000F1E09E2F3F2FA42FA21BBB0BFD01FF93B8
:10362000AF931F924F933F939F936F938F932FDF8F
:103630008DB79EB708960FB6F8949EBF0FBE8DBF8C
:1036400008950F931F93CF93DF93D82F40EB51E052
:1036500060E08EE18D0F0E94961246E06FE380E0FD
:103660008AD80BE31DE0C9E0F801459154916C2F15
:103670008D2F0E949612CA5F0E5F1F4FC933A1F7AC
:1036800083EC91E02091B7052F932091B6052F93FD
:103690009F938F9389E08F93C8E2CD0FCF93F7DE8E
:1036A00026EC31E08091D30890E001969F938F93B0
:1036B0003F932F938FE08F93CF93E9DE1091C30850
:1036C00080E00E94A911212F482F65E18C2F99DFFE
:1036D00080E00E943F11182F2091BF08482F6BE116
:1036E0008C2F8FDF0091C00880E00E940D11202FE9
:1036F000482F61E28C2F85DF80E00E948611212F08
:10370000482F67E28C2F7DDF1091C20880E00E9475
:10371000B910212F482F6DE28C2F73DF1091C10853
:1037200080E00E94C211212F482F63E38C2F69DFB4
:1037300049EC51E069E086E48D0F0E949612809179
:10374000FC062DB73EB7245F3F4F0FB6F8943EBF3F
:103750000FBE2DBFC9E080FF08C042ED51E06FE011
:103760008BE48D0F0E949612CFE08091FC0681FFC2
:1037700008C04BED51E0CA5F6C2F8BE48D0F0E94A7
:1037800096128091FC0682FF08C045EE51E0CA5FA8
:103790006C2F8BE48D0F0E9496128091FC0684FFA3
:1037A0000DC04EEE51E066E06C0F8BE48D0F0E9471
:1037B0009612DF91CF911F910F910895C930C9F7EB
:1037C00048EF51E06FE0F1CF80E03BDF0E949B0AC1
:1037D00080EC37DF0E94980ACADA8430E9F708954E
:1037E000B0E0A0E0E6EFFBE10C94FE32E82EEA0147
:1037F000F22EAB0160E00E94961247E06FE380E09A
:103800000E94BB131AE085E28F1508F454C0FE0134
:10381000EF0DF11DD0809FEFD91609F44CC08FE158
:103820008D1508F438C0E9ECF8E08191D81609F458
:103830004CC098E0EF3CF907C1F78DEF91E0ED2D1A
:10384000F0E0EE0FFF1FE654F94F21812F93208106
:103850002F939F938F931F9387E08E0D8F9317DE87
:103860000F900F900F900F900F900F900F1123C09B
:1038700095E0B92EB10EDD24DA94D10EBD14D8F046
:10388000C12C6D2D8C2D0E941412C39480E4C8129B
:10389000F8CFD394F3CFE1100EC08D2D8052990B49
:1038A000FC01EE0FFF1FEB5FF24F45915491612F2A
:1038B00080E00E9496121A5FF394103409F0A3CFAF
:1038C000CDB7DEB7E9E00C941A3343E2612F81E013
:1038D0008E0D0E942F12B1CFA7E2B0E0E2E7FCE12B
:1038E0000C94FB325C0110E0DE0111967D01AD010C
:1038F0004F5F5F4F80E2810F8C93CA0130E020E080
:10390000F901EE0FFF1FE554F94FE081EF70E60F6C
:10391000F72FF11DE491E11303C0FC012083019610
:103920002F5F3F4F2032310559F78417950709F073
:10393000DC011F5F1630D9F66D01CE18DF088C2C24
:10394000CE018896A817B90718F48FEF8D93F8CF9A
:10395000912C11E0012F292DA701B50180E040DF56
:103960000E949B0A292DA701B50180EC39DF0E9436
:10397000980AFDD9843009F442C0883051F4F70127
:10398000E10FF11D8081A796ECE00C941733182FFE
:10399000E1CF8031E9F42C2D2150330B121713069F
:1039A0004CF581E0810FF701E80FF11D9081903215
:1039B00010F082E0810F292D30E0285F3F4F821701
:1039C000130609F0CCF4891510F79DEF990EFBCF83
:1039D000803871F48FEF123048F0810FF701E80F53
:1039E000F11D9081903238F38EEFE4CF880DE3CF54
:1039F000812FE1CF81E0E7CF33E0930EDCCF8FEF73
:103A0000C2CFCF93DF93EC0180E092E06FE27DE0E4
:103A100063DF803238F493E09883898381E0DF911B
:103A2000CF91089580E0FBCF81E192E06FE27DE0ED
:103A300053CF0895CF93DF93EC018BE192E06FE2D7
:103A40007DE04ADF803238F491E09883898381E019
:103A5000DF91CF91089580E0FBCFA6E0B0E0E3E3F3
:103A6000FDE10C94FB32C82EB62E4BE252E060E032
:103A70008EE28C0D0E94961246E06FE380E00E9479
:103A8000BB1305ED18E04BE0E42ED12CF801828148
:103A900081110CC0D394F7E0EF0E0C5F1F4F27E2AB
:103AA000E212F4CF2696ECE00C941733282F215025
:103AB000330BF901EE0FFF1FE550F34F8591949101
:103AC000F80123811F922F939F938F93EF92CF92B0
:103AD000DEDC87E392E0F80121812F9320812F9390
:103AE0009F938F939E012F5F3F4F49013F932F93E9
:103AF000C6D9982F990F990F20E0A4016E2D8FE75A
:103B00008C0D891B0E9474120FB6F894DEBF0FBE95
:103B1000CDBFBD10BFCF87E0B89E802D112490E1AE
:103B2000992E980E2AE0F22EF80E9F1408F4B2CFC8
:103B3000A12C6F2D8A2D0E941412A39490E4A91237
:103B4000F8CFF394F2CFCF93C82F682F81E085DFB1
:103B50000E949B0A6C2F81EC80DF0E94980A07D993
:103B60008430E9F7CF9108958FEFEDCF0895CF938B
:103B7000DF932AE332E08091BC0890E001969F93A6
:103B80008F933F932F931F92D1E0DF9380DC8BE4E0
:103B900092E09F938F93C6E0CF93DF9378DC8EE41F
:103BA00092E09F938F93CF9381E28F9370DC80E0BC
:103BB0000E94A911C82FD091FD0629E047E06AE1D3
:103BC00089E00E94B4148DB79EB70E960FB6F89494
:103BD0009EBF0FBE8DBFCC2351F020E1D29FC0010C
:103BE000112408966C2F70E00E94C832C62F69E03D
:103BF0006C0F48E08AE00E94BB13C091D308CF301D
:103C000008F0CFE0D091C40829E047E06AE389E2F8
:103C10000E94B41420E1D29FC00111240896C295DD
:103C2000C07FC65F6C2F70E00E94C832675D48E0BD
:103C30008AE20E94BB13DF91CF910895FF920F9308
:103C40001F93CF93DF938C01EB0191DFAE016DE108
:103C500085E00E94961241E552E063E285E00E9411
:103C60009612C8E180E2F82EFC0ED9E4DC1B4F2D41
:103C70006D2F8C2F0E94AA134F2D6D2F8FE38C1B5D
:103C80000E94AA139BE0F92EFC0ED4E3DC1B46E154
:103C90004C0F6F2D8D2F0E94BB1343E54C1B6F2DD6
:103CA0008D2F0E94BB13C150C431E1F60E94980AC7
:103CB0005ED88032A9F020F4803151F080E00BC052
:103CC000803491F08038D1F7F801108281E003C090
:103CD00081E0F8018083CDB7DEB7E5E00C941E33B8
:103CE00082E0F8018083F2CF83E0FBCF25E0FC0186
:103CF0002193CF0164E27DE0A1CF0895A1E0B0E07F
:103D0000E4E8FEE10C9403331091FA060091FB06FF
:103D1000602F812F0E94CE140E949B0A62E672E0FF
:103D2000CE0101968BDF882301F1298130E0F90172
:103D3000E259F24FE49184E0E802F00111241E0FF1
:103D4000F901EE58F24FE49184E0E802B001112449
:103D5000600F17FD10E067FD60E0103408F01FE30E
:103D6000062F6032A8F20FE1D3CF2196E4E00C9445
:103D70001F33EF92FF920F931F93CF93DF93F7DEE2
:103D8000C0E00DE1D1E080916509C81728F58C2FBE
:103D900090E09C012B51374F7901C9010E94220804
:103DA000182F2D2F280F3327331F2134310514F0FE
:103DB0000A5FD1E020E0A701602F8D2F0E947412CE
:103DC0001E5FD10FEC2FCF5FF0E0EB51F74F8081FA
:103DD000EC2F8111F8CFD7CFCDB7DEB7E6E00C944A
:103DE0001D336091FB068091FA060E94CE140E945A
:103DF0009B0ABFDF41E752E06BE38BE20E94961221
:103E00000E94980A0E94B7168830E1F7109265095F
:103E100081E0809366098DE1809367090895A0E8A9
:103E2000B0E0E5E1FFE10C94FD32AE0143575F4F96
:103E3000FA0161917191AF01CE0101967C0130D8F8
:103E4000F701AE2EAE1881918111FBCF10E0F70182
:103E5000E10FF11D1F5F80818132CCF7108200E0FD
:103E600080916509810F801B813808F0BADFC02E70
:103E7000D12CC7018C0D9D1D0E942208B82E809167
:103E800067098B3340F0809166098B0D9927991F44
:103E90008B970CF0A6DFD701AC0DBD1D011768F4A0
:103EA000E091650981E08E0F809365098D91F0E0C6
:103EB000EB51F74F80830F5FF1CF809166098B0D37
:103EC0009927991F8134910544F081E08093660918
:103ED000809167098A5F80936709809166098E5F88
:103EE0008B0D809366091A1560F4812FF701E80F96
:103EF000F11D8F5F90819132CCF71082012F182F26
:103F0000AFCFC058DF4FEAE00C941933CF93DF9363
:103F1000282F30E0A901440F551FFA01E554F94F4D
:103F200090819F70973010F568E772E0962F672FA9
:103F30004654594FFA01408147FF1BC043E852E005
:103F4000220F331FF901E654F94F81818F9380814D
:103F50008F936F939F935F934F9361DF0F900F90B9
:103F60000F900F900F900F9080E024C060EA72E0F5
:103F7000DDCF49EC58E0EA014F5F5F4F788178135D
:103F80001CC049EA52E0220F331FF901E654F94FF1
:103F900081818F9380818F936F939F935F934F93D2
:103FA0003EDF8FEF88830F900F900F900F900F9050
:103FB0000F9081E0DF91CF910895F8E04F3C5F07CB
:103FC000D1F6D2CF0F931F93CF93082F10E095E037
:103FD000899FF0011124E450F94F908192FD1EC099
:103FE0000E948010882379F088EB92E01F920F9353
:103FF0001F920F939F938F9312DF0F900F900F904C
:104000000F900F900F9085E0809FF001819FF00D41
:104010001124E450F94F808184608083CF911F91F7
:104020000F9108950F931F93CF93C82F811106C04E
:1040300065E081E00E94611081112FC00C2F10E01B
:104040008C2F0E9480108823A9F028EC32E08FEC9E
:1040500092E03F932F931F92CF931F92CF939F9302
:104060008F93DDDE8DB79EB708960FB6F8949EBF8E
:104070000FBE8DBFC11106C00E949E0E83708C5F63
:104080008093C60885E0809FF001819FF00D112488
:10409000E450F94F808181608083CF911F910F910F
:1040A0000895CF92DF92FF920F931F93CF93DF93E8
:1040B000C82FD62FC82ED12C0E94A911182F85E009
:1040C0008C9DF0018D9DF00D1124E650F94F8381F8
:1040D000811718F5D33048F58FED92E0082FF92EAF
:1040E000C11126C089EE92E0FF920F939F938F93A8
:1040F00096DE0F900F900F900F9085E08C9DF00151
:104100008D9DF00D1124E650F94F6381212F261B60
:10411000330BD21713060CF11383DF91CF911F914C
:104120000F91FF90DF90CF9008958CEF92E0D6CF63
:104130008C2F0E948010882301F38DEF92E0FF9274
:104140000F931F92CF939F938F9369DE0F900F90E1
:104150000F900F900F900F90D0CF6D0F6383DDCF36
:1041600095E0899FF0011124DF01A450B94F9C9183
:1041700092FF0BC09B7F9C93811107C080E193E06D
:104180009F938F934CDE0F900F900895CF93DF9302
:10419000C82FE62FF0E083E0F695E7958A95E1F7E2
:1041A000E153F74F262F277081E090E0AC0102C069
:1041B000440F551F2A95E2F78081842B808362305B
:1041C00089F138F46623D9F0613049F1DF91CF915C
:1041D0000895633051F16430C9F7C11106C00E94DF
:1041E0009E0E8F70845F8093C50885E0C89FF001A4
:1041F0001124E450F94F808180618083E7CF8C2FB8
:104200000E94A911D82F86950E940C0FD695D6959D
:104210006D2F680F8C2F45DF8C2FA2DFD7CF8C2F0F
:1042200001DFD4CF8C2FCEDED1CF55E0C59FF0017A
:104230001124E450F94F808182FDEECFC111C6CF29
:1042400087E293E09F938F93EADD8091BF088F5FB1
:104250008093BF080F900F90B9CFA1E1B0E0E3E3E6
:10426000F1E20C94FA32182F4B01A82EB12CFB016D
:1042700081818370898B8081882321F185E08A9DEB
:10428000F0018B9DF00D1124E450F94F808181FFE6
:104290000AC0112311F011E070C38AE393E09F93E9
:1042A0008F93BDDD89C180FF0DC00E949E0E83707B
:1042B000898B111107C08DE493E09F938F93AFDD3D
:1042C0000F900F90298930E0F901E259F24F749074
:1042D000F901EE58F24F049125E02A9DC0012B9D73
:1042E000900D11249C012650394F7901D901EC9190
:1042F0007E0EF9018181080F602F872D0E94810CAD
:104300006C01BE01675F7F4F812F0E94260BD40195
:104310008C91833009F44FC238F4882309F41FC20A
:104320008130E9F110E029C3853009F44BC108F46C
:10433000A7C28630B9F7602F872D0E94A00CFC0120
:10434000892B09F460C1818187FD5DC1908197FD52
:104350005AC19A8591FF57C180688183A091BC089A
:1043600020E1A29FD0011124AA53BA4FEA57F84086
:10437000F595E795CF01992723E0969587952A959E
:10438000E1F7A80FB91FE770FF2721E030E001C077
:10439000220FEA95EAF78C91822B8C937CCFF40163
:1043A000C180EC2CF12CF701EE0FFF1FE554F94F03
:1043B0008081182F12951F708F70D82EF3E08F1701
:1043C00009F44DC0F81750F022E08213ABCF8C2DCA
:1043D0000E94530C612F80E0D9DE5DCFABEFA80FB8
:1043E000E9ECF8E0A73008F09DCF8191C81609F4F8
:1043F000C9C238E0EF3CF307C1F7B0E0A45FBE4F9D
:104400000C9110E00753174FD8018C91803220F4A3
:104410007DDD882309F486CF8C2D0E949E0AF7014A
:10442000EE0FFF1FE654F94F46E04D1508F4C7C0E4
:104430008FE593E09C0185E693E041814F934081B5
:104440004F933F932F939F938F93E9DCD801CC92A6
:104450000F900F900F900F900F900F901CCF8C2DFE
:104460000E94530C812F90E00596FC0173E0F695B5
:10447000E7957A95E1F7E153F74F8770992721E0A7
:1044800030E001C0220F8A95EAF78081822B808379
:10449000123009F458C0E0F4112309F42AC0113095
:1044A00009F0F9CE84E793E06FE27DE015DA80321F
:1044B00060F4E82FF0E08F01000F111FD801A55420
:1044C000B94F8C918F708530F0F488E893E0E7CE97
:1044D000133009F464C0E0EBF4E0143009F0DBCEF3
:1044E0008FEF819325E0E03BF207D1F789E993E074
:1044F000D6CE80EC93E06FE27DE0EED9803228F7F3
:104500000E949E0AC8CE85ED93E0EE0FFF1FE65491
:10451000F94F21812F9320812F939F938F937FDCDD
:10452000F801E654F94F8081982F9F730F900F90F8
:104530000F900F909F3309F4AECE9F5F9F73807CE6
:10454000892B8083A8CE85EF93E06FE27DE0C4D90C
:10455000803208F0BACF282F30E0D901AA0FBB1F54
:10456000CD018554994FFC0180818F70853008F40E
:10457000ACCFA654B94F8C9187FFA7CF80748C9392
:1045800089E094E0FD0121812F932C912F939F933B
:104590008F9345DC0F900F900F900F907CCE6BEFB8
:1045A00076E08AEF96E00E948D0F8AE294E09F9376
:1045B0008F9335DC80E036DD0F900F906CCE81E577
:1045C00094E038CF602F872D0E94A00CFC01892B2E
:1045D000B9F0808187FD14C0918197FD08C088E5FE
:1045E00094E09F938F931BDC0F900F909BCEC11490
:1045F000D10419F084E794E0F4CF9F7791834BCEF8
:1046000089E894E0EECF602F872D0E94E60C81119F
:1046100089CEC114D10409F497C0C6018A5F9640BF
:104620002DEC3CEC829F6001839FD00C929FD00CBC
:1046300011249C2C812F0E940D11F82E8C2D0E948C
:104640000D11082F8F2D880F800F0E940C0F782ED0
:104650007601FF248C2D0E948010882E701608F0A1
:1046600098C18823A1F020EA34E085EA94E0FF9223
:10467000EF923F932F931F921F931F921F939F932D
:104680008F93CDDB0FB6F894DEBF0FBECDBF1111F7
:1046900002CE81C18FEA94E09F938F93C0DB0F908D
:1046A0000F9004C29719938329C2E00F92C2911010
:1046B00037C0898185FF34C00E949E0E883208F081
:1046C0002FC08CEC94E01F921F939F938F93A7DBD6
:1046D0008091C8088D5F8093C80880E00E94A9116E
:1046E0009091FD060F900F900F900F90891708F48E
:1046F000982F9093FD06911113C023EE34E087EEBE
:1047000094E03F932F931F921F921F921F929F93AB
:104710008F9385DB0FB6F894DEBF0FBECDBFBBCD48
:10472000898186FF06C00E949E0E883210F48C2D6F
:1047300079DC898184FFAFCD0E949E0E843108F020
:10474000AACD8C2D3FDCA7CD85E08A9DF0018B9D05
:10475000F00D1124E650F94F708201839CCD1111A8
:104760009ACD0EE61DE062E7C62E6DE0D62EF8016A
:10477000949134966491E091FB066E0F8091FA0655
:10478000890F0E94A00C7C01009779F0DC018C91CC
:1047900087FF0BC08EEE94E09F938F9340DBF70171
:1047A00080818F7780830F900F900F5F1F4FC0160F
:1047B000D106E9F670CDF4018181E82FF0E0EE0F2B
:1047C000FF1FE654F94F00811181183461F487E02E
:1047D00095E01F930F939F938F9321DB0F900F9082
:1047E0000F900F909FCD86E295E01F930F939F93BC
:1047F0008F9315DBF701918120810F900F900F901F
:104800000F90812F8F70853000F5EAE9F7E0818104
:10481000181316C080818F738F3309F08F5F8F73E9
:104820009081907C892B8083F4018181E82FF0E0D6
:10483000EE0FFF1FE654F94F8181807F81832BCDDE
:10484000349638E0EA31F30711F7EAE9F7E08181BD
:104850008F7029F42283938300831183E5CF3496EC
:1048600048E0EA31F40799F787E395E01F930F9347
:104870009F938F93D4DA0F900F900F900F90D4CF17
:1048800066E475E0CE014196D9D9182F882309F442
:1048900074C0898990E0FC01E259F24FD490FC0188
:1048A000EE58F24F0491F4018181282F30E0220F5D
:1048B000331FF901E654F94FB080C1802554394FB8
:1048C000D9016C91A62EA2942FE0A2220E94530C33
:1048D000BB2DB07CBB2EF7018080918038E0732E19
:1048E0008D0C900E692D882D0E94E60C811133C02D
:1048F000692D882D0E94810C009751F1FC012281C5
:10490000286022838A5F96402DEC3CEC829F7001E8
:10491000839FF00C929FF00C112427E435E0FC2DCE
:10492000FF70CF2E8A2D8295807FC82AC7019927D4
:104930009F938F93CF92BF923F932F9370DA6A2DFC
:104940008E2D24DC0F900F900F900F900F900F90F2
:104950007A947110C5CF87E595E06A2D6295607FE6
:104960002C2D2F70C22EC62ACF92BF929F938F9369
:1049700056DA0F900F900F900F90812F6196EDE017
:104980000C9416338C2DC2DA182FF7CF772473943A
:1049900035C011110EC085E08E9DF0018F9DF00D88
:1049A0001124E450F94F808188608083701608F4E8
:1049B00072CC812F0E948611082F8C2D0E94B91075
:1049C000782E802F0E94A010082F872D0E94A01003
:1049D000202F269530E0009F200D311D11242F5FE0
:1049E0003F4FA02FA80FBB27BB1FBD016F5F7F4F9D
:1049F000C9010E94DC32762E662341F28820A1F0A4
:104A000028E635E08CE695E0FF92EF923F932F93F6
:104A10001F921F931F921F939F938F9300DA0FB6DD
:104A2000F894DEBF0FBECDBFBE016F5F7F4F812FF9
:104A30000E94260B85E08E9DF0018F9DF00D1124C4
:104A4000E650F94F048191100DC094E09093B805A1
:104A50008A9DF0018B9DF00D1124E650F94F848161
:104A60008093B9058C2D0E94801095E09E9DF001E9
:104A70009F9DF00D1124E650F94F9381791608F4AB
:104A800011CE882309F406CE26E735E08AE795E0C3
:104A90003F932F93FF92EF92FF92EF929F938F930A
:104AA000BED90FB6F894DEBF0FBECDBF85E08E9D98
:104AB000F0018F9DF00D1124E650F94F13821482FE
:104AC000A091BC0830E1A39FD0011124A254BA4F99
:104AD000C70173E0969587957A95E1F7A80FB91FFE
:104AE00097012770332781E090E0AC0102C0440FAA
:104AF000551F2A95E2F78C91842B8C9385E08E9D2F
:104B0000F0018F9DF00D1124E650F94F8481811141
:104B1000CECD1111C0CB58E0059FF0011124E15C0E
:104B2000F14F04918091D3081FE08F3008F4182FC3
:104B30001295107F165FE091C408212F30E0E02E1F
:104B4000F12C2E193F09E217130609F00CF4ADCD34
:104B50008F5F8093D30821E835E090E001969F9322
:104B60008F933F932F935BD98091C3088C5F809381
:104B7000C3088091D3080F900F900F900F9084314D
:104B8000F8F48370823061F48AE995E09F938F9303
:104B900046D98091BF088F5F8093BF080F900F9018
:104BA0008091D308837061F48DEA95E09F938F9391
:104BB00036D98091C0088F5F8093C0080F900F9006
:104BC00080E00E94A9118093FD06E091C408E00FE7
:104BD000E11BE093C4088091B6059091B705E80EFB
:104BE000F91EF092B705E092B60555CBA2E1B0E010
:104BF000ECEFF5E20C94FC32C82ED12C95E0899FA5
:104C000070011124F701E650F94F9481992309F4BA
:104C100058C1182FBE01675F7F4F0E94260BCC2022
:104C2000A1F0F701E450F94F7F01808181FD0DC0B3
:104C300080FF8CC086E0898B0E949E0E83708A8BD9
:104C4000BE016F5E7F4F812F08DB85E08C9DF001F8
:104C50008D9DF00D1124E450F94F808180FF23C019
:104C600011111DC18091C60881508093C608811121
:104C70001AC085E08C9DF0018D9DF00D1124E4504B
:104C8000F94F80818E7F80838FEB95E01F921F9379
:104C90001F921F939F938F93C2D80F900F900F90E6
:104CA0000F900F900F9085E08C9DF0018D9DF00D81
:104CB0001124E450F94F808181FF23C01111F3C00A
:104CC0008091C70881508093C70881111AC085E080
:104CD0008C9DF0018D9DF00D1124E450F94F8081E1
:104CE0008D7F808389ED95E01F921F931F921F9304
:104CF0009F938F9394D80F900F900F900F900F90D9
:104D00000F9085E08C9D70018D9DF00C1124F701B2
:104D1000E450F94F808184FFD4C0898583FDD1C0E0
:104D20001111C5C08091C50881508093C5088111BB
:104D3000C8C08091FC068F7E8093FC0684EF95E0CE
:104D40009F938F936CD80F900F90BBC0BE016F5F85
:104D50007F4F8C2D0E94260B198A098101FF04C008
:104D6000F701808183FF6CCF8091FE06882309F4D0
:104D700067CF85E08C9D90018D9D300D1124F90148
:104D8000E650F94FE18080819091FA06891B87FDFA
:104D900081959091FB06E91AE7FCE194017024509B
:104DA000394FF901908193FB992790F9092B41F034
:104DB0009091BD0893FD04C0E80EF9E0FE1548F59A
:104DC0000E949E0E83708A8B682F70E0FB01E2596F
:104DD000F24F84916E58724FFB01649195E09C9D57
:104DE000F0019D9DF00D1124E650F94F9181690F5E
:104DF0009081890F0E94810C009741F0002309F4F3
:104E00001FCFFC018481813009F01ACF86E0898BA5
:104E100017CF8EE6A82E8DE0B82E912CF5010491C7
:104E200085E08C9DD0018D9DB00D1124A650B94F09
:104E30008C91080F3496F490FD018181F80E6F2D4E
:104E4000802F0E94E60C81111BC06F2D802F0E94C5
:104E5000810C009721F0FC018481813089F48091DC
:104E6000FA06081B07FD01958091FB06F81AF7FC6E
:104E7000F1940F0D0E1560F486E0898B9A8AE02E6E
:104E80009394FFEFAF1ABF0A84E09812C7CFD8CE31
:104E90000E11F6CF0E949E0E80FDEECFF1CF0E9444
:104EA0009E0E8770E4CE0E949E0E87700ECF0E94E9
:104EB0009E0E8F7031F4F701E450F94F80818F7EA0
:104EC00080836296EBE00C9418336091FB0680912E
:104ED000FA060E94CE140E949B0A0E94B91E0C94EE
:104EE000980A0895CF93DF93EC0181E196E068E1A1
:104EF0007DE00E946C1C803240F494E098838983AA
:104F0000E4DF81E0DF91CF91089580E0FBCF8F92C5
:104F10009F92BF92CF92DF92EF92FF920F931F93D7
:104F2000CF93DF93CDB7DEB7C058D1090FB6F89451
:104F3000DEBF0FBECDBF8E0102571F4FF801E190BB
:104F4000F1908F010E94B71DA801B7018E010F5F7C
:104F50001F4FC8010E945017F801BE2EB01A819150
:104F60008111FBCF8B1548F4F801E80FF11D8F5F1D
:104F700090819132CCF71082F5CFF12C9DE1C92EB2
:104F8000EE24E394FB1428F548018F0C911CC40116
:104F90000E942208D82E2E2D280F3327331F2134AC
:104FA000310524F036E0C30EEE24E39420E0A401A2
:104FB0006C2D8E2D0E947412D394D394ED0CEF2D92
:104FC000F394E00FF12FF11D8081EF2D8111F8CFC7
:104FD000D9CF81E1E82E8DE0F82ED8016E0188E06E
:104FE000C80ED11CF70184918D933196AC15BD0587
:104FF000D1F728E347E067E0C8010E944013D801D9
:10500000F70184918D93FFEFEF1AFF0ACA16DB06B2
:10501000B9F728E347E267E0C8010E94401341E482
:1050200069E389E00E942F1242E469E389E20E9469
:105030002F124DE156E069E382E10E94961241E2AF
:1050400056E069E382E30E9496120E94980A0E9449
:10505000B716182F8C70D9F338DF81E0183009F0BB
:1050600080E0C058DF4F0FB6F894DEBF0FBECDBF53
:10507000DF91CF911F910F91FF90EF90DF90CF9034
:10508000BF909F908F900895A4E0B0E0EAE4F8E22A
:105090000C94FC328091B4059091B5059093AF01CA
:1050A0008093AE0110E08091BC08181738F409ED28
:1050B0000E949E0E0150E1F71F5FF5CFE0EBF3E099
:1050C0008FEF819324E0E03BF207D1F760E071E0DD
:1050D00080EB94E00E94581060E870E08AE997E065
:1050E0000E94581060E670E08AE198E00E94581033
:1050F00060E470E08AE798E00E9458101092BA08C5
:105100001092BB08E2DE0E9421104DE06DE10E948A
:10511000E90DE12C40E1F42E8091BA08803208F0CC
:1051200048C00E940C0F43E0849FF0011124E65E0A
:10513000F74FD080C180B2800E949E0E182F13704E
:105140000E942110082F9E012D5F3F4FAE014C5F42
:105150005F4F6B2D812F0E94D80F9E012F5F3F4F15
:10516000AE014E5F5F4F602F81E081270E94D80F14
:10517000412F50E0FA01E259F24F94914E58524FAC
:10518000FA0144911C81190F1D0DDB80D40EDC0C3B
:105190008981481B4D0D8A81E92FE81B6E2F610F15
:1051A000802F0E94E90D882321F06D2D812F0E9410
:1051B000B70EF1E0EF1AF10809F0AECFC12C34E0E0
:1051C000D32E8091BA080E940C0F23E0829FF00139
:1051D0001124E65EF74F10810181F2800E949E0E3D
:1051E0008370B82E9E012F5F3F4FAE014E5F5F4F21
:1051F0006F2D0E94D80F6B2D70E0FB01E259F24F2A
:105200008491810FEA818E0F8A836E58724FFB0161
:105210006491600FE9816E0F69830E94E60C882318
:1052200049F1A12C09811A818091BA08A81608F0C9
:1052300095C08A2D90E0F3E0AF9E90011124A90162
:10524000465E574F7A01FC01EE0FFF1FE80FF91F72
:10525000E65EF74F8081181B9180CA010E941A0CEC
:10526000181710F0A394DECFC7010E94020C091991
:105270000817C0F7A1E0CA1AD10809F0A2CFE0EBE5
:10528000F4E0DF01BA9580819C91892B8193B5E090
:10529000E03BFB07B1F70E949D0B8091BC088F306B
:1052A00008F0ABC061EB75E080EB95E00E948D0FDC
:1052B00063EB75E082EB95E00E948D0F0FEF16E037
:1052C000EE24E394F12CDE2C85E08E9DF0018F9D81
:1052D000F00D1124E650F94FDF011D928A95E9F790
:1052E000B8016F5F7F4FC8010E94150F882341F1FD
:1052F0000E949E0EE091BC08B8E0EB9F9001112443
:10530000E82FE770E20FF32FF11DE558F34F84917A
:10531000882371F3F80184838D2D0E94A911F8016F
:1053200083838091BC08F0E18F9FC0011124B701F5
:1053300082549A4F0E94710B882311F0F801148255
:10534000FFEFEF1AFF0A0B5F1F4F20E2E216F10496
:1053500009F0B9CF2496EBE00C94183351E05B15BB
:1053600040F16FEF600F812F0E94E60C811182CF18
:1053700061E0600F812F0E94E60C81117BCFF12C40
:10538000602F812F8F190E94E60C882309F472CFB9
:10539000602F812F8F0D0E94E60C882309F46ACFBD
:1053A000F39484E0F812ECCF602F812F0E94B70EA7
:1053B00061CF602F8FEF810F0E94E60C81115ACFD1
:1053C000602F81E0810F0E94E60C811153CFF12CF8
:1053D000602F6F19812F0E94E60C882309F44ACFB1
:1053E000602F6F0D812F0E94E60C882309F442CFB5
:1053F000F39494E0F912ECCFD7CF8FEF8093B105FF
:105400008093B00555CF1F93CF93DF93EC01162FF8
:105410000E94A632181721F0612FCE010E94AE32F1
:10542000DF91CF911F9108950C94A63208950F93A8
:105430001F93CF93DF9304EB15E0CCECD0E0CE01CB
:10544000F3DFF80181938F012196CD3FF3E0DF0771
:10545000B1F7DF91CF911F910F9108950F931F9393
:10546000CF93DF930CEC10E0CFEFDFEFC801DCDF70
:105470009D2F9827892F82958F708927282F30E0BC
:105480009C2FA901542F44275295507F842795279C
:10549000E90175E0CC0FDD1F7A95E1F7C827D92720
:1054A0000F5F1F4F0E3F83E0180701F7CE01DF911A
:1054B000CF911F910F9108950F931F93CF93DF9377
:1054C00004EB15E0CCECD0E0F80161918F01CE0146
:1054D0009ADF2196CD3FF3E0DF07B1F761E08DEF72
:1054E00093E091DFBBDFC92F682F8EEF93E08BDF56
:1054F0006C2F8FEF93E087DFDF91CF911F910F919A
:105500000895DACF08951F920F920FB60F921124CB
:105510008F939F938091E1009091E100937F90930E
:10552000E10083FF0FC01092E90091E09093EB003F
:105530001092EC0092E39093ED001092AD0198E090
:105540009093F00082FF22C093E09093E900909145
:10555000F200992319F09AE39093E80090914E019C
:10556000992341F090914E01915090934E019111E9
:1055700001C05D9A9091AC01992341F09091AC01EA
:1055800091509093AC01911101C0289A84FF18C0EA
:105590008091E2008E7E81608093E2008091E10044
:1055A0008F7E8093E10080914F018E7E8061809399
:1055B0004F019F918F910F900FBE0F901F901895E4
:1055C00080FFF7CF8091E2008E7E80618093E200C1
:1055D0008091E1008E7E8093E10080914F018E7E6C
:1055E0008160E5CF1F920F920FB60F921124CF92D8
:1055F000DF92EF92FF920F931F932F933F934F935E
:105600005F936F937F938F939F93AF93BF93EF932A
:10561000FF93CF93DF93CDB7DEB76C97DEBFCDBFDF
:105620001092E9008091E80083FF25C068E0CE0178
:1056300045960E94940982EF8093E8008D8987FF48
:1056400039C09091E80090FFFCCF982F907609F038
:1056500032C19E894F89588D2F89F88C911131C0A4
:10566000803861F580914D018093F1001092F10036
:105670008EEF8093E8006C960FB6F894DEBF0FBEF5
:10568000CDBFDF91CF91FF91EF91BF91AF919F91EE
:105690008F917F916F915F914F913F912F911F91CA
:1056A0000F91FF90EF90DF90CF900F900FBE0F9073
:1056B0001F9018959EEF9093E800C7CF1092F100CD
:1056C000D5CF913059F48111D3CF4130510581F6B6
:1056D00080914D018D7F80934D01CACF933049F465
:1056E0008111C6CF4130510519F680914D0182607C
:1056F000F2CF953041F48091E80080FFFCCF206824
:105700002093E300B5CF963009F0A7C00B8D1C8D18
:1057100022E01092E90010924B0110924A01F2121D
:105720002EC010924901109248010E9469091F82FF
:1057300099E09983FA8291E09E8390EA98879AEFA4
:10574000998720914A0130914B01275F3F4F3C835D
:105750002B838D831092E90010924B0110924A0125
:10576000109349010093480149E050E0BE016F5F8A
:105770007F4F80E00E9448090E94690979CF109309
:105780004901009348010E947F08FC0102811381B6
:105790000115110509F44FC1D801ED91FC91048068
:1057A000F581E02DBE016B5E7F4FC8010995009722
:1057B00009F03CC1F80100851185EACFF3E0FF1242
:1057C0000EC08F89882309F43FC0823061F440E81D
:1057D00067E08CE29FE00E941B09811149CF81E2C2
:1057E0008093EB0048CF813029F440E86BE080E201
:1057F0009FE0F1CF833099F70E947F08FC01E2809F
:10580000F3808E010F5F1F4F6801E114F10479F0FE
:10581000D701ED91FC910680F781E02DB801C70119
:105820000995080F111DF701E084F184EECFD8012E
:105830001C92F60101900020E9F73197BF016C1925
:105840007D0940E0C601C7CF6AE07FE0FB014491DB
:1058500050E080E80E9448090BCF973009F4BFCF91
:10586000983021F481E08093F10002CF993009F063
:10587000FFCE837009F0B3CFE4E1F1E081E09191D4
:10588000992381F08093E90091E09093EB00DF0190
:1058900011979C919093EC0096E39093ED008F5FAD
:1058A000873069F78EE78093EA001092EA008F89CB
:1058B0008093AD01DDCE8B8D9C8D1092E90010920E
:1058C0004B0110924A019093490180934801898DC0
:1058D000811192C08E899D89913A49F4813209F0F3
:1058E0007ECF47E050E064E071E080E0B3CF9132DA
:1058F00009F075CF833269F48F89988DB0E0A0E00C
:105900008093000190930101A0930201B0930301E1
:10591000AFCE803269F48091E80082FFFCCF67E06F
:1059200084E091E00E9494098BEF8093E800A0CE80
:10593000823209F09DCE8F8980930B01EEEFFFE755
:10594000859194918B3F9C4D51F1E0E0F8E080917E
:10595000040190910501A0910601B0910701803BDF
:105960009440A105B105F1F480910B0180FD1AC0AE
:10597000EE3F8AE0F80789F587E797E79183808310
:105980008091600080934C0188E19BE00FB6F89411
:10599000A895809360000FBE9093600069CEEEEFF3
:1059A000FAE0D5CF808191818737974709F060CEA3
:1059B000A8958091600088618093600080914C017F
:1059C00080936000EE3F2AE0F20789F08091FE0AA2
:1059D0009091FF0A918380834BCE8081918187379C
:1059E000980751F29093FF0A8093FE0AC5CF109258
:1059F000FF0A1092FE0A3CCE0E947F08FC01028141
:105A000013810115110509F4EACED801ED91FC913D
:105A10000190F081E02DBE016B5E7F4FC8010995BA
:105A2000811126CEF80100851185EBCF18161906D5
:105A30000CF41ECED4CEF1E0FF12C0CE6EE07FE0BB
:105A400005CF1F920F920FB60F9211242F933F9301
:105A50008F939F93AF93BF938091400190914101A9
:105A6000A0914201B091430130913F0123E0230F07
:105A70002D3758F50196A11DB11D20933F0180934C
:105A8000400190934101A0934201B0934301809162
:105A9000440190914501A0914601B09147010196C2
:105AA000A11DB11D8093440190934501A09346012F
:105AB000B0934701BF91AF919F918F913F912F91EB
:105AC0000F900FBE0F901F90189526E8230F029697
:105AD000A11DB11DD2CFE0E5F1E01382128288EE64
