:100000000C94F2080C941A090C941A090C941A090D
:100010000C941A090C941A090C941A090C941A09D4
:100020000C941A090C941A090C940E2F0C947D2F21
:100030000C941A090C941A090C941A090C941A09B4
:100040000C941A090C941A090C941A090C941A09A4
:100050000C941A090C941A090C941A090C94AC31DA
:100060000C941A090C941A090C941A090C941A0984
:100070000C941A090C941A090C941A090C941A0974
:100080000C941A090C941A090C941A090C941A0964
:100090000C941A090C941A090C941A090C941A0954
:1000A0000C941A090C941A090C941A0959657300D6
:1000B0004E6F004C6F6164696E672E2E2E00617268
:1000C0006500546865200074686520006F6D657474
:1000D00068696E67006973006375727365642000F8
:1000E000666F6F6420726174696F6E006172726F07
:1000F0007700626F770073776F726400205B4064F3
:100100002061746B5D00205B4064206465665D0067
:1001100072696E67206F66200000205B406420617A
:10012000746B5D00205B4064207374725D00205B23
:100130004064206465785D00205B406420646566EF
:100140005D002072696E6700616D756C6574206F6B
:10015000662000205B40634075207370645D002062
:10016000616D756C657400706F74696F6E00206FDF
:10017000662000706F74696F6E007363726F6C6CD1
:1001800000206F6620007363726F6C6C0057616CA7
:100190006C205374796C653A207B204075207D007B
:1001A0004075202840642900407500506C617965D5
:1001B0007220496E666F726D6174696F6E00407572
:1001C00000407500456666656374733A00636F6E40
:1001D000667573656400706172616C797A6564003C
:1001E0007765616B656E656400696E7669736962D7
:1001F0006C65007374617276696E67006E6F6E6510
:100200000040690044726F702077686963682069F4
:1002100074656D3F00496E76656E746F7279005536
:100220007365207768696368206974656D3F00486D
:100230006967682053636F72657300536176652048
:10024000686967682073636F72653F00407500449A
:10025000756E67656F6E204C6576656C2040750025
:1002600048500058500048756E67727900576869A9
:10027000636820646972656374696F6E3F005363DD
:10028000726F6C6C2044756E67656F6E00005B6DFD
:100290006F72655D0073746F70207573696E6700AF
:1002A000596F752061726520756E61626C6520748E
:1002B0006F204070207468652040692E0074616B67
:1002C00065206F666600596F752040702074686500
:1002D0002040692E00596F75277265206E6F74205B
:1002E000686F6C64696E67206120626F772E0059B9
:1002F0006F752068617665206E6F206172726F770E
:10030000732E0054686520406920627265616B73CA
:100310002E00596F7520616476616E636520746F7D
:10032000206C6576656C2040752100596F752066DC
:1003300065656C207374726F6E6765722E00596FFD
:1003400075206665656C20717569636B65722E003A
:10035000405520706172616C797A65642100405566
:10036000207765616B656E65642100405520636F81
:100370006E667573656421006469650040532040B2
:10038000562100596F752061726520737461727611
:10039000696E672100736C696768746C7920005915
:1003A0006F75206665656C20407062657474657257
:1003B0002E00004053206C6F6F6B7320407062659D
:1003C000747465722E00405320647261696E7320EC
:1003D0004050206865616C74682100596F75722007
:1003E000737472656E6774682072657475726E736B
:1003F0002E00596F75206665656C207374726F6E80
:100400006765722100596F75207475726E20696E70
:1004100076697369626C652E00405520736C6F7746
:1004200065642100596F7520617265207061726189
:100430006C797A65642100596F752061726520635B
:100440006F6E66757365642100596F75206665650A
:100450006C2066756C6C2E004964656E74696679F3
:10046000207768696368206974656D3F00596F750E
:10047000206964656E7469666965643A2040692E16
:1004800000456E6368616E742077686963682069EF
:1004900074656D3F004E6F7468696E6720686170A7
:1004A00070656E732E0054686520406920676C6F1C
:1004B000777320626C756520666F722061206D6FA6
:1004C0006D656E742E00556E637572736520776866
:1004D000696368206974656D3F00546865204069F0
:1004E00020676C6F777320776869746520666F7218
:1004F0002061206D6F6D656E742E00596F752066DA
:10050000696E6420796F757273656C6620696E2000
:10051000616E6F74686572206C6F636174696F6E71
:100520002E00596F75206265636F6D65206177617C
:100530007265206F6620796F757220737572726FA5
:10054000756E64696E67732E00405320666C656536
:1005500073210040552073747269636B656E2100CE
:10056000707574206F6E00726561647900596F75E3
:10057000204070207468652040692E005468652012
:10058000646F6F7220697320616C72656164792099
:10059000636C6F7365642E0054686520646F6F72BE
:1005A00020697320626C6F636B65642E00596F75F0
:1005B00020736565206E6F20646F6F7220746865AC
:1005C00072652E0068697400405320405620404FE9
:1005D0002E00596F7520666F756E64206120686902
:1005E0006464656E20646F6F722100596F752061BD
:1005F000726520756E61626C6520746F2064726F25
:1006000070207468652040692E00596F75206472EF
:100610006F70207468652040692E00546865204022
:1006200069206869747320404F2100546865204038
:10063000692073686174746572732E006869740050
:100640006D6973736500596F7572206172726F778F
:100650002040707320404F2E006D6973730040532B
:1006600020407620404F2E005468726F77207768C4
:1006700061743F00596F7520617265206E6F206C48
:100680006F6E67657220636F6E66757365642E00AA
:100690004053206272656174686573206669726593
:1006A0002100596F7520617265206E6F206C6F6E2E
:1006B00067657220706172616C797A65642E005989
:1006C0006F7520617265206E6F206C6F6E6765724A
:1006D00020736C6F7765642E00596F7520617265A9
:1006E000206E6F206C6F6E67657220696E7669731D
:1006F00069626C652E0041726475526F67756500A2
:100700005072657373204120746F20706C61792E74
:1007100000596F752063616E277420686F6C6420C8
:10072000616E79206D6F7265206974656D732E003E
:10073000596F75206E6F7720686176652040692E4D
:1007400000476F20646F776E20746F207468652097
:100750006E6578742064756E67656F6E3F005265D4
:100760007475726E20746F2074686520737572667C
:100770006163653F00596F75206861766520657318
:1007800063617065642077697468207468652061AE
:100790006D756C6574206F662059656E646F72218B
:1007A000005072657373204220746F20636F6E7403
:1007B000696E75652E00476F206261636B207570EE
:1007C00020746865207374616972733F00596F7596
:1007D000206C6561766520776974686F7574207424
:1007E000686520616D756C6574206F662059656E53
:1007F000646F722E007B20416374696F6E73207D7D
:10080000007B2047616D65204D656E75207D000081
:100810006261636B200057656C636F6D652040708B
:10082000746F2041726475526F6775652E00506950
:10083000636B207570207468652040693F00596FB4
:10084000752063616E277420686F6C6420616E7917
:10085000206D6F7265206F662074686F73652E005F
:10086000596F7520676F74207468652040692E0089
:100870005374617276656420746F20646561746876
:1008800000446561746820627920404D00416261D6
:100890006E646F6E6564207468652067616D6500C5
:1008A00052657475726E656420746F20746865207B
:1008B000737572666163650045736361706564207A
:1008C000776974682074686520616D756C65740063
:1008D0004D697363005363726F6C6C7300506F7477
:1008E000696F6E73004A6577656C72790041726D4D
:1008F0006F7200576561706F6E7300537065656449
:100900003A00446566656E73653A004174746163CC
:100910006B3A004465787465726974793A0053746F
:1009200072656E6774683A004D6178204865616C45
:1009300074683A004C6576656C3A0053636F726573
:100940003A006272696C6C69616E74006272696708
:100950006874006461726B0068756D6D696E670024
:100960007368696D6D6572696E6700676C6F776932
:100970006E670074617474657265640079656C6C8F
:100980006F776564006661646564006D61737320F0
:10099000706F69736F6E006D61737320636F6E6645
:1009A0007573696F6E00746F726D656E7400666545
:1009B0006172006D61676963206D617070696E6757
:1009C0000074656C65706F72746174696F6E00722B
:1009D000656D6F766520637572736500656E63681B
:1009E000616E74696E67006964656E74696679002A
:1009F00076696F6C65740079656C6C6F77007768E9
:100A000069746500626C756500677265656E006F7C
:100A100072616E676500636C656172007265640087
:100A2000657870657269656E636500736C6F776970
:100A30006E6700706172616C7973697300696E76BC
:100A400069736962696C69747900737472656E6741
:100A5000746800706F69736F6E00636F6E66757394
:100A6000696F6E006865616C696E670059656E64D8
:100A70006F7200776973646F6D00766974616C6979
:100A800074790069726F6E626C6F6F640074686570
:100A90002076616D7069726500726567656E65725A
:100AA0006174696F6E00636F6E73657276617469ED
:100AB0006F6E00636C617269747900737065656450
:100AC0000069726F6E00706C6174696E756D007391
:100AD000696C76657200676F6C6400746F70617A20
:100AE00000656D6572616C6400727562790064699D
:100AF000616D6F6E640073757374656E616E6365AE
:100B00000061747461636B00666972652070726F56
:100B100074656374696F6E00696E76697369626982
:100B20006C6974790070726F74656374696F6E00BC
:100B300064657874657269747900737472656E6740
:100B400074680073656520696E76697369626C65A7
:100B500000626F6F74730068656C6D0061726D6F19
:100B600072004C6F7264206F66204461726B6E6518
:100B700073730066616C6C656E20616E67656C00F6
:100B8000647261676F6E006772696666696E007491
:100B9000726F6C6C00696E6375627573006D696D60
:100BA000696300686F62676F626C696E007461727E
:100BB000616E74756C61006F7263007068616E7451
:100BC0006F6D00676F626C696E007A6F6D62696548
:100BD00000726174746C65736E616B6500736E6135
:100BE0006B650062617400536176652050726F67B7
:100BF0007265737300486967682053636F72657329
:100C000000506C6179657220496E666F00496E769E
:100C1000656E746F7279005363726F6C6C204475EB
:100C20006E67656F6E0056696577204D696E696DF8
:100C30006170005468726F7720506F74696F6E0036
:100C400044726F70204974656D0053686F6F740053
:100C5000557365202F205B556E5D65717569700059
:100C600057616974202F2053656172636800090120
:100C700006040501050449092606850585050000C9
:100C8000F66FA40FD00B5A0FB99DF00B520F9F0FA8
:100C9000A0072C0F2F0FF909F1019D0696F95E0EA2
:100CA000880F00002994B00BB30121846009F4047B
:100CB000AA0A0606900F900F900FBEEF1EE10102E8
:100CC00004081A264985000000000A0609050104E7
:100CD00010020800000000000101010101020202EF
:100CE0000202080808080814141414141F00000055
:100CF0000000060000000000001F00000016001F9A
:100D0000000000180800001C041418000000000473
:100D10001C000000000000010100000302020100AD
:100D200000000002030000000404F0F0F0F0FFFFF8
:100D3000FFFF0505E0E0E0E0E0FFFFFF0606C0C0C2
:100D4000C0C0C0C0FFFF0606E1C0CCCCC0E1FFFFC1
:100D50000606E1C0C0C0C0E1FFFF070780808080B9
:100D6000808080FF0707F7E3C180C1E3F7FF070733
:100D7000E3E3808080E3E3FF0707E3E3889C88E305
:100D8000E3FF0808C3810000000081C30808E7E70B
:100D9000C30000C3E7E7080800664200004266009F
:100DA0000F0F1FFC07F003E001C001C0E083E083E8
:100DB00060836083608301C001C003E007F01FFC13
:100DC000FFFF10101FF807E003C00180318C300CCA
:100DD0000000000000000000300C318C018003C0D6
:100DE00007E01FF80D0DBFFF1FFF0FFE07FC03F804
:100DF00001F000E001F003F807FC0FFE1FFFBFFF4A
:100E0000FFFFFFFFFFFF0C0C03FC01F800F000F0F8
:100E100000F000F000F000F000F000F001F803FC3A
:100E2000FFFFFFFFFFFFFFFFFF01FF0101FF0000CA
:100E3000FFFF0101000001FFB808A0088D0881082C
:100E40007008F308ED08E508DD08D508D008FFFFB5
:100E500003FFFFFFFFFFFFFFFFFF436C6F73652082
:100E6000446F6F7200FF05030400000002020101DD
:100E7000013B09340928091E0913090B090209FB62
:100E80000853657474696E6773000000FF01FF0109
:100E9000000085097C0973096B0960095809530929
:100EA0004C094209E709DC09CF09C109B309AE09B8
:100EB000A60997098B091C0A160A0F0A090A040ACF
:100EC000FE09F709F009640A5A0A530A4A0A3D0A58
:100ED000330A2B0A200ABB0AB30AA60A990A8D0A0A
:100EE000830A7A0A730A6C0AEE0AE90AE10ADB0A43
:100EF000D60ACF0AC60AC10A430B3A0B300B250BA0
:100F0000180B080B010BF60A5C0B570B510B00007A
:100F10000000E30BDD0BD10BCA0BC30BBB0BB70BF4
:100F2000AD0BA30B9D0B950B8F0B870B800B730BDE
:100F3000620B30313233343536373839414243442D
:100F4000454600D5F08D14A1C881CFD9F1AF20005E
:100F5000020202020202020202020303030303036B
:100F60000303040404040101050606090A0B07082B
:100F70000203030000000001030303030404002331
:100F800005050506060700130506060708000023E9
:100F90000707070707070032060606080A000013BE
:100FA00008080A090B000022080A0909090B002396
:100FB0000A0A0A090B0C00130B0B0B0B090A00326F
:100FC000090A0B0C0C0D00120A0B0C0D0D0E001370
:100FD0000B0C0D0E0E0F00120C0D0E0F0F0F00421A
:100FE0000C10100F0F0F0013101010101010001223
:100FF0001619E71F911E6F1D0B2F441CEC2E270C9A
:10100000971E48217E1E9629DF1F260C170C0D0CFB
:10101000010CF50B810EE70B600C500C4A0C400CD8
:10102000330C5A0E0000000000000000010204040E
:1010300004000A000000010608000101010002038B
:10104000030003021100030303000403010204026E
:10105000020006050102050404010A06090206044D
:1010600004010C07010207040403100881000504B1
:1010700004000C09010208040402140B0300070415
:101080000403140B410209040403180E05020A03A9
:1010900003052012010007060601181201010C04C5
:1010A00004083019C1020A0606031823F5001006C9
:1010B0000808405A080B0002020200000904000060
:1010C00001020200000524001001052401010104B1
:1010D00024020605240600010705810310004009CB
:1010E000040100020A000000070502024000000798
:1010F0000583024000000403090412010002EF020C
:1011000001404123368000010102030141726475F0
:10111000696E6F204C4C430041726475626F7900B8
:101120001700030CCE390000994C000003002E027A
:10113000D1010000C411100184101000980C2E3A47
:10114000F243B94AB12A877CB726AE22211FAA2AC8
:10115000A23A0A00500184284A298A10A10A0000F4
:10116000BE78BF2A2E463F3ABF46BF042E669F7CFC
:10117000F147F1019F6C1F425F7C3F783F7EBF08C3
:101180002E7ABF68B226E1071F7E071F1F7D9B6C6A
:10119000833EB94E3F028360F103220810424100B2
:1011A0004C7A5F324C4A4C7E4C53BE00D6035F7083
:1011B0001D00B0019F681F009E785E704C325E116A
:1011C00044799E0856034F020E7A061B1E799249F7
:1011D000823ADA02C47D0000DF111C3E7F7F7F3E31
:1011E0001C00F63111241FBECFEFDAE0DEBFCDBF09
:1011F00011E0A0E0B1E0EEE7FFE602C005900D923D
:10120000A832B107D9F729E0A8E2B1E001C01D92E8
:10121000AB38B207E1F718E0C2EFD8E004C021977D
:10122000FE010E948037C13FD107C9F70E940B32EF
:101230000C94BD370C940000DC0181E0ED91EE23AD
:10124000D9F0E03299F0EE0FFF0BE252FF4E2591FC
:101250003491932F969596959F7151F495E036951C
:1012600027959A95E1F72F7192E019F491E001C06A
:1012700093E09F5F890FE2CF089590918A099111C1
:1012800003C08FEF9FEF08954FB7F89492E09093CB
:10129000E9009091F200292F30E01216130614F4A1
:1012A00021E030E0232B31F0289884E680938909EF
:1012B0008091F100992339F02091F200211103C0AF
:1012C0002BE62093E8004FBF9923D9F290E00895D0
:1012D0002FB7F89483E08093E9009091E800892F7C
:1012E000807295FF04C09091F20080E4891B2FBFAB
:1012F00008958091810981110DC082E080937D095C
:1013000084E080937E091092800910927F0981E029
:10131000809381098DE799E00895A1E0B0E0E3E9C9
:10132000F9E00C9496376983DC01ED91FC91028021
:10133000F381E02D41E050E0BE016F5F7F4F0995E2
:101340002196E2E00C94B23783E08093E90080912B
:10135000F200882319F08AE38093E8000895B8DF4B
:1013600090E00895FC018485958597FD05C02FEFD9
:101370003FEF35872487089580CF0895CF93DF937B
:10138000EC018C859D8597FF03C077DF9D878C8757
:101390008C859D85DF91CF910895FC01848595858D
:1013A00097FD0BC09FB7F89482E08093E90080918D
:1013B000F2009FBF90E0019608959FB7F89482E0F5
:1013C0008093E9008091F2009FBF90E008954091E2
:1013D00027095091280920912509309126094217A3
:1013E0005307B4F49091E8009570E1F39091E80010
:1013F00092FD19C08093F1008091270990912809EE
:1014000001968F739927892B19F48EEF8093E8004A
:10141000809127099091280901969093280980933B
:10142000270981E0089580E00895EF92FF920F93DD
:101430001F93CF93DF93F82E192FE62E042F81E010
:10144000860F880FC4DF83E0C2DFCF2DD12FEC0ED3
:10145000FD2EF11CCE15DF0599F007FF0FC0FE0130
:101460008491B5DF182F80E0B2DF812321968111AE
:10147000F1CFCDB7DEB7E6E00C94AE378881F1CF7F
:1014800081E0F7CFB0E0A0E0E8E4FAE00C94913717
:10149000D82E8A01EB017B01E40EF51ECE15DF0587
:1014A00051F0D7FE0EC0FE01849191DF219681118B
:1014B000F5CF0FEF1FEFC801CDB7DEB7E7E00C9413
:1014C000AD378881F2CFA1E0B0E0E9E6FAE00C9414
:1014D000943782E0898342E450E064EB70E180E875
:1014E000D1DF07DFFC01028113810115110589F0AD
:1014F000D801ED91FC910280F381E02DBE016F5F78
:101500007F4FC801099597FD04C0F801008511853A
:10151000ECCF89812196E4E00C94B037615030F033
:101520002091F100FC0120830196F8CF289884E6F1
:101530008093890908953FB7F89480914001909174
:101540004101A0914201B091430126B5A89B05C07D
:101550002F3F19F00196A11DB11D3FBFBA2FA92F32
:10156000982F8827BC01CD01620F711D811D911D2F
:1015700042E0660F771F881F991F4A95D1F708959B
:101580008F929F92AF92BF92CF92DF92EF92FF9293
:101590006B017C01D0DF4B015C01C114D104E1047B
:1015A000F104B1F0C8DF681979098A099B09683E1E
:1015B00073408105910588F321E0C21AD108E10842
:1015C000F10888EE880E83E0981EA11CB11CE5CFBF
:1015D000FF90EF90DF90CF90BF90AF909F908F9053
:1015E0000895B0E0A0E0E7EFFAE00C948E376C01CC
:1015F000B62EA72E7A0180910B01882309F455C0DD
:1016000080918A09882309F450C080912C0980FFB9
:1016100005C08091E00082608093E000E70110E067
:101620000AEF209711F41123C9F152DE811108C08D
:101630000150D9F161E070E080E090E0A1DFF1CFEE
:101640008C171D0611F00CF08C2F9FB7F89423E037
:101650002093E9002091E80025FD02C09FBFE1CF63
:10166000C81BD109EB2DFA2DBE2EAF2E815020F0D4
:1016700021912093F100F8CF112329F08AE3809380
:10168000E80010E0EBCF8091E80085FDE7CF8AE32A
:101690008093E80011E0209709F3F3CF5D9884E68A
:1016A00080932B091E141F043CF081E090E0F601AA
:1016B00093838283F12CE12CC701CDB7DEB7EAE03A
:1016C0000C94AA37BC0190E080E05ACF08958FB106
:1016D0008095807F669B88601C9B846008958EBD8A
:1016E00000000DB407FEFDCF089590E0880F991F0C
:1016F000FC01E05BF94F2081206420838F5A994FD1
:10170000FC018081982F9F709330F9F018F492308B
:1017100031F00895973041F1983059F1089582954C
:101720008F70E82FF0E033E0F695E7953A95E1F712
:10173000E959F74F877021E030E001C0220F8A9508
:10174000EAF78081822B8083089582958F7090E0E4
:101750000896FC0123E0F695E7952A95E1F7E9590B
:10176000F74F87709927E7CF82958F7090E0419669
:10177000F0CF82958F7090E04996EBCFFB012491DA
:101780006F5F7F4F222321F0FC012193CF01F6CF21
:1017900008951F93CF93DF93FC01E90161110EC0FF
:1017A000BA01ECDF209731F020E2FC012083BE017A
:1017B0000196E4DFDF91CF911F91089581E0860FBC
:1017C0006AE00E944D37882319F0805D808331964E
:1017D000905D908310E21183BA01CF010296CEDFB3
:1017E000FC01209729F01083BE010196C7DFFC01A0
:1017F000CF01019623E72083DDCFCF93DF938111C3
:101800000BC088E0E3E5F8E0DB0101900D928A95DA
:10181000E1F7DF91CF91089525E0829FF001112437
:10182000E057F94F848128E0829FC00111248C5D2C
:101830009F4EEB0130E020E0FC01E20FF31FE4914A
:10184000E9932F5F3F4F28303105B1F7E2CFFC011C
:10185000108281E008958034C0F46032B0F4E62F45
:10186000E695E695E69590E4E99FF0011124E80FEE
:10187000F11DEA5BFB4F677021E030E001C0220FF1
:101880006A95EAF78081822B808308959B0143E06B
:10189000369527954A95E1F7820F931FFC018081C9
:1018A00090E06770772702C0959587956A95E2F773
:1018B00081700895E62FE695E695E69590E4E99F18
:1018C000F0011124E80FF11DEA5BFC4F677081E025
:1018D00090E001C0880F6A95EAF78095908189238E
:1018E00080830895CF93DF93D0E0C0E080915108CA
:1018F0008C171D0681F17CF19E01220F331FF90127
:10190000EF5EF74F9081692F6F772C5B3E4FF901A7
:10191000E453F94F80818F772353394FF9012081A8
:1019200027FF03C0C7DF2196E1CF669566956695D0
:1019300020E4629FF0011124E80FF11DEA5BFC4FE7
:10194000977021E030E001C0220F9A95EAF780817C
:10195000822B8083E8CFDF91CF910895FC019281A3
:10196000E42F97FF19C0EE0F462F469546954695F2
:10197000E40FF0E09F7782E2989FE00DF11D1124C3
:10198000EE55F24F849190E0677002C0959587956F
:101990006A95E2F781700895F0E08AE0989FE00D83
:1019A000F11D1124E65DF24F849190E0EECFCF93CC
:1019B000DF93EC01EA81E7FF0BC0EF77D2E2ED9F06
:1019C000F0011124EF55F24F8491DF91CF910895EA
:1019D0008AE0E89FF0011124E75DF24FF5CFCF9345
:1019E000DF93EC01EA81E7FF0BC0EF77D2E2ED9FD6
:1019F000F0011124E056F24F8491DF91CF910895C8
:101A00008AE0E89FF0011124E85DF24FF5CFFF92E4
:101A10000F931F93CF93DF93EC01042F8881162F30
:101A2000181BF980CE01DBDF181730F080E0CDB74E
:101A3000DEB7E5E00C94AF370F19CE01B8DF081719
:101A4000A8F7402F612FCE0189DF91E08927EFCFE2
:101A500090E0880F991FFC01EF5AF94F20812F70F9
:101A6000253068F4FC01E05BF94F2081322F3F7391
:101A700031F0315C3F73207C232B20830895FC01DF
:101A8000E05BF94F8181807F81830895E0E9F6E092
:101A900030E020E09481992379F0908198130CC074
:101AA0009181961309C045E0429FC001439F900D6C
:101AB00011248057994F08952F5F3F4F359620325C
:101AC000310541F790E080E008957091510830E0D1
:101AD00020E0271700F5A901440F551FFA01E05F28
:101AE000F74F90819F77E82FF0E09E171F0681F453
:101AF0004F5E574FFA0190819F77462F50E0941721
:101B0000150631F4C901880F991F805F974F08951A
:101B10002F5F3F4FDECF90E080E008958034C8F41F
:101B20006032B8F4962F96959695969540E4949FDA
:101B3000900111242A5B3B4F280F311DF901808150
:101B400090E0677002C0959587956A95E2F781707D
:101B5000089580E008958034C8F46032B8F4962F78
:101B600096959695969540E4949F900111242A5B52
:101B70003C4F280F311DF901808190E0677002C051
:101B8000959587956A95E2F78170089581E00895AB
:101B9000B0E0A0E0EEECFDE00C948E3700919006F2
:101BA00010919106C02FC81BD12FD61BDD029001CA
:101BB0001124CC02200D311D11242B3131050CF0E4
:101BC00044C0AA24A394081730F091E0081301C080
:101BD00090E0A92EA194CC24C394161730F091E084
:101BE000161301C090E0C92EC194E62EF82EC7FD51
:101BF000C195D7FDD195BD2EB694DC2ED694F012AA
:101C000002C0E116E1F0612F802FA5DF81111DC018
:101C1000BC0EDD0E8B2D0B2C000C990BD817190662
:101C200009F014F40A0DBD1A8D2D0D2C000C990B22
:101C3000C817190609F01CF71C0DDC1AE0CF81E06B
:101C4000CDB7DEB7EAE00C94AA3780E0F9CFA3E085
:101C5000B0E0EDE2FEE00C948E379091900680911A
:101C600091061BEF180F2BEFD22ED90E36E0F32E74
:101C7000F80E46E0E42EE90E1F1579F00D2D0E1535
:101C800051F0612F802F84DF882319F0612F802F7E
:101C9000E2DD0F5FF4CF1F5FEFCFF12C8091500892
:101CA000F81608F057C00F2D10E08091520820E17F
:101CB000829FC0011124B801885A9A4FE7DD88231A
:101CC00011F0F394EBCFF801EE0FFF1FE00FF11FBF
:101CD000E055F84F80812181928189832A839B83FB
:101CE000C82ECE0101967BDEC80EBA80CE010196C9
:101CF0005EDEB80EEA8093E0169507959A95E1F7B7
:101D000091E08F2D8770A92E01C0AA0C8A95EAF761
:101D1000EB14B8F6D980DC14D8F46E2D8D2DFEDED0
:101D20008823A1F04E2D6D2DCE01019670DE882303
:101D300069F0E091520880E1E89FF0011124E85A2F
:101D4000FA4FE00FF11F80818A298083D394E3CF7B
:101D5000E394DECF2396EAE00C94AA37B0E0A0E04B
:101D6000E4EBFEE00C948C37E62EC42F0091500873
:101D7000202F30E0F901EE0FFF1FE20FF31FE055B7
:101D8000F84F6083C18382832FE3261730F480E00D
:101D9000CDB7DEB7ECE00C94A837C032C0F783E0D3
:101DA000089F800111240055184FC80118DEC82E65
:101DB000CE0CC801FCDD90E49C1548F3F82EFC0E17
:101DC000E0E2EF1520F3DC2FDF1530F5DE2CDC141C
:101DD00008F54D2F6D2DC8011ADE8823C9F088E261
:101DE000882E8EE0982E90E3A92E9EE0B92EF40165
:101DF00038966491F40184916D0F8D0DACDE8823CB
:101E000009F4C5CFFFEF8F1A9F0AA814B90479F718
:101E1000D394DDCFDF5FD8CF6091500870E0809120
:101E2000520820E1829FC0011124885A9A4F2EDD6A
:101E3000D82ECF15A8F4DE2DDC1580F44C2F6D2F95
:101E4000C801E5DD882341F06C2F8D2F33DDDD20C7
:101E500019F06C2F8D2FFFDCDF5FEECFCF5FE9CF66
:101E6000809150088F5F8093500881E091CFB0E05F
:101E7000A0E0EDE3FFE00C948E37D42E890195E0CD
:101E8000899FF0011124E057F94FC080B18070E0C4
:101E9000FB01E657F14FA4906257714FFB01C491CB
:101EA0008FEFF9018283E12CDC2FDB0DFA2CFC0C87
:101EB0006D2F8F2D50DE811121C0E3946D2F8F2D5A
:101EC000E5DD009771F0805996404DEC5CEC849F05
:101ED0009001859F300D949F300D1124F8012283CD
:101EE00004C0CF2CBD2EDE10DFCFF801E382F082DC
:101EF000D183CDB7DEB7EAE00C94AA37DB2DFC2CFA
:101F0000F4CF803440F5603230F5262F26952695A3
:101F1000269590E4299F90011124820F932F911D03
:101F2000FC01EA5BFB4F208130E0209530958A5B15
:101F30009C4FFC018081282B677081E090E002C0FB
:101F4000880F991F6A95E2F72823392381E0232B14
:101F500019F480E0089581E00895E4E4F1E08081DF
:101F600091819C013695322F222737952795282776
:101F70003927C901892F9927869528273927922F34
:101F8000882782279327918380830895FF920F9358
:101F90001F93CF93DF93182F062F8CDCDEDF843C5A
:101FA000C0F5C0915108C032A0F5602F812F8DDDA2
:101FB000892B79F5D0E0D1DFF82E6091510870E0DF
:101FC0008091520820E1829FC0011124845A9A4FC7
:101FD0005DDCCC0FDD1F882309F1602F812F3BDCF6
:101FE000FE01E05FF74F818180688183FE01E05F41
:101FF000F74F1F7780818078182B1083602F6F77C1
:1020000081818078682B6183809151088F5F8093F4
:102010005108CDB7DEB7E5E00C94AF378FE28F15EE
:1020200028F3FE01E05FF74F808180688083602F96
:10203000812F11DCDBCFCF93C82F8FDF8C1710F0EF
:102040008C1BFCCFCF910895B0E0A0E0EAE2F0E174
:102050000C9490377C018B01C12C54E0D52E80E488
:10206000EADFD82F80E2E7DFC82F682F8D2F73DDDE
:10207000811151C080914605D81305C08091470554
:10208000C81709F448C080914805D81305C080914D
:102090004905C81709F43FC0E0E9F6E084818823C8
:1020A00031F08081D81303C08181C817A1F1359622
:1020B00087E0E033F80791F7E0E3F7E081818F7084
:1020C00031F08281D81303C08381C81721F134967F
:1020D00087E0E03BF80791F75091510890E080E0ED
:1020E000851720F59C01220F331FF901E05FF74FA0
:1020F00040814F776D2F70E04617170651F42F5E21
:10210000374FF90120812F776C2F70E026171706C3
:1021100011F00196E5CFF1E0CF1AD10809F09FCF79
:1021200080E0CDB7DEB7E8E00C94AC37F701D083A0
:10213000F801C08381E0F5CF0F931F93CF93DF9316
:10214000EC018B01B801CE017FDF8823D9F3DF9149
:10215000CF911F910F910895B0E0A0E0E2EBF0E184
:102160000C949137D62E172FE82EF12C809152081F
:1021700020E1829FC0011124B701805B9A4F86DB6A
:10218000811120C0012F0F70E701CC0FDD1FCC0F94
:10219000DD1FBE016D5C784FCE018E5C984FCCDFA9
:1021A0008091520820E1829FC0011124B701805B19
:1021B0009A4F6CDB811100E0107F102BC05DD84F6F
:1021C000D8821983CDB7DEB7E7E00C94AD37CF9254
:1021D000DF92EF92FF921F93CF93DF9300D01F9275
:1021E000CDB7DEB7182F6A01790119821A821B82D6
:1021F0006B83CE010196F3DB1EDF8983CE0101964E
:10220000D6DB19DF8A83123019F1133019F111303E
:10221000C9F01A824A816981CE0101969FDB811142
:10222000E8CF8981F60180838A81F70180830F904E
:102230000F900F90DF91CF911F91FF90EF90DF9063
:10224000CF900895CE010196B2DB81508A83E2CF10
:102250001982E0CFCE010196C2DB81508983DACFAB
:102260007CDE803420F484E0E6DE805808958CE043
:10227000E2CE0895EF92FF920F931F93CF93DF93D7
:102280007C01FC01C0E0C193CF5F6C13FCCFD0E0B8
:102290000D2F10E087E090E0C83011F088E090E06A
:1022A000081719077CF48C2F8D1BC5DED701A80FEA
:1022B000B11DF701E00FF11F80819C9190838C93F9
:1022C000DF5FE6CFCDB7DEB7E6E00C94AE37680F40
:1022D000791FFC011192CF01E617F707D1F7089596
:1022E000E82FF0E0E05AF74F8081803210F080E074
:1022F000089590E0880F991FFC01E05BF94F308151
:10230000FC01EF5AF94F208122952F7070E02617BB
:10231000170669F7832F8F7337FD02C08F5F08950B
:1023200080950895CF93DF93C82F682F84E0D8DF7E
:10233000D82F6C2F85E0D4DF8D0FDF91CF910895DA
:10234000E62FF0E0E05AF74F20812032B0F430E081
:10235000220F331FF901EF5AF94F408142954F7018
:1023600090E04817190649F4205B394FF901808144
:102370008095881F8827881F089580E00895CF934F
:10238000C82F64E0DDDF811103C065E08C2FD8DF4A
:10239000CF910895CF93DF938823E9F0C82FD0E041
:1023A00095E0899FF0011124EE56F94F808184FF5A
:1023B00004C080E0E4DF882359F085E08C9FF001C1
:1023C0008D9FF00D1124E057F94F61818081E0DB92
:1023D000DF91CF91089581E0FBCF1F93CF93DF93DF
:1023E000182F90E00196EC01CC0FDD1FC80FD91F0C
:1023F0002196D595C795D595C7958C2F1CDE1F5F67
:102400001C1B810FDF91CF911F910895CF938111F4
:102410002AC0C091580883E085DF8C0FA1E6B8E0A0
:102420002D912032C0F430E0220F331FF901E05B20
:10243000F94F4081942F2F5A394FF90120812F7085
:102440009F7347FF03C03EEF391B932FECE0E80F6B
:10245000E21B892F8E0FF8E0A436BF0709F787FD2E
:1024600080E0CF91089595E0899FF0011124E05715
:10247000F94FE48188E0E89FF0011124E75DFF4E09
:102480008491EDCFCF93811109C0C091560882E0AD
:1024900049DF8C0F87FD80E0CF91089595E0899FFB
:1024A000F0011124E057F94FE48188E0E89FF00142
:1024B0001124E95DFF4E8491EDCFCF93282F30E0BA
:1024C000C0915508882381F095E0929FF001939F79
:1024D000F00D1124E057F94FE48198E0E99FF001F5
:1024E0001124EA5DFF4EC49195E0929FF001939F05
:1024F000F00D1124EE56F94F908192FF06C0EC2F9B
:10250000F0E03196F595E795CE2F811103C081E07B
:1025100009DFC80FC7FDC0E08C2FCF910895CF937E
:10252000DF93D82FCADFC82FD11117C08091600860
:10253000803280F490E0880F991FFC01E05BF94F36
:102540002081822F8F7327FF03C09EEF981B892F56
:10255000CD5FC80F86E0E6DEC80FC7FDC0E08C2F58
:10256000DF91CF910895CF9381110EC0C09159088A
:1025700080915F088C17B8F466E086E0E1DE811197
:10258000C15F8C2FCF91089595E0899FF0011124B0
:10259000E057F94FE48188E0E89FF0011124E65DFF
:1025A000FF4EC491EECFC0E0ECCFCF93DF9395E028
:1025B000899FE0011124FE01EE56F94F908193FDB1
:1025C0000AC0D1DFFE01E057F94F8383CE56D94FC1
:1025D000888188608883DF91CF910895482F50E0EB
:1025E00081112DC080915708209166082032B0F4E7
:1025F00030E0220F331F2C5B3E4FF901E35FFA4FAF
:102600009081907F59F4245F3A4FF9012081922FF5
:102610009F7396959F5F27FF10C0891B95E0949F3D
:10262000F001959FF00D1124EE56F94F908196FD23
:10263000869518160CF081E00895890FEFCF85E09C
:10264000849FF001859FF00D1124E057F94FE4813C
:1026500088E0E89FF0011124E85DFF4E8491DECF11
:10266000FF920F931F93CF93DF93D82FF62E08E29C
:102670001EE080E0C82FCC0FF80184913896649159
:102680006F0D8D0F3EDC8C2B0F5F1F4FFEE0003374
:102690001F0781F7CDB7DEB7E5E00C94AF37982F71
:1026A000962B907CB1F4E62FE695E695E69590E4BE
:1026B000E99FF0011124E80FF11DEC5BFE4F6770FC
:1026C00021E030E001C0220F6A95EAF7828182277B
:1026D000828308950F931F93CF93DF93082FC62F04
:1026E00011E0140F1C1749F0D02F6C2F8D2FD7DF5E
:1026F000DF5FD034D1F7CF5FF5CFDF91CF911F915E
:102700000F910895A3E0B0E0E8E8F3E10C948D3771
:10271000182FF62EE42FEE0FFF0BE252FF4E2591FD
:102720003491822F8F718983C90145E096958795F1
:102730004A95E1F78F718A83932F969596959F71AD
:102740009B8303E0911104C002E0811101C001E00C
:10275000CE0101965C01902E910EF50181915F01F1
:10276000EF2C882361F0C82ED12C80FF03C06E2D82
:10277000812F95DFE394C60195958795F2CF1F5F72
:102780001911EBCF802F2396EBE00C94A937FF9221
:102790000F931F93CF93DF93C82FD62FF22E8A016A
:1027A000F801FF2049F04491403274F0403231F496
:1027B000CE5F0F5F1F4FF4CF4081F6CF6D2F8C2F70
:1027C000A1DFCF5FC80FF5CFCDB7DEB7E5E00C9442
:1027D000AF3721E0DCCF0895982F962B907CB9F489
:1027E000E62FE695E695E69590E4E99FF001112441
:1027F000E80FF11DEC5BFE4F677081E090E001C0D7
:10280000880F6A95EAF780959281892382830895DB
:10281000B0E0A0E0EEE0F4E10C948F37D62EC42EA9
:102820007C01C0E0BD2CBC0EF70181917F01DC2D45
:10283000882361F0082F10E080FF03C06D2F8B2DDF
:10284000CBDFC80195958795DF5FF2CFCF5FC430AE
:1028500049F7CDB7DEB7E9E00C94AB371F93CF93C0
:10286000DF93C82F142FD1E0D60FCD1729F0612F99
:102870008C2FB2DFCF5FF9CFDF91CF911F910895F9
:10288000982F962B907CB1F4E62FE695E695E69589
:1028900090E4E99FF0011124E80FF11DEC5BFE4F7D
:1028A000677021E030E001C0220F6A95EAF782816B
:1028B000822B82830895B0E0A0E0E1E6F4E10C947D
:1028C0008F37B62ED42E8C01C0E0CB2CCC0EF80165
:1028D0008491DD2D882361F0E82EF12C80FF03C068
:1028E0006D2F8C2DCDDFC70195958795DF5FF2CFDA
:1028F000F8013596E491DD2DEE2361F0EE2EF12CFA
:10290000E0FF03C06D2F8C2D67DFF701F595E7958C
:10291000DF5FF2CFCF5F0F5F1F4FC530B1F6CDB78E
:10292000DEB7E9E00C94AB37B0E0A0E0EAE9F4E10F
:102930000C949037C42F022F6C01D42FD60FF601C0
:1029400081916F01102F882361F0E82EF12C80FF18
:1029500003C0612F8C2F94DFC701959587951F5F6A
:10296000F2CFCF5FCD13EBCFCDB7DEB7E8E00C945D
:10297000AC37A8E0B0E0EFEBF4E10C948F37182F00
:102980008AEDE82E81E1F82EDE0111966E0188E0D5
:10299000C80ED11CF701BA2E0B2F84918D9331965E
:1029A000AC15BD05D1F728E3412F67E08B2D902FA3
:1029B000BBDF40E2410FAB2DB02FF70184918D9327
:1029C000FFEFEF1AFF0AAC15BD05B9F728E367E082
:1029D0008B2D902FA9DF41E469E382E0810F92DE25
:1029E00042E469E382E2810F8DDE4CEA50E069E364
:1029F0008BE0810FEEDE40EB50E069E38BE2810F6C
:102A0000E8DE2896E9E00C94AB37A4E0B0E0EBE018
:102A1000F5E10C949137162F042F292F22952F7052
:102A20002983292F2F702A839C0194E036952795BE
:102A30009A95E1F72F702B838F708C83FF24FA9483
:102A4000F40EDD24DA94D60E4F2D6D2DCE010196B5
:102A5000DFDE4F2D612FCE010196DADEEE24E39406
:102A6000E10E4F2D6E2DCE010196D2DE402F6D2D41
:102A7000CE010196CDDE402F6E2DCE010196C8DE2F
:102A8000202F412F64E0CE0101964EDF2496E7E02F
:102A90000C94AD371F93CF93DF93182FC62FD1E03F
:102AA000D40FCD1729F06C2F812FEADECF5FF9CF3D
:102AB000DF91CF911F9108951F93CF93DF93C82F7C
:102AC000142FD1E0D60FCD1729F0612F8C2FD8DE2F
:102AD000CF5FF9CFDF91CF911F910895B0E0A0E0D3
:102AE000E4E7F5E10C948C37082F10E0C0E0D12F1B
:102AF0006C2F8D2FC5DEDE5FD034D0F3CE5F81E04A
:102B00001827C034A1F752E0D52E10E0B12EBB0C2F
:102B10004DEF942E9D0CE12CC02FCE0DFE2CFF0C02
:102B2000612F8C2FEED9882309F485C0612F8C2F5B
:102B300012D8882309F43FC0612F8C2F91DDA82E75
:102B40008FEFA81609F437C0D2E0DF0DC92DCD15DF
:102B500031F04C2F6D2F8F2D81DECF5FF8CF882481
:102B600083948F0C6B2D882D8BDE30E1C32EECEF20
:102B7000CE0ECC2DD0E0FE01E259F34F8491FE0140
:102B8000E159F34F9491EA2DE823E91303C0692D2D
:102B9000882D76DEFE01E059F34F8491CF58D34F54
:102BA000FE01C491EA2DE823EC1303C06B2D8F2D99
:102BB00067DEC110DCCFE394F0E2EF12ADCF1F5F10
:102BC000D394D394103209F0A1CF10E08091510832
:102BD000181708F03CC0812F90E0880F991FFC0166
:102BE000E05FF74FC081C7FB222720F98F5E974F28
:102BF000FC01D081D7FB882780F9822B31F5CF7774
:102C0000DF776D2F8C2F0E948E0D8823F1F0C01B73
:102C1000CC0FDD0FFF24FA94FD0E82E0E82EEC0EBF
:102C200092E0D92EDD0EDF1461F04F2D6E2D8C2F2A
:102C300015DEF394F8CF61E06F0D4B2D8F2D0EDE76
:102C4000BACF6D2F81E08C0F1BDE1F5FBFCFD091FD
:102C50004705C09146056D2F8C2F0E948E0D88234D
:102C600061F0C01BCC0FDD0F41E04D0F61E06C0F38
:102C70008C2F22DF6D2F8C2F03DED0914905C09160
:102C800048056D2F8C2F0E948E0D882371F08C2F9C
:102C9000801B880FCD2FCC0FD1E0D80F41E04C0F17
:102CA0006D2F0ADF6C2F8D2FEBDDCDB7DEB7ECE09B
:102CB0000C94A8370F931F93CF93DF93082FC62F41
:102CC000D42F122FF9DE412F6C2F802FF5DE412FEC
:102CD0006D2F802FDFDE412F6D2F8C2FDBDEDF91FC
:102CE000CF911F910F910895B0E0A0E0EAE7F6E1DF
:102CF0000C948B371AEF180F0AEF060FE9EF9E2E90
:102D0000960EF02ED0E0AF2CA694A694A69480E464
:102D1000A89E5001112491E08F2D8770892E01C04B
:102D2000880C8A95EAF7E12EC0E09FE39E1508F42F
:102D300077C08FE18F1508F473C0F501EA5BFB4F94
:102D4000EE0DF11D8081882109F06AC04D2F6C2F96
:102D50008EEC9CE0B0DDE394CB5FC13431F7F394AB
:102D6000DB5F9394D13479F6C12C80915108C81659
:102D700008F0E9C0AC2CB12CAA0CBB1CF501E05F3B
:102D8000F74F808187FDDDC0F82EE894F7F8EF2C2F
:102D9000E11A9CE09E1508F4D4C0F501EF5EF74FF0
:102DA000D081DF77CD2FC01BCD3008F0CAC06D2F8A
:102DB0008F2D0E948E0DDF5F81110DC06D2F8F2D25
:102DC0000E94AB0D8111BDC06D2F8F2D0E948E0D05
:102DD000882309F4B6C08E2D880F880FE80EDC2EEC
:102DE000DD0CDD0CDC0E6D2F8F2D8BD8811182C098
:102DF00080916F08D5E0DD0D44E0842E8E0C99247F
:102E00009A949E0CE11001C0912CD80FCD2DDC17A7
:102E100009F472C04C2F682D892D20DDCF5FF7CFCC
:102E20006F2D8E2D1DDC782E6F2D8E2D6AD8811181
:102E30003BC06F2D8E2D0E94C80D882359F061E094
:102E400080916F08833009F060E06E5F6D0F82E063
:102E50008C0F16DD692D8E2D0E94AB0D882309F491
:102E60007ACF8FEF8C0F77FE8C2F76FE15C074E033
:102E7000772E7C0ED82EDD1CDD24DD1CD80EC12C57
:102E800080916F084FEF4D0FC81648F44C0D672D19
:102E90008D2D12DEC394F4CF63E0762EEACF480F77
:102EA000672D8D2DDBDC57CF4D2F6C2F8EEC9CE0EA
:102EB00002DDD12CC12CF601E254F34F8491F601CE
:102EC000EA53F34F9491E72DE823E9130BC02AE06E
:102ED0002C9DC0012D9D900D11244D2F6C2F8852DB
:102EE000934FE9DC9FEFC91AD90A88E0C816D104CC
:102EF00011F731CF80E07ECFE501CF5ED74FE8817B
:102F0000E7FBEE27E0F9F0E0EE0FFF1FE654F34F8A
:102F1000859194914D2D6E2D78DD68816F778FEFBF
:102F20008F0D0E94AB0D882361F0C3E0CD0D4C2FB7
:102F30006D2D8EEF8E0DAEDD4C2F6D2D85E08E0D3F
:102F4000A9DDC39412CF80914605C82FC11BCD3097
:102F5000A8F460914705D62FD01BDD3078F40E948D
:102F60008E0D882359F04D2F440F440F4D0F6C2FB9
:102F7000660F660F6C0F88EC9EEF47DD8091480569
:102F8000C82FC11BCD30A8F460914905D62FD01BA6
:102F9000DD3078F40E948E0D882359F04D2F440FB8
:102FA000440F4D0F6C2F660F660F6C0F8FEE9CE871
:102FB0002CDDC0E3D7E0E981EF70FE2E01F18A81BC
:102FC000E82EE11A9CE09E15D0F06B81D62ED01A27
:102FD0009D15A8F00E948E0D882389F0EF2DF0E05A
:102FE000EE0FFF1FEE55F34F859194914D2D440F39
:102FF000440F4D0D6E2D660F660F6E0D06DD249687
:1030000087E0C03BD807B9F6C0E9D6E0DC80DD2018
:1030100031F18881F82EF11A9CE09F1500F1698149
:10302000E62EE01A9E15D8F00E948E0D8823B9F086
:103030008BE0D8123CC08A8183FD39C0EB81F0E07F
:10304000EE0FFF1FEE55F34F859194914E2D440FD7
:10305000440F4E0D6F2D660F660F6F0DD6DC259653
:1030600097E0C033D90791F68091500881111AC0BA
:10307000C7E14C2F66E389E0F1DBCF5FCB32C9F7C4
:1030800028E248E164E38AE015DE49E265E38BE08B
:1030900013DD49E269E185E3FDDC43EB50E06EE1DD
:1030A00081E197DBCDB7DEB7EDE00C94A7372DECCF
:1030B000CE0180599640829F802D11246BD9EEE776
:1030C000FCE0882309F4C0CFED2DF0E0EE0FFF1FE8
:1030D000E258F34FB9CF609191068091900604CEEB
:1030E0000895CF93DF93D82FC62F5C9881E20E947A
:1030F0006F0B8D2F0E946F0B8FE38D0F0E946F0B54
:103100005C9AE6E4F1E080E094E000800EBCC1113E
:10311000012C019780FDFDCF0192B9F70DB4DF912D
:10312000CF91089561E080E4DCCF0895682F80E0BE
:10313000D8CF0895CF938091600083FF07C0F894A3
:1031400087E78093000880930108FFCFC0913A0180
:10315000CC2341F08FEF8C0F8C2380933A018C2786
:10316000CF9108952FB7F89480913C0190913D0143
:10317000A0913E01B0913F012FBF2FB7F89440912D
:103180003C0150913D0160913E0170913F012FBF84
:10319000481B590B4430510528F421E023BF889582
:1031A00013BEEBCF0E94670B909139018927E1E3B1
:1031B000F1E030E020E041E0542F582371F15081DC
:1031C0005F5F533010F55083440F2F5F3F4F3196B0
:1031D0002830310589F7C927C0933901E9E2F1E0C8
:1031E00081E02C2F282321F020812150C1F0208361
:1031F000880F319621E0E133F20799F79093280187
:103200009095C923C0933A0196CF1082C42B50E504
:10321000D901A75DBE4F5C93D7CF1082D5CF28E2EE
:103220002083282F20952F609223E2CF80E056DC68
:1032300081E07CDF80E252DC75DF7CDF8430E9F7FF
:103240000895A5E0B0E0E7E2F9E10C9488376C015D
:103250008C019B012F5F3F4FFB01A491A03451F0E3
:10326000C8010196F801A083AA2309F4D4C2B901C8
:103270008C01EFCF7B01F2E0EF0EF11CF90194908D
:103280005A01F2E0AF0EB11CDA018D919C91B3E6C8
:103290009B16C9F1B915E0F1E0E5E91560F0FFE42E
:1032A0009F1608F0BAC02DE4921609F4A9C0A50132
:1032B0009701C801DCCF63E59616C8F375E579156B
:1032C00008F0ABC0A6E59A12F2CF65E0869FF00148
:1032D0001124E057F94F84805A0174E0A70EB11C05
:1032E000FA0162817381C8010E94BE0B8C01F1E07A
:1032F0008F16E9F226E7921205C085E6D8018C9375
:103300000F5F1F4F83E7F80180830F5F1F4FCFCF01
:10331000B3E79B1609F466C0B91508F43FC0E9E6A7
:103320009E1609F4DAC0F0E7BC019F1609F470C0DC
:1033300024E69212BCCFAC01407855272DE287FFDE
:103340002BE2F8013196D8012C93452B11F0819591
:1033500090E020E041E0420F30E0BE016F5F7F4F20
:103360004B018B01020F131F6AE070E00E94593776
:10337000D8018C93CB01009709F04BC22F5F3F4FD0
:10338000D401A20FB31F8F010F5F1F4F8E91805D7D
:103390008083F8018A169B06B1F789CF66E79616F7
:1033A00009F493CF78E7971629F0A5E79A127FCF13
:1033B000F801CFCFFC01B4E0F595E795BA95E1F7B8
:1033C000EF70FF27EE5CF04FE491D801EC938F7023
:1033D0009927FC01EE5CF04F8491F80181830E5F28
:1033E0001F4F65CFA801F8018F01DC01A41BB50BAD
:1033F000AE0FBF1F2C91222309F459CF2193F4CF94
:10340000FC01FF27EE0FFF1FE25FF04F6591749103
:10341000C8010E94BE0B8C014ACF898325E0829FA0
:10342000F0011124E057F94F8480692D6170762EE8
:1034300081111EC072E589E579150CF089E7D80184
:103440008C938FE6F801818385E78283772059F09A
:103450000D5F1F4FF5E59F122ACF21E082123AC07F
:103460006EEB70E0D5CF82E783830C5F1F4FF2CF06
:103470000E94CA11882301F1F2E5F915D4F462EC37
:1034800070E0C8010E94BE0BE82DF0E0EE0FFF1FB8
:10349000E25FF04F659174910E94BE0B8C01711038
:1034A000D9CF87E2F801808383E781830E5F1F4FC6
:1034B000D1CF67EC70E0E5CF22E593E529150CF05C
:1034C00093E798012F5F3F4FD8019C936CEC70E01D
:1034D000C901E2CF65ED70E09BCFDA018C90FA0173
:1034E0006180F62DFF707F2E62946FE06622282D9A
:1034F0002F73922E882D807C803C31F468ED70E033
:10350000C8010E94BE0B8C01EFEFE70DEB3008F015
:10351000CECEF0E0E257F54E0C948037991A9C1B02
:10352000D41BA21AA51AA81AE81A461BBE1ABE1A5C
:10353000BE1A40EE50E030E020E0692DC8010E9444
:10354000C90B69CF4CEE50E0F6CF62EF70E060CF70
:1035500066EF70E0C8010E94BE0B8C0186FEA7CE0C
:1035600087FE03C08EEF8919982E8CEF90E023E040
:10357000290D1F922F939F938F931EC0672D695023
:10358000770BFB01EE0FFF1FE85FF04F6591749121
:10359000C8010E94BE0B8C0186FE89CE87FE03C047
:1035A0008EEF8919982E26E031E0892D8719845FE6
:1035B0001F928F933F932F931F930F9333D1080F35
:1035C000111D0F900F900F900F900F900F906FCED6
:1035D000462C512C92012F5E3F4FF90143E0F695A6
:1035E000E7954A95E1F7E959F74F808190E0277018
:1035F000332702C0959587952A95E2F780FF35C05D
:1036000060E171E0C8010E94BE0BF201EE0FFF1FE6
:10361000E850F14F659174910E94BE0B8C0186FEBB
:1036200046CE89E191E087FC0CC0939472E0671666
:10363000B1F0761540F0A1E06A1671F01F929F92EA
:103640009ACF9094F3CFB3E06B1661F0E6E06E1280
:10365000F5CF8AE191E0F2CF84E291E0EFCF8EE204
:1036600091E0ECCF88E391E0E9CFF201EC5EF64F18
:10367000E081F0E0EE0FFF1FE851F14F659174918A
:10368000C8010E94BE0B62E471E0C3CE462C512CEF
:103690009201275E3F4FF90183E0F695E7958A9501
:1036A000E1F7E959F74F808190E02770332702C096
:1036B000959587952A95E2F780FF2DC068E471E023
:1036C000C8010E94BE0BF201EE0FFF1FEA52F14F3C
:1036D000659174910E94BE0B8C0186FEE8CD61104D
:1036E000E6CD9694892D90E001964DE287FE4BE25F
:1036F00023E531E09F938F931F924F933F932F9336
:103700001F930F938FD0080F111D0FB6F894DEBFD3
:103710000FBECDBFCCCDF201E45EF64FE081F0E00C
:10372000EE0FFF1FE851F14F65917491C8010E949F
:10373000BE0B6FE571E06DCE462C512CF20173E0AB
:10374000F695E7957A95E1F7E959F74F808190E092
:10375000762D7770672E02C0959587957A95E2F75A
:1037600080FF14C047E651E030E020E0692DC80139
:103770000E94C90B6EE671E00E94BE0BF201EE0FD3
:10378000FF1FEA53F14F6591749143CE23E731E077
:10379000F201ED5FF64FE081F0E0EE0FFF1FEA541B
:1037A000F14F45915491C9CE712C9301285F3F4F41
:1037B000F90143E0F695E7954A95E1F7E959F74FA6
:1037C000808190E02770332702C0959587952A95D0
:1037D000E2F780FF12C04AE751E030E020E0692DB7
:1037E000C8010E94C90B61E871E00E94BE0BF301A1
:1037F000EE0FFF1FEC55F14FC6CF26E831E0F30185
:10380000E55FF64FE081F0E0EE0FFF1FEE56F14F5F
:10381000C8CF242F9FCD8C199D0981502596E0E1BA
:103820000C94A437B0E0A0E0E8E1FCE10C949637FA
:10383000AE01475F5F4F6F8178858D819E8101DD8D
:10384000E2E00C94B237A0E4B0E0E9E2FCE10C94D1
:103850009637AE01475B5F4F29966EAD7FAD2997D6
:10386000CE010196EEDC20E0AE014F5F5F4F279660
:103870006FAD279726968FAD26970E94C713C05C21
:10388000DF4FE2E00C94B237CF93C0916F08809184
:103890006F08837080936F081EDC81E047DC41E88D
:1038A0005EE061E084E10E94E9138DE891E02091FF
:1038B0006F081F922F939F938F9389E08F9383E0DC
:1038C0008F93C1DF2FDC36DC0F900F900F900F909D
:1038D0000F900F9090916F089150803229F08034B2
:1038E00029F490916F089F5F90936F08982F9C70B8
:1038F00009F4CDCF843011F4C0936F08CF910895AF
:10390000E0EAF1E09E2F3F2F421304C0E8EAF1E025
:103910009E2F3F2FA42FA21BBB0BFD01FF93AF9344
:103920001F924F933F939F936F938F938CDF8DB72D
:103930009EB708960FB6F8949EBF0FBE8DBF089530
:103940000F931F93CF93DF93D82F4BEA51E060E0A2
:103950008EE18D0F0E94E91346E06FE380E0ACD862
:1039600001E71EE0C9E0F801459154916C2F8D2FBD
:103970000E94E913CA5F0E5F1F4FC933A1F78EEB98
:1039800091E020914D052F9320914C052F939F930B
:103990008F9389E08F93C8E2CD0FCF9354DF21EC52
:1039A00031E080916D0890E001969F938F933F9353
:1039B0002F938FE08F93CF9346DF1091590880E0CB
:1039C0000E94B312212F482F65E18C2F99DF80E0F0
:1039D0000E945D12182F20915508482F6BE18C2F03
:1039E0008FDF0091560880E00E944212202F482F5E
:1039F00061E28C2F85DF80E00E948F12212F482FFB
:103A000067E28C2F7DDF1091580880E00E9406123B
:103A1000212F482F6DE28C2F73DF1091570880E023
:103A20000E94EE12212F482F63E38C2F69DF44ECB4
:103A300051E069E086E48D0F0E94E91380919206BF
:103A40002DB73EB7245F3F4F0FB6F8943EBF0FBE71
:103A50002DBFC9E080FF08C04DEC51E06FE08BE462
:103A60008D0F0E94E913CFE08091920681FF08C07C
:103A700046ED51E0CA5F6C2F8BE48D0F0E94E91375
:103A80008091920682FF08C040EE51E0CA5F6C2F21
:103A90008BE48D0F0E94E9138091920684FF08C089
:103AA00049EE51E0CA5F6C2F8BE48D0F0E94E91341
:103AB00080916E088F3F69F443EF51E066E06C0F30
:103AC0008BE48D0F0E94E913DF91CF911F910F912D
:103AD0000895C930C9F74CEF51E06FE0F1CF80E0B5
:103AE0002FDF81E023DB80EC2BDF1CDB23DB84304A
:103AF000E9F70895B0E0A0E0E0E8FDE10C9491372B
:103B0000E82EEA01F22EAB0160E00E94E91347E0E3
:103B10006FE380E00E945C151AE085E28F1508F4DF
:103B200037C0FE01EF0DF11DD0809FEFD91681F156
:103B30008FE18D1508F436C0E0E6F8E08191D816E3
:103B400009F441C098E0E736F907C1F781E092E057
:103B5000ED2DF0E0EE0FFF1FE05BF94F21812F9379
:103B600020812F939F938F931F9387E08E0D8F93C8
:103B70006ADE0F900F900F900F900F900F900F1123
:103B800007C045E0410F6FEF610F80E00E946A13AC
:103B90001A5FF394103409F0C0CFCDB7DEB7E7E079
:103BA0000C94AD37E110F4CF8D2D8052990BFC01B0
:103BB000EE0FFF1FEE5BF14F45915491612F80E0B6
:103BC0000E94E913E5CF43E2612F81E08E0D0E9450
:103BD0008213BCCFA7E2B0E0E0EFFDE10C948C379C
:103BE0005C0110E0DE0111967D01AD014F5F5F4F7A
:103BF00080E2810F8C93CA0130E020E0F901EE0FE2
:103C0000FF1FEF5AF94FE081EF70E60FF72FF11D1C
:103C1000E491E11303C0FC01208301962F5F3F4F25
:103C20002032310559F78417950709F0DC011F5F31
:103C30001630D9F66D01CE18DF088C2CCE0188968F
:103C4000A817B90718F48FEF8D93F8CF912C11E0D6
:103C5000012F292DA701B50180E04CDF81E066DA54
:103C6000292DA701B50180EC45DF5CDA63DA8430E9
:103C700009F442C0883051F4F701E10FF11D808151
:103C8000A796ECE00C94A837182FE2CF8031E9F426
:103C90002C2D2150330B121713064CF581E0810FA8
:103CA000F701E80FF11D9081903210F082E0810F52
:103CB000292D30E0285F3F4F8217130609F0CCF41E
:103CC000891510F79DEF990EFBCF803871F48FEFB7
:103CD000123048F0810FF701E80FF11D908190320A
:103CE00038F38EEFE4CF880DE3CF812FE1CF81E071
:103CF000E7CF33E0930EDCCF8FEFC2CFCF93DF93CC
:103D0000EC0184E092E065E67EE064DF803238F426
:103D100093E09883898381E0DF91CF91089580E0DB
:103D2000FBCF85E192E065E67EE054CF0895CF9326
:103D3000DF93EC018FE192E065E67EE04BDF8032BD
:103D400038F491E09883898381E0DF91CF910895E1
:103D500080E0FBCFA6E0B0E0E0EBFEE10C948E3714
:103D6000082FC62E4FE252E060E08EE2800F0E94E4
:103D7000E91346E06FE380E00E945C1590E7E92ECE
:103D800098E0F92E1BE0D12CF7018281811119C036
:103D9000D394195FF4E0EF0EF11C1732A9F793E00A
:103DA0009C1558F04BE352E060E385E2800F0E94DF
:103DB000E91387E2800F0E94B9142696EAE00C947A
:103DC000AA37B080A180282F2150330BF901EE0FC4
:103DD000FF1FE85CF14F85919491F70123811F92B9
:103DE0002F939F938F931F930F932DDD8CE492E07D
:103DF000AF92BF929F938F939E012F5F3F4F5901C8
:103E00003F932F930FDD982F990F990F20E0A50175
:103E1000612F8FE7800F891B0E94C7130FB6F8949C
:103E2000DEBF0FBECDBFCD10B3CF45E0410F6FEF6A
:103E3000610F80E00E946A13ABCFCF93DF932FE432
:103E400032E08091520890E001969F938F933F93C8
:103E50002F931F9281E08F93F6DC40E652E066E0FC
:103E600081E00E94E91343E652E066E081E20E94AD
:103E7000E91380E00E94B312C82FD091930629E085
:103E800047E06AE189E00E945A160F900F900F9068
:103E90000F900F900F90CC2351F020E1D29FC001E2
:103EA000112408966C2F70E00E945937C62F69E0E4
:103EB0006C0F48E08AE00E945C15C0916D08CF301D
:103EC00008F0CFE0D0915A0829E047E06AE389E2A0
:103ED0000E945A1620E1D29FC00111240896C29573
:103EE000C07FC65F6C2F70E00E945937675D48E065
:103EF0008AE20E945C1580916E08893C30F046E6AB
:103F000052E06CE081E00E94E913DF91CF910895C7
:103F1000FF920F931F93CF93DF938C01EB018DDF03
:103F2000AE016DE185E00E94E9134DE652E063E2E7
:103F300085E00E94E913C8E180E2F82EFC0ED9E486
:103F4000DC1B4F2D6D2F8C2F0E944A154F2D6D2F8E
:103F50008FE38C1B0E944A159BE0F92EFC0ED4E3E4
:103F6000DC1B46E14C0F6F2D8D2F0E945C1543E545
:103F70004C1B6F2D8D2F0E945C15C150C431E1F692
:103F8000D1D8D8D88032A9F020F4803151F080E027
:103F90000BC0803491F08038D1F7F801108281E0B5
:103FA00003C081E0F8018083CDB7DEB7E5E00C9473
:103FB000AF3782E0F8018083F2CF83E0FBCF25E0CA
:103FC000FC012193CF016AE57EE0A2CF0895A1E034
:103FD000B0E0EDEEFFE10C94943710919006009163
:103FE0009106602F812F0E94741681E09FD86EE7A2
:103FF00072E0CE0101968CDF882301F1298130E047
:10400000F901E657F14FE49184E0E802F001112450
:104010001E0FF901E257F14FE49184E0E802B0018C
:104020001124600F17FD10E067FD60E0103408F008
:104030001FE3062F6032A8F20FE1D3CF2196E4E010
:104040000C94B0376DE872E063CF0895EF92FF9261
:104050000F931F93CF93DF93F0DEC0E00DE1D1E02B
:1040600080910009C81728F58C2F90E09C012058FA
:10407000374F7901C9010E941C09182F2D2F280FD5
:104080003327331F2134310514F00A5FD1E020E0DB
:10409000A701602F8D2F0E94C7131E5FD10FEC2F39
:1040A000CF5FF0E0E058F74F8081EC2F8111F8CF1F
:1040B000D7CFCDB7DEB7E6E00C94AE370CD881E0B1
:1040C00035D8C4DF4EE852E06BE38BE20E94E9137F
:1040D00029D830D88830E9F71092000981E0809320
:1040E00001098DE1809302090895A0E8B0E0EBE7B3
:1040F000F0E20C948E37AE0143575F4FFA016191A5
:104100007191AF01CE0101967C019BD8F701AE2ED3
:10411000AE1881918111FBCF10E0F701E10FF11D85
:104120001F5F80818132CCF7108200E0809100090E
:10413000810F801B813808F0C1DFC02ED12CC70150
:104140008C0D9D1D0E941C09B82E809102098B3395
:1041500040F0809101098B0D9927991F8B970CF0E6
:10416000ADDFD701AC0DBD1D011768F4E09100096A
:1041700081E08E0F809300098D91F0E0E058F74FB9
:1041800080830F5FF1CF809101098B0D9927991FD3
:104190008134910544F081E0809301098091020906
:1041A0008A5F80930209809101098E5F8B0D809355
:1041B00001091A1560F4812FF701E80FF11D8F5FD7
:1041C00090819132CCF71082012F182FAFCFC058B9
:1041D000DF4FEAE00C94AA37CF93DF93282F30E02B
:1041E000A901440F551FFA01EF5AF94F90819F70B2
:1041F000973010F565E972E0962F672F405B594FB5
:10420000FA01408147FF1BC040EA52E0220F331FF2
:10421000F901E05BF94F81818F9380818F936F93D8
:104220009F935F934F9361DF0F900F900F900F90CC
:104230000F900F9080E024C06DEB72E0DDCF40E680
:1042400058E0EA014F5F5F4F788178131CC046EC5D
:1042500052E0220F331FF901E05BF94F81818F9308
:1042600080818F936F939F935F934F933EDF8FEF88
:1042700088830F900F900F900F900F900F9081E018
:10428000DF91CF910895F8E047365F07D1F6D2CF9E
:104290000F931F93CF938C01E0916008E03248F4B4
:1042A000F0E0EE0FFF1FEF5AF94F80818F708530DD
:1042B00069F085ED92E09F938F9317DF0F900F9039
:1042C000C0E08C2FCF911F910F91089590E080E076
:1042D000C0E0FC01EE0FFF1FEF5AF94F20812F7055
:1042E00031E0243009F030E0C32B01968032910593
:1042F00081F7C11108C08FEE92E09F938F93F5DE96
:104300000F900F90DECFC80101969CDEC82F882346
:10431000C1F282E0F8018083D4CF952F9F70953051
:10432000D8F4E0E3F7E09281981311C093819613DB
:104330000EC0918195130BC080818F738F3309F06C
:104340008F5F8F739081907C892B80830895349642
:1043500097E0E03BF90739F7E0E3F7E091819F70E0
:1043600029F482836383408351830895349697E0D0
:10437000E03BF90799F783E093E05F934F939F93B6
:104380008F93B3DE0F900F900F900F9008951F93AF
:10439000CF93DF93182FC0916D082FE0CF3008F432
:1043A0002C2F2295207FDAE0D20F66E087E00E9472
:1043B000A011882331F0812F90E001969595879583
:1043C000180F80915A084D2F411B550B8417150665
:1043D00009F00CF444C0CF5FC0936D0822E133E0D4
:1043E0008C2F90E001969F938F933F932F937DDEC8
:1043F000809159088C5F8093590880916D080F90C7
:104400000F900F900F908431F8F48370823061F434
:104410008BE293E09F938F9368DE809155088F5FC6
:10442000809355080F900F9080916D08837061F410
:104430008EE393E09F938F9358DE809156088F5FB1
:10444000809356080F900F9080E00E94B3128093E3
:10445000930610925A08DF91CF911F910895180F7B
:1044600010935A08F8CF0F931F93CF93082F10E0A3
:1044700095E0899FF0011124EE56F94F908191FD4E
:1044800023C0C82F0E94CA11882359F080E593E009
:104490001F920F939F938F9328DE0F900F900F9092
:1044A0000F90C11106C00E94AD0F83708C5F809386
:1044B0005D0885E0809FF001819FF00D1124EE568C
:1044C000F94F808182608083CF911F910F91089571
:1044D0000F931F93CF93C82F811106C066E085E02C
:1044E0000E94A011811126C00C2F10E085E0C89F0A
:1044F000F0011124EE56F94F808182FD1BC08C2FF4
:104500000E94CA11882359F08EE593E01F92CF9341
:104510009F938F93EADD0F900F900F900F9085E09F
:10452000809FF001819FF00D1124EE56F94F80819C
:1045300084608083CF911F910F9108950F931F93F3
:10454000CF93C82F811106C066E081E00E94A011C0
:10455000811125C00C2F10E08C2F0E94CA118823D6
:1045600059F08BE693E01F92CF939F938F93BDDD1D
:104570000F900F900F900F90C11106C00E94AD0FC9
:1045800083708C5F80935C0885E0809FF001819F41
:10459000F00D1124EE56F94F808181608083CF9118
:1045A0001F910F910895EF92FF920F931F93CF9356
:1045B000082F10E045E0849F90011124F901E05795
:1045C000F94F7F019381691708F438C0C82F28E795
:1045D00033E08CE793E03F932F931F920F931F924A
:1045E0000F939F938F9381DDF70113821482E091E3
:1045F000520840E1E49FF0011124EC5AFA4F83E0A5
:10460000169507958A95E1F7E00FF11FC77021E035
:1046100030E001C0220FCA95EAF78081822B8083A7
:104620008DB79EB708960FB6F8949EBF0FBE8DBF8C
:10463000CF911F910F91FF90EF900895961B938358
:10464000F7CF87E00E94BF1181111AC080916E08D8
:104650008F3FD9F480919306882389F083E893E013
:104660009F938F9342DD85E080934E050E94AD0FAE
:10467000817061E0680F80E096DF0F900F900895E1
:104680000E94AD0F80FDE2CF08958F5F80936E088A
:104690000895CF92DF92FF920F931F93CF93DF93F2
:1046A000C82FD62FC82ED12C0E94B312182F85E008
:1046B0008C9DF0018D9DF00D1124E057F94F838101
:1046C000811718F5D33048F585E993E0082FF92EC6
:1046D000C11126C08FE993E0FF920F939F938F93B0
:1046E00004DD0F900F900F900F9085E08C9DF001EE
:1046F0008D9DF00D1124E057F94F6381212F261B6A
:10470000330BD21713060CF11383DF91CF911F9156
:104710000F91FF90DF90CF90089582EB93E0D6CF7A
:104720008C2F0E94CA11882301F383EB93E0FF9240
:104730000F931F92CF939F938F93D7DC0F900F907F
:104740000F900F900F900F90D0CF6D0F6383DDCF40
:10475000A8E0B0E0EEEAF3E20C948F37F82E062FD3
:10476000E42E15E0819FF0011124E057F94FB48049
:10477000BE016F5F7F4F0E94FD0BC02ED12C1C9D90
:10478000F0011D9DF00D1124E057F94F1481011126
:1047900005C084E080934E05B0924F056E2D802FAA
:1047A00002DF85E08C9DF0018D9DF00D1124E05716
:1047B000F94F8481811119C0F11013C088E0189F4E
:1047C000F0011124E55DFF4E1491812FE0DD809111
:1047D0004C0590914D05810F911D90934D0580934F
:1047E0004C052896E9E00C94AB37898185FD08C01B
:1047F000F11032C066E084E00E94A011882361F1CC
:104800000E94AD0F883240F586EC93E01F920F9323
:104810001F92FF929F938F9368DC0F900F900F90E1
:104820000F900F900F90011114C080E00E94B312FE
:1048300090915F089D5F981760F590935F0880E006
:104840000E94B31290919306891708F4982F9093C1
:10485000930663E08F2D1DDF898186FF06C00E94CD
:10486000AD0F883210F4802F69DE898184FF06C085
:104870000E94AD0F883210F4802F2ADE898187FFD5
:10488000B0CF0E94AD0F883208F0ABCF802FEBDDA8
:10489000A8CF815080935F08D2CF95E0899FF00127
:1048A0001124DF01AE56B94F9C9192FF0BC09B7F44
:1048B0009C93811107C08BED93E09F938F9315DC40
:1048C0000F900F9008950F931F93CF93DF93E62FD0
:1048D000F0E0DF0193E0B695A7959A95E1F7A95925
:1048E000B74F962F977021E030E001C0220F9A95C4
:1048F000EAF79C91922B9C936830E8F4D82FED57FF
:10490000FB4D0C9480378B249A24A024A224BA2433
:10491000D324D52403250E94B312C82F86950E9464
:104920001B10C695C6956C2F680F8D2FB2DE8D2F8C
:10493000B4DF01C003DEDF91CF911F910F91089585
:10494000C7DDF9CF85E0D89FF0011124EE56F94F6D
:10495000808182FDECCFD111EECF82EF93E09F9367
:104960008F93C3DB809155088F5F809355080F901C
:104970000F90E1CF81110DC00E94AD0F8F70845F49
:1049800080935B0885E094E09F938F93AEDB0F905C
:104990000F9085E0D89FF0011124EE56F94F8081E9
:1049A00080618083C8CF5FDDC6CF082F10E085E02F
:1049B000D89FF0011124EE56F94F808186FDBBCFC0
:1049C0008D2F0E94CA11882359F089E194E01F922B
:1049D000DF939F938F9389DB0F900F900F900F9031
:1049E000D11106C00E94AD0F83708C5F80935E086A
:1049F00085E0809FF001819FF00D1124EE56F94F64
:104A000080818064CECF811196CF82E3C0DC93CFCA
:104A1000ADE0B0E0EEE0F5E20C948B37182F962E67
:104A2000F72EC82ED12C872F83708D87662309F42B
:104A30002AC085E08C9DF0018D9DF00D1124EE566D
:104A4000F94F808181FF10C0112331F011E0812FD7
:104A50002D96EDE00C94A73784E294E09F938F931A
:104A600044DB0F900F90F2CF80FF0DC00E94AD0F7E
:104A700083708D87111107C087E394E09F938F9314
:104A800034DB0F900F902D8530E0F901E657F14FA0
:104A9000E490F901E257F14F049185E08C9DF0011B
:104AA0008D9DF00D1124E057F94F8081E80EE181D2
:104AB0000E0F602F8E2D0E94460D5C01BE016F5FB0
:104AC0007F4F812F0E94FD0B46E0491580F1E92DB3
:104AD000F0E0E359FA4D0C948037E1277425CB2898
:104AE0000D284C280A272B27CF2CD12C5601AA0C95
:104AF000BB1CF501EF5AF94F8081182F1F70E82E6B
:104B0000E2949FE0E922153048F466E082E00E94DA
:104B1000A01181110EC08F2D0E94280D133009F4B1
:104B20003BC060F4113079F1123009F431C010E06B
:104B30008ECF0E94AD0F87FFEECFF0CF1550E0E68D
:104B4000F8E01730A0F78191F81609F4ABC348E0FC
:104B5000E736F407C1F7F501EF5AF94F80818F70FE
:104B6000E82EEBEFE80F0FEFE73008F01FC1F0E0A1
:104B7000E454FA4D0C94803759295929C326D52677
:104B800057295B29ED2610926E0889E494E066CFE0
:104B90006E2D80E098DE5ACFEE2DF0E0CF01089622
:104BA000DC0113E0B695A7951A95E1F7A959B74F1F
:104BB0008770992721E030E001C0220F8A95EAF73B
:104BC0008C91822B8C9358E05E1508F43FCFE55111
:104BD000FA4D0C948037F42514263C265D266B266E
:104BE000762676267626762688E594E065E67EE0CB
:104BF0000E94EA1D182F803208F02BC00E94750B0E
:104C00008DE694E0E12FF0E0EE0FFF1FE05BF94F3F
:104C100021812F9320812F939F938F9366DA0F909A
:104C20000F900F900F9012CF81E894E065E67EE040
:104C30000E94EA1D803268F4282F30E0D901AA0FC3
:104C4000BB1FCD018F5A994FFC0180818F70853039
:104C500018F485E994E002CFA05BB94F8C91982FAE
:104C60009F739F3329F09F5F9F73807C892B8C9368
:104C700086EA94E0F901C8CF86EC94E065E67EE030
:104C80000E94EA1D803228F7282F30E0D901AA0FB0
:104C9000BB1FCD018F5A994FFC0180818F708530E9
:104CA00008F4D7CFA05BB94F8C9187FFD2CF807427
:104CB0008C938AED94E0FD01ABCF61E976E080E969
:104CC00096E00E949C108BEF94E09F938F930DDAF7
:104CD00080E034DCC6CEE6E4F4E08FEF819345E07B
:104CE000E634F407D1F782E295E0B8CE54E4C52E5D
:104CF00051E0D52E10E000E0F02EF601E05BFA4F17
:104D000080818823F9F0802F0E94CA118823D1F076
:104D100055E0E51220C0E09EF001E19EF00D112467
:104D2000EE56F94F808180628083002359F089E438
:104D300095E01F930F939F938F93D7D90F900F9068
:104D40000F900F900F5F1F4FF5E0CF0ED11C003278
:104D5000110591F67BCE86E0E81209C0F601E15B11
:104D6000FA4F80818695808383E595E0E2CF97E0D6
:104D7000E91203C0802FE2DBE5CFE8E0EE12E2CFDC
:104D8000802FA6DBDFCF80916408803260F4E09151
:104D90006508E03200F5F0E0EE0FFF1FE05BF94F31
:104DA000808187FF18C004E001C006E010E0005ACF
:104DB000174FF8018081803290F08F2D0E94750B83
:104DC000F601EE0FFF1FE05BF94F46E04E1558F479
:104DD00080E695E00AC005E0E9CF03E0E7CFFCD923
:104DE0008111EBCFA4CE87E695E09C018DE695E09E
:104DF00041814F9340814F933F932F939F938F9384
:104E000074D9F801F0820F900F900F900F900F90CF
:104E10000F901CCE602F8E2D0E94650DFC01892BFA
:104E2000B9F0808187FD14C0918197FD08C08CE79F
:104E300095E09F938F9359D90F900F9078CEA1143E
:104E4000B10419F088E995E0F4CF9F779183FECD06
:104E50008DEA95E0EECF602F8E2D0E94650DFC014E
:104E6000892B61F1818187FD29C0908197FD26C042
:104E70009A8191FF23C080688183A091520840E10C
:104E8000A49FD0011124A45ABA4FE051F840F595DF
:104E9000E795CF01992723E0969587952A95E1F725
:104EA000A80FB91FE770FF2721E030E001C0220FF3
:104EB000EA95EAF78C91822B8C93C8CD602F8E2DCA
:104EC0000E94AB0D811133CEA114B10409F46EC060
:104ED000C501805996402DEC3CEC829F7001839F68
:104EE000F00C929FF00C1124812F0E944212D82EB8
:104EF0008E2D0E944212082F8D2D880F800F0E9448
:104F00001B10C82E812F0E94CA118111D6C18E2D6F
:104F10000E94CA11D82E8111D0C1112309F4EAC10F
:104F2000C01608F493CD812F0E948F12082F8E2D6A
:104F30000E940612C82E802F0E94ED11082F8C2D82
:104F40000E94ED11202F269530E0009F200D311D8D
:104F500011242F5F3F4FE02FE80FFF27FF1FBF01F6
:104F60006F5F7F4FC9010E946D37062F662309F4DA
:104F7000C5C1DD20B1F024EC35E088EC95E0A70157
:104F800055275F934F933F932F931F921F931F9229
:104F90001F939F938F93A9D80FB6F894DEBF0FBECF
:104FA000CDBF402F6E2D812FD3DB50CD85E08C9D62
:104FB000F0018D9DF00D1124E057F94FE08201833F
:104FC00045CD111143CD0AE81EE0EEE8CE2EEEE00D
:104FD000DE2EF801949134966491E09191066E0F63
:104FE00080919006890F0E94650D7C01009779F0F1
:104FF000FC01808187FF0BC082ED95E09F938F932A
:1050000074D8F70180818F7780830F900F900F5FA6
:105010001F4FC016D106E9F619CDAF2CB12CAA0C42
:10502000BB1CF501E05BF94FE0800181E0E6F8E0B0
:10503000083861F48BEE95E00F93EF929F938F9376
:1050400054D80F900F900F900F9071CD8191F8165A
:1050500009F456C148E0E736F407C1F78AE096E064
:105060000F93EF929F938F9340D88F2D0E94280D1E
:1050700085E08C9DF0018D9DF00D1124E057F94FD6
:105080004E2D502F6181808148D9F501E05BF94FA9
:105090008181807F8183C3CDCE010D960E94222025
:1050A000182F882309F4D3CC8D8590E0FC01E657B6
:1050B000F14FB490FC01E257F14FA4908F2D90E096
:1050C000880F991FFC01E05BF94F908001818F5A96
:1050D000994FFC01E080E2945FE0E5228F2D0E9471
:1050E000280DF92DF07C9F2E85E08C9DF0018D9D83
:1050F000F00D1124E057F94FF080818068E0762EA2
:10510000FB0C8A0C682D8F2D0E94AB0D811131C0D4
:10511000682D8F2D0E94460D009741F180599640D1
:105120002DEC3CEC829F6001839FD00C929FD00CB1
:1051300011248C2D0E94D5122BE136E00F708E2D9C
:105140008295807F082BC60199279F938F930F9399
:105150009F923F932F930E9475206E2D8C2DB3DB71
:105160000F900F900F900F900F900F907A947110F6
:10517000C7CF8BE296E0E29430EFE3220F700E2966
:105180000F939F929F938F930E9475200F900F9083
:105190000F900F905CCC90E080E0E82FDC01AA0F2C
:1051A000BB1FAF5AB94F2C912F70243029F00196B4
:1051B0008032910591F7E0E2F0E0EE0FFF1FDF0192
:1051C000A05BB94F8C91982F9F7309F040C0FD01EF
:1051D0008181807F81839E01275F3F4F48E06F2D53
:1051E00080E00E94370FFB844FE14F1508F44FC059
:1051F00080E00E944212082F8F2D0E944212182F29
:10520000802F880F800F810F0E941B10811728F1BB
:10521000802F0E941B10E82E80E00E945D12102F4C
:1052200016951F5F1E0D86958695180F8F2D0E946F
:10523000061286958F5F0E941B10181B8B8590E0CD
:10524000111101C011E02CE336E0A9010CC091500E
:105250009F73807C892B8C93BECF8B8590E020E45C
:1052600036E0A90110E026E436E09F938F935F9328
:105270004F933F932F930E947520412F6B8580E0C1
:1052800067DA0F900F900F900F900F900F900E9481
:10529000AD0F803408F4DACB40E054E06A858985AC
:1052A0003CD8D4CB8F2D0E94EC20182FD0CB01E01E
:1052B0007DCD00E07BCD02E079CDC01640F529E53B
:1052C00036E08EE596E0A70155275F934F933F9315
:1052D0002F931F921F931F921F939F938F930E9450
:1052E00075200FB6F894DEBF0FBECDBF1111AECB47
:1052F000DD24D3948E2D0E94D51212CE01E039CE3A
:105300008F2D0E94EC20182F8111A8CEA0CBDD2478
:10531000D394111108CEECCF0E946B1881E00E944B
:1053200096180E9426200C9492180895CF93DF932C
:10533000EC0188E696E06EE47EE00E94EA1D803291
:1053400040F494E098838983E7DF81E0DF91CF9197
:10535000089580E0FBCF8F929F92BF92CF92DF9211
:10536000EF92FF920F931F93CF93DF93CDB7DEB7EA
:10537000C058D1090FB6F894DEBF0FBECDBF8E0165
:1053800002571F4FF801E190F1908F010E941D1FFD
:10539000A801B7019E012F5F3F4F7901C9010E940B
:1053A0002119F701BE2EBE1881918111FBCF8B15FB
:1053B00048F4F701E80FF11D8F5F90819132CCF72F
:1053C0001082F5CF10E08DE1C82E01E01B1520F50D
:1053D0004701810E911CC4010E941C09D82EE02FA8
:1053E000E80FFF27FF1FE134F1051CF0F6E0CF0EB8
:1053F00001E020E0A4016C2D802F0E94C713D394FC
:10540000D3940D0DE12F1F5FEE0DFF2DF11D808157
:10541000E12F8111F8CFDACF87E00E94B9140E9402
:1054200092180E949A18182F8C70D9F375DF81E0BA
:10543000183009F080E0C058DF4F0FB6F894DEBF97
:105440000FBECDBFDF91CF911F910F91FF90EF90D5
:10545000DF90CF90BF909F908F900895ABE0B0E029
:10546000E4E3FAE20C948D3780914A0590914B0564
:10547000909345018093440110E0809152081817E1
:1054800038F409ED0E94AD0F0150E1F71F5FF5CF31
:10549000E6E4F3E08FEF819324E0E634F207D1F7FE
:1054A00060E071E086E494E00E94671160E870E0DB
:1054B00080E397E00E94671160E670E080EB97E080
:1054C0000E94671160E470E080E198E00E9467113B
:1054D00010925008109251081FDF0E9430119091D5
:1054E00052089F3009F480E84DE06DE10E94AE0E55
:1054F000E12C60E1F62E80915008803208F048C01F
:105500000E941B1043E0849FF0011124E055F84FE6
:10551000D080C180B2800E94AD0F182F13700E94FE
:105520003011082F9E01265F3F4FAE01455F5F4F50
:105530006B2D812F0E94E7109E012F5F3F4FAE0120
:10554000475F5F4F602F81E081270E94E710412F66
:1055500050E0FA01E657F14F94914257514FFA014A
:1055600044911B85190F1D0DDA84D40EDC0C898142
:10557000481B4D0D8985E92FE81B6E2F610F802F89
:105580000E94AE0E882321F06D2D812F0E94C60F40
:10559000F1E0EF1AF10809F0AECFC12C54E0D52E9E
:1055A000809150080E941B1023E0829FF00111247B
:1055B000E055F84F10810181F2800E94AD0F837099
:1055C000B82E9E012F5F3F4FAE01475F5F4F6F2D9B
:1055D0000E94E7106B2D70E0FB01E657F14F8491BC
:1055E000810FE9858E0F89876257714FFB016491A6
:1055F000600FE9816E0F69830E94AB0D882349F12A
:10560000A12C0981198580915008A81608F0E5C0E1
:105610008A2D90E0F3E0AF9E90011124A90140553E
:10562000584F7A01FC01EE0FFF1FE80FF91FE055FC
:10563000F84F8081181B9180C7010E94EF0C18174A
:1056400010F0A394DECFC7010E94D70C09190817E8
:10565000C0F741E0C41AD10809F0A2CFE6E4F4E0B3
:10566000DF01BA9580819C91892B819355E0E634C6
:10567000F507B1F70E94720C809152088F3008F044
:1056800014C167E475E086E495E00E949C1069E42B
:1056900075E088E495E00E949C10809152088F305C
:1056A000A1F59091B007995F8091B10720910C010D
:1056B00030910D013093AD072093AC079093AE0766
:1056C00027E0280F2093AF0721E1209399069093BC
:1056D000950628E0280F20939606E0915108E032C5
:1056E00009F4E9C021E02E0F20935108F0E0EE0FFD
:1056F000FF1FDF01A05FB74F9F779C93875FFD017E
:105700008F7791819078892B8183809152088F3097
:1057100008F05FC085E9E82E86E0F82E01E010E091
:10572000D02E85E0809FF001819FF00D1124E0577D
:10573000F94FDF011D928A95E9F7B7016F5F7F4F3F
:10574000C7010E9424108823D9F186E00E941B1013
:10575000E0915208B8E0EB9FF0011124E80FF11D31
:10576000E059F04F8491882381F3F70184838B30D3
:1057700029F40E941B108F5FF701838380915208E8
:10578000F0E18F9FC0011124B8018C5A9A4F0E94FA
:10579000460C882311F0F7011482BE016F5F7F4F22
:1057A0008D2D0E94FD0B85E0809FF001819FF00D03
:1057B00011249981EE56F94F808193FB84F98083FF
:1057C0000F5F1F4FF5E0EF0EF11C0032110509F0DD
:1057D000A7CF2B96EBE00C94A93751E05B1508F4AA
:1057E00040C06FEF600F812F0E94AB0D811131CF50
:1057F00061E0600F812F0E94AB0D81112ACFF12C47
:10580000602F812F8F190E94AB0D882309F421CFBF
:10581000602F812F8F0D0E94AB0D882309F419CFC3
:10582000F39484E0F812ECCF3AE8E32E3EE0F32E56
:10583000F70134966491F7018491600F810F0E9403
:10584000650D892B09F005CFFFEFEF1AFF0A2EE84F
:10585000E2162EE0F20661F7602F812F0E94C60F3C
:10586000F8CE602F8FEF810F0E94AB0D8111F1CE2A
:10587000602F81E0810F0E94AB0D8111EACEF12CE7
:10588000602F6F19812F0E94AB0D882309F4E1CEA0
:10589000602F6F0D812F0E94AB0D882309F4D9CEA4
:1058A000F39494E0F912ECCFBFCF8FEF80934705CC
:1058B00080934605ECCEEFE119CFA4E1B0E0E3E63A
:1058C000FCE20C948937E82EF12C25E0829F5001F0
:1058D0001124F501E057F94F3F019481992309F410
:1058E000E4C1182FBE01675F7F4F0E94FD0BEE20C1
:1058F00099F095012E56394F5901F901808181FDAA
:105900000BC080FF2CC036E0C32E0E94AD0F837009
:10591000D82EB601812F7CD885E08E9D60018F9DA9
:10592000D00C1124F601EE56F94F808180FF3DC165
:10593000111136C180915C08815080935C088111FF
:1059400034C1809192068E7F8093920684E796E020
:105950009F938F930E9475200F900F9026C1F301A3
:1059600090800181BE016F5F7F4F8E2D0E94FD0BE5
:10597000C12C898181FF04C0F501908193FFC9CFBB
:1059800090919406992309F4C4CF95E09E9D9001CF
:105990009F9D300D1124F901E057F94F81807090DF
:1059A0009006A080A718A7FCA19460909106861885
:1059B00087FC819481702E56394FF901B080B3FA7B
:1059C000BB24B0F8B82A09F455C08091530883FD70
:1059D00051C084E00E94BF1181114CC08A0CF9E0D3
:1059E000F81508F447C08A8180FD63C09AE8A92EA3
:1059F0009EE0B92E712CF5018491592C580E3496E5
:105A00006491602E660E662D852D0E94AB0D81116E
:105A100029C0662D852D0E94460D009721F0FC01BE
:105A200084818130F9F480919006581A852D87FD84
:105A3000819590919106662D691B67FD6195662E93
:105A4000680E85E08E9DF0018F9DF00D1124EE56BD
:105A5000F94F808185FF9AC0861420F486E0C82E15
:105A6000D72C862C7394FFEFAF1ABF0A24E0721272
:105A7000C2CF4FCF0E94AD0F8370D82EA82FB0E0B9
:105A8000FD01E657F14F8491FD01E257F14F64911A
:105A9000600F890D0E94460D009741F0BB2009F46C
:105AA00038CFFC018481813009F033CF26E0C22E4B
:105AB00030CF512C9E012F5E3F4F45E0652D812F49
:105AC0000E94370F8B89882329F05394F4E05F12EA
:105AD000F1CF8CCF0E94AD0F80FF88CF80E996E098
