:100000000C944E020C9476020C9476020C947602B8
:100010000C9476020C9476020C9476020C94760280
:100020000C9476020C9476020C9411140C948014A7
:100030000C9476020C9476020C9476020C94760260
:100040000C9476020C9476020C9476020C94760250
:100050000C9476020C9476020C9476020C94B216F0
:100060000C9476020C9476020C9476020C94760230
:100070000C9476020C9476020C9476020C94760220
:100080000C9476020C9476020C9476020C94760210
:100090000C9476020C9476020C9476020C94760200
:1000A0000C9476020C9476020C947602647261676A
:1000B0006F6E006772696666696E0074726F6C6C51
:1000C00000686F62676F626C696E006F72630067D1
:1000D0006F626C696E007A6F6D626965007261743F
:1000E000746C65736E616B6500736E616B65006245
:1000F000617400506F733A205B25752C2025755D67
:10010000004865616C74683A2025752F25750000DC
:1001100000F66FA40FD00B5A0FB99DF00B9F0F2C58
:100120000FF1019D0696F900002994B000B301215A
:10013000846009F404AA0A0606900F900F900FBE7F
:10014000EF1EE1010410020800000000000202029C
:1001500002001D1D1D1D1D08080808081414141494
:1001600014010101010102020202020000001F004D
:10017000000016001F1F0000000000060000000025
:100180000000180800001C04141800000000041CE3
:100190000000000000000101000003020201000055
:1001A000000002030000006D6F76650025532025D6
:1001B00056206469722025752E00686974002553E5
:1001C00020255620254F2E0054686520646F6F72DD
:1001D000206F70656E732E00596F752061726520F7
:1001E000706172616C797A656421000404F0F0F04A
:1001F000F0FFFFFFFF0505E0E0E0E0E0FFFFFF06A6
:1002000006C0C0C0C0C0C0FFFF0606E1C0CCCCC065
:10021000E1FFFF0606E1C0C0C0C0E1FFFF070780A5
:10022000808080808080FF0707F7E3C180C1E3F70B
:10023000FF0707E3E3808080E3E3FF0707E3E3884A
:100240009C88E3E3FF0808C3810000000081C30825
:1002500008E7E7C30000C3E7E708080066420000BC
:1002600042660010101FF807E003C001800180E023
:10027000072004200420042004600601800180037C
:10028000C007E01FF810101FF807E003C00180311D
:100290008C300C0000000000000000300C318C019C
:1002A0008003C007E01FF80D0DBFFF1FFF0FFE0703
:1002B000FC03F801F000E001F003F807FC0FFE1F5B
:1002C000FFBFFFFFFFFFFFFFFF0C0C03FC01F80067
:1002D000F000F000F000F000F000F000F000F0019D
:1002E000F803FCFFFFFFFFFFFFFFFF61726500598E
:1002F0006F7500796F750069730000000000EF00F2
:10030000E900DD00D600CF00CB00C100BB00B30088
:10031000AC005B6D6F72655D00D5F08D14A1C88176
:10032000CFD9F1AF200057656C636F6D6520746F96
:100330002041726475526F6775652E00FF010000E1
:100340000000FF012553202549206E6F206C6F6E41
:1003500067657220706172616C797A65642E002520
:1003600053202549206E6F206C6F6E676572206385
:100370006F6E66757365642E00080B000202020042
:10038000000904000001020200000524001001051C
:100390002401010104240206052406000107058149
:1003A0000310004009040100020A000000070502D2
:1003B0000240000007058302400000040309041204
:1003C000010002EF020140412336800001010203D7
:1003D0000141726475696E6F204C4C430041726438
:1003E00075626F79001700030C00000000994C0043
:1003F0000003002E0271000000C4111001841010CF
:1004000000980C2E3AF243B94AB12A877CB726AE3F
:1004100022211FAA2AA23A0A00500184284A298AC6
:1004200010A10A0000BE78BF2A2E463F3ABF46BF41
:10043000042E669F7CF147F1019F6C1F425F7C3F59
:10044000783F7EBF082E7ABF68B226E1071F7E077D
:100450001F1F7D9B6C833EB94E3F028360F10322D8
:1004600008104241004C7A5F324C4A4C7E4C53BEDD
:1004700000D6035F701D00B0019F681F009E785E6C
:10048000704C325E1144799E0856034F020E7A0674
:100490001B1E799249823ADA0200FC1611241FBE13
:1004A000CFEFDAE0DEBFCDBF11E0A0E0B1E0ECE5D8
:1004B000F2E302C005900D92A632B107D9F729E008
:1004C000A6E2B1E001C01D92A132B207E1F712E04D
:1004D000CEE4D2E004C02197FE010E942119CD3460
:1004E000D107C9F70E9411170C942C190C94000025
:1004F000EAEAF1E081E0A0E0B4E000800EBC811106
:10050000012C1197A0FDFDCF0192B9F70DB408950C
:10051000DC0181E0ED91EE23D9F0E03299F0EE0FAD
:10052000FF0BED55FC4F25913491932F96959695A1
:100530009F7151F495E0369527959A95E1F72F71C3
:1005400092E019F491E001C093E09F5F890FE2CF40
:100550000895FC018091A701882311F13FB7F89419
:1005600082E08093E9002091F200822F90E018163B
:10057000190614F481E090E0882339F0289844E6C5
:100580004093A6014091F1004083222339F020914D
:10059000F200211103C02BE62093E8003FBF08952D
:1005A0008FEF9FEF08952FB7F89483E08093E900D1
:1005B0009091E800892F807295FF04C09091F2001D
:1005C00080E4891B2FBF089580919E0181110DC089
:1005D00082E080939A0184E080939B0110929D01B8
:1005E00010929C0181E080939E018AE991E0089538
:1005F000CF93DF931F92CDB7DEB76983DC01ED9116
:10060000FC910280F381E02D41E050E0BE016F5F7C
:100610007F4F09950F90DF91CF91089583E08093EC
:10062000E9008091F200882319F08AE38093E800C2
:1006300008950E94D30290E00895CF93DF931F9214
:10064000CDB7DEB7FC018485958597FD08C02FEFF7
:100650003FEF358724870F90DF91CF910895CE012A
:1006600001960E94A902019719F4898190E0F3CFC5
:100670008FEF9FEFF0CF0F931F93CF93DF931F92D6
:10068000CDB7DEB78C01FC018485958597FF0BC043
:10069000CE0101960E94A902019771F4898190E030
:1006A000F80195878487F801848595850F90DF91FF
:1006B000CF911F910F9108958FEF9FEFF1CFFC0124
:1006C0008485958597FD0BC09FB7F89482E0809351
:1006D000E9008091F2009FBF90E0019608959FB7D6
:1006E000F89482E08093E9008091F2009FBF90E04F
:1006F000089540914401509145012091420130916B
:10070000430142175307B4F49091E8009570E1F368
:100710009091E80092FD19C08093F100809144010E
:100720009091450101968F739927892B19F48EEFCB
:100730008093E80080914401909145010196909347
:1007400045018093440181E0089580E00895EF928F
:10075000FF920F931F93CF93DF93F82E192FE62E5E
:10076000042F81E0860F880F0E94790383E00E94A6
:100770007903CF2DD12FEC0EFD2EF11CCE15DF0508
:10078000B9F007FF13C0FE0184910E947903182F6E
:1007900080E00E947903812321968111EFCFDF91C0
:1007A000CF911F910F91FF90EF9008958881EDCF29
:1007B00081E0F5CFDF92EF92FF920F931F93CF93DB
:1007C000DF93D82E8A01EB017B01E40EF51ECE15D6
:1007D000DF0559F0D7FE12C0FE0184910E94790313
:1007E00021968111F4CF0FEF1FEFC801DF91CF9158
:1007F0001F910F91FF90EF90DF9008958881EECFC9
:100800000F931F93CF93DF931F92CDB7DEB782E094
:10081000898342E450E069E773E080E80E94DA03EC
:100820000E94E402DC0112960D911C910115110544
:1008300089F0D801ED91FC910280F381E02DBE0199
:100840006F5F7F4FC801099597FD04C0F8010085CF
:100850001185ECCF89810F90DF91CF911F910F917E
:100860000895615030F02091F100FC012083019641
:10087000F8CF289884E68093A60108953FB7F894AE
:1008800080913E0190913F01A0914001B0914101C2
:1008900026B5A89B05C02F3F19F00196A11DB11DDB
:1008A0003FBFBA2FA92F982F8827BC01CD01620F17
:1008B000711D811D911D42E0660F771F881F991FD2
:1008C0004A95D1F708958F929F92AF92BF92CF929F
:1008D000DF92EF92FF926B017C010E943E044B017C
:1008E0005C01C114D104E104F104B9F00E943E049A
:1008F000681979098A099B09683E73408105910549
:1009000080F321E0C21AD108E108F10888EE880ED0
:1009100083E0981EA11CB11CE4CFFF90EF90DF9004
:10092000CF90BF90AF909F908F90089565E070E05A
:1009300080E090E00C9463048F929F92AF92BF92FC
:10094000CF92DF92EF92FF920F931F93CF93DF939B
:100950006C017B018A0180910B01882309F45CC042
:100960008091A701882309F457C08091490180FF35
:1009700005C08091E00082608093E000E801B12C26
:100980008AEFA82E93E0892E2AE3922E209711F465
:10099000BB20D9F10E94D30281110AC0AA94AA20D7
:1009A000D9F161E070E080E090E00E946304EECF56
:1009B0008C171D0611F00CF08C2F9FB7F8948092C5
:1009C000E9002091E80025FD02C09FBFDFCF282F5E
:1009D00030E0C21BD30BF701815020F041914093CE
:1009E000F100FACFE20EF31EBB2021F09092E80056
:1009F000B12CEBCF8091E80085FDE7CF9092E80025
:100A0000BB24B394209709F3F3CF5D9884E68093D9
:100A10004801101611063CF081E090E0F601938346
:100A2000828310E000E0C801DF91CF911F910F9108
:100A3000FF90EF90DF90CF90BF90AF909F908F90FE
:100A400008958FB18095807F669B88601C9B846031
:100A500008958EBD00000DB407FEFDCF08955C988B
:100A600008955C9A08950E942F0581E20E9429054D
:100A700080E40E9429058FE70E9429050E94310524
:100A80000C9478028033C8F46033B8F4962F9695AE
:100A900096959695E82FF0E080E3989FE00DF11D84
:100AA0001124E653FB4F677021E030E001C0220FB4
:100AB0006A95EAF78081822B80830895962F969518
:100AC00096959695E82FF0E080E3989FE00DF11D54
:100AD0001124E655FC4F677081E090E001C0880F5B
:100AE0006A95EAF780959081892380830895FF9223
:100AF0000F931F93CF93DF93D0E0C0E090E3F92EE4
:100B000001E010E08091D7088C171D0659F154F1CF
:100B10009E01220F331FF901EB56F74F9081692F89
:100B20006F772C56374FF9012081822F8F7727FF5F
:100B300004C00E945E052196E5CF66956695669590
:100B4000E82FF0E06F9DE00DF11D1124E655FC4FFC
:100B50009770980101C0220F9A95EAF78081822B45
:100B60008083E9CFDF91CF911F910F91FF9008957E
:100B7000FC019281E42F97FF19C0EE0F462F469596
:100B800046954695E40FF0E09F7782E2989FE00D4E
:100B9000F11D1124EB59FD4F849190E0677002C064
:100BA000959587956A95E2F781700895F0E08AE05F
:100BB000989FE00DF11D1124E351FE4F849190E0C8
:100BC000EECFDC011296EC91E7FF09C0EF77B2E2BD
:100BD000EB9FF0011124EC59FD4F849108958AE0B8
:100BE000E89FF0011124E451FE4FF7CFDC0112968B
:100BF000EC91E7FF09C0EF77B2E2EB9FF00111241F
:100C0000ED59FD4F849108958AE0E89FF001112489
:100C1000E551FE4FF7CFFF920F931F93CF93DF93D2
:100C2000EC01042F8881162F181BF980CE010E9439
:100C3000F605181738F080E0DF91CF911F910F91E2
:100C4000FF9008950F19CE010E94E105081798F74B
:100C5000402F612FCE010E94B80591E08927ECCF8B
:100C6000282FFC0111928E2F821B8617D8F308952E
:100C70008033C8F46033B8F4962F96959695969580
:100C800040E3949F9001112426533B4F280F311DC0
:100C9000F901808190E0677002C0959587956A950B
:100CA000E2F78170089580E008958033C8F46033DE
:100CB000B8F4962F96959695969540E3949F90015B
:100CC000112426553C4F280F311DF901808190E0F9
:100CD000677002C0959587956A95E2F781700895CF
:100CE00081E008956F927F928F929F92AF92BF9210
:100CF000CF92DF92EF92FF920F931F93CF93DF93E8
:100D0000D82FC62F742E622E88248394841730F037
:100D100081E0D41301C080E0882E8194EE24E39416
:100D2000C61530F081E0C61101C080E0E82EE194E4
:100D30001D2F171917FD11950C2F061907FD019589
:100D4000902E9694F12EF694C02ED12CA12EB12C7B
:100D5000D71102C0C615D9F06C2F8D2F0E945506F1
:100D6000811125C0910EF00E892D092C000C990BD4
:100D70008C159D0514F0D80D901A8F2D0F2C000C9A
:100D8000990B8A159B0524F3CE0DF11AE1CF81E072
:100D9000DF91CF911F910F91FF90EF90DF90CF9057
:100DA000BF90AF909F908F907F906F90089580E05C
:100DB000EFCF6F927F928F929F92AF92BF92CF921E
:100DC000DF92EF92FF920F931F93CF93DF93F090F8
:100DD0003607E090370724E0CBEFCE0D2E1508F054
:100DE000C0E034E0EBEFBE2EBF0C3F1508F0B12C95
:100DF00085E08F0D75E0C72ECE0C9FE29C1510F498
:100E00006FE2C62ED82E2FE2281710F45FE2D52EFF
:100E1000CC1650F10C2F0E1907FF02C00E2D0C1B23
:100E2000009F80011124DB2DDD16E0F08D2F8F193E
:100E300087FF02C08F2D8D1B9801889F200D311DCB
:100E400011242B31310564F42C2F4D2F6E2D8F2D55
:100E50000E947206882321F06C2F8D2F0E9442057C
:100E6000DF5FE2CFCF5FD4CF10E043E0942E882441
:100E700083948091D608181708F062C0C12FD0E083
:100E80006E0133E0D694C7943A95E1F7312F37706D
:100E9000732EE091D80880E1E89FF0011124E8501A
:100EA000FA4FEC0DFD1D808190E002C0959587956D
:100EB0003A95E2F780FD42C0199DC00111249C01C2
:100EC0002C5C374F7901CE01880F991FC80FD91FAD
:100ED000CC5CD74FB880C7010E94F605B80EA98038
:100EE000C7010E94E105A80E0981382D01C0330F0A
:100EF0007A94EAF7732E0A1508F568806B14E0F40B
:100F0000602F862D0E9438068823A1F0402F662D81
:100F1000C7010E940B06882369F0E091D80880E1A0
:100F2000E89FF0011124E850FA4FEC0DFD1D80817F
:100F3000872980836394E2CF0F5FDDCF1F5F99CF56
:100F4000DF91CF911F910F91FF90EF90DF90CF90A5
:100F5000BF90AF909F908F907F906F900895482F93
:100F6000262F8091360760913707382F341BE62FE4
:100F7000E21BEE02F00111243302E00DF11D1124F9
:100F80007B9714F40C94720680E00895CF93DF935E
:100F9000C82FD62F0E945506811111C09091EA05E5
:100FA0009C1304C09091EB059D1741F09091EC05C6
:100FB0009C1308C09091ED059D1304C081E0DF9162
:100FC000CF910895E4E3F7E090819F7131F0928131
:100FD0009C1303C093819D1789F3349697E0E43BFB
:100FE000F90791F7E4EBF7E090819F7031F092817F
:100FF000C91303C09381D91709F3349698E0E433F9
:10100000F90791F77091D708B0E0A0E02C2F30E0FD
:10101000ED2FF0E0A71798F6AD01440F551FEA0138
:10102000CC56D74F98819F779217130649F44B56A9
:10103000574FEA0198819F779E171F0609F4BECF8C
:101040001196E8CF8F929F92AF92BF92CF92DF928C
:10105000EF92FF920F931F93CF93DF93E62EC42F4F
:101060000091D608202F30E0F901EE0FFF1FE20FAC
:10107000F31FEC5CF74F6083C18382832FE2261756
:1010800070F480E0DF91CF911F910F91FF90EF906E
:10109000DF90CF90BF90AF909F908F900895C03316
:1010A00080F783E0089F800111240C5C174FC80172
:1010B0000E94F605BE2CB80EC8010E94E1059FE211
:1010C0009B15F8F2FC2EF80E9F15D8F2CF1510F5EF
:1010D000DE2DDB15E8F44C2F6D2FC8010E940B06A6
:1010E0008823A1F0DD24DA94CC24CA94AC2EAD0C74
:1010F0006A2D8C2D8D0F0E945506882311F2C39402
:10110000E2E0CE12F5CFD394DE12EECFDF5FE1CF77
:10111000CF5FDCCF0091D608C02FD0E0E091D80897
:1011200020E1E29FF0011124E850FA4FCE0123E0C4
:10113000969587952A95E1F7E80FF91F808190E051
:10114000202F277002C0959587952A95E2F7E82F02
:10115000E170DE2EF3E00F9F800111240C5C174F2D
:10116000CE01880F991FC80FD91FCC5CD74FC880FC
:10117000C8010E94F605C80E9980C8010E94E105C9
:10118000980EF980F3945E01EE24EA94EF0CE914D2
:1011900078F5F501D0818EEF882E8F0CDC1510F0DC
:1011A000F394F2CF4E2D6D2FC8010E940B06C1E0C3
:1011B000CD0F8823D9F06E2D8D2F0E945E05DD2086
:1011C000A9F06E2D8D2F0E9442056E2D8FEF8D0F91
:1011D0000E9442056E2D8C2F0E944205682D8D2F96
:1011E0000E9442056F2D8D2F0E944205DC2FD6CF25
:1011F0008091D6088F5F8093D60881E043CF8033FB
:1012000038F5603328F5262F26952695269590E00B
:1012100030E3239F800D911D1124FC01E653FB4F09
:10122000208130E02095309586559C4FFC018081CF
:10123000282B677081E090E002C0880F991F6A95A3
:10124000E2F72823392381E0232B19F480E0089565
:1012500081E00895E8EAF1E0808191819C01369572
:10126000322F22273795279528273927C901892F1B
:101270009927869528273927922F88278227932711
:101280009183808308950F931F93CF93DF93182F3B
:10129000062F0E945E050E942A09843C08F06AC05D
:1012A000C091D708C03208F065C090E080E0612F9F
:1012B00070E0E02FF0E08C17E8F49C01220F331F60
:1012C000D901AC56B74F4C914F774617170649F4E2
:1012D0002B56374FD9012C912F772E171F0609F463
:1012E00049C00196E8CFFE01EC56F74F81818F7718
:1012F00081832CC0D0E00E942A092091D708E09178
:10130000D808B0E1EB9FF0011124E450FA4F822F8E
:1013100090E033E0969587953A95E1F7E80FF91F4D
:10132000808190E0277002C0959587952A95E2F715
:10133000CC0FDD1F80FFD7CF602F812F0E94420589
:10134000FE01EC56F74F808180688083FE01EC56E9
:10135000F74F812F8F7710811078182B1083802FF3
:101360008F7701810078082B01838091D7088F5FE8
:101370008093D708DF91CF911F910F910895CF935C
:10138000C82F0E942A098C1710F08C1BFCCFCF911C
:1013900008950F931F93CF93DF9300E014E080E351
:1013A0000E94BF09D82F80E30E94BF09C82F682F71
:1013B0008D2F0E94C607811107C08D2F9C2FDF91B2
:1013C000CF911F910F9108950150110941F7C0E08D
:1013D000D0E06C2F8D2F0E94C607882371F3DF5F4A
:1013E000D033B9F7CF5FC03399F78FEF9FEFE7CFD7
:1013F000CF92DF92EF92FF921F93CF93DF9300D0B3
:101400001F92CDB7DEB7182F6A01790119821A82AF
:101410001B826B83123089F1CE0101961330A9F142
:101420001130F9F00E94F6050E94BF0989831A82E3
:101430004A816981CE0101960E94B8058111EACFE7
:101440008981F60180838A81F70180830F900F9054
:101450000F90DF91CF911F91FF90EF90DF90CF9091
:1014600008950E94F6050E94BF098983CE01019666
:101470000E94E10581508A83DBCF1982CE0101965B
:101480000E94E1050E94BF09F6CF0E94F605815037
:101490008983F4CF0E942A09803428F484E00E94D2
:1014A000BF09805808958CE00C94BF098F929F92D9
:1014B000AF92BF92CF92DF92EF92FF920F931F9362
:1014C000CF93DF9300D000D0CDB7DEB78091EE058B
:1014D0009091EF059093A9018093A80110E080916D
:1014E000D808181738F409ED0E942A090150E1F7CD
:1014F0001F5FF5CFEAEAF3E01FEF119344E0EA3C07
:10150000F407D9F760E28AEC94E00E9430066CE7B9
:1015100088E397E00E94300660E884EB97E00E9441
:10152000300660E684E398E00E94300660E484E9D7
:1015300098E00E94300681E08093D4081092D6088B
:101540001092D7081093ED051093EC051093EB055E
:101550001093EA050E944A0A45E165E10E942208CB
:1015600000E010E1BB24B3948091D608803208F0EB
:1015700053C00E94BF09E82EF12C0E942A098370F3
:10158000D82E0E944A0AC82EC701880F991FE80E5C
:10159000F91EC7018C5C974F7C019E012D5F3F4F68
:1015A000AE014C5F5F4FDC0112966C918D2D0E9455
:1015B000F8099E012F5F3F4FAE014E5F5F4F6C2DCC
:1015C0008D2D8B250E94F8094D2D50E0BA01605CED
:1015D0007C4FFB01D4902C81D20ED7012C91D20EDE
:1015E000445C5C4FFA0124913B81230F1196FC90DF
:1015F000F20EFB016491FA0144918981481B4F0D61
:101600008A81681B6D0D8C2D0E942208882321F091
:101610006F2D8D2D0E9443090150110909F0A4CFAF
:1016200000E014E043E0C42E8091D6080E94BF0978
:10163000E82EF12C0E942A098370D82EC701880F4A
:10164000991FE80EF91EA7014C5C574F7A019E01C5
:101650002F5F3F4FAE014E5F5F4FD70112966C91E7
:101660008D2D0E94F8096D2D70E0FB01E05CFC4FB0
:101670008491D701EC918E0FEA818E0F8A83645C8E
:101680007C4FFB0164911196EC916E0FE9816E0F16
:1016900069830E945506882341F1912CA980BA8064
:1016A0008091D608981608F057C0892D90E09C9C30
:1016B00090011124F901EC5CF74F7F01FC01EE0F62
:1016C000FF1FE80FF91FEC5CF74F8081B81A81808B
:1016D000C7010E94F605B81610F09394DFCFC7013A
:1016E0000E94E105A818A816C0F70150110909F0D9
:1016F0009BCFEAECF4E0DF01A052B14080819C91E5
:10170000892B819385E0EA3EF807A9F70E947705C7
:101710000E94C9098093EA059093EB050E94C909CC
:101720008093EC059093ED05EAEAF1E0119293E0E5
:10173000EA3AF907D9F70F900F900F900F90DF91C9
:10174000CF911F910F91FF90EF90DF90CF90BF90BE
:10175000AF909F908F900895F1E0FD1540F16FEFED
:101760006A0D8B2D0E9455068111BFCF61E06A0D75
:101770008B2D0E9455068111B8CFF12C6A2D8B2D2F
:101780008F190E945506882309F4AFCF6A2D8B2D3F
:101790008F0D0E945506882309F4A7CFF39444E0E7
:1017A000F412ECCF6A2D8B2D0E9443099ECF6A2D37
:1017B0008FEF8B0D0E945506811197CF6A2D81E026
:1017C0008B0D0E945506811190CFF12C6A2D6F1957
:1017D0008B2D0E945506882309F487CF6A2D6F0D43
:1017E0008B2D0E945506882309F47FCFF39454E093
:1017F000F512ECCFD7CF982F962B907CB9F4E62F2B
:10180000E695E695E69590E4E99FF0011124E80F4E
:10181000F11DE855FE4F677081E090E001C0880F30
:101820006A95EAF780959281892382830895BF9211
:10183000CF92DF92EF92FF920F931F93CF93DF939C
:10184000D62EC42E7C01C0E0BD2CBC0EF7018191C8
:101850007F01DC2D882369F0082F10E080FF04C091
:101860006D2F8B2D0E94FB0BC80195958795DF5F2F
:10187000F1CFCF5FC43041F7DF91CF911F910F912E
:10188000FF90EF90DF90CF90BF900895982F962B08
:10189000907CB1F4E62FE695E695E69590E4E99F15
:1018A000F0011124E80FF11DE855FE4F677021E0AB
:1018B00030E001C0220F6A95EAF78281822B828391
:1018C00008955F926F927F928F929F92AF92BF9294
:1018D000CF92DF92EF92FF920F931F93CF93DF93FC
:1018E00000D01F92CDB7DEB7182F862E922E7A0128
:1018F000F701992059F0849180320CF445C0803270
:1019000039F41E5F8FEFE81AF80AF2CF8081F4CF26
:10191000E82FEE0FFF0BED55FC4F25913491822FF0
:101920008F718983C90125E0969587952A95E1F7FE
:101930008F718A83932F969596959F719B8303E071
:10194000911103C001E0811102E0CE0101965C011A
:10195000512E500E712EF50181915F01682C882364
:1019600069F0C82ED12C80FF04C0662D872D0E94FF
:10197000460C6394D594C7948C2DF1CF7394751055
:10198000EACF1F5F100FBECF0F900F900F90DF9127
:10199000CF911F910F91FF90EF90DF90CF90BF906C
:1019A000AF909F908F907F906F905F9008959F92DF
:1019B000AF92BF92CF92DF92EF92FF920F931F935D
:1019C000CF93DF9300D000D0CDB7DEB7E62ED42E74
:1019D000292F22952F702983292F2F702A839C016C
:1019E00044E0369527954A95E1F72F702B838F7049
:1019F0008C831FEF1D0DFF24FA94F60E412F6F2DDF
:101A0000CE0101960E94170C412F6E2DCE0101963A
:101A10000E94170C01E00E0D412F602FCE010196A0
:101A20000E94170C4D2D6F2DCE0101960E94170CB0
:101A30004D2D602FCE0101960E94170C8E010F5F75
:101A40001F4FF12C9E2C9F0CF80181918F01CD2C02
:101A5000882369F0A82EB12C80FF04C06C2D892D3D
:101A60000E94460CC50195958795C394F1CFF394D8
:101A7000F4E0FF12E7CF0F900F900F900F90DF91DF
:101A8000CF911F910F91FF90EF90DF90CF90BF907B
:101A9000AF909F900895BF92CF92DF92EF92FF9206
:101AA0000F931F93CF93DF93B62ED42E8C01C0E0FB
:101AB000CB2CCC0EF8018491DD2D882369F0E82E23
:101AC000F12C80FF04C06D2F8C2D0E94460CC701A5
:101AD00095958795DF5FF1CFF8013596E491DD2D7F
:101AE000EE2369F0EE2EF12CE0FF04C06D2F8C2D5B
:101AF0000E94FB0BF701F595E795DF5FF1CFCF5F14
:101B00000F5F1F4FC530A1F6DF91CF911F910F914D
:101B1000FF90EF90DF90CF90BF9008950F931F93A9
:101B2000CF93DF93D1E010E508E28091600083FF5E
:101B300007C0F89487E78093000880930108FFCFDF
:101B4000C0913801CC2359F08FEF8C0F8C238093F8
:101B500038018C27DF91CF911F910F9108952FB7F6
:101B6000F89480913A0190913B01A0913C01B09191
:101B70003D012FBF2FB7F89440913A0150913B019E
:101B800060913C0170913D012FBF481B590B4430BF
:101B9000510520F4D3BF889513BEECCF0E942105D8
:101BA000909137018927EFE2F1E030E020E041E059
:101BB000542F582369F150815F5F533010F55083E3
:101BC000440F2F5F3F4F31962830310589F7C927E1
:101BD000C0933701E7E2F1E081E02C2F282321F0C8
:101BE00020812150B9F02083880F319621E0EF3217
:101BF000F20799F7909326019095C923C093380175
:101C000094CF1082C42BD901A95DBE4F1C93D8CFAD
:101C10001082D6CF0083282F20952F609223E4CF07
:101C20009F92AF92BF92CF92DF92EF92FF920F936B
:101C30001F93CF93DF93DC017B01EA0123E7D22ED0
:101C400038E6C32E45E6B42E50E2A52E0AE064E63F
:101C5000962EC7010196F7012491253249F02C9365
:101C6000222309F4A5C01196AE017C01EA01F1CF4F
:101C7000F2E0EF0EF11CFC018491863569F0F8F476
:101C8000893451F028F4853209F444C0AE01EECF16
:101C90008F3411F08335D1F7FE0121913191AF01DD
:101CA000803709F450C0122F893409F045C02BEE5B
:101CB00032E0113009F447C027EF32E044C08037EA
:101CC00059F320F4833611F70E942719833731F135
:101CD0008537E1F6AE014E5F5F4FE8818E2F602FB2
:101CE0000E941519182F292F882389F00E94151991
:101CF000392F8E2F692D0E941519182F882321F056
:101D000080E3810F8C931196305D3C931196205D9A
:101D10002C9302C08C93AE011196A8CFAE014E5FFA
:101D20005F4F0990D881C02DFD01DF018991882383
:101D300009F49CCF8193F9CF863579F4AE014C5FDD
:101D40005F4F2A813B81ED01DE01F90194912F5F04
:101D50003F4F992329F19993F7CF213039F42FEE92
:101D600032E0833581F323EF32E0EDCF94E5833524
:101D700009F094E79C931196CC9211971296BC921D
:101D80001297BD016C5F7F4F1396AC92F901FF274C
:101D9000EE0FFF1FE650FD4F25913491DB01D3CFAD
:101DA000863509F063CF113009F460CFD882B4CF03
:101DB000DF91CF911F910F91FF90EF90DF90CF9027
:101DC000BF90AF909F900895CF93DF93CDB7DEB7CC
:101DD000A0970FB6F894DEBF0FBECDBFAE01475D32
:101DE0005F4F6FA178A5CE0101960E94100E20E0F2
:101DF000AE014F5F5F4F6EA181E00E94610CA09623
:101E00000FB6F894DEBF0FBECDBFDF91CF9108951E
:101E1000EF92FF920F931F93CF93DF938091DC0893
:101E20001F928F93809135071F928F9381E091E0ED
:101E30009F938F931F92C1E0CF930E94E40E8091F5
:101E400037071F928F93809136071F928F9383EFEE
:101E500090E09F938F9386E08F93CF930E94E40E40
:101E60002DB73EB7205F3F4F0FB6F8943EBF0FBE71
:101E70002DBFD0E08DE1F82E80911E09D81758F5BE
:101E80000D2F10E00252174FC8010E948802E82E61
:101E90002C2F280F3327331F213431059CF036E0D7
:101EA000F30E20E0A8016F2D81E00E94610CC1E0DB
:101EB000ED2FDF5FF0E0E252F74F8081ED2F8111CF
:101EC000F8CFDACF20E0A8016F2D8C2F0E94610C93
:101ED000CE5FCE0DEDCFDF91CF911F910F91FF908F
:101EE000EF9008950E94080F21E042E153E06BE378
:101EF0008BE20E94610C0E94330510921E0981E062
:101F000080931F098DE1809320090E948E0D8830F7
:101F1000E1F708952F923F924F925F926F927F92D6
:101F20008F929F92AF92BF92CF92DF92EF92FF92E9
:101F30000F931F93CF93DF9300D000D0CDB7DEB7C0
:101F40000091370710913607AAEFFA2EF10EBAEF7B
:101F5000EB2EE00E1B821A828091D7082A813B81EA
:101F600082171306F9F0F4F0220F331FC9018855C8
:101F70009E4FFC01E351F94F408147FD0CC02B56A9
:101F8000374FD9016C916F778451994FFC01808153
:101F90008F770E945E052A813B812F5F3F4F3B83F5
:101FA0002A83DACF7BEFC72EC00E07500C830E2D8D
:101FB000E4E0DE2E86E0382E311A1CEF1D0DA02E37
:101FC000A694A694A69430E3A39E50011124202F3A
:101FD00027704424439401C0440C2A95EAF78F2CBF
:101FE0001A828BEF8D0D8983D501A653BB4F5D01FE
:101FF00099249394980CBFE2B81508F4A2C000335A
:1020000008F09FC0F501E80DF11D8081842109F0E1
:1020100098C0412F6A8183E491E00E944B0D892C86
:102020003A813B5F3A83313419F70F5F85E0D80E70
:10203000C3949C819F5F9C83A5E4DA12BECF0E946B
:1020400077051E2D1A82198209810F0D612F802FAD
:102050000E94FF08811117C0612F802F0E94AF07D7
:10206000882389F061E08091DD08833009F060E029
:102070006E5FBA816B0F8981880F880FE9818E0F9F
:102080008E5F0E94460CF981FF5FF983FD30E1F617
:102090001F5F2A812B5F2A832134A9F6C12C8091EE
:1020A000D708C81608F055C18C2D90E0880F991FED
:1020B0009B838A83FC01EC56F74F8081B82EE8940D
:1020C000B7F80B2D0F190D3008F041C1EA81FB81E3
:1020D000EB56F74F10811F77D12EDE189CE09D152F
:1020E00008F435C1612F8B2D0E943806882309F42E
:1020F0002EC1802F880F880F080F8D2D880F880F15
:10210000D80E61E0610F8B2D0E94FF08A090DD08C2
:102110008111A12C84E08D0DA80E34E0932E900E39
:1021200088248A94800E1D2DA11608F4FDC0B82CB9
:102130009B1408F4F7C0612F8B2D0E94FB0BB39406
:10214000F7CF602F882D0E94FF08811135C06C8168
:10215000882D0E945506882309F461CF832D880DB0
:102160006A80882341F06C818FEF880D0E945506AC
:102170006A8081116A946C81892D0E94550664E001
:10218000562EEA815E0E811104C053E0552EFA816D
:102190005F0E812C8091DD08881608F040CF2980E1
:1021A000280C762C571430F0622D872D0E94460C97
:1021B0007394F8CF8394EECF412F6A8183E491E04A
:1021C0000E944B0D6C81882D0E94FF08582E6C2DAB
:1021D000882D0E94FF08782E602F66246A94680C70
:1021E000862D0E94FF08770C24E0829FC0011124F5
:1021F000782A5728602F892D0E94FF0838E0839F96
:10220000C0011124582A6C2D892D0E94FF08A0E1DD
:102210008A9FC0011124582A6C2D862D0E94FF0828
:10222000B0E28B9FC0011124582A6C81892D0E9435
:10223000FF08E0E48E9FC0011124582A6C81862D8E
:102240000E94FF08F0E88F9FC0011124582A50FC1B
:1022500006C0412F6A8181E691E00E944B0D51FC3E
:1022600006C0412F6A8187E591E00E944B0D52FC28
:1022700006C0412F6A8185E791E00E944B0D53FC17
:1022800006C0412F6A818BE691E00E944B0D852D9F
:102290008A718A3061F46C2D882D0E94550688233E
:1022A00031F0412F6A818FE791E00E944B0D852D1F
:1022B0008672863061F46C2D882D0E945506882325
:1022C00031F0412F6A8189E891E00E944B0D852D04
:1022D0008974893061F4602F892D0E945506882306
:1022E00031F0412F6A8183E991E00E944B0D852DE9
:1022F0008578853031F4412F6A818DE991E00E9423
:102300004B0D852D867021F46D2D8A810E94FB0B6B
:10231000252D2A7009F083CE6D2D8A818D5F0E9454
:10232000FB0B7DCE1F5F00CFAA81BB81AC56B74FA0
:10233000EC91E7FBEE27E0F9F0E0EE0FFF1FE15C28
:10234000FE4F859194914D2D602F0E94D70CC39420
:10235000A6CE8091EA05B82FBF19B983BE30C8F464
:102360006091EB05E62FEE19EA83ED3090F40E94C0
:102370003806882371F04A81440F440FFA814F0FC9
:102380006981660F660F2981620F88EC9EEF0E94BB
:10239000D70C3091EC053F1939833E30E0F4809141
:1023A000ED058E198A838D30B0F46091EB05809134
:1023B000EA050E943806882371F04A81440F440FD1
:1023C0009A81490F6981660F660FA9816A0F8FEEA6
:1023D0009CE80E94D70CE4EBF7E0FB83EA83AA8138
:1023E000BB811C911F7021F112968C911297082FBE
:1023F0000F190D30E8F413966C91D62EDE18BCE060
:10240000BD15B0F00E94AF07882391F0E12FF0E0F6
:10241000EE0FFF1FE95DFE4F859194914D2D440F06
:10242000440F4D0D602F660F660F600F0E94D70C92
:10243000EA81FB813496FB83EA83E453F84079F622
:1024400084E397E09B838A83AA81BB811C911F71DF
:1024500021F112968C911297082F0F190D30E8F484
:1024600013966C91D62EDE18BCE0BD15B0F00E941C
:10247000AF07882391F0E12FF0E0EE0FFF1FE15F3F
:10248000FE4F859194914D2D440F440F4D0D602FBB
:10249000660F660F600F0E94D70CEA81FB813496AD
:1024A000FB83EA83E45BF74079F60E942F0581E223
:1024B0000E94290580E00E9429058FE30E942905DA
:1024C0000E9431050E9478020E94080F0F900F9021
:1024D0000F900F90DF91CF911F910F91FF90EF9090
:1024E000DF90CF90BF90AF909F908F907F906F9034
:1024F0005F904F903F902F900C943305CF92DF92D6
:10250000EF92FF920F931F93CF93DF93CDB7DEB778
:10251000C054D1090FB6F894DEBF0FBECDBFAE01D7
:10252000455B5F4FFA0161917191AF01CE01019658
:102530007C010E94100EF7010E2F0E19819181115E
:10254000FBCF10E0F701E10FF11D1F5F80818132A9
:10255000CCF71082C12CDD24D39480911E09810F09
:102560008C19813410F00E94720F2C2D30E0D701AD
:10257000A20FB31F9C2D911768F4E0911E0981E012
:102580008E0F80931E098D91F0E0E252F74F808309
:102590009F5FF1CFC701820F931F0E948802209195
:1025A000200990911F09482F50E02B3348F0BA01C1
:1025B000690F711D6B3271051CF00E94720FCDCF37
:1025C000490F511D4134510534F0D0921F092A5F43
:1025D00020932009C2CF9E5F890F80931F09101797
:1025E00060F4812FF701E80FF11D8F5F9081913228
:1025F000CCF71082C12E182FB0CFC05CDF4F0FB6C2
:10260000F894DEBF0FBECDBFDF91CF911F910F9128
:10261000FF90EF90DF90CF900895AF92BF92CF924E
:10262000DF92EF92FF920F931F93CF93DF93F42EDD
:10263000082F10E0242F237030E0F901E05CFC4FFC
:10264000D491F901E45CFC4FC491000F111F000FFD
:10265000111FF801EC5CF84F908196FF0CC08111BE
:1026600008C088ED91E09F938F930E947E120F9097
:102670000F9081E005C06623E1F3613061F080E0F6
:10268000DF91CF911F910F91FF90EF90DF90CF904E
:10269000BF90AF900895D801AC5CB84F1296EC9102
:1026A0001297DE0F1396EC91CE0FE090D70890E0D2
:1026B00080E0AD2EB12CCC2ED12C8E15D8F4BC01DF
:1026C000660F771FAB0148555E4FFA01E451F94F91
:1026D0002081322F3F773A151B0409F048C06B5612
:1026E000774FDB013C913F773C151D0409F03FC05B
:1026F00027FF3FC06C2F8D2F0E9455068111BFCF41
:1027000028EA31E090E080E0FC01EE0FFF1FEE0FC1
:10271000FF1FEC5CF84F40814F7109F455C0F9017F
:10272000E257FA4F5081D5134FC031965081C513EF
:102730004BC0D801AC5CB84F8C918F711F924F93F6
:102740002AEB31E03F932F931F928F931F928F9329
:102750008EEB91E09F938F930E947E128DB79EB770
:102760000A960FB6F8949EBF0FBE8DBF82CF01961A
:10277000A4CF4351594FDA013C9137FDBBCF2068BC
:102780002083E091D808B0E1EB9FF0011124E450E0
:10279000FA4F880F991F959587959C01332773E011
:1027A000369527957A95E1F7E20FF31F8770992701
:1027B00021E030E001C0220F8A95EAF78081822B68
:1027C000808388EC91E04FCF01962C5F3F4F8032A1
:1027D000910509F099CFF801EC5CF84F80818F7179
:1027E0001F92FF9227EA31E03F932F931F928F931E
:1027F0001F928F938CEA91E09F938F930E947E1299
:10280000D801AC5CB84F1296DC9312971396CC9318
:10281000ADB7BEB71A960FB6F894BEBF0FBEADBF28
:1028200028CF1F920F920FB60F9211248F939F9370
:102830008091E1009091E100937F9093E10083FF0C
:102840000FC01092E90091E09093EB001092EC0021
:1028500092E39093ED001092A70198E09093F0001E
:1028600082FF22C093E09093E9009091F2009923B7
:1028700019F09AE39093E80090914801992341F070
:1028800090914801915090934801911101C05D9A37
:102890009091A601992341F09091A60191509093B7
:1028A000A601911101C0289A84FF18C08091E2000E
:1028B0008E7E81608093E2008091E1008F7E809324
:1028C000E100809149018E7E8061809349019F9152
:1028D0008F910F900FBE0F901F90189580FFF7CF2C
:1028E0008091E2008E7E80618093E2008091E10021
:1028F0008E7E8093E100809149018E7E8160E5CFDC
:102900001F920F920FB60F921124CF92DF92EF9287
:10291000FF920F931F932F933F934F935F936F9368
:102920007F938F939F93AF93BF93EF93FF93CF9337
:10293000DF93CDB7DEB76C97DEBFCDBF1092E90055
:102940008091E80083FF25C068E0CE0145960E9493
:10295000310482EF8093E8008D8987FF39C0909120
:10296000E80090FFFCCF982F907609F034C19E8943
:102970004F89588D2F89F88C911131C0803861F5BD
:10298000809147018093F1001092F1008EEF8093C7
:10299000E8006C960FB6F894DEBF0FBECDBFDF9196
:1029A000CF91FF91EF91BF91AF919F918F917F91C7
:1029B0006F915F914F913F912F911F910F91FF90D8
:1029C000EF90DF90CF900F900FBE0F901F90189553
:1029D0009EEF9093E800C7CF1092F100D5CF9130D1
:1029E00059F48111D3CF4130510581F680914701CF
:1029F0008D7F80934701CACF933049F48111C6CFB0
:102A00004130510519F6809147018260F2CF95302F
:102A100041F48091E80080FFFCCF20682093E30020
:102A2000B5CF963009F0A9C00B8D1C8D22E0109215
:102A3000E9001092450110924401F2122EC010924A
:102A40004301109242010E9400041F8299E0998381
:102A5000FA8291E09E8390EA98879AEF9987209175
:102A6000440130914501275F3F4F3C832B838D8389
:102A70001092E90010924501109244011093430115
:102A80000093420149E050E0BE016F5F7F4F80E05C
:102A90000E94DA030E94000479CF1093430100934F
:102AA00042010E94E402DC0112960D911C91011575
:102AB000110509F451C1D801ED91FC910480F58113
:102AC000E02DBE016B5E7F4FC8010995009709F0AC
:102AD0003EC1F80100851185EACFF3E0FF120EC078
:102AE0008F89882309F440C0823061F440E867E0B0
:102AF0008DED93E00E94A703811148CF81E280937E
:102B0000EB0047CF813029F440E86BE081ED93E0A2
:102B1000F1CF833099F70E94E402DC011296ED9028
:102B2000FC908E010F5F1F4F6801E114F10479F0F2
:102B3000D701ED91FC910680F781E02DB801C70126
:102B40000995080F111DF701E084F184EECFD8013B
:102B50001C92F60101900020E9F73197BF016C1932
:102B60007D0940E0C601C6CF6BEB73E0FB014491E9
:102B700050E080E80E94DA0309CF973009F4BECF15
:102B8000983021F481E08093F10000CF993009F072
:102B9000FDCE837009F0B2CFEDE0F1E081E031E0ED
:102BA00096E32191222371F08093E9003093EB00AA
:102BB000DF0111972C912093EC009093ED008F5F33
:102BC000873079F78EE78093EA001092EA008F89C8
:102BD0008093A701DBCE8B8D9C8D1092E900109223
:102BE0004501109244019093430180934201898DE5
:102BF000811192C08E899D89913A49F4813209F000
:102C00007DCF47E050E064E071E080E0B3CF9132E7
:102C100009F074CF833269F48F89988DB0E0A0E019
:102C20008093000190930101A0930201B0930301EE
:102C3000ADCE803269F48091E80082FFFCCF67E07E
:102C400084E091E00E9431048BEF8093E8009ECEF7
:102C5000823209F09BCE8F8980930B01EEEFFFE764
:102C6000859194918B3F9C4D51F1E0E0F8E080918B
:102C7000040190910501A0910601B0910701803BEC
:102C80009440A105B105F1F480910B0180FD1AC0BB
:102C9000EE3F8AE0F80789F587E797E7918380831D
:102CA000809160008093460188E19BE00FB6F89424
:102CB000A895809360000FBE9093600067CEEEEF02
:102CC000FAE0D5CF808191818737974709F05ECEB2
:102CD000A895809160008861809360008091460192
:102CE00080936000EE3F2AE0F20789F08091FE0AAF
:102CF0009091FF0A9183808349CE808191818737AB
:102D0000980751F29093FF0A8093FE0AC5CF109264
:102D1000FF0A1092FE0A3ACE0E94E402DC011296EB
:102D20000D911C910115110509F4E8CED801ED9122
:102D3000FC910190F081E02DBE016B5E7F4FC801D8
:102D40000995811123CEF80100851185EBCF181666
:102D500019060CF41BCED2CEF1E0FF12BECE6FEB03
:102D600073E004CF1F920F920FB60F9211242F938E
:102D70003F938F939F93AF93BF9380913A0190912C
:102D80003B01A0913C01B0913D013091390123E01C
:102D9000230F2D3758F50196A11DB11D2093390140
:102DA00080933A0190933B01A0933C01B0933D0185
:102DB00080913E0190913F01A0914001B09141016D
:102DC0000196A11DB11D80933E0190933F01A093F8
:102DD0004001B0934101BF91AF919F918F913F917D
:102DE0002F910F900FBE0F901F90189526E8230F7C
:102DF0000296A11DB11DD2CFEAE4F1E01382128246
:102E000088EE93E0A0E0B0E084839583A683B78347
:102E100087E191E0918380838FEF9FEF958784878F
:102E20000895789484B5826084BD84B5816084BD42
:102E300085B5826085BD85B5816085BD80916E0058
:102E4000816080936E001092810080918100826089
:102E500080938100809181008160809381008091C6
:102E600080008160809380008091910082608093D7
:102E700091008091910081608093910080919000F9
:102E80008160809390008091C10084608093C10034
:102E90008091C10082608093C1008091C1008160F7
:102EA0008093C1008091C30081608093C3008091B2
:102EB000C00082608093C0008091C20081608093D6
:102EC000C20080917A00846080937A0080917A00B9
:102ED000826080937A0080917A00816080937A008A
:102EE00080917A00806880937A001092A7011092F6
:102EF0004701109249018091D70081608093D700EB
:102F000080EA8093D80089B5806189BD89B58260E7
:102F100089BD09B400FEFDCF61E070E080E090E083
:102F20000E9463048091D8008F7C80618093D800D8
:102F30008091E000807F8093E0008091E1008E7EB0
:102F40008093E1008DE08093E200559A209A81EC15
:102F500080937C0085B1806F85B984B1877E84B908
:102F600084B1876E84B95E9A5F988AB1806D8AB9A0
:102F7000769A6E9881B3806F81BB899880B38D708B
:102F800080BB80E58CBD81E08DBD0E9496045F9A78
:102F90000E9496045E980E942F05C9E1D3E0FE01CD
:102FA00084910E9429052196F3E0C632DF07B9F724
:102FB0000E94310581E88093640080916500816002
:102FC000809365000E94210587FD0AC0E1E2F9E0D7
:102FD00087E72DB73EB72E173F0770F08193F9CFE3
:102FE0000E942F0585EA0E9429050E9431052E982E
:102FF0002F982D982E98FFCFE8EAF1E0119289E002
:10300000E132F807D9F78EEB9AEB9093EF058093B6
:10301000EE051092D8080E94560A80913407807EEF
:1030200081608093340794E090933607909337073C
:1030300080913807807E8B608093380790933A07A1
:1030400086E080933B0710921E0981E080931F0960
:103050008DE18093200986E293E09F938F930E94F5
:103060007E120E94D9060E948A0F0F900F9004E4EE
:1030700013E02FE5E22E23E0F22E6624639430E085
:10308000C32E30E0D32E9DE1592E0E948E0D10925A
:103090001E0960921F0950922009803109F48CC0EA
:1030A00008F081C0843009F497C0883009F489C0E1
:1030B00040E060E080E00E940D13882309F46CC0BA
:1030C0000E9477050E94D9060E948A0FB12CA12C7C
:1030D0009A2CE501CC0FDD1FCC0FDD1FCE018855EA
:1030E0009E4FFC01E457FA4F2081322F3F7109F4C3
:1030F0004BC0AA2069F026FD0BC025FF72C00E94BC
:103100002A098370782E61E0472D892D0E940D13C6
:10311000CE018C5C984F4C01FC01808185FF17C06B
:103120000E942A09877099F4F40180818F7D808341
:103130008F711F928F931F928F93FF92EF920E9435
:103140007E120F900F900F900F900F900F90CC5C0D
:10315000D84F888186FF16C00E942A09877091F493
:1031600088818F7B88838F711F928F931F928F939B
:103170001F930F930E947E120F900F900F900F904D
:103180000F900F900E948A0FFFEFAF1ABF0A80E2E4
:10319000A816B10409F09CCFC114D10409F475CF6D
:1031A0000E94000070CF803451F08038C1F080322E
:1031B00009F07ECF42E001C041E061E07BCF43E017
:1031C000FCCF8091DD088F5F843019F08093DD089B
:1031D0006FCF1092DD086CCF0E94560A69CF40E095
:1031E000ECCFFC01E257FA4F308181579A4FFC0136
:1031F0004081509136077091370790E080E060E0A1
:10320000FC01E05CFC4F2491FC01E45CFC4FE49188
:10321000230F251305C0E40FE71302C0782E61E0E9
:1032200001968430910561F76FCF991B79E004C056
:10323000991F961708F0961B881F7A95C9F78095F5
:103240000895EE0FFF1F0590F491E02D099481E0A1
:0C32500090E0F8940C942C19F894FFCF37
:10325C00FFFFFFFF00E100000000000000C18081C3
:10326C0000000000000000F8029C0419030E035F2C
:06327C00031D033B0300EB
:00000001FF
