:100000000C9477040C9494040C9494040C9494042D
:100010000C9494040C9494040C9494040C94940400
:100020000C9494040C9494040C9494040C949404F0
:100030000C9494040C9494040C9494040C949404E0
:100040000C9494040C9494040C9494040C949404D0
:100050000C9494040C9494040C9494040C94ED1E4D
:100060000C9494040C9494040C9494040C949404B0
:100070000C9494040C9494040C9494040C949404A0
:100080000C9494040C9494040C9494040C94940490
:100090000C9494040C9494040C9494040C94940480
:1000A0000C9494040C9494040C9494046172650070
:1000B000697300666F6F6420726174696F6E0061AE
:1000C00072726F7700626F770073776F726400628D
:1000D0006F6F74730068656C6D0061726D6F720094
:1000E00072696E67206F66200072696E6700616DCD
:1000F000756C6574206F662000616D756C657400A9
:10010000706F74696F6E00206F662000706F746985
:100110006F6E007363726F6C6C00206F66200073EB
:1001200063726F6C6C004C6F6164696E672E2E2E6B
:1001300000537461636B3A20407500536565643AFF
:1001400020407840780052616E643A2040784078D0
:100150000044756E67656F6E204C6576656C204057
:1001600075004850005850005B6D6F72655D005916
:100170006F752061726520706172616C797A656457
:100180002100596F752061726520636F6E6675730B
:1001900065642100596F7520666F756E642061205B
:1001A00068696464656E20646F6F722100546865CD
:1001B00020646F6F7220697320616C72656164796D
:1001C00020636C6F7365642E0054686520646F6FE4
:1001D0007220697320626C6F636B65642E00596FC7
:1001E0007520736565206E6F20646F6F7220746870
:1001F0006572652E006D6973730040532040762050
:10020000404F2E0068697400405320405620404FF4
:100210002E006469650040532040562100596F75D7
:1002200020616476616E636520746F206C6576650D
:100230006C2040752100596F75206665656C2073D0
:1002400074726F6E6765722E00596F7520666565F2
:100250006C20717569636B65722E00596F7520682B
:100260006561722074686520736F756E64206F66B7
:100270002064656174682E00405320647261696E69
:100280007320796F7572206865616C7468210064F1
:10029000696500405320405621006265636F6D65BB
:1002A00000405320405620636F6E6675736564216D
:1002B000004053204041207765616B656E65642185
:1002C00000626C6F636B004053204056204050200A
:1002D00061747461636B2E004053204041206E6F47
:1002E000206C6F6E67657220636F6E6675736564F0
:1002F0002E004053204041206E6F206C6F6E67656A
:100300007220706172616C797A65642E00596F7524
:1003100020617265206E6F206C6F6E676572206958
:100320006E76697369626C652E0057686963682030
:10033000646972656374696F6E3F00596573004E3E
:100340006F0057656C636F6D6520746F2041726438
:1003500075526F6775652E00476F206261636B2071
:10036000757020746865207374616972733F00470B
:100370006F20646F776E20746F20746865206E65DF
:1003800078742064756E67656F6E3F0044656275B2
:100390006720496E666F00536176652050726F6703
:1003A000726573730053657474696E677300506C83
:1003B0006179657220496E666F0044756E67656F7E
:1003C0006E204D6170005468726F77204974656DBE
:1003D0000044726F70204974656D0053686F6F74CC
:1003E00000557365202F205B556E5D6571756970D2
:1003F0000057616974202F2053656172636800673C
:100400006C6F77696E6700746174746572656400FF
:1004100079656C6C6F77656400666164656400740F
:10042000656C65706F72746174696F6E0072656D72
:100430006F766520637572736500656E6368616EC3
:1004400074696E67006964656E7469667900626CD0
:10045000756500677265656E006F72616E67650035
:10046000636C6561720072656400696E76697369B8
:1004700062696C69747900737472656E6774680080
:10048000666C616D6500636F6E667573696F6E0093
:100490006865616C696E67007370656564006469A6
:1004A000616D6F6E640073656520696E766973694E
:1004B000626C6500647261676F6E00677269666680
:1004C000696E0074726F6C6C00686F62676F626C4B
:1004D000696E006F726300676F626C696E007A6F9D
:1004E0006D62696500726174746C65736E616B65D1
:1004F00000736E616B650062617400D5F08D14A1AC
:10050000C881CFD9F1AF20005714F707F907F807D2
:100510008A140208FA070008FE07FC076E1BBA03DC
:10052000AE03A50397038C03F103E103DB03D103BF
:10053000C6031A08FFFF0101000001FFFF01FF01D0
:1005400001FF00000000F66FA40FD00B5A0FB99DF9
:10055000F00B9F0F2C0FBEEFF1019D0696F90000E6
:100560002994B000B30121846009F404AA0A0606A4
:10057000900F900F900FBEEF1EE1010410020800D3
:100580000000000002020202001D1D1D1D1D0808C2
:1005900008080814141414140101010101020202D4
:1005A00002020000001F00000016001F1F000000D4
:1005B000000006000000000000180800001C0414E1
:1005C0001800000000041C000000000000010100F1
:1005D00000030202010000000002030000001700F7
:1005E000030C00000000994C000003002E02D10112
:1005F0000000C411100184101000980C2E3AF24330
:10060000B94AB12A877CB726AE22211FAA2AA23A6C
:100610000A00500184284A298A10A10A0000BE78E5
:10062000BF2A2E463F3ABF46BF042E669F7CF14745
:10063000F1019F6C1F425F7C3F783F7EBF082E7A9E
:10064000BF68B226E1071F7E071F1F7D9B6C833E9C
:10065000B94E3F028360F1032208104241004C7AF8
:100660005F324C4A4C7E4C53BE00D6035F701D0077
:10067000B0019F681F009E785E704C325E11447915
:100680009E0856034F020E7A061B1E799249823A43
:10069000DA020404F0F0F0F0FFFFFFFF0505E0E0F0
:1006A000E0E0E0FFFFFF0606C0C0C0C0C0C0FFFF23
:1006B0000606E1C0CCCCC0E1FFFF0606E1C0C0C029
:1006C000C0E1FFFF070780808080808080FF0707F0
:1006D000F7E3C180C1E3F7FF0707E3E3808080E32E
:1006E000E3FF0707E3E3889C88E3E3FF0808C3818F
:1006F0000000000081C30808E7E7C30000C3E7E784
:100700000808006642000042660010101FF807E06B
:1007100003C001800180E00720042004200420049D
:1007200060060180018003C007E01FF810101FF869
:1007300007E003C00180318C300C00000000000095
:100740000000300C318C018003C007E01FF80D0D54
:10075000BFFF1FFF0FFE07FC03F801F000E001F0F0
:1007600003F807FC0FFE1FFFBFFFFFFFFFFFFFFFA8
:100770000C0C03FC01F800F000F000F000F000F0B9
:1007800000F000F000F001F803FCFFFFFFFFFFFFA7
:10079000FFFFFF0100000000FF0102030300000053
:1007A000000003040000000000000203000000003D
:1007B000000002030000000000000203000000002F
:1007C000000002030000000000000203000000001F
:1007D000000002030000000000000203000000000F
:1007E00000000203000000000000020300000000FF
:1007F00000000203000000000000020300000000EF
:1008000000000203000000000000020300000000DE
:1008100000000203000000000000436C6F736520BD
:10082000446F6F720056657273696F6E3A20303094
:100830003100000000000000000001010404040079
:100840000A00000001060800010101000203030084
:10085000020211000303030003030101040202006A
:1008600006050101050404010A060101070404024A
:100870001007010108040403140803010804040319
:10088000140805010C030305200B010107060601EE
:10089000180C01011404040830141904100407048E
:1008A000FF0345043A042D041F0466046004590440
:1008B00053044E0490048604800477046A04980468
:1008C0009E04A60400000000F704F104E504DE0421
:1008D000D704D304C904C304BB04B4043031323395
:1008E00034353637383941424344454600001124F7
:1008F0001FBECFEFDAE0DEBFCDBF11E0A0E0B1E078
:10090000EEEEF3E402C005900D92A030B107D9F7E6
:1009100028E0A0E0B1E001C01D92A23DB207E1F7DE
:100920000E94371F0C94F5210C940000EEE1F1E0D9
:1009300081E0A0E0B4E000800EBC8111012C119791
:10094000A0FDFDCF0192B9F70DB408953FB7F8941B
:100950008091180190911901A0911A01B0911B0189
:1009600026B5A89B05C02F3F19F00196A11DB11D0A
:100970003FBFBA2FA92F982F8827BC01CD01620F46
:10098000711D811D911D42E0660F771F881F991F01
:100990004A95D1F708958F929F92AF92BF92CF92CE
:1009A000DF92EF92FF920E94A6044B015C0185E06A
:1009B000C82ED12CE12CF12C0E94A60468197909CB
:1009C0008A099B09683E734081059105A8F321E0DF
:1009D000C21AD108E108F10888EE880E83E0981E5B
:1009E000A11CB11CC114D104E104F10429F7FF904A
:1009F000EF90DF90CF90BF90AF909F908F90089531
:100A00008FB18095807F669B88601C9B8460089571
:100A10008EBD00000DB407FEFDCF08955C980895CB
:100A20005C9A08950E940E0581E20E94080580E00C
:100A30000E9408058FE30E9408050E9410050C948F
:100A400096040E940E0581E20E94080580E40E943F
:100A500008058FE70E9408050E9410050C94960473
:100A6000FB0124916F5F7F4F222321F0FC01219332
:100A7000CF01F6CF0895CF93DF93FC01862FE901D4
:100A8000613059F4BA01CF010E943005209709F175
:100A9000BE01DF91CF910C9430056AE00E94CF2116
:100AA000882319F0805D80833196905D908380E289
:100AB0008183BA01CF0102960E943005FC01209784
:100AC00021F0BE010E943005FC01CF01019623E711
:100AD0002083DF91CF9108952F923F924F925F92A2
:100AE0006F927F928F929F92AF92BF92CF92DF923E
:100AF000EF92FF920F931F93CF93DF93DC016B0173
:100B000073E7B72EE5E6AE2EFAE09F2EC4E62C2E54
:100B1000D8E63D2E10E2412E07E2502E8FE6882EB9
:100B200095E7792E22E7622EE6012196F60184915F
:100B3000803449F08C93882309F4F8C111967A0126
:100B40006E01A701F1CFF2E0CF0ED11CFE01C491DE
:100B5000C33609F461C030F5C13540F4CF3408F034
:100B600091C0C13409F4CEC07A01EBCFC335E0F3B4
:100B7000C53508F487C0C635B9F7FA01D0817A01C6
:100B8000F4E0EF0EF11CFA0162817381CD010E9445
:100B90003005DC01D130A9F2C63711F4AC921196C0
:100BA000BC9241C0C33709F45EC088F4C93609F469
:100BB000B7C0C037C9F67A01F2E0EF0EF11CEA01C6
:100BC00068817981CD010E943005DC01BACFC6373A
:100BD000A1F2C83751F1C53739F67A01D2E0ED0EEE
:100BE000F11CFA014081842F692D0E94CF21292F09
:100BF000882379F00E94CF21392F842F622D0E9403
:100C0000CF21882319F0805D8C931196305D3C9341
:100C10001196205D2C9307C07A01F2E0EF0EF11CD3
:100C2000EA0188818C9311968CCF7A01D2E0ED0E87
:100C3000F11CFA0180819181FC0164E0F595E79552
:100C40006A95E1F7EF70FF27E452F74FE491EC93D8
:100C5000FC01EF70FF27E452F74FE4911196EC93FB
:100C6000119712966ECF7A01F2E0EF0EF11CFA01A5
:100C7000C081D181FD01DF018991882309F461CF11
:100C80008193F9CF7A01D2E0ED0EF11CFA012081B7
:100C90003181DC2FD1702130A1F489E5C3350CF40A
:100CA00089E78C9311968C92119712967C921297E9
:100CB000DD2311F0139645CF13966C92139714967B
:100CC00040CF84E5C3350CF484E78C9311963C92B5
:100CD00011971296AC921297CD01049613964C92EE
:100CE000F901FF27EE0FFF1FEC53F74F6591749149
:100CF0000E943005DC01D11124CF5C921196BC9288
:100D00001197AFCF7A01F2E0EF0EF11CEA01888172
:100D1000813019F46CEA70E055CF60EB70E052CF8F
:100D20007A01D2E0ED0EF11CEA01E8816981CE2F53
:100D3000C295CF706F73EF70E150EB3008F001CFC8
:100D4000F0E0EB55F94F0C94EF21B0063007630744
:100D5000B806BB06BE06CA06FE06C706C406C1061E
:100D600043EB50E030E020E0CD010E943B052DCF69
:100D70004FEB50E0F7CF65EC70E024CF69EC70E00A
:100D800021CF6FEC70E01ECF65ED70E01BCF6AEDF8
:100D900070E018CFD0E09E01275F3F4FF90143E09C
:100DA000F695E7954A95E1F7E15CF74F808190E091
:100DB0002770332702C0959587952A95E2F780FF23
:100DC0000DC060EE70E0CD010E943005FE01EE0F17
:100DD000FF1FEE53F74F65917491F5CEC053D74F77
:100DE000E881F0E0EE0FFF1FE054F74F659174913A
:100DF000CD010E94300569EE70E0E5CED0E09E01A5
:100E0000265F3F4FF90113E0F695E7951A95E1F754
:100E1000E15CF74F808190E02770332702C0959501
:100E200087952A95E2F780FF0BC06EEE70E0CD014A
:100E30000E943005FE01EE0FFF1FE254F74FCBCFAB
:100E4000CF52D74FE881F0E0EE0FFF1FE054F74F8D
:100E500065917491CD010E94300569EF70E0B3CEC9
:100E60000C2F10E0F80173E0F695E7957A95E1F71D
:100E7000E15CF74F808190E0C77002C0959587953F
:100E8000CA95E2F780FF11C040E051E030E020E079
:100E9000CD010E943B0567E071E00E943005F8013A
:100EA000EE0FFF1FEC54F74F96CF2CE031E0F80126
:100EB000E953F74FE081F0E0EE0FFF1FE655F74FE3
:100EC0004591549151CFD0E09E012B5F3F4FF901E6
:100ED00043E0F695E7954A95E1F7E15CF74F8081AD
:100EE00090E02770332702C0959587952A95E2F701
:100EF00080FF11C043E151E030E020E0CD010E94CD
:100F00003B056AE171E00E943005FE01EE0FFF1F14
:100F1000EE55F74F60CF2FE131E0C453D74FE88152
:100F2000F0E0EE0FFF1FE656F74FCACFDF91CF91EB
:100F30001F910F91FF90EF90DF90CF90BF90AF90F7
:100F40009F908F907F906F905F904F903F902F90E9
:100F50000895CF93DF93CDB7DEB760970FB6F894BF
:100F6000DEBF0FBECDBF81111AC088E0EDE2F8E010
:100F7000DE01199601900D928A95E1F729853A854F
:100F80004B855C856D857E858F85988960960FB6CB
:100F9000F894DEBF0FBECDBFDF91CF91089525E05D
:100FA000829FF0011124E859F94F808128E0829F47
:100FB000C00111248E5C974FDE01199630E020E0CD
:100FC000FC01E20FF31FE491ED932F5F3F4F2830B8
:100FD0003105B1F788E0FE013996DE0111960190E6
:100FE0000D928A95E1F788E0FE013196C1CF089510
:100FF0000895089580E0089580E0089580E00895C0
:1010000080E00895FC01108281E008958034C0F4EE
:101010006032B0F4E62FE695E695E69590E4E99F18
:10102000F0011124E80FF11DE25EFB4F677021E033
:1010300030E001C0220F6A95EAF78081822B80831D
:101040000895E62FE695E695E69590E4E99FF00190
:101050001124E80FF11DE25EFC4F677081E090E023
:1010600001C0880F6A95EAF7809590818923808373
:1010700008950F931F93CF93DF9310E000E0C1E03A
:10108000D0E080912B088017110661F15CF1980186
:10109000220F331FF901E751F84F9081692F6F77C5
:1010A0002851384FF9012081822F8F7727FF05C003
:1010B0000E9421080F5F1F4FE4CF669566956695E5
:1010C00020E4629FF0011124E80FF11DE25EFC4F65
:1010D00097709E0101C0220F9A95EAF78081822BBA
:1010E0008083E8CFDF91CF911F910F910895FC018C
:1010F0009281E42F97FF19C0EE0F462F4695469533
:101100004695E40FF0E09F7782E2989FE00DF11D95
:101110001124E45FF84F849190E0677002C09595C8
:1011200087956A95E2F781700895F0E08AE0989FCC
:10113000E00DF11D1124EC56F94F849190E0EECFB3
:10114000DC011296EC91E7FF09C0EF77B2E2EB9F6A
:10115000F0011124E55FF84F849108958AE0E89F3B
:10116000F0011124ED56F94FF7CFDC011296EC9106
:10117000E7FF09C0EF77B2E2EB9FF0011124E65FD1
:10118000F84F849108958AE0E89FF0011124EE560B
:10119000F94FF7CFFF920F931F93CF93DF93EC019B
:1011A000042F8881162F181BF980CE010E94B508E4
:1011B000181738F080E0DF91CF911F910F91FF90C9
:1011C00008950F19CE010E94A008081798F7402F24
:1011D000612FCE010E94770891E08927ECCF680F3C
:1011E000791FFC011192CF01E617F707D1F7089597
:1011F000E8E6F6E030E020E09081992379F09381F1
:1012000098130CC09481961309C045E0429FC00119
:10121000439F900D11248859994F08952F5F3F4F98
:1012200035962032310541F790E080E00895F09145
:101230002B0830E020E090E070E02F17E0F4A901E7
:10124000440F551FDA01A851B84FEC91EF77E8171A
:10125000190671F44751584FDA014C914F774617F0
:10126000170631F4C901880F991F8851984F0895C6
:101270002F5F3F4FE2CF90E080E008958034C8F4C4
:101280006032B8F4962F96959695969540E4949F83
:1012900090011124225E3B4F280F311DF9018081FE
:1012A00090E0677002C0959587956A95E2F7817026
:1012B000089580E008958034C8F46032B8F4962F21
:1012C00096959695969540E4949F90011124225E00
:1012D0003C4F280F311DF901808190E0677002C0FA
:1012E000959587956A95E2F78170089581E0089554
:1012F0006F927F928F929F92AF92BF92CF92DF9226
:10130000EF92FF920F931F93CF93DF93D82FC62FA7
:10131000742E622E88248394841730F081E0D413D5
:1013200001C080E0882E8194EE24E394C61530F04D
:1013300081E0C61101C080E0E82EE1941D2F17194D
:1013400017FD11950C2F061907FD0195902E969407
:10135000F12EF694C02ED12CA12EB12CD71102C0A3
:10136000C615D9F06C2F8D2F0E945B09811125C005
:10137000910EF00E892D092C000C990B8C159D05F2
:1013800014F0D80D901A8F2D0F2C000C990B8A1584
:101390009B0524F3CE0DF11AE1CF81E0DF91CF91CF
:1013A0001F910F91FF90EF90DF90CF90BF90AF9083
:1013B0009F908F907F906F90089580E0EFCF6F9215
:1013C0007F928F929F92AF92BF92CF92DF92EF92D5
:1013D000FF920F931F93CF93DF93F0906B06E090F3
:1013E0006C0624E0CBEFCE0D2E1508F0C0E034E003
:1013F000EBEFBE2EBF0C3F1508F0B12C85E08F0D32
:1014000075E0C72ECE0C9FE19C1510F46FE1C62E3F
:10141000D82E2FE3281710F45FE3D52ECC1650F109
:101420000C2F0E1907FF02C00E2D0C1B009F800110
:101430001124DB2DDD16E0F08D2F8F1987FF02C000
:101440008F2D8D1B9801889F200D311D11242B316C
:10145000310564F42C2F4D2F6E2D8F2D0E947809AD
:10146000882321F06C2F8D2F0E940608DF5FE2CFCA
:10147000CF5FD4CF10E043E0942E882483948091F2
:101480002A08181708F062C0C12FD0E06E0133E0BF
:10149000D694C7943A95E1F7312F3770732EE091C7
:1014A0002C0880E1E89FF0011124E45DFA4FEC0D77
:1014B000FD1D808190E002C0959587953A95E2F7F1
:1014C00080FD42C0199DC00111249C012857384F4E
:1014D0007901CE01880F991FC80FD91FC857D84F5F
:1014E000B880C7010E94B508B80EA980C7010E9444
:1014F000A008A80E0981382D01C0330F7A94EAF7AD
:10150000732E0A1508F568806B14E0F4602F862DA1
:101510000E943E098823A1F0402F662DC7010E943A
:10152000CA08882369F0E0912C0880E1E89FF00167
:101530001124E45DFA4FEC0DFD1D80818729808325
:101540006394E2CF0F5FDDCF1F5F99CFDF91CF9123
:101550001F910F91FF90EF90DF90CF90BF90AF90D1
:101560009F908F907F906F900895482F262F8091A5
:101570006B0660916C06382F341BE62FE21BEE02DF
:10158000F00111243302E00DF11D11247B9714F4B6
:101590000C94780980E00895CF93DF93C82FD62F5D
:1015A0000E945B09811111C090911E059C1304C01B
:1015B00090911F059D1741F0909120059C1308C044
:1015C000909121059D1304C081E0DF91CF91089592
:1015D000E8E6F6E09081992331F093819C1303C0F3
:1015E00094819D1789F3359697E0E830F90791F7D4
:1015F000E8E0F7E090819F7031F09281C91303C059
:101600009381D91709F3349697E0E838F90791F7F1
:1016100070912B08B0E0A0E02C2F30E0ED2FF0E02F
:10162000A71798F6AD01440F551FEA01C851D84FCE
:1016300098819F779217130649F44751584FEA0152
:1016400098819F779E171F0609F4BECF1196E8CFA9
:101650008F929F92AF92BF92CF92DF92EF92FF92C2
:101660000F931F93CF93DF93E62EC42F00912A0888
:10167000202F30E0F901EE0FFF1FE20FF31FE857B4
:10168000F84F6083C18382832FE3261770F480E0D4
:10169000DF91CF911F910F91FF90EF90DF90CF904E
:1016A000BF90AF909F908F900895C03280F783E0F5
:1016B000089F800111240857184FC8010E94B508DF
:1016C000BE2CB80EC8010E94A0089FE39B15F8F23B
:1016D000FC2EF80EEFE1EF15D0F2CF1510F5DE2D50
:1016E000DB15E8F44C2F6D2FC8010E94CA0888232F
:1016F000A1F0DD24DA94CC24CA94AC2EAD0C6A2D72
:101700008C2D8D0F0E945B09882309F2C394F2E0AF
:10171000CF12F5CFD394DF12EECFDF5FE1CFCF5FF3
:10172000DCCF00912A08C02FD0E0E0912C0820E106
:10173000E29FF0011124E45DFA4FCE0123E096957B
:1017400087952A95E1F7E80FF91F808190E0202F17
:10175000277002C0959587952A95E2F7E82FE170EA
:10176000DE2EF3E00F9F800111240857184FCE01A1
:10177000880F991FC80FD91FC857D84FC880C801F4
:101780000E94B508C80E9980C8010E94A008980E52
:10179000F980F3945E01EE24EA94EF0CE91478F5F5
:1017A000F501D0818EEF882E8F0CDC1510F0F394AC
:1017B000F2CF4E2D6D2FC8010E94CA08C1E0CD0F97
:1017C0008823D9F06E2D8D2F0E942108DD20A9F0ED
:1017D0006E2D8D2F0E9406086E2D8FEF8D0F0E94AB
:1017E00006086E2D8C2F0E940608682D8D2F0E94F2
:1017F00006086F2D8D2F0E940608DC2FD6CF809112
:101800002A088F5F80932A0881E042CF803440F518
:10181000603230F5262F26952695269590E4299F4F
:1018200090011124820F932F911DFC01E25EFB4F6A
:10183000208130E020953095825E9C4FFC018081B4
:10184000282B677081E090E002C0880F991F6A958D
:10185000E2F72823392381E0232B19F480E008954F
:1018600081E00895ECE1F1E0808191819C01369561
:10187000322F22273795279528273927C901892F05
:101880009927869528273927922F882782279327FB
:101890009183808308950F931F93CF93DF93082F35
:1018A000162F0E9421080E94320C843C08F049C087
:1018B000C0912B08C03208F044C0612F802F0E94D5
:1018C0001709892BF1F5D0E00E94320C90912B087A
:1018D000E0912C0820E1E29FF0011124E05DFA4F35
:1018E000292F30E043E0369527954A95E1F7E20F3E
:1018F000F31F208130E0977002C0359527959A95A7
:10190000E2F7CC0FDD1F20FF21C0612F802F0E9446
:101910000608FE01E851F84F808180688083FE014F
:10192000E851F84F0F7780818078082B00831F776C
:1019300081818078182B118380912B088F5F809391
:101940002B08DF91CF911F910F910895FE01E35E67
:10195000FE4F91E0803208F090E0E553F94F81812D
:1019600090FB87F98183DBCFCF93C82F0E94320C85
:101970008C1710F08C1BFCCFCF9108950F931F9301
:10198000CF93DF9300E014E080E40E94B40CD82FE2
:1019900080E20E94B40CC82F682F8D2F0E94CC0AC1
:1019A000882399F00150110979F7C0E0D0E06C2F3D
:1019B0008D2F0E94CC0A882341F0DF5FD034B9F725
:1019C000CF5FC03299F7CFEFDFEF8D2F9C2FDF91E4
:1019D000CF911F910F910895CF92DF92EF92FF92D6
:1019E0001F93CF93DF9300D01F92CDB7DEB7182F90
:1019F0006A01790119821A821B826B83123089F184
:101A0000CE0101961330A9F11130F9F00E94B5080A
:101A10000E94B40C89831A824A816981CE010196A1
:101A20000E9477088111EACF8981F60180838A813B
:101A3000F70180830F900F900F90DF91CF911F914E
:101A4000FF90EF90DF90CF9008950E94B5080E941C
:101A5000B40C8983CE0101960E94A00881508A832C
:101A6000DBCF1982CE0101960E94A0080E94B40C1F
:101A7000F6CF0E94B50881508983F4CF0E94320CC2
:101A8000803428F484E00E94B40C805808958CE0DF
:101A90000C94B40CCF92DF92EF92FF920F931F93AE
:101AA000CF93DF937C01FC01C0E0C193CF5F6C1347
:101AB000FCCFD0E08C2F8150990B6C010D2F10E0E2
:101AC0000C151D0584F48C2F8D1B0E94B40CD701BE
:101AD000A80FB11DF701E00FF11F80819C91908349
:101AE0008C93DF5FEBCFDF91CF911F910F91FF9030
:101AF000EF90DF90CF900895DC0181E06623E9F05C
:101B0000FD0194919923F9F011969032A1F0E92FFB
:101B1000EE0FFF0BE456FA4F25913491932F9695D3
:101B200096959F7161F495E0369527959A95E1F722
:101B30002F7192E029F491E003C09C91E3CF93E0F0
:101B40009F5F890FDBCF089580913308909138080B
:101B5000981708F080E00895FF920F931F93CF939A
:101B6000DF93D82FF62E10E000E080E0C82FCC0FD6
:101B7000F801E45CFA4F8491F801EC5CFA4F64914F
:101B80006F0D8D0F0E94060C8C2B0F5F1F4F0830BE
:101B9000110561F7DF91CF911F910F91FF9008958B
:101BA000982F962B907CB9F4E62FE695E695E6956E
:101BB00090E4E99FF0011124E80FF11DE45EFE4F6F
:101BC000677081E090E001C0880F6A95EAF7809520
:101BD0009281892382830895BF92CF92DF92EF9200
:101BE000FF920F931F93CF93DF93D62EC42E7C01C9
:101BF000C0E0BD2CBC0EF70181917F01DC2D882354
:101C000069F0082F10E080FF04C06D2F8B2D0E941B
:101C1000D00DC80195958795DF5FF1CFCF5FC430B8
:101C200041F7DF91CF911F910F91FF90EF90DF90DF
:101C3000CF90BF900895982F962B907CB1F4E62F0B
:101C4000E695E695E69590E4E99FF0011124E80F0A
:101C5000F11DE45EFE4F677021E030E001C0220F0D
:101C60006A95EAF78281822B828308959F92AF92D0
:101C7000BF92CF92DF92EF92FF920F931F93CF9379
:101C8000DF9300D01F92CDB7DEB7182FF62EE42FCA
:101C9000EE0FFF0BE456FA4F25913491822F8F718E
:101CA0008983C90145E0969587954A95E1F78F713B
:101CB0008A83932F969596959F719B8303E091114C
:101CC00004C002E0811101C001E0CE0101965C0177
:101CD000902E910EF50181915F01EF2C882369F020
:101CE000C82ED12C80FF04C06E2D812F0E941B0EA8
:101CF000E394C60195958795F1CF1F5F1911EACF3F
:101D0000802F0F900F900F90DF91CF911F910F9127
:101D1000FF90EF90DF90CF90BF90AF909F9008958D
:101D2000FF920F931F93CF93DF93C82FD62FF22EDE
:101D30008A01F801FF2049F0449140327CF04032A2
:101D400031F4CE5F0F5F1F4FF4CF4081F6CF6D2F80
:101D50008C2F0E94360ECF5FC80FF4CFDF91CF914A
:101D60001F910F91FF900895EF92FF920F931F9391
:101D7000CF93DF93D0E08DE1F82EC1E08091C408CD
:101D8000D81760F50D2F10E00C5B174F60E0C8010D
:101D90000E947C0DE82E2C2F280F3327331F21346F
:101DA00031059CF036E0F30E20E0A8016F2D81E0B4
:101DB0000E94900EC1E0ED2FDF5FF0E0EC5BF74F8B
:101DC0008081ED2F8111F8CFD9CF20E0A8016F2DB0
:101DD0008C2F0E94900ECE5FCE0DEDCFDF91CF9174
:101DE0001F910F91FF90EF9008959F92AF92BF9235
:101DF000CF92DF92EF92FF920F931F93CF93DF93D7
:101E000000D000D0CDB7DEB7E62ED42E292F2295F4
:101E10002F702983292F2F702A839C0144E0369547
:101E200027954A95E1F72F702B838F708C831FEFD6
:101E30001D0DFF24FA94F60E412F6F2DCE01019651
:101E40000E94EC0D412F6E2DCE0101960E94EC0DEB
:101E500001E00E0D412F602FCE0101960E94EC0D86
:101E60004D2D6F2DCE0101960E94EC0D4D2D602F52
:101E7000CE0101960E94EC0D8E010F5F1F4FF12CD9
:101E80009E2C9F0CF80181918F01CD2C882369F045
:101E9000A82EB12C80FF04C06C2D892D0E941B0E32
:101EA000C50195958795C394F1CFF394F4E0FF12A3
:101EB000E7CF0F900F900F900F90DF91CF911F9170
:101EC0000F91FF90EF90DF90CF90BF90AF909F90D9
:101ED0000895BF92CF92DF92EF92FF920F931F93DC
:101EE000CF93DF93B62ED42E8C01C0E0CB2CCC0E3A
:101EF000F8018491DD2D882369F0E82EF12C80FF14
:101F000004C06D2F8C2D0E941B0EC70195958795DF
:101F1000DF5FF1CFF8013596E491DD2DEE2369F016
:101F2000EE2EF12CE0FF04C06D2F8C2D0E94D00D01
:101F3000F701F595E795DF5FF1CFCF5F0F5F1F4F9B
:101F4000C530A1F6DF91CF911F910F91FF90EF90D7
:101F5000DF90CF90BF9008951F93CF93DF93D82F3A
:101F6000C62F142F1C1730F06C2F8D2F0E941B0EC4
:101F7000CF5FF8CFDF91CF911F9108951F93CF933B
:101F8000DF93C82F162FD42F1C1730F06D2F8C2FF6
:101F90000E941B0ECF5FF8CFDF91CF911F91089564
:101FA0006F927F928F929F92AF92BF92CF92DF9269
:101FB000EF92FF920F931F93CF93DF93F82ED0E011
:101FC000C0E0EC2E8E0115950795017010E06E2D86
:101FD000802F810F0E941B0E1E5F1034C1F72296C6
:101FE000C034D10571F7EE24E394D12CD0E01D2F3D
:101FF000110F882483948E0CC12CB12C8D2D8170EF
:10200000782EAF2CAC0CCC2DCC0F6D2F8A2D0E94CE
:10201000060C982E882309F49EC06D2F8A2D0E94ED
:10202000AC0D082F6D2F8A2D0E945B09882309F4BF
:1020300098C00F3F09F497C032E0632E6C0EA12EBA
:102040008A1458F09C2E691430F06A2D892D0E9454
:10205000D00D9394F8CFA394F3CF992493949C0E2E
:10206000A12E4A2D692D8C2F0E94BE0FA394EA1435
:10207000C0F700FD08C0AC2E612F8A2D0E94D00D44
:10208000A3949A14C8F702FD08C0612F8C2F0E94F8
:10209000D00D6E2D8C2F0E94D00D0578053021F4C7
:1020A000612F8C2F0E94D00DB1104AC0B12CC39467
:1020B000E0E2CE12A6CFDF5FD394FD2DF170DF2ECC
:1020C000E394E394D03209F092CFE12C0F2D80916C
:1020D0002B08E81608F053C08E2D90E0880F991F4A
:1020E0009C01245E3E4FF901E353F94F408147FDC7
:1020F00044C02453394FF901C081C7FD3EC0875108
:10210000984FFC01D081DF77CF776D2F8C2F0E9405
:102110003E09882391F1C01BCC0FDD0F82E0B82E61
:10212000BD0E92E0A92EAC0EDD2EBD1400F1CC2E1A
:10213000AC14D8F06D2D8C2D0E94D00DC394F8CF27
:10214000C150012F801608F4B1CF602F8C2F0E9450
:10215000D00D0F5FF7CF612F872D8C0F0E94D00D10
:10216000A6CFB92CA4CFB82EA2CFD394DECF61E0F6
:102170006D0F81E08C0F0E941B0EE394A8CFD091CD
:102180001F05C0911E056D2F8C2F0E943E098823CC
:1021900071F0CF19CC0FDD0F41E04D0F61E06C0FF6
:1021A0008C2F0E94BE0F6D2F8C2F0E941B0ED09182
:1021B0002105C09120056D2F8C2F0E943E09882398
:1021C000F1F08C2F8F19880FCD2FCC0FD1E0D80FC5
:1021D00041E04C0F6D2F0E94BE0F6C2F8D2FDF91B1
:1021E000CF911F910F91FF90EF90DF90CF90BF9014
:1021F000AF909F908F907F906F900C941B0EDF910B
:10220000CF911F910F91FF90EF90DF90CF90BF90F3
:10221000AF909F908F907F906F9008950F931F9332
:10222000CF93DF93082FC62FD42F122F0E94BE0FFB
:10223000412F6C2F802F0E94BE0F412F6D2F802FBA
:102240000E94AC0F412F6D2F8C2FDF91CF911F91EA
:102250000F910C94AC0F2F923F924F925F926F921E
:102260007F928F929F92AF92BF92CF92DF92EF9226
:10227000FF920F931F93CF93DF93C82FA62EDAEF11
:10228000D80FBAEFFB2EF60E10E000E080912B087D
:1022900080171106E1F0DCF09801220F331FC9010D
:1022A000845E9E4FFC01E353F94F408147FD0CC013
:1022B0002751384FF90160816F778453994FFC01A2
:1022C00080818F770E9421080F5F1F4FDFCFF9EFCA
:1022D000AF0EBF2CF4E09F2E5524539486E0882E39
:1022E0008C1A7CEFE72EE90CCB2CC694C694C694CE
:1022F00080E4C89E600111242B2D2770452C01C05D
:10230000440C2A95EAF70D2FC0E0662463946B0C09
:10231000EBEF3E2E390CF601E25EFB4F6F017724A6
:102320007394700E003408F09FC0FFE1FB1508F4B1
:102330009BC0F601E00FF11D8081842109F094C05B
:102340004E2D6C2F8AE795E00E94690F072DCB5F19
:10235000C13429F7B39485E0980EA39495E49912BB
:10236000C0CF0E9439080F2D10E0C0E0ED2EEC0E1A
:10237000602F8E2D0E94060C811115C0602F8E2DAE
:102380000E94B50A882379F061E080914308833088
:1023900009F060E06E5F610F8C2F880F880F8C0F43
:1023A0008E5F0E941B0ECF5FCD3001F70F5F1B5F6A
:1023B0001134D9F6C12C80912B08C81608F012C12F
:1023C0000C2D10E0000F111FC801845E9E4FFC0110
:1023D000E353F94F208127FD03C18453994FFC013A
:1023E0008081B82EE894B7F8EB2CED1AFCE0FE15CE
:1023F00008F4F6C0F801E751F84FC081CF77DC2E22
:10240000DF188CE08D1508F4EBC06C2F8B2D0E942B
:102410003E09882309F4E4C08E2D880F880FE80E4A
:102420008D2D880F880FD80E61E06C0F8B2D0E94C8
:10243000060CA09043088111A12C84E08D0DA80EFC
:1024400034E0932E9E0C88248A948E0CCD2DAC16ED
:1024500008F4B4C0B82C9B1408F4AEC06C2F8B2DBC
:102460000E94D00DB394F7CF6B2D802F0E94060CE5
:1024700081112DC06A2D802F0E945B09882309F4E9
:1024800065CF882D800F49F06A2D8FEF800F0E9455
:102490005B090FEF0C0F811101C00C2F6A2D872DE6
:1024A0000E945B0964E0262E811102C053E0252EB4
:1024B0002C0E10E080914308181708F047CF432DE9
:1024C000410F622D802F0E94BE0F1F5FF3CF4E2D54
:1024D0006C2F8AE795E00E94690F6B2D802F0E9478
:1024E000AC0D182F80FD06C04E2D6C2F88E995E0AD
:1024F0000E94690F11FD06C04E2D6C2F8EE895E0ED
:102500000E94690F12FD06C04E2D6C2F8CEA95E0DB
:102510000E94690F13FD06C04E2D6C2F82EA95E0D4
:102520000E94690F812F8A718A3061F4662D802F95
:102530000E945B09882331F04E2D6C2F86EB95E0CD
:102540000E94690F812F8672863061F4662D802F7C
:102550000E945B09882331F04E2D6C2F80EC95E0B2
:102560000E94690F812F8974893061F46B2D872D4A
:102570000E945B09882331F04E2D6C2F8AEC95E088
:102580000E94690F812F8578853031F44E2D6C2F94
:1025900084ED95E00E94690F812F867021F4692DEA
:1025A0008C2F0E94D00D1A7009F0D0CE692D83E0D7
:1025B0008C0F0E94D00DCACECF5F49CFF801E851F1
:1025C000F84FE081E7FBEE27E0F9F0E0EE0FFF1FA8
:1025D000EA58FA4F859194914D2D6E2D0E94F50E7B
:1025E000C394E9CE80911E05C82FCD1BCE30B0F428
:1025F00060911F05162F1F191D3080F40E943E099F
:10260000882361F0412F440F440F410F6C2F660F58
:10261000660F6C0F88EC9EEF0E94F50E80912005EE
:10262000C82FCD1BCE30B0F460912105162F1F1995
:102630001D3080F40E943E09882361F0412F440F31
:10264000440F410F6C2F660F660F6C0F8FEE9CE8E6
:102650000E94F50E08E017E0F801C081CF7019F173
:102660008281E82EED1AFCE0FE15E8F0F8016381A6
:10267000D62EDF18FCE0FD15B0F00E94B50A8823C5
:1026800091F0EC2FF0E0EE0FFF1FE25AFA4F859128
:1026900094914D2D440F440F4D0D6E2D660F660F16
:1026A0006E0D0E94F50E0C5F1F4F87E0083818076B
:1026B00099F608E616E0F801C081CC2319F1838170
:1026C000E82EED1AFCE0FE15E8F0F8016481D62E44
:1026D000DF18FCE0FD15B0F00E94B50A882391F0E8
:1026E000EC2FF0E0EE0FFF1FEC5BFA4F8591949119
:1026F0004D2D440F440F4D0D6E2D660F660F6E0D60
:102700000E94F50E0B5F1F4F87E00830180799F6FF
:10271000809120058F3F09F035C0C7E1D9E06C2FCB
:102720008D2F0E94D00DDF5FD733C9F7CF5FCB323B
:10273000A9F728E248E164E38AE00E940E1149E229
:1027400065E38BE00E94BE0F49E269E185E30E94E8
:10275000AC0F46E251E021E06EE181E1DF91CF91E3
:102760001F910F91FF90EF90DF90CF90BF90AF90AF
:102770009F908F907F906F905F904F903F902F90A1
:102780000C94900EDF91CF911F910F91FF90EF90DD
:10279000DF90CF90BF90AF909F908F907F906F9081
:1027A0005F904F903F902F9008950F931F93CF937A
:1027B000DF93D1E010E508E28091600083FF07C05D
:1027C000F89487E78093000880930108FFCFC091B9
:1027D0001201CC2359F08FEF8C0F8C2380931201C0
:1027E0008C27DF91CF911F910F9108952FB7F89407
:1027F0008091140190911501A0911601B0911701DB
:102800002FBF2FB7F894409114015091150160919A
:102810001601709117012FBF481B590B4430510509
:1028200020F4D3BF889513BEECCF0E940005909191
:1028300011018927E9E0F1E030E020E041E0542F88
:10284000582369F150815F5F533010F55083440F76
:102850002F5F3F4F31962830310589F7C927C09344
:102860001101E1E0F1E081E02C2F282321F020810B
:102870002150B9F02083880F319621E0E930F2072A
:1028800099F7909300019095C923C093120194CFBA
:102890001082C42BD901AF5FBE4F1C93D8CF1082DA
:1028A000D6CF0083282F20952F609223E4CF80E09D
:1028B0000E94D00F0E94120580E20E94D00F0E9459
:1028C00021050E94D5138430E1F70895CF93DF935B
:1028D000CDB7DEB7A0970FB6F894DEBF0FBECDBF61
:1028E000AE01475D5F4F6FA178A5CE0101960E94B2
:1028F0006C0520E0AE014F5F5F4F6EA18DA10E947D
:10290000900EA0960FB6F894DEBF0FBECDBFDF913C
:10291000CF910895CF9321E045E258E061E081E056
:102920000E94900E22ED38E080E0F9014DB75EB7CD
:102930004217530740F02F5F3F4F9081953A19F4AB
:102940008F5F8F3F91F721E331E01F928F933F9389
:102950002F9387E08F93C1E0CF930E94661420915C
:102960002205309123058BE391E0A90155275F9360
:102970004F931F923F939F938F938DE08F93CF93AD
:102980000E94661420911C0130911D0186E491E0A3
:10299000A90155275F934F931F923F939F938F9366
:1029A00083E18F93CF930E9466140E9412050E94C8
:1029B00021058DB79EB746960FB6F8949EBF0FBE01
:1029C0008DBF0E94D5138430E1F7CF910895CF9346
:1029D000DF9321E531E080912C0890E001969F93F0
:1029E0008F933F932F931F92D1E0DF930E94661441
:1029F00082E691E09F938F93C6E0CF93DF930E948E
:102A0000661485E691E09F938F93CF9381E28F9335
:102A10000E9466140E94A40DC82FD0916A0629E076
:102A200047E06AE189E00E940E118DB79EB70E96CD
:102A30000FB6F8949EBF0FBE8DBFCC2351F020E19E
:102A4000D29FC001112408966C2F70E00E94DB21F8
:102A5000C62F69E06C0F48E08AE00E94BE0FC0916B
:102A60004208CF3008F0CFE0D091340829E047E0A9
:102A70006AE389E20E940E1120E1D29FC001112475
:102A80000896C295C07FC65F6C2F70E00E94DB2164
:102A9000675D48E08AE2DF91CF910C94BE0F6091B0
:102AA0006C0680916B060E942B110E9412050E94F9
:102AB000E7140E94B40E48E651E021E06BE38BE29C
:102AC0000E94900E0E9421050E94D5138830E1F7E4
:102AD0001092C40881E08093C5088DE18093C608F8
:102AE0000895CF92DF92EF92FF920F931F93CF93AF
:102AF000DF93CDB7DEB7C054D1090FB6F894DEBF6F
:102B00000FBECDBFAE01455B5F4FFA016191719180
:102B1000AF01CE0101967C010E946C05F7010E2FDA
:102B20000E1981918111FBCF10E0F701E10FF11D2A
:102B30001F5F80818132CCF71082C12CDD24D394B9
:102B40008091C408810F8C19813810F00E944F15B4
:102B50002C2D30E0D701A20FB31F9C2D911768F4E4
:102B6000E091C40881E08E0F8093C4088D91F0E05D
:102B7000EC5BF74F80839F5FF1CF60E0C701820F6E
:102B8000931F0E947C0D2091C6089091C508482F84
:102B900050E02B3348F0BA01690F711D6B3271059B
:102BA0001CF00E944F15CCCF490F511D41345105E7
:102BB00034F0D092C5082A5F2093C608C1CF9E5F2B
:102BC000890F8093C508101760F4812FF701E80F73
:102BD000F11D8F5F90819132CCF71082C12E182F9A
:102BE000AFCFC05CDF4F0FB6F894DEBF0FBECDBFD6
:102BF000DF91CF911F910F91FF90EF90DF90CF90D9
:102C000008958F929F92AF92BF92CF92DF92EF92F0
:102C1000FF920F931F93CF93DF93CDB7DEB76097EB
:102C20000FB6F894DEBF0FBECDBFD82E5B01E82EE5
:102C3000F12CDB0111961C9111978C91882339F1AD
:102C400085E08E9DF0018F9DF00D1124E759F94F1D
:102C5000808181FF0CC0D11008C08FE691E09F9366
:102C60008F930E9471150F900F9081E08CC080FFB0
:102C70000EC00E94320C182F1370D11008C082E8C9
:102C800091E09F938F930E9471150F900F90137096
:102C9000212F30E0F901EA56F84F0491F901EE5680
:102CA000F84F149185E08E9DD0018F9DB00D1124B9
:102CB000A859B94F1396EC9113970E0F1496EC91F7
:102CC0001E0F8D2D0E94A907C32E29873A874B8797
:102CD0005C876D877E878F87988BF5018081853033
:102CE00009F437C0863009F472C081114BC0D1108D
:102CF000BCCFF12CE12CF701EA56F84F8491F70193
:102D0000EE56F84F6491E0916C066E0F90916B0651
:102D1000890F0E9417098C01009799F0FC018181AD
:102D200087FF0FC084E991E09F938F930E947115F4
:102D3000D80111968C9111978F7711968C930F90E3
:102D40000F90BFEFEB1AFB0AE4E0EE16F10499F6E0
:102D50008CCF612F802F0E9417096C01009709F416
:102D600033C0DC0111968C91119787FD2DC0FC902A
:102D7000F7FC1CC08DEA91E09F938F930E94711520
:102D80000F900F9080E060960FB6F894DEBF0FBEF4
:102D9000CDBFDF91CF911F910F91FF90EF90DF900A
:102DA000CF90BF90AF909F908F900895612F802F0C
:102DB0000E94F808892B19F089EC91E0DDCFE894A6
:102DC000F7F8F601F08251CF8EED91E0D5CF612F6B
:102DD000802F0E941709DC01892B69F18C9187FDF6
:102DE0002AC011969C91119797FD25C0C0FE23C063
:102DF00080688C93E0912C0840E1E49FF00111245D
:102E0000E05DFA4FA85EB740B595A795CD0199272B
:102E100063E0969587956A95E1F7E80FF91FA7702B
:102E2000BB2721E030E001C0220FAA95EAF780819C
:102E3000822B80831ACF612F802F0E945B09811122
:102E4000A1CF612F802F0E94F8085C0185E0A114BA
:102E5000B10409F45BC28E9D80018F9D100D112479
:102E60000859194FD80114966C91149713968C91A8
:102E70000E94B50AC82EC501885696404DEC5CEC00
:102E8000849F9001859F300D949F300D1124B22EA8
:102E900080913008DD2049F0D801EC91B8E0EB9F3B
:102EA000F0011124EB5CF74F849189011127A09068
:102EB0003008BB2081F095E0909FF001919FF00DCC
:102EC0001124E859F94FE08148E0E49FF001112412
:102ED000EB5CF74FA490880F8A0D0E94B40C8A1502
:102EE00008F048C2CC2031F145EF51E035E03E9D7D
:102EF000F0013F9DF00D1124E859F94F20818AEF30
:102F000091E0309FF001319FF00D1124E859F94F05
:102F100030811F923F935F934F931F922F931F9285
:102F20002F939F938F930E9471150FB6F894DEBF75
:102F30000FBECDBFD11099CE85E0809FF001819F5B
:102F4000F00D1124E759F94F8081886072CF85E038
:102F5000809FF001819FF00D1124E759F94F808186
:102F60008860808380912F0895E09E9DF0019F9D51
:102F7000F00D1124E759F94F908192FF04C090E0C1
:102F8000019695958795A0903208BB2081F095E039
:102F9000909FF001919FF00D1124E859F94FE081C5
:102FA000A8E0EA9FF0011124E95CF74FA4908A0D94
:102FB0000E94B40C8F5F8A1508F4B2C18A19A82E3A
:102FC000CC2049F185E0809FF001819FF00D112414
:102FD000E859F94F30818E9DF0018F9DF00D11243D
:102FE000E859F94F2081AA2009F49CC144E052E03D
:102FF00088E092E01F923F935F934F931F922F932D
:103000001F922F939F938F930E9471150FB6F89480
:10301000DEBF0FBECDBF8D2D0E94A907922E35E0D9
:10302000832E809EF001819EF00D1124E859F94F06
:1030300082818A1508F0A9C0CC2009F49BC042E126
:1030400052E0208186E192E05F934F931F922F938D
:103050001F922F939F938F930E9471150FB6F89430
:10306000DEBF0FBECDBF85E0809FD001819FB00D38
:103070001124A859B94FEC911C92A0912C0890E111
:10308000A99FD0011124A85DBA4FC80123E09695ED
:1030900087952A95E1F7A80FB91F0770112721E03E
:1030A00030E001C0220F0A95EAF78C91822B8C93B5
:1030B000D110DBCDA8E0EA9FF0011124E75CF74FC7
:1030C0000491809142081FE08F3008F4182F129568
:1030D000107F165FE0913408412F401B550BE41719
:1030E000150609F00CF44FC08F5F809342082DE164
:1030F00032E090E001969F938F933F932F930E942D
:103100007115809133088C5F809333088091420859
:103110000F900F900F900F90843108F583708230DC
:1031200069F486E392E09F938F930E9471158091DA
:103130002F088F5F80932F080F900F908091420887
:10314000837069F489E492E09F938F930E947115D4
:10315000809130088F5F809330080F900F900E940D
:10316000A40D80936A06E0913408E00FE11BE09320
:1031700034087BCD8BE592E09F938F930E9471156D
:103180000F900F9070CFE00FF2CFB11048C095FEB6
:1031900046C00E94320C883208F041C088E792E0B5
:1031A0008E9CF0018F9CF00D1124E859F94F20817D
:1031B0001F922F939F938F930E94711580913808CF
:1031C0008D5F809338080E94A40D90916A060F903D
:1031D0000F900F900F90891708F4982F90936A061C
:1031E00091111DC04FE852E085E0809FF001819F62
:1031F000F00D1124E859F94F208183E992E05F93A3
:103200004F931F922F931F922F939F938F930E9400
:1032100071150FB6F894DEBF0FBECDBF26CD96FE5A
:1032200036C00E94320C883208F031C0CC20E1F068
:103230004AE952E085E0809FF001819FF00D112462
:10324000E859F94F208181EA92E05F934F931F92F2
:103250002F931F922F939F938F930E9471150FB6F8
:10326000F894DEBF0FBECDBFB11006C00E94320C75
:1032700083708C5F8093360885E0809FF001819F8A
:10328000F00D1124E759F94F80818160808394FE0D
:1032900031C085E0809F7001819FF00C1124F701FF
:1032A000E759F94F808182FD25C00E94320C84319C
:1032B00008F5CC20A1F0F701E859F94F208181EB06
:1032C00092E01F922F931F922F939F938F930E94B0
:1032D00071150F900F900F900F900F900F9085E049
:1032E000809FF001819FF00D1124E759F94F8081F3
:1032F0008460808385E0809FF001819FF00D112420
:10330000E859F94F82818A198283AFCC8E9DF001F2
:103310008F9DF00D1124E859F94F03831483A5CC38
:10332000CC2031F181EC92E055E0509FF001519FAB
:10333000F00D1124E859F94F408127EC32E05E9DF1
:10334000F0015F9DF00D1124E859F94F50811F9253
:103350005F939F938F931F924F931F924F933F932F
:103360002F930E9471150FB6F894DEBF0FBECDBF2C
:10337000A12C51CEDD2009F4EACD85E08E9DF0012F
:103380008F9DF00D1124E859F94FE08198E0E99FF5
:10339000F0011124EC5CF74F8491E6CD4F925F92DF
:1033A0006F927F928F929F92AF92BF92CF92DF9255
:1033B000EF92FF920F931F93CF93DF93CDB7DEB7BA
:1033C0002C970FB6F894DEBF0FBECDBFE82EF12CC0
:1033D00095E0899F90011124F901E859F94F9081F6
:1033E000992309F465C0082F8823A9F0D901A759AA
:1033F000B94F6D018C9181FD0EC080FF70C086E0D9
:1034000089870E94320C83708A87BE01675F7F4F75
:10341000802F0E94011685E08E9DF0018F9DF00D9A
:103420001124E759F94F808180FF29C0011116C18D
:1034300080913608815080933608811120C025E0A4
:103440002E9DC0012F9D900D1124FC01E759F94FCD
:1034500020812E7F20838859994FDC012C9188EDA3
:1034600092E01F922F931F922F939F938F930E940E
:1034700071150F900F900F900F900F900F9085E0A7
:103480008E9DF0018F9DF00D1124E759F94F808139
:1034900081FF0DC10111E6C08091370881508093F2
:1034A0003708882309F4E3C080913508811103C1EE
:1034B0002C960FB6F894DEBF0FBECDBFDF91CF9133
:1034C0001F910F91FF90EF90DF90CF90BF90AF9042
:1034D0009F908F907F906F905F904F9008958E2D6A
:1034E0000E94A90729833A834B835C836D837E8383
:1034F0008F839887198621FF04C0F601808183FF9E
:1035000084CF80916806882309F47FCF85E08E9D63
:10351000A0018F9D500D1124FA01E859F94F7480D4
:10352000838190916B06891B87FD819590916C0634
:10353000791A77FC719420FD06C04759594FDA017A
:103540009C9193FF0AC090912D0893FD04C0780EC2
:10355000B9E0B71578F511E001C010E00E94320C17
:1035600083708A87682F70E0FB01EA56F84F8491D8
:103570006E56784FFB01649195E09E9DD0019F9D12
:10358000B00D1124A859B94F1496EC9114976E0FF1
:1035900013969C91890F0E94F808009741F011231F
:1035A00009F433CFDC018C91813009F02ECF86E015
:1035B00089872BCFD12CC12C85E08E9D50018F9D0A
:1035C000B00C1124F501E859F94F5F014F01F3E008
:1035D0008F0E911C84E0A80EB11C86E0682E5C2C36
:1035E000F601EA56F84F8491D4014C90480EF6014A
:1035F000EE56F84F1491D501EC911E0F612F842DDA
:103600000E945B0981111BC0612F842D0E94F80864
:10361000009721F0FC018081813089F480916B0654
:10362000481A842D87FD819590916C06191B17FD12
:103630001195180F171558F469865A86712EFFEFE9
:10364000CF1ADF0A84E0C816D10449F6DECE17117E
:10365000F6CF0E94320C80FDEFCFF1CF0E94320CEA
:103660008770EBCE0E94320C877009F021CF25E0E5
:103670002E9DC0012F9D900D1124FC01E759F94F9B
:1036800020812D7F20838859994FFC01208182EF72
:1036900092E01F922F931F922F939F938F930E94DC
:1036A00071150F900F900F900F900F900F900023B7
:1036B00009F4FACEFDCE8150809335088111F8CE01
:1036C00080912D08877F80932D088DE093E09F9354
:1036D0008F930E9471150F900F90EACEBF92CF92F8
:1036E000DF92EF92FF920F931F93CF93DF938C01A2
:1036F00085E0F80180830E94E71461E08AE198E0A8
:103700000E947C0D869521E04AE158E06DE190E24F
:10371000981B892F0E94900E4AE253E021E063E259
:1037200085E00E94900EC8E129E4B22E3FE3C32E4B
:1037300044E3D42E53E5E52E80E2F82EFC0EDB2D7B
:10374000DC1B4F2D6D2F8C2F0E94AC0F4F2D6D2F3A
:103750008C2D8C1B0E94AC0F9BE0F92EFC0EDD2DF6
:10376000DC1B46E14C0F6F2D8D2F0E94BE0F4E2D9E
:103770004C1B6F2D8D2F0E94BE0FC150C431E1F63E
:103780000E9421050E94D5138032D1F020F48031AF
:1037900051F080E00BC08034B9F08038D1F7F801E7
:1037A000118281E003C081E0F8018183DF91CF9134
:1037B0001F910F91FF90EF90DF90CF90BF900895F1
:1037C00082E0F8018183EDCF83E0FBCF60916C064E
:1037D00080916B060E942B110E9412050E94E71433
:1037E0000E94B40E0C9421059F92AF92BF92CF928B
:1037F000DF92EF92FF920F931F93CF93DF93CDB79A
:10380000DEB7C054D1090FB6F894DEBF0FBECDBFEE
:103810008E01025B1F4FF801E190F1908F010E9431
:10382000E714A801B7019E012F5F3F4F7901C9013D
:103830000E946C05F7019E2E9E1881918111FBCF8D
:10384000891548F4F701E80FF11D8F5F90819132DF
:10385000CCF71082F5CF10E08DE1D82E01E01915DC
:1038600060F55701A10EB11C60E0C5010E947C0DFE
:10387000C82EE02FE80FFF27FF1FE134F105B4F059
:10388000F6E0DF0E20E0A5016D2D81E00E94900E94
:1038900001E0C394C3940C0DE12F1F5FEE0DFF2DCB
:1038A000F11D8081E12F8111F8CFD9CF20E0A50152
:1038B0006D2D802F0E94900EECCF4DE369E386E0E2
:1038C0000E94AC0F4DE369E38EE00E94AC0F47E32A
:1038D0006CE088E00E94BE0F4FE36CE088E00E943D
:1038E000BE0F68E387E00E941B0E68E38DE00E9434
:1038F0001B0E6EE387E00E941B0E6EE38DE00E94BC
:103900001B0E41E469E389E00E94360E4DE369E352
:1039100086E20E94AC0F4DE369E38EE20E94AC0F99
:1039200047E36CE288E20E94BE0F4FE36CE288E25C
:103930000E94BE0F68E387E20E941B0E68E38DE2DF
:103940000E941B0E6EE387E20E941B0E6EE38DE267
:103950000E941B0E42E469E389E20E94360E4BE3AB
:1039600053E021E069E382E10E94900E4FE353E0CF
:1039700021E069E382E30E94900E0E9421050E94EB
:10398000D513182F8C70D9F30E94E61B81E01830F4
:1039900009F080E0C05CDF4F0FB6F894DEBF0FBEC9
:1039A000CDBFDF91CF911F910F91FF90EF90DF90EE
:1039B000CF90BF90AF909F9008958F929F92AF92BB
:1039C000BF92CF92DF92EF92FF920F931F93CF930C
:1039D000DF9300D000D0CDB7DEB780912C0887FDF3
:1039E0009CC1809122059091230590931D018093A5
:1039F0001C0110E080912C08181738F409ED0E9482
:103A0000320C0150E1F71F5FF5CFEEE1F3E01FEF5D
:103A1000119344E0EE31F407D9F760E071E08EE1F4
:103A200094E00E94EF0860E870E088E097E00E9470
:103A3000EF0860E670E088E897E00E94EF0860E435
:103A400070E088EE97E00E94EF0881E080932808FC
:103A500010922A0810922B0810932105109320052C
:103A600010931F0510931E050E94E61B0E943E0D39
:103A70004DE06DE10E94280B00E010E1BB24B394FF
:103A800080912A08803208F053C00E94B40CE82EBE
:103A9000F12C0E94320C8370D82E0E943E0DC82E4D
:103AA000C701880F991FE80EF91EC7018857984F64
:103AB0007C019E012D5F3F4FAE014C5F5F4FDC01EB
:103AC00012966C918D2D0E94EC0C9E012F5F3F4F42
:103AD000AE014E5F5F4F6C2D8D2D8B250E94EC0C3F
:103AE0004D2D50E0BA016A56784FFB01D4902C81DD
:103AF000D20ED7012C91D20E4E56584FFA01249176
:103B00003B81230F1196FC90F20EFB016491FA01A8
:103B100044918981481B4F0D8A81681B6D0D8C2D46
:103B20000E94280B882321F06F2D8D2D0E944B0CB5
:103B30000150110909F0A4CF00E014E073E0C72E92
:103B400080912A080E94B40CE82EF12C0E94320CBD
:103B50008370D82EC701880F991FE80EF91EA701A0
:103B60004857584F7A019E012F5F3F4FAE014E5F7D
:103B70005F4FD70112966C918D2D0E94EC0C6D2D2C
:103B800070E0FB01EA56F84F8491D701EC918E0F5B
:103B9000EA818E0F8A836E56784FFB0164911196ED
:103BA000EC916E0FE9816E0F69830E945B09882397
:103BB00041F1912CA980BA8080912A08981608F0CA
:103BC000BDC0892D90E09C9C90011124F901E8571B
:103BD000F84F7F01FC01EE0FFF1FE80FF91FE857B8
:103BE000F84F8081B81A8180C7010E94B508B816C5
:103BF00010F09394DFCFC7010E94A008A818A81660
:103C0000C0F70150110909F09BCFEEE1F4E02EE17D
:103C100035E0DF01BA9580819C91892B81932E1725
:103C20003F07B9F70E94390880912C088F3030F493
:103C30000E94BE0C80931E0590931F050E94BE0C2F
:103C400080932005909321053DE6E32E36E0F32E88
:103C500001E010E045E0D42EC02ED09EF001D19EB0
:103C6000F00D1124E859F94FDF014D2D1D924A95B1
:103C7000E9F70E94BE0CD70113968C931397149604
:103C80009C930E94320C20912C08E82FE770A22F01
:103C9000B0E0CD0123E0880F991F2A95E1F7E80FE6
:103CA000F92FF11DE656F84FE491EE2351F384E02D
:103CB000AA0FBB1F8A95E1F7A85DBA4F980193E060
:103CC000369527959A95E1F7A20FB31F8C9190E056
:103CD0002C2D277002C0959587952A95E2F780FDD7
:103CE0000CC0D701EC93B8E0EB9FF0011124E85C25
:103CF000F74FE491D7011296EC930F5F1F4FB5E099
:103D0000EB0EF11C0032110509F0A6CFEEE1F1E057
:103D1000119243E0EE31F407D9F70F900F900F9016
:103D20000F90DF91CF911F910F91FF90EF90DF9057
:103D3000CF90BF90AF909F908F900895F1E0FD15C8
:103D400040F16FEF6A0D8B2D0E945B09811159CFF5
:103D500061E06A0D8B2D0E945B09811152CFF12C1D
:103D60006A2D8B2D8F190E945B09882309F449CF96
:103D70006A2D8B2D8F0D0E945B09882309F441CF9A
:103D8000F39444E0F412ECCF6A2D8B2D0E944B0C7F
:103D900038CF6A2D8FEF8B0D0E945B09811131CFD7
:103DA0006A2D81E08B0D0E945B0981112ACFF12CD5
:103DB0006A2D6F198B2D0E945B09882309F421CF8E
:103DC0006A2D6F0D8B2D0E945B09882309F419CF92
:103DD000F39454E0F512ECCFD7CF1F920F920FB6A9
:103DE0000F9211242F933F938F939F93AF93BF9381
:103DF0008091140190911501A0911601B0911701C5
:103E00003091130123E0230F2D3758F50196A11DA2
:103E1000B11D209313018093140190931501A09379
:103E20001601B09317018091180190911901A0918A
:103E30001A01B0911B010196A11DB11D80931801BB
:103E400090931901A0931A01B0931B01BF91AF91F8
:103E50009F918F913F912F910F900FBE0F901F90C8
:103E6000189526E8230F0296A11DB11DD2CFCF933E
:103E7000DF9300D000D0CDB7DEB7789484B58260F0
:103E800084BD84B5816084BD85B5826085BD85B5FE
:103E9000816085BD80916E00816080936E0010927C
:103EA00081008091810082608093810080918100F7
:103EB0008160809381008091800081608093800088
:103EC0008091910082608093910080919100816047
:103ED0008093910080919000816080939000809108
:103EE000C10084608093C1008091C1008260809392
:103EF000C1008091C10081608093C1008091C300A6
:103F000081608093C3008091C00082608093C00074
:103F10008091C20081608093C20080917A008460A9
:103F200080937A0080917A00826080937A008091F9
:103F30007A00816080937A0080917A008068809313
:103F40007A0081EC80937C0085B1806F85B984B163
:103F5000877E84B984B1876E84B95E9A5F988AB18E
:103F6000806D8AB9769A6E9881B3806F81BB89988B
:103F700080B38D7080BB80E58CBD81E08DBD0E94DB
:103F8000CB045F9A0E94CB045E980E940E050BEF53
:103F900014E0F80184910E9408050F5F1F4FF5E0BF
:103FA00008301F07B1F70E94100581E88093640074
:103FB000809165008160809365000E94000587FD07
:103FC0000AC0E2EDF8E085EA2DB73EB72E173F07AD
:103FD00070F08193F9CF0E940E0585EA0E940805D2
:103FE0000E9410052E982F982D982E98FFCF66EBE3
:103FF00077E08CE191E00E94EF088EEB9AEB9093D2
:1040000023058093220522E02093430890931D010D
:1040100080931C0165E087EC98E00E944A0D64E003
:104020008CEC98E00E944A0D61E080ED98E00E94DF
:104030004A0D61E081ED98E00E944A0D10922C0833
:104040000E94DD1CE5E3F8E08AE0DF011D928A951D
:10405000E9F7ADE2B8E090E080E0FC01E65CF74F04
:10406000E491ED93019688309105B9F7009121050F
:10407000F0902005E8E6F6E085E0DF011D928A95E4
:10408000E9F711E0109368060E94A40D80936A0678
:10409000F0926B0600936C061092C4081093C5084A
:1040A0008DE18093C60882E493E09F938F930E94F2
:1040B00071150E94DF090E94E61B0F900F9001E02E
:1040C000FF24F3940E94D5131092C4080093C508EE
:1040D0009DE19093C60819821A821B821C8280314E
:1040E00009F444C0A8F5843009F456C0883009F4B6
:1040F00045C090906B06A0906C06BE016F5F7F4F2D
:1041000080E00E940116882309F4E9C00E94390862
:104110000E94DF09B09031088CE1C82E81E0D82ED2
:10412000E12C10913108EE2059F0F601E45BFA4FD2
:10413000E08188E0E89FF0011124EA5CF74F1491D8
:104140001B1508F4BDC08E2D0E94CE191B19F8CF87
:10415000803481F0803839F0803259F686E08983E6
:1041600082E08A83C6CF86E08983C3CF86E08983D5
:104170000A83BFCF86E0898383E0F3CFE0914108D3
:10418000F0E0EE0FFF1FEE5EFA4F25913491CE0165
:104190000196F9010995ADCF10914108EE24E39401
:1041A000E8E2CE2EE5E0DE2EF5E0BF2E0E94E71419
:1041B0007DE1972EA12CEA2DF0E0EE0FFF1FEC0D14
:1041C000FD1D4591549121E0692D88E00E94900EDB
:1041D000A394F6E09F0EBA1470F7812F880F810F19
:1041E000880F32E2380F845E381718F1982F9770D5
:1041F0004F2D01C0440F9A95EAF7E82FE695E69512
:10420000E69590E4E99FF0011124E45EFE4F91E011
:10421000282F292B207C19F42381242723839F5FB7
:1042200031969034A9F78F5FDFCF1B2DBFCF10E001
:10423000BDCF0E9421050E94D513803109F43BC0F7
:10424000D8F4843009F4A1C0883009F0AFCFE12F51
:10425000F0E0EE0FFF1FEE2009F49AC0EE5EFA4F79
:1042600025913491CE010196F9010995882309F42D
:104270008CC0109341083DCF803429F08038B1F0D4
:10428000803209F093CF1091410848E2C42E45E0F6
:10429000D42E55E0B52EEE2039F024E0B22E3EE1CA
:1042A000C32E35E0D32E10E0E02680CF112309F491
:1042B000BCCF11507BCFB11609F4B9CF1F5F76CFB9
:1042C0008B2D0E94B40C811718F48E2D0E94CE19EC
:1042D000E39495E0C90ED11CA0E2EA1222CF0E941D
:1042E000E61B80916B06981205C090916C06A9168A
:1042F00009F4E8CE90911E05891729F190916B067B
:10430000809120059813DECE90916C068091210556
:104310009813D8CE88E593E09F938F930E94F41B67
:104320000F900F90882309F4CDCE80912C088150F6
:1043300080932C080E94DD1C80911E0580936B06E3
:1043400080911F051EC090916C0680911F059813E7
:10435000D5CF8FE693E09F938F930E94F41B0F902D
:104360000F90882309F4CACF80912C088F5F809327
:104370002C080E94DD1C8091200580936B068091A3
:10438000210580936C060E94DF090E94E61B9ACEED
:10439000E85FFA4F85919491FC010995F6CF991B3E
:1043A00079E004C0991F961708F0961B881F7A952C
:1043B000C9F780950895AA1BBB1B51E107C0AA1F2E
:1043C000BB1FA617B70710F0A61BB70B881F991FB6
:1043D0005A95A9F780959095BC01CD010895EE0FEF
:0E43E000FF1F0590F491E02D0994F894FFCF93
:00000001FF
