:100000000C9401080C9429080C9429080C942908D4
:100010000C9429080C9429080C9429080C9429089C
:100020000C9429080C9429080C940E2B0C947D2B0D
:100030000C9429080C9429080C9429080C9429087C
:100040000C9429080C9429080C9429080C9429086C
:100050000C942908FEC70000FCC700000C94AC2DCE
:10006000F8C70000F6C70000F4C70000F2C70000A0
:10007000F0C70000EEC70000ECC70000EAC70000B0
:10008000E8C70000E6C70000E4C70000E2C70000C0
:10009000E0C70000DEC70000DCC70000DAC70000D0
:1000A000D8C70000D6C70000D4C700004C6F6164F9
:1000B000696E672E2E2E00546865200074686520D6
:1000C000006F6D657468696E6700617265006973C1
:1000D000006375727365642000666F6F64207261DF
:1000E00074696F6E006172726F770073776F7264FC
:1000F00000205B40642061746B5D00626F770020BC
:100100005B4064206465665D0072696E67206F669F
:10011000200000205B4064207374725D00205B400F
:1001200064206465785D00205B40645D0020726936
:100130006E6700616D756C6574206F662000205BD2
:1001400040634075207370645D0020616D756C655F
:100150007400706F74696F6E00206F662000706F9E
:1001600074696F6E007363726F6C6C00206F662031
:10017000007363726F6C6C0052616E643A20407859
:1001800040782F4078407800537461636B3A204088
:10019000750057616C6C205374796C653A207B2034
:1001A0004075207D0040752028406429004075007E
:1001B000506C6179657220496E666F726D61746909
:1001C0006F6E004075004075004566666563747328
:1001D0003A00636F6E667573656400706172616C7E
:1001E000797A6564007765616B656E656400696E38
:1001F00076697369626C65006E6F6E6500406900B8
:1002000044726F70207768696368206974656D3F18
:1002100000496E76656E746F72790055736520774C
:1002200068696368206974656D3F00486967682084
:1002300053636F7265730040750044756E67656F38
:100240006E204C6576656C20407500485000585013
:1002500000576869636820646972656374696F6ECA
:100260003F005363726F6C6C2044756E67656F6EF0
:10027000005B6D6F72655D0073746F7020757369DC
:100280006E6700596F752061726520756E61626CD2
:100290006520746F204070207468652040692E00CE
:1002A00074616B65206F666600596F752040702021
:1002B0007468652040692E004053204041207765D6
:1002C000616B656E656421006265636F6D650040FA
:1002D0005320405620636F6E667573656421006419
:1002E00069650040532040562100596F75206164B4
:1002F00076616E636520746F206C6576656C204056
:10030000752100596F75206665656C207374726F76
:100310006E6765722E00596F75206665656C207179
:100320007569636B65722E00596F7520686561721F
:100330002074686520736F756E64206F6620646535
:100340006174682E00405320647261696E73207975
:100350006F7572206865616C74682100646965005E
:1003600040532040562100736C696768746C792093
:1003700000596F75206665656C2040706265747405
:1003800065722E00004053206C6F6F6B73204070BD
:100390006265747465722E00596F75722073747281
:1003A000656E6774682072657475726E732E00597D
:1003B0006F75206665656C207374726F6E67657209
:1003C0002100596F752061726520706172616C79CE
:1003D0007A65642100596F752061726520636F6EC4
:1003E00066757365642100726561647900596F7583
:1003F000204070207468652040692E00456E636857
:10040000616E74207768696368206974656D3F0068
:100410004E6F7468696E672068617070656E732EC8
:1004200000596F75206265636F6D65206177617239
:1004300065206F6620796F757220737572726F75A3
:100440006E64696E67732E004964656E74696679BF
:10045000207768696368206974656D3F005468653A
:1004600020406920676C6F777320626C7565206629
:100470006F722061206D6F6D656E742E00556E6316
:1004800075727365207768696368206974656D3F6C
:100490000054686520406920676C6F777320776827
:1004A00069746520666F722061206D6F6D656E7472
:1004B0002E00596F752066696E6420796F757273AE
:1004C000656C6620696E20616E6F74686572206C61
:1004D0006F636174696F6E2E00707574206F6E00AB
:1004E00054686520646F6F7220697320616C726557
:1004F00061647920636C6F7365642E0054686520B5
:10050000646F6F7220697320626C6F636B65642E19
:1005100000596F7520736565206E6F20646F6F7270
:100520002074686572652E006D69737300405320F6
:10053000407620404F2E006869740040532040569A
:1005400020404F2E00596F7520666F756E642061D4
:100550002068696464656E20646F6F722100596F52
:10056000752061726520756E61626C6520746F2004
:1005700064726F70207468652040692E00596F7531
:100580002064726F70207468652040692E00546882
:100590006520406920627265616B732E00005468AB
:1005A00065204069206869747320404F21005468B9
:1005B000652040692073686174746572732E0054FD
:1005C00068726F7720776861743F00596573004ED9
:1005D0006F004053204041206E6F206C6F6E676546
:1005E0007220636F6E66757365642E004053204001
:1005F00041206E6F206C6F6E676572207061726152
:100600006C797A65642E00596F7520617265206E71
:100610006F206C6F6E67657220696E7669736962B0
:100620006C652E00405320627265617468657320AA
:1006300066697265210041726475526F6775650065
:100640005072657373204120746F20706C61792E35
:100650000057656C636F6D65204070746F20417248
:100660006475526F6775652E005069636B207570F5
:10067000207468652040693F00596F752063616E82
:10068000277420686F6C6420616E79206D6F7265CD
:10069000206F662074686F73652E00596F75206334
:1006A000616E277420686F6C6420616E79206D6FB5
:1006B0007265206974656D732E00596F75206E6FB9
:1006C0007720686176652040692E00476F20646F4F
:1006D000776E20746F20746865206E65787420646E
:1006E000756E67656F6E3F0052657475726E20742B
:1006F0006F2074686520737572666163653F005989
:100700006F7520686176652065736361706564202C
:10071000776974682074686520616D756C657420F4
:100720006F662059656E646F722100507265737335
:10073000204220746F20636F6E74696E75652E00A1
:10074000476F206261636B20757020746865207349
:1007500074616972733F00596F75206C65617665CD
:1007600020776974686F75742074686520616D7591
:100770006C6574206F662059656E646F722E007B05
:1007800020416374696F6E73207D007B2047616D2B
:1007900065204D656E75207D00006261636B2000F1
:1007A000596F7520676F74207468652040692E004A
:1007B00000446561746820627920404D00416261A7
:1007C0006E646F6E6564207468652067616D650096
:1007D00052657475726E656420746F20746865204C
:1007E000737572666163650045736361706564204B
:1007F000776974682074686520616D756C65740034
:100800004D697363005363726F6C6C7300506F7447
:10081000696F6E73004A6577656C72790041726D1D
:100820006F7200576561706F6E7300537065656419
:100830003A00446566656E73653A0041747461639D
:100840006B3A004465787465726974793A00537440
:1008500072656E6774683A004D6178204865616C16
:1008600074683A004C6576656C3A0053636F726544
:100870003A007368696D6D6572696E6700676C6FC9
:1008800077696E6700746174746572656400796578
:100890006C6C6F776564006661646564006D6167A8
:1008A0006963206D617070696E670074656C657056
:1008B0006F72746174696F6E0072656D6F7665201A
:1008C000637572736500656E6368616E74696E67E7
:1008D000006964656E7469667900626C75650067AD
:1008E0007265656E006F72616E676500636C65614D
:1008F000720072656400696E7669736962696C6919
:10090000747900737472656E67746800706F6973D0
:100910006F6E00636F6E667573696F6E00686561F8
:100920006C696E670059656E646F72007265676509
:100930006E65726174696F6E00636F6E7365727657
:100940006174696F6E00636C6172697479007370B1
:1009500065656400746F70617A00656D6572616CC5
:10096000640072756279006469616D6F6E64007015
:10097000726F74656374696F6E0064657874657214
:1009800069747900737472656E6774680073656565
:1009900020696E76697369626C6500626F6F74734B
:1009A0000068656C6D0061726D6F72004C6F7264EF
:1009B000206F66204461726B6E65737300647261B0
:1009C000676F6E0066616C6C656E20616E67656C4A
:1009D000006772696666696E0074726F6C6C00699C
:1009E0006E6375627573006D696D696300686F622F
:1009F000676F626C696E00746172616E74756C61B0
:100A0000006F7263007068616E746F6D00676F6273
:100A10006C696E007A6F6D62696500726174746CE6
:100A200065736E616B6500736E616B650062617406
:100A300000446562756720496E666F005361766594
:100A40002050726F6772657373004869676820533E
:100A5000636F72657300506C6179657220496E66D0
:100A60006F00496E76656E746F7279005363726FB2
:100A70006C6C2044756E67656F6E005669657720F3
:100A80004D696E696D6170005468726F7720506FA8
:100A900074696F6E0044726F70204974656D005305
:100AA000686F6F7400557365202F205B556E5D6510
:100AB000717569700057616974202F2053656172E8
:100AC0006368000901060405010504490926068535
:100AD0000585050000F66FA40FD00B5A0FB99DF0E5
:100AE0000B520F9F0FA0072C0F0606F909F1019D6D
:100AF000065E0E96F9880F00002994B00BB301E44E
:100B0000446009F404AA0A0606900F900F900FBEE5
:100B1000EF1EE1010204081A264985000000000AC0
:100B2000060905010410020800000000000101018F
:100B30000101020202020208080808081414141431
:100B4000141F0000000000060000000000001F004D
:100B5000000016001F000000180800001C041418F4
:100B600000000000041C0000000000000101000063
:100B7000030202010000000002030000000404F070
:100B8000F0F0F0FFFFFFFF0505E0E0E0E0E0FFFF31
:100B9000FF0606C0C0C0C0C0C0FFFF0606E1C0CC53
:100BA000CCC0E1FFFF0606E1C0C0C0C0E1FFFF0707
:100BB0000780808080808080FF0707F7E3C180C1C5
:100BC000E3F7FF0707E3E3808080E3E3FF0707E342
:100BD000E3889C88E3E3FF0808C3810000000081EC
:100BE000C30808E7E7C30000C3E7E7080800664258
:100BF000000042660010101FF807E003C0018001EA
:100C000080E0072004200420042004600601800105
:100C10008003C007E01FF810101FF807E003C001B1
:100C200080318C300C0000000000000000300C31DE
:100C30008C018003C007E01FF80D0DBFFF1FFF0FE1
:100C4000FE07FC03F801F000E001F003F807FC0FD9
:100C5000FE1FFFBFFFFFFFFFFFFFFF0C0C03FC01A8
:100C6000F800F000F000F000F000F000F000F000FC
:100C7000F001F803FCFFFFFFFFFFFFFFFFFF01FF95
:100C80000101FF0000FFFF0101000001FF0203035B
:100C90000000000000030400000000000002030048
:100CA000000000000002030000000000000203003A
:100CB000000000000002030000000000000203002A
:100CC000000000000002030000000000000203001A
:100CD000000000000002030000000000000203000A
:100CE00000000000000203000000000000020300FA
:100CF00000000000000203000000000000020300EA
:100D000000000000000203000000000000E807D01F
:100D100007BD07B107B00723081D0815080D080512
:100D20000800081C3E7F7F7F3E1CFFFF03FFFFFF84
:100D3000FFFFFFFFFFFF436C6F736520446F6F720F
:100D400000FF05030400000002020101016B0864BA
:100D50000858084E0843083B0832082B08536574AE
:100D600074696E6773006D61737465722034323319
:100D70003837306520323032322D30342D31340066
:100D80000000FF01FF01000097088E0885087D081C
:100D90007208D108C608B908AB089D08F208EC082B
:100DA000E508DF08DA081D0913090C090309F6082C
:100DB0004E09460939092C092509670962095A09AA
:100DC00054098D0984097A096F09A609A1099B09AB
:100DD000000000002D0A270A1B0A140A0D0A050A42
:100DE000010AF709ED09E709DF09D909D109C409A1
:100DF000BD09AC09303132333435363738394142E8
:100E00004344454600D5F08D14A1C881CFD9F1AF38
:100E100020004C17931E291DF91BC91DD91A0C2B34
:100E2000CD1A5A0B2F1D580B161D18268B1E7B0A28
:100E30006C0A620A560A4A0A5D0D3C0A310AB50A72
:100E4000A50A9F0A950A880A360D000000000000D6
:100E500000000102040404000A000000010608006A
:100E60000101010002030300030211000303030058
:100E70000403010204020200060501020504040144
:100E80000A060902060404010C0701020704040310
:100E900010088100050404000C0901020804040282
:100EA000140B030007040403140B41020904040398
:100EB000180E05020A0303052012010007060601A9
:100EC0001812C1020A060603181201010C040408D4
:100ED0003019F502100608084032080B0002020221
:100EE00000000904000001020200000524001001B6
:100EF000052401010104240206052406000107055A
:100F0000810310004009040100020A0000000705E7
:100F100002024000000705830240000004030904A8
:100F200012010002EF02014041233680000101025C
:100F3000030141726475696E6F204C4C430041722D
:100F40006475626F79001700030CCE390000994C6C
:100F5000000003002E02D1010000C4111001841012
:100F60001000980C2E3AF243B94AB12A877CB72672
:100F7000AE22211FAA2AA23A0A00500184284A2937
:100F80008A10A10A0000BE78BF2A2E463F3ABF460B
:100F9000BF042E669F7CF147F1019F6C1F425F7C6E
:100FA0003F783F7EBF082E7ABF68B226E1071F7EDA
:100FB000071F1F7D9B6C833EB94E3F028360F10388
:100FC0002208104241004C7A5F324C4A4C7E4C530E
:100FD000BE00D6035F701D00B0019F681F009E78A1
:100FE0005E704C325E1144799E0856034F020E7AB1
:100FF000061B1E799249823ADA02C47D0000DF1195
:10100000F62D11241FBECFEFDAE0DEBFCDBF11E019
:10101000A0E0B1E0E2E8F7E602C005900D92AC3244
:10102000B107D9F729E0ACE2B1E001C01D92AB37BE
:10103000B207E1F718E0C1E0D8E004C02197FE0153
:101040000E948233C030D107C9F70E940B2E0C9446
:10105000BF330C940000DC0181E0ED91EE23D9F068
:10106000E03299F0EE0FFF0BEC5FF04F25913491D9
:10107000932F969596959F7151F495E03695279507
:101080009A95E1F72F7192E019F491E001C093E095
:101090009F5F890FE2CF08959091AD01911103C038
:1010A0008FEF9FEF08954FB7F89492E09093E90087
:1010B0009091F200292F30E01216130614F421E06B
:1010C00030E0232B31F0289884E68093AC018091A6
:1010D000F100992339F02091F200211103C02BE691
:1010E0002093E8004FBF9923D9F290E008952FB7DD
:1010F000F89483E08093E9009091E800892F807252
:1011000095FF04C09091F20080E4891B2FBF0895E1
:101110008091A40181110DC082E08093A00184E040
:101120008093A1011092A3011092A20181E080930B
:10113000A40180EA91E00895A1E0B0E0E2EAF8E0DD
:101140000C9498336983DC01ED91FC910280F3816A
:10115000E02D41E050E0BE016F5F7F4F0995219681
:10116000E2E00C94B43383E08093E9008091F200D4
:10117000882319F08AE38093E8000895B8DF90E0AF
:101180000895FC018485958597FD05C02FEF3FEFFD
:1011900035872487089580CF0895CF93DF93EC019E
:1011A0008C859D8597FF03C077DF9D878C878C8515
:1011B0009D85DF91CF910895FC018485958597FDEC
:1011C0000BC09FB7F89482E08093E9008091F20011
:1011D0009FBF90E0019608959FB7F89482E08093B6
:1011E000E9008091F2009FBF90E0089540914A018C
:1011F00050914B012091480130914901421753070A
:10120000B4F49091E8009570E1F39091E80092FDBC
:1012100019C08093F10080914A0190914B01019691
:101220008F739927892B19F48EEF8093E8008091B2
:101230004A0190914B01019690934B0180934A0192
:1012400081E0089580E00895EF92FF920F931F933D
:10125000CF93DF93F82E192FE62E042F81E0860F0F
:10126000880FC4DF83E0C2DFCF2DD12FEC0EFD2E1F
:10127000F11CCE15DF0599F007FF0FC0FE01849128
:10128000B5DF182F80E0B2DF812321968111F1CFE5
:10129000CDB7DEB7E6E00C94B0338881F1CF81E0C2
:1012A000F7CFB0E0A0E0E7E5F9E00C949333D82E57
:1012B0008A01EB017B01E40EF51ECE15DF0551F02E
:1012C000D7FE0EC0FE01849191DF21968111F5CFEA
:1012D0000FEF1FEFC801CDB7DEB7E7E00C94AF33D7
:1012E0008881F2CFA1E0B0E0E8E7F9E00C94963312
:1012F00082E0898342E450E06AED7EE080E8D1DF5D
:1013000007DFFC01028113810115110589F0D80165
:10131000ED91FC910280F381E02DBE016F5F7F4F64
:10132000C801099597FD04C0F80100851185ECCF2F
:1013300089812196E4E00C94B233615030F0209121
:10134000F100FC0120830196F8CF289884E6809371
:10135000AC0108953FB7F894809144019091450104
:10136000A0914601B091470126B5A89B05C02F3F2B
:1013700019F00196A11DB11D3FBFBA2FA92F982FBB
:101380008827BC01CD01620F711D811D911D42E0B6
:10139000660F771F881F991F4A95D1F708958F927E
:1013A0009F92AF92BF92CF92DF92EF92FF926B012A
:1013B0007C01D0DF4B015C01C114D104E104F104D4
:1013C000B1F0C8DF681979098A099B09683E734042
:1013D0008105910588F321E0C21AD108E108F108DE
:1013E00088EE880E83E0981EA11CB11CE5CFFF900B
:1013F000EF90DF90CF90BF90AF909F908F90089527
:10140000B0E0A0E0E6E0FAE00C9490336C01B62E78
:10141000A72E7A0180910B01882309F455C0809191
:10142000AD01882309F450C080914F0180FF05C0B1
:101430008091E00082608093E000E70110E00AEF15
:10144000209711F41123C9F152DE811108C0015017
:10145000D9F161E070E080E090E0A1DFF1CF8C177E
:101460001D0611F00CF08C2F9FB7F89423E0209309
:10147000E9002091E80025FD02C09FBFE1CFC81B15
:10148000D109EB2DFA2DBE2EAF2E815020F02191E7
:101490002093F100F8CF112329F08AE38093E8002C
:1014A00010E0EBCF8091E80085FDE7CF8AE38093E1
:1014B000E80011E0209709F3F3CF5D9884E680936C
:1014C0004E011E141F043CF081E090E0F60193836E
:1014D0008283F12CE12CC701CDB7DEB7EAE00C9492
:1014E000AC33BC0190E080E05ACF08958FB1809575
:1014F000807F669B88601C9B846008958EBD000081
:101500000DB407FEFDCF0895CF93C82F5C9881E2FC
:10151000F5DF8C2FF3DF8FE38C0FF0DF5C9AE0EBCD
:10152000F1E081E0A0E0B4E000800EBC8111012C6C
:101530001197A0FDFDCF0192B9F70DB4CF91089599
:1015400080E4E2CF089580E0DFCF089590E0880F37
:10155000991FFC01E654F94F2081206420838554B3
:10156000994FFC018081982F9F709330F9F018F407
:10157000923031F00895973041F1983059F1089543
:1015800082958F70E82FF0E033E0F695E7953A9575
:10159000E1F7E153F74F877021E030E001C0220FFF
:1015A0008A95EAF78081822B8083089582958F70D7
:1015B00090E00596FC0123E0F695E7952A95E1F782
:1015C000E153F74F87709927E7CF82958F7090E0AE
:1015D0000A96F0CF82958F7090E00E96EBCFFB01CC
:1015E00024916F5F7F4F222321F0FC012193CF01D3
:1015F000F6CF08951F93CF93DF93FC01E9016111AA
:101600000EC0BA01ECDF209731F020E2FC0120830C
:10161000BE010196E4DFDF91CF911F91089581E033
:10162000860F6AE00E944F33882319F0805D808323
:101630003196905D908310E21183BA01CF0102963A
:10164000CEDFFC01209729F01083BE010196C7DF91
:10165000FC01CF01019623E72083DDCFCF93DF93F9
:1016600081110BC088E0EDEBF8E0DB0101900D92F9
:101670008A95E1F7DF91CF91089525E0829FF001EF
:101680001124E650F94F848128E0829FC001112483
:10169000865B914FEB0130E020E0FC01E20FF31F8D
:1016A000E491E9932F5F3F4F28303105B1F7E2CF46
:1016B00080E00895FC01108281E008958034C0F438
:1016C0006032B0F4E62FE695E695E69590E4E99F62
:1016D000F0011124E80FF11DE055FB4F677021E088
:1016E00030E001C0220F6A95EAF78081822B808367
:1016F00008959B0143E0369527954A95E1F7820FBF
:10170000931FFC01808190E06770772702C0959558
:1017100087956A95E2F781700895E62FE695E6953C
:10172000E69590E4E99FF0011124E80FF11DE055E2
:10173000FC4F677081E090E001C0880F6A95EAF77E
:1017400080959081892380830895CF93DF93D0E0A3
:10175000C0E08091BB088C171D0681F17CF19E01D1
:10176000220F331FF901E558F74F9081692F6F77EA
:1017700022553E4FF901E453F94F80818F7723536F
:10178000394FF901208127FF03C0C7DF2196E1CF40
:1017900066956695669520E4629FF0011124E80F36
:1017A000F11DE055FC4F977021E030E001C0220FA1
:1017B0009A95EAF78081822B8083E8CFDF91CF91E1
:1017C0000895FC019281E42F97FF19C0EE0F462F78
:1017D000469546954695E40FF0E09F7782E2989F04
:1017E000E00DF11D1124E950F44F849190E06770F1
:1017F00002C0959587956A95E2F781700895F0E0AB
:101800008AE0989FE00DF11D1124E158F44F849176
:1018100090E0EECFCF93DF93EC01EA81E7FF0BC0BE
:10182000EF77D2E2ED9FF0011124EA50F44F84915A
:10183000DF91CF9108958AE0E89FF0011124E258EA
:10184000F44FF5CFCF93DF93EC01EA81E7FF0BC0B4
:10185000EF77D2E2ED9FF0011124EB50F44F849129
:10186000DF91CF9108958AE0E89FF0011124E358B9
:10187000F44FF5CFFF920F931F93CF93DF93EC01BB
:10188000042F8881162F181BF980CE01DBDF181773
:1018900030F080E0CDB7DEB7E5E00C94B1330F193E
:1018A000CE01B8DF0817A8F7402F612FCE0189DFDE
:1018B00091E08927EFCFCF93DF93E82FF0E0DF01AE
:1018C000AA0FBB1FED01C554D94F98819F70953069
:1018D00060F0EE0FFF1FE654F94F8F31A0F4228124
:1018E0003381219331938F5FF8CFA654B94F9C91E8
:1018F000292F2F7371F3215C2F73907C922B9C9373
:10190000DF91CF9108958091F906807F8093F90649
:10191000F7CFEAEFF6E030E020E09481992379F008
:10192000908198130CC09181961309C045E0429FA5
:10193000C001439F900D11248650994F08952F5F49
:101940003F4F35962032310541F790E080E0089511
:101950007091BB0830E020E0271700F5A901440F83
:10196000551FFA01E658F74F90819F77E82FF0E076
:101970009E171F0681F44558574FFA0190819F77B3
:10198000462F50E09417150631F4C901880F991FAE
:101990008658974F08952F5F3F4FDECF90E080E04D
:1019A00008958034C8F46032B8F4962F96959695D1
:1019B000969540E4949F9001112420553B4F280FA9
:1019C000311DF901808190E0677002C0959587957F
:1019D0006A95E2F78170089580E008958034C8F434
:1019E0006032B8F4962F96959695969540E4949F1C
:1019F0009001112420553C4F280F311DF9018081A1
:101A000090E0677002C0959587956A95E2F78170BE
:101A1000089581E00895B0E0A0E0E1E1FDE00C94DC
:101A200090330091FA061091FB06C02FC81BD12FEE
:101A3000D61BDD0290011124CC02200D311D112492
:101A40002B3131050CF044C0AA24A394081730F0C0
:101A500091E0081301C090E0A92EA194CC24C39476
:101A6000161730F091E0161301C090E0C92EC19412
:101A7000E62EF82EC7FDC195D7FDD195BD2EB694A3
:101A8000DC2ED694F01202C0E116E1F0612F802F17
:101A9000A5DF81111DC0BC0EDD0E8B2D0B2C000CA3
:101AA000990BD817190609F014F40A0DBD1A8D2DDB
:101AB0000D2C000C990BC817190609F01CF71C0D0A
:101AC000DC1AE0CF81E0CDB7DEB7EAE00C94AC33AE
:101AD00080E0F9CFA3E0B0E0E0E7FDE00C949033C4
:101AE0009091FA068091FB061BEF180F2BEFD22E78
:101AF000D90E36E0F32EF80E46E0E42EE90E1F155F
:101B000079F00D2D0E1551F0612F802F84DF882381
:101B100019F0612F802FD2DD0F5FF4CF1F5FEFCF61
:101B2000F12C8091BA08F81608F057C00F2D10E07C
:101B30008091BC0820E1829FC0011124B8018E531E
:101B40009A4FD7DD882311F0F394EBCFF801EE0F15
:101B5000FF1FE00FF11FE65EF74F80812181928128
:101B600089832A839B83C82ECE0101966BDEC80E23
:101B7000BA80CE0101964EDEB80EEA8093E016954B
:101B800007959A95E1F791E08F2D8770A92E01C0F6
:101B9000AA0C8A95EAF7EB14B8F6D980DC14D8F4CD
:101BA0006E2D8D2DFEDE8823A1F04E2D6D2DCE01E4
:101BB000019660DE882369F0E091BC0880E1E89F2F
:101BC000F0011124EE53FA4FE00FF11F80818A29B2
:101BD0008083D394E3CFE394DECF2396EAE00C94A2
:101BE000AC33B0E0A0E0E7EFFDE00C948E33E62EDE
:101BF000C42F0091BA08202F30E0F901EE0FFF1F2B
:101C0000E20FF31FE65EF74F6083C18382832FE309
:101C1000261730F480E0CDB7DEB7ECE00C94AA33A1
:101C2000C032C0F783E0089F80011124065E174F81
:101C3000C80108DEC82ECE0CC801ECDD90E49C156E
:101C400048F3F82EFC0EE0E2EF1520F3DC2FDF1551
:101C500030F5DE2CDC1408F54D2F6D2DC8010ADEA1
:101C60008823C9F08DE7882E8CE0982E95E8A92E60
:101C70009CE0B92EF40138966491F40184916D0FC3
:101C80008D0DACDE882309F4C5CFFFEF8F1A9F0AB4
:101C9000A814B90479F7D394DDCFDF5FD8CF609172
:101CA000BA0870E08091BC0820E1829FC001112435
:101CB0008E539A4F1EDDD82ECF15A8F4DE2DDC15DD
:101CC00080F44C2F6D2FC801D5DD882341F06C2F97
:101CD0008D2F23DDDD2019F06C2F8D2FEFDCDF5FE2
:101CE000EECFCF5FE9CF8091BA088F5F8093BA08BB
:101CF00081E091CF803440F5603230F5262F269573
:101D00002695269590E4299F90011124820F932F08
:101D1000911DFC01E055FB4F208130E0209530956E
:101D200080559C4FFC018081282B677081E090E0FA
:101D300002C0880F991F6A95E2F72823392381E0B2
:101D4000232B19F480E0089581E00895EEEAF1E094
:101D5000808191819C013695322F222737952795D6
:101D600028273927C901892F9927869528273927B8
:101D7000922F882782279327918380830895FF924B
:101D80000F931F93CF93DF93182F062FC6DCDEDF50
:101D9000843CC0F5C091BB08C032A0F5602F812FF4
:101DA000D7DD892B79F5D0E0D1DFF82E6091BB0823
:101DB00070E08091BC0820E1829FC00111248A5309
:101DC0009A4F97DCCC0FDD1F882309F1602F812FFC
:101DD00075DCFE01E658F74F818180688183FE0142
:101DE000E658F74F1F7780818078182B1083602F7B
:101DF0006F7781818078682B61838091BB088F5FCA
:101E00008093BB08CDB7DEB7E5E00C94B1338FE229
:101E10008F1528F3FE01E658F74F80818068808394
:101E2000602F812F4BDCDBCFCF93C82F8FDF8C1738
:101E300010F08C1BFCCFCF910895B0E0A0E0E3E25E
:101E4000FFE00C9492337C018B01C12C54E0D52E21
:101E500080E4EADFD82F80E2E7DFC82F682F8D2FDC
:101E6000BDDD811151C08091B005D81305C08091AE
:101E7000B105C81709F448C08091B205D81305C050
:101E80008091B305C81709F43FC0EAEFF6E08481FA
:101E9000882331F08081D81303C08181C817A1F154
:101EA000359687E0EA39F80791F7EAE9F7E08181AA
:101EB0008F7031F08281D81303C08381C81721F15C
:101EC000349688E0EA31F80791F75091BB0890E02A
:101ED00080E0851720F59C01220F331FF901E65899
:101EE000F74F40814F776D2F70E04617170651F47A
:101EF0002558374FF90120812F776C2F70E0261776
:101F0000170611F00196E5CFF1E0CF1AD10809F0DC
:101F10009FCF80E0CDB7DEB7E8E00C94AE33F70199
:101F2000D083F801C08381E0F5CF0F931F93CF9347
:101F3000DF93EC018B01B801CE017FDF8823D9F359
:101F4000DF91CF911F910F910895B0E0A0E0EBEAEF
:101F5000FFE00C949333D62E172FE82EF12C8091AE
:101F6000BC0820E1829FC0011124B70186549A4F1A
:101F7000C0DB811120C0012F0F70E701CC0FDD1FE6
:101F8000CC0FDD1FBE016356784FCE018456984FAB
:101F9000CCDF8091BC0820E1829FC0011124B701F1
:101FA00086549A4FA6DB811100E0107F102BC65695
:101FB000D84FD8821983CDB7DEB7E7E00C94AF33A2
:101FC000CF92DF92EF92FF921F93CF93DF9300D0D7
:101FD0001F92CDB7DEB7182F6A01790119821A82D4
:101FE0001B826B83CE0101962DDC1EDF8983CE011F
:101FF000019610DC19DF8A83123019F1133019F1C0
:102000001130C9F01A824A816981CE010196D9DB6B
:102010008111E8CF8981F60180838A81F70180836D
:102020000F900F900F90DF91CF911F91FF90EF9045
:10203000DF90CF900895CE010196ECDB81508A832A
:10204000E2CF1982E0CFCE010196FCDB815089837B
:10205000DACF7CDE803420F484E0E6DE8058089518
:102060008CE0E2CE0895EF92FF920F931F93CF93EF
:10207000DF937C01FC01C0E0C193CF5F6C13FCCF08
:10208000D0E00D2F10E083E090E0C43011F084E048
:1020900090E0081719077CF48C2F8D1BC5DED70143
:1020A000A80FB11DF701E00FF11F80819C91908373
:1020B0008C93DF5FE6CFCDB7DEB7E6E00C94B033AC
:1020C000680F791FFC011192CF01E617F707D1F7CE
:1020D0000895E62FF0E0E753F74F20812032B0F467
:1020E00030E0220F331FF901E554F94F408142954A
:1020F0004F7090E04817190649F42654394FF901FA
:1021000080818095881F8827881F089580E0089522
:10211000CF93DF93C82FD0E095E0899FF001112481
:10212000E450F94F808184FF05C064E080E0D1DF96
:10213000882359F085E08C9FF0018D9FF00D1124CC
:10214000E650F94F6181808166DCDF91CF9108957F
:102150001F93CF93DF93182F90E00196EC01CC0FE3
:10216000DD1FC80FD91F2196D595C795D595C79561
:102170008C2F5ADE1F5F1C1B810FDF91CF911F91A7
:102180000895811143C08091C2082091CD0820326A
:10219000B0F430E0220F331F22553E4FF901E35FC8
:1021A000FA4F9081907F903351F4245F3A4FF901B8
:1021B0002081922F9F739F5F27FF26C0891BAAEC67
:1021C000B8E04DEC58E02D912032C0F430E0220F01
:1021D000331FF901E654F94F6081962F2554394F8A
:1021E000F90120812F709F7367FF03C03EEF391BF9
:1021F000932FECE0E80FE21B892F8E0F4A175B0745
:1022000011F787FD80E00895890FD9CF95E0899F68
:10221000F0011124E650F94FE48188E0E89FF001D5
:102220001124E15BF14F8491ECCF811121C08091A9
:10223000C0082091CD082032B0F430E0220F331FC7
:1022400022553E4FF901E35FFA4F9081907F903223
:1022500051F4245F3A4FF9012081922F9F739F5FC1
:1022600027FF04C0891B87FD80E00895890FFBCFFD
:1022700095E0899FF0011124E650F94FE48188E050
:10228000E89FF0011124E35BF14F8491ECCF282FFC
:1022900030E0E091BF08882381F095E0929FF00143
:1022A000939FF00D1124E650F94FE48198E0E99FE7
:1022B000F0011124E45BF14FE49195E0929FD0018D
:1022C000939FB00D1124A450B94F9C9192FF04C06C
:1022D000F0E03196F595E79581111AC08091CD080F
:1022E0008032B0F490E0880F991F82559E4FDC0138
:1022F000A35FBA4F2C91207F203151F4845F9A4F15
:10230000DC019C91892F8F738F5F97FF05C0E81BBD
:10231000E7FDE0E08E2F0895E80FFACFCF93C82FA6
:10232000B6DFC1111AC02091C9082032B0F430E0E4
:10233000220F331FF901E654F94F50814181952F47
:102340009F7357FF03C02EEF291B922F4F7023E07E
:10235000453009F421E0890F820F87FD80E0CF919D
:102360000895811108C09091C3082091C8082917C9
:1023700080F4892F089595E0899FF0011124E6509B
:10238000F94FE48188E0E89FF0011124E05BF14F10
:1023900084910895811122C08091C1082091CE08B6
:1023A0002032B0F430E0220F331F22553E4FF901A6
:1023B000E35FFA4F9081907F59F4245F3A4FF9011F
:1023C0002081922F9F7396959F5F27FF05C0891BE1
:1023D00018160CF081E00895890FFACF95E0899FD7
:1023E000F0011124E650F94FE48188E0E89FF00104
:1023F0001124E25BF14F8491EBCFFF920F931F9377
:10240000CF93DF93D82FF62E0DE71CE080E0C82F86
:10241000CC0FF8018491389664916F0D8D0F6ADCB2
:102420008C2B0F5F1F4FFCE005381F0781F7CDB7DE
:10243000DEB7E5E00C94B133982F962B907CB1F485
:10244000E62FE695E695E69590E4E99FF0011124E4
:10245000E80FF11DE255FE4F677021E030E001C04A
:10246000220F6A95EAF78281822782830895A3E08A
:10247000B0E0EDE3F2E10C948F33182FF62EE42F49
:10248000EE0FFF0BEC5FF04F25913491822F8F718F
:102490008983C90145E0969587954A95E1F78F7143
:1024A0008A83932F969596959F719B8303E0911154
:1024B00004C002E0811101C001E0CE0101965C017F
:1024C000902E910EF50181915F01EF2C882361F030
:1024D000C82ED12C80FF03C06E2D812FADDFE39479
:1024E000C60195958795F2CF1F5F1911EBCF802F0D
:1024F0002396EBE00C94AB33FF920F931F93CF9393
:10250000DF93C82FD62FF22E8A01F801FF2049F061
:102510004491403274F0403231F4CE5F0F5F1F4F70
:10252000F4CF4081F6CF6D2F8C2FA1DFCF5FC80F86
:10253000F5CFCDB7DEB7E5E00C94B13321E0DCCFC9
:102540000895982F962B907CB9F4E62FE695E695A2
:10255000E69590E4E99FF0011124E80FF11DE255A2
:10256000FE4F677081E090E001C0880F6A95EAF73E
:1025700080959281892382830895B0E0A0E0E3EC06
:10258000F2E10C949133D62EC42E7C01C0E0BD2C18
:10259000BC0EF70181917F01DC2D882361F0082FAB
:1025A00010E080FF03C06D2F8B2DCBDFC801959508
:1025B0008795DF5FF2CFCF5FC43049F7CDB7DEB785
:1025C000E9E00C94AD331F93CF93DF93C82F162F00
:1025D000D42F1C1728F06D2F8C2FB3DFCF5FF9CFCE
:1025E000DF91CF911F910895982F962B907CB1F495
:1025F000E62FE695E695E69590E4E99FF001112433
:10260000E80FF11DE255FE4F677021E030E001C098
:10261000220F6A95EAF78281822B82830895B0E0C7
:10262000A0E0E5E1F3E10C949133B62ED42E8C01B9
:10263000C0E0CB2CCC0EF8018491DD2D882361F015
:10264000E82EF12C80FF03C06D2F8C2DCDDFC7014C
:1026500095958795DF5FF2CFF8013596E491DD2DF2
:10266000EE2361F0EE2EF12CE0FF03C06D2F8C2DD8
:1026700068DFF701F595E795DF5FF2CFCF5F0F5F7A
:102680001F4FC530B1F6CDB7DEB7E9E00C94AD33DE
:10269000B0E0A0E0EEE4F3E10C949233C42F022FFB
:1026A0006C01D42FD60FF60181916F01102F882372
:1026B00061F0E82EF12C80FF03C0612F8C2F94DF96
:1026C000C701959587951F5FF2CFCF5FCD13EBCFF5
:1026D000CDB7DEB7E8E00C94AE33A4E0B0E0E3E7BA
:1026E000F3E10C949333162F042F292F22952F708A
:1026F0002983292F2F702A839C0194E036952795F2
:102700009A95E1F72F702B838F708C83FF24FA94B6
:10271000F40EDD24DA94D60E4F2D6D2DCE010196E8
:102720002CDF4F2D612FCE01019627DFEE24E3949D
:10273000E10E4F2D6E2DCE0101961FDF402F6D2D26
:10274000CE0101961ADF402F6E2DCE01019615DFC6
:10275000202F412F64E0CE0101969ADF2496E7E016
:102760000C94AF331F93CF93DF93D82FC62F142F22
:102770001C1728F06C2F8D2F37DFCF5FF9CFDF913B
:10278000CF911F9108951F93CF93DF93C82F162FDA
:10279000D42F1C1728F06D2F8C2F26DFCF5FF9CF99
:1027A000DF91CF911F910895B0E0A0E0EAEDF3E151
:1027B0000C948E33082F10E0C0E0D12F6C2F8D2F9A
:1027C00013DFDE5FD034D0F3CE5F81E01827C03452
:1027D000A1F7DD24DA9410E0B12EBB0C42E0942E78
:1027E0009D0CE12CC02FCE0DFE2CFF0C612F8C2FE9
:1027F00081DA882309F483C0612F8C2FEFD88823D6
:1028000009F43FC0612F8C2FF8DDA82E8FEFA8169A
:1028100009F437C0D2E0DF0DCD2D9C1630F04C2FDF
:102820006D2F8F2DD0DECF5FF8CF882483948F0C4F
:102830006B2D882DD9DE30E1C32EECEFCE0ECC2DE2
:10284000D0E0FE01ED53F54F8491FE01EC53F54FBE
:102850009491EA2DE823E91303C06D2D882DC4DE81
:10286000FE01EB53F54F8491CA53D54FFE01C4913D
:10287000EA2DE823EC1303C06B2D8F2DB5DEC110BC
:10288000DCCFE394F0E2EF12ADCF1F5FD92C103212
:1028900009F0A2CF10E08091BB08181708F03BC0E8
:1028A000812F90E0880F991FFC01E658F74FC081F7
:1028B000C7FB222720F98558974FFC01D081D7FB11
:1028C000882780F9822B29F5CF77DF776D2F8C2F22
:1028D00068D88823F1F0C01BCC0FDD0FDD24D39422
:1028E000DD0EFF24FA94FD0E82E0E82EEC0EDF14DC
:1028F00060F04F2D6E2D8C2F66DEF394F8CF61E0E3
:102900006F0D4B2D8F2D5FDEBCCF6D2F81E08C0FB7
:102910006BDE1F5FC0CFD091B105C091B0056D2FA8
:102920008C2F3FD8882361F0C01BCC0FDD0F41E016
:102930004D0F61E06C0F8C2F26DF6D2F8C2F54DE36
:10294000D091B305C091B2056D2F8C2F2AD8882362
:1029500071F08C2F801B880FCD2FCC0FD1E0D80FBA
:1029600041E04C0F6D2F0FDF6C2F8D2F3DDECDB76B
:10297000DEB7ECE00C94AA330F931F93CF93DF9351
:10298000082FC62FD42F122FFEDE412F6C2F802F41
:10299000FADE412F6D2F802FE5DE412F6D2F8C2F1A
:1029A000E1DEDF91CF911F910F910895B0E0A0E09B
:1029B000ECEDF4E10C948D33DAEFD80F7AEFF72ECB
:1029C000F60EE9EF9E2E960E0F2D10E0A02EA69487
:1029D000A694A69480E4A89E5001112491E0802F33
:1029E0008770892E01C0880C8A95EAF7ED2EC0E029
:1029F0009FE39E1508F474C0003208F071C0F50121
:102A0000E055FB4FEE0DF11D8081882109F068C073
:102A1000412F6C2F83E29BE002DEE394CB5FC13455
:102A200039F70F5F1B5F9394113481F6C12C8091AD
:102A3000BB08C81608F0E9C0AC2CB12CAA0CBB1C12
:102A4000F501E658F74FC081C7FDDDC0CF77EC2E0A
:102A5000ED1AECE0EE1508F4D6C0F501E558F74F95
:102A600010811F77012F0F190D3008F0CCC0612F96
:102A70008C2F0E94D10C1F5F81110DC0612F8C2FF4
:102A80000E94EE0C8111BFC0612F8C2F0E94D10CCF
:102A9000882309F4B8C08E2D880F880FE80ED02E39
:102AA000DD0CDD0CD00E612F8C2F24D9811182C05A
:102AB0008091D40804E00D0D080F34E0832E8E0CB5
:102AC00099249A949E0CE11001C0912C1D2D0117A0
:102AD00008F472C0412F682D892D75DD1F5FF7CF77
:102AE000602F8E2D8ADC782E602F8E2D03D98111D8
:102AF0003BC0602F8E2D0E940B0D882359F061E0A2
:102B00008091D408833009F060E06E5F610F82E04D
:102B10008C0F6ADD692D8E2D0E94EE0C882309F43E
:102B20007CCF8FEF8C0F77FE8C2F76FE15C064E084
:102B3000762E7C0ED82EDD1CDD24DD1CD80EC12C9B
:102B40008091D4084FEF410FC81648F44C0D672D03
:102B50008D2D19DEC394F4CF53E0752EEACF480FC4
:102B6000672D8D2D30DD59CF412F6C2F83E29BE0F7
:102B700056DDD12CC12CF601ED5EF44F8491F601A7
:102B8000E55EF44F9491E72DE823E9130BC02AE0AA
:102B90002C9DC0012D9D900D1124412F6C2F835D24
:102BA000944F3DDDAFEFCA1ADA0AB8E0CB16D10474
:102BB00011F733CF80E07ECF85010558174FD8013C
:102BC000EC91E7FBEE27E0F9F0E0EE0FFF1FE15F8D
:102BD000F44F859194914D2D6E2D7FDDF80160812C
:102BE0006F778FEF8C0F0E94EE0C882361F0C3E0AB
:102BF000CD0D4C2F6D2D8EEF8E0DB4DD4C2F6D2D28
:102C000085E08E0DAFDDC39412CF8091B005C82F43
:102C1000CD1BCD30A8F46091B105162F1F191D30C2
:102C200078F40E94D10C882359F0412F440F440FAF
:102C3000410F6C2F660F660F6C0F88EC9EEF4DDD19
:102C40008091B205C82FCD1BCD30A8F46091B3059B
:102C5000162F1F191D3078F40E94D10C882359F0CB
:102C6000412F440F440F410F6C2F660F660F6C0FFE
:102C70008FEE9CE832DD0AE917E0F801C181CF70E0
:102C800011F18281E82EED1AFCE0FE15E0F0F8016A
:102C90006381D62EDF18FCE0FD15A8F00E94D10C50
:102CA000882389F0EC2FF0E0EE0FFF1FE950F54F7D
:102CB000859194914D2D440F440F4D0D6E2D660F4F
:102CC000660F6E0D0ADD0C5F1F4F88E00A31180792
:102CD000A1F60AEF16E0F801C481CC2389F1C130D6
:102CE00019F0828184FD2CC0D801CC90EC2CED1A17
:102CF000BCE0BE1528F1F801B180DB2CDF18BD1552
:102D0000F8F06B2D8C2D0E94D10C8823C9F06B2D0F
:102D10008C2D0E940B0D811102C0CB3089F4EC2F59
:102D2000F0E0EE0FFF1FED52F54F859194914D2D80
:102D3000440F440F4D0D6E2D660F660F6E0DCDDCEA
:102D40000B5F1F4FF7E00A391F0709F0C4CF8091CE
:102D5000BA0881111AC0C7E14C2F66E389E033DC61
:102D6000CF5FCB32C9F728E248E164E38AE004DEB2
:102D700049E265E38BE007DD49E269E185E3F2DCE6
:102D80004CEA50E06EE181E1D9DBCDB7DEB7EDE092
:102D90000C94A9336091FB068091FA0607CE089542
:102DA000CF938091600083FF07C0F89487E78093FA
:102DB000000880930108FFCFC0913E01CC2341F071
:102DC0008FEF8C0F8C2380933E018C27CF91089539
:102DD0002FB7F8948091400190914101A091420158
:102DE000B09143012FBF2FB7F8944091400150910B
:102DF000410160914201709143012FBF481B590B63
:102E00004430510528F421E023BF889513BEEBCF51
:102E10000E94760A90913D018927E5E3F1E030E0D8
:102E200020E041E0542F582371F150815F5F53300F
:102E300010F55083440F2F5F3F4F319628303105F6
:102E400089F7C927C0933D01EDE2F1E081E02C2F25
:102E5000282321F020812150C1F02083880F319652
:102E600021E0E533F20799F790932C019095C9235F
:102E7000C0933E0196CF1082C42B50E5D901A35DCB
:102E8000BE4F5C93D7CF1082D5CF28E22083282F66
:102E900020952F609223E2CF80E086DC0E94A30A77
:102EA00080E282DC0E94A00A7BDF8430E9F708958B
:102EB000B0E0A0E0EEE5F7E10C949833AE01475F97
:102EC0005F4F6F8178858D819E8103D0E2E00C9405
:102ED000B433A5E0B0E0EFE6F7E10C948A333C01AF
:102EE0005B018C01B5016F5F7F4FF50124912034A8
:102EF00051F0C8010196D8012C93222309F4D9C2BC
:102F00004A015B0122C0B2E0AB0EB11CFB01F490A0
:102F10004A01F2E08F0E911CDA01CD90DC90B3E60D
:102F2000FB1609F492C0BF15E8F1E0E5EF1580F05B
:102F3000FFE4FF1608F0BFC021E4F21609F40DC14A
:102F40008DE4F81609F4ABC0C801A4018C01CACF06
:102F500093E5F916C8F3A4E5AF1508F0ACC0B6E5E3
:102F6000FB12F2CF25E0C29EF0011124E650F94F8A
:102F7000E4804A0184E0880E911CFA016281738129
:102F8000C8010E94EF0AF1E0EF16F9F226E7F2120B
:102F900004C025E6DC012C93019623E7FC01208385
:102FA0000196D3CFE3E7FE1609F46CC0EF1508F4E1
:102FB00040C0F9E6FF1609F4DFC020E7B601F216BB
:102FC00009F475C084E6F812BFCF96012078332744
:102FD0008DE2C7FE8BE278019FEFE91AF90AD8016A
:102FE0008C93232B11F0C194D12C20E041E0420FAF
:102FF00030E08E010F5F1F4FF801E20FF31FC60193
:103000006AE070E00E945B3380836B01672B09F0FC
:103010004EC22F5F3F4FF801E20FF31FC701019629
:103020002291205DD7012C937C010E171F07B1F769
:103030008CCF96E7F91609F495CFA8E7FA1651F068
:10304000B5E7FB1281CF7801D0CFC8010196F80116
:10305000C0827BCFF601B4E0F595E795BA95E1F72C
:10306000EF70FF27EC50F24FE491D801EC93F6019A
:10307000EF70FF27EC50F24F2491C8010296F8013F
:10308000218363CFF801CF01D601A01BB10BAE0F96
:10309000BF1F2C91222309F458CF2193F4CFF601BE
:1030A000FF27EE0FFF1FE053F24F65917491C801A7
:1030B0000E94EF0A4ACFC982FF2DF170EF2EC11096
:1030C00015C022E589E52F150CF089E7D8018C930E
:1030D0008FE6F801818385E78283C801EE2011F035
:1030E000039633CF049622E723832FCF8C2D10D85D
:1030F000882329F1F2E5FF15FCF467EB70E025E089
:10310000C29EF0011124E650F94FF480C8010E94DC
:10311000EF0AEF2DF0E0EE0FFF1FE053F24F659145
:1031200074910E94EF0AE11010CF27E2FC01208386
:1031300023E72183029609CF6CEB70E0E0CF82E5B4
:1031400093E58F150CF093E798012F5F3F4FD8015F
:103150009C9361EC70E0C901E4CF25E0C29EF001D0
:103160001124E650F94F8481813019F46AEC70E043
:103170009ECF6EEC70E09BCF8D2D8F70482EED2C86
:10318000E2946FE0E6229C2D9F73F92E5C2CEC2DCF
:10319000E07CE03C31F461ED70E0C8010E94EF0A90
:1031A0008C01EFEFE40DEB3008F0CECEF0E0E5520D
:1031B000F74E0C948233E618EA19211AEF18F21828
:1031C000F2183A1994191D191D191D1949ED50E0ED
:1031D00030E020E06F2DC8010E94FA0AA3C045EE3E
:1031E00050E0F6CFA6E04A1225C06BEE70E0C801B1
:1031F0000E94EF0A8C0156FEA7CE57FE03C08EEF49
:103200008F19F82EB5E083E04B1201C081E021EF69
:1032100030E0F80E1F92FF923F932F931F930F936E
:1032200047DE080F111D0F900F900F900F900F9019
:103230000F908ACE6BEF70E0DACF842D8950990B16
:10324000FC01EE0FFF1FE653F24F65917491C80128
:103250000E94EF0A8C0156FE77CE57FE03C08EEF18
:103260008F19F82E2FEF30E08F2D8419845F1F9275
:103270008F93D2CFCE2CD12C9601265F3F4FF901F0
:1032800043E0F695E7954A95E1F7E153F74F8081E2
:1032900090E02770332702C0959587952A95E2F72D
:1032A00080FF2EC069E071E0C8010E94EF0AF601BC
:1032B000EE0FFF1FEE53F24F659174910E94EF0ADB
:1032C0008C0156FE41CE82E191E057FC11C0F3948F
:1032D000A2E0EA1679F0B3E0EB1679F0E1E0EE1245
:1032E00002C083E191E01F92FF929F938F9396CF4C
:1032F000F094EECF8DE191E0F6CF87E291E0F3CF4D
:10330000F601EE58F64FE081F0E0EE0FFF1FE654B5
:10331000F24F65917491C8010E94EF0A6DE271E06D
:103320000E94EF0A8C0110CECE2CD12C9601225F88
:103330003F4FF90183E0F695E7958A95E1F7E15370
:10334000F74F808190E02770332702C095958795CD
:103350002A95E2F780FF2DC063E371E0C8010E9467
:10336000EF0AF601EE0FFF1FE055F24F65917491E1
:103370000E94EF0A8C0156FEE7CDE110E5CDF694F0
:103380008F2D90E001964DE257FE4BE22EE331E0A7
:103390009F938F931F924F933F932F931F930F935E
:1033A00087DD080F111D0FB6F894DEBF0FBECDBF2D
:1033B000CBCDF601EA58F64FE081F0E0EE0FFF1FAB
:1033C000E654F24F65917491C8010E94EF0A6AE4D5
:1033D00071E0A6CFCE2CD12CF60173E0F695E795DF
:1033E0007A95E1F7E153F74F808190E02E2D277019
:1033F00002C0959587952A95E2F780FF14C042E5B3
:1034000051E030E020E06F2DC8010E94FA0A69E522
:1034100071E00E94EF0AF601EE0FFF1FEA55F24F2E
:10342000659174917DCF2EE531E0F601E859F64FB4
:10343000E081F0E0EE0FFF1FE456F24F459154910A
:10344000C9CECE2CD12C96012B5F3F4FF90143E022
:10345000F695E7954A95E1F7E153F74F808190E0C3
:103460002770332702C0959587952A95E2F780FF4C
:1034700012C045E651E030E020E06F2DC8010E9407
:10348000FA0A6CE671E00E94EF0AF601EE0FFF1FE8
:10349000EE56F24FC5CF21E731E0F601E359F64F82
:1034A000E081F0E0EE0FFF1FE857F24FC7CF242F67
:1034B0009DCD8619970981502596E0E10C94A6339D
:1034C000A0E4B0E0E6E6FAE10C949833AE01475B85
:1034D0005F4F29966EAD7FAD2997CE010196F9DC3D
:1034E00020E0AE014F5F5F4F27966FAD279726967E
:1034F0008FAD269701D8C05CDF4FE2E00C94B43367
:10350000CF93C82F46E65DE060E018D84091AE0149
:103510005091AF012091B4053091B50588E791E055
:10352000BA0177277F936F931F925F93A901552765
:103530005F934F931F923F939F938F9386E08F9358
:10354000CF93BEDF2BE739E08DB79EB70C960FB651
:10355000F8949EBF0FBE8DBF80E0F9014DB75EB7F6
:103560004217530740F02F5F3F4F9081953A19F46F
:103570008F5F8F3F91F728E831E01F928F933F9341
:103580002F938CE08F93CF939BDF0F900F900F9032
:103590000F900F900F90CF91089580E0B1DF0E94BF
:1035A000A30A80ECADDF0E94A00AFADB8430E9F7C1
:1035B0000895CF93C091D4088091D40883708093EC
:1035C000D408E8DB0E94A30A4DE55DE061E084E1F8
:1035D0000E949E1282E991E02091D4081F922F93BD
:1035E0009F938F9389E08F9383E08F9369DF0E948D
:1035F000A00AD6DB0F900F900F900F900F900F90B6
:103600009091D4089150803229F0803429F490911F
:10361000D4089F5F9093D408982F9C7009F4CCCF66
:10362000843011F4C093D408CF910895E5EAF1E015
:103630009E2F3F2F421304C0EDEAF1E09E2F3F2F53
:10364000A42FA21BBB0BFD01FF93AF931F924F93BF
:103650003F939F936F938F9333DF8DB79EB70896F9
:103660000FB6F8949EBF0FBE8DBF08950F931F93A2
:10367000CF93DF93D82F40EB51E060E08EE18D0FC8
:103680000E949E1246E06FE380E07DD80DE41DE0CD
:10369000C9E0F801459154916C2F8D2F0E949E1224
:1036A000CA5F0E5F1F4FC933A1F783EC91E02091F1
:1036B000B7052F932091B6052F939F938F9389E0A1
:1036C0008F93C8E2CD0FCF93FBDE26EC31E08091E3
:1036D000D30890E001969F938F933F932F938FE0B1
:1036E0008F93CF93EDDE1091C30880E00E94B1115B
:1036F000212F482F65E18C2F99DF80E00E94471130
:10370000182F2091BF08482F6BE18C2F8FDF00917D
:10371000C00880E00E941511202F482F61E28C2FF5
:1037200085DF80E00E948E11212F482F67E28C2FC9
:103730007DDF1091C20880E00E94C110212F482F28
:103740006DE28C2F73DF1091C10880E00E94CA11D6
:10375000212F482F63E38C2F69DF49EC51E069E0AA
:1037600086E48D0F0E949E128091FC062DB73EB715
:10377000245F3F4F0FB6F8943EBF0FBE2DBFC9E088
:1037800080FF08C042ED51E06FE08BE48D0F0E9496
:103790009E12CFE08091FC0681FF08C04BED51E006
:1037A000CA5F6C2F8BE48D0F0E949E128091FC06E5
:1037B00082FF08C045EE51E0CA5F6C2F8BE48D0F8D
:1037C0000E949E128091FC0684FF0DC04EEE51E0D7
:1037D00066E06C0F8BE48D0F0E949E12DF91CF91FB
:1037E0001F910F910895C930C9F748EF51E06FE07C
:1037F000F1CF80E03BDF0E94A30A80EC37DF0E941C
:10380000A00ACEDA8430E9F70895B0E0A0E0EBE05A
:10381000FCE10C949133E82EEA01F22EAB0160E05A
:103820000E949E1247E06FE380E00E94C3131AE0FB
:1038300085E28F1508F454C0FE01EF0DF11DD08014
:103840009FEFD91609F44CC08FE18D1508F438C0EC
:10385000E9ECF8E08191D81609F44CC098E0EF3C0F
:10386000F907C1F78DEF91E0ED2DF0E0EE0FFF1FAE
:10387000E654F94F21812F9320812F939F938F93AB
:103880001F9387E08E0D8F931BDE0F900F900F908C
:103890000F900F900F900F1123C095E0B92EB10E2D
:1038A000DD24DA94D10EBD14D8F0C12C6D2D8C2DF1
:1038B0000E941C12C39480E4C812F8CFD394F3CFB3
:1038C000E1100EC08D2D8052990BFC01EE0FFF1FF1
:1038D000E95EF24F45915491612F80E00E949E1263
:1038E0001A5FF394103409F0A3CFCDB7DEB7E9E047
:1038F0000C94AD3343E2612F81E08E0D0E943712AC
:10390000B1CFA7E2B0E0E7E8FCE10C948E335C01B4
:1039100010E0DE0111967D01AD014F5F5F4F80E247
:10392000810F8C93CA0130E020E0F901EE0FFF1FF8
:10393000E554F94FE081EF70E60FF72FF11DE491A8
:10394000E11303C0FC01208301962F5F3F4F20321B
:10395000310559F78417950709F0DC011F5F163010
:10396000D9F66D01CE18DF088C2CCE018896A817E9
:10397000B90718F48FEF8D93F8CF912C11E0012F38
:10398000292DA701B50180E040DF0E94A30A292D5F
:10399000A701B50180EC39DF0E94A00A01DA84306A
:1039A00009F442C0883051F4F701E10FF11D808124
:1039B000A796ECE00C94AA33182FE1CF8031E9F4FC
:1039C0002C2D2150330B121713064CF581E0810F7B
:1039D000F701E80FF11D9081903210F082E0810F25
:1039E000292D30E0285F3F4F8217130609F0CCF4F1
:1039F000891510F79DEF990EFBCF803871F48FEF8A
:103A0000123048F0810FF701E80FF11D90819032DC
:103A100038F38EEFE4CF880DE3CF812FE1CF81E043
:103A2000E7CF33E0930EDCCF8FEFC2CFCF93DF939E
:103A3000EC0180E092E061E47DE063DF803238F405
:103A400093E09883898381E0DF91CF91089580E0AE
:103A5000FBCF81E192E061E47DE053CF0895CF9305
:103A6000DF93EC018BE192E061E47DE04ADF80329C
:103A700038F491E09883898381E0DF91CF910895B4
:103A800080E0FBCFA6E0B0E0E8E4FDE10C948E33EB
:103A9000C82EB62E4BE252E060E08EE28C0D0E9402
:103AA0009E1246E06FE380E00E94C31305ED18E02C
:103AB0004BE0E42ED12CF801828181110CC0D3940B
:103AC000F7E0EF0E0C5F1F4F27E2E212F4CF2696CD
:103AD000ECE00C94AA33282F2150330BF901EE0FA0
:103AE000FF1FE35FF24F85919491F80123811F92AC
:103AF0002F939F938F93EF92CF92E2DC87E392E034
:103B0000F80121812F9320812F939F938F939E0102
:103B10002F5F3F4F49013F932F93CAD9982F990F99
:103B2000990F20E0A4016E2D8FE78C0D891B0E9458
:103B30007C120FB6F894DEBF0FBECDBFBD10BFCF55
:103B400087E0B89E802D112490E1992E980E2AE0EE
:103B5000F22EF80E9F1408F4B2CFA12C6F2D8A2DEF
:103B60000E941C12A39490E4A912F8CFF394F2CF10
:103B7000CF93C82F682F81E085DF0E94A30A6C2FA6
:103B800081EC80DF0E94A00A0BD98430E9F7CF9145
:103B900008958FEFEDCF0895CF93DF932AE332E0BE
:103BA0008091BC0890E001969F938F933F932F9351
:103BB0001F92D1E0DF9384DC8BE492E09F938F939C
:103BC000C6E0CF93DF937CDC8EE492E09F938F93EB
:103BD000CF9381E28F9374DC80E00E94B111C82FF3
:103BE000D091FD0629E047E06AE189E00E94BC141B
:103BF0008DB79EB70E960FB6F8949EBF0FBE8DBFC1
:103C0000CC2351F020E1D29FC001112408966C2FE3
:103C100070E00E945B33C62F69E06C0F48E08AE0D9
:103C20000E94C313C091D308CF3008F0CFE0D091E9
:103C3000C40829E047E06AE389E20E94BC1420E15D
:103C4000D29FC00111240896C295C07FC65F6C2F19
:103C500070E00E945B33675D48E08AE20E94C31314
:103C6000DF91CF910895FF920F931F93CF93DF932E
:103C70008C01EB0191DFAE016DE185E00E949E12A7
:103C800041E552E063E285E00E949E12C8E180E2D5
:103C9000F82EFC0ED9E4DC1B4F2D6D2F8C2F0E94CB
:103CA000B2134F2D6D2F8FE38C1B0E94B2139BE03C
:103CB000F92EFC0ED4E3DC1B46E14C0F6F2D8D2F4B
:103CC0000E94C31343E54C1B6F2D8D2F0E94C3131D
:103CD000C150C431E1F60E94A00A62D88032A9F036
:103CE00020F4803151F080E00BC0803491F08038B6
:103CF000D1F7F801108281E003C081E0F8018083F0
:103D0000CDB7DEB7E5E00C94B13382E0F8018083F3
:103D1000F2CF83E0FBCF25E0FC012193CF0166E3E6
:103D20007DE0A1CF0895A1E0B0E0E9E9FEE10C94C7
:103D300096331091FA060091FB06602F812F0E94A6
:103D4000D6140E94A30A62E672E0CE0101968BDFD0
:103D5000882301F1298130E0F901E058F24FE49124
:103D600084E0E802F00111241E0FF901EC57F24F34
:103D7000E49184E0E802B0011124600F17FD10E027
:103D800067FD60E0103408F01FE3062F6032A8F2F0
:103D90000FE1D3CF2196E4E00C94B233EF92FF927F
:103DA0000F931F93CF93DF93F7DEC0E00DE1D1E0D7
:103DB00080916509C81728F58C2F90E09C012B5144
:103DC000374F7901C9010E942B08182F2D2F280F7A
:103DD0003327331F2134310514F00A5FD1E020E08E
:103DE000A701602F8D2F0E947C121E5FD10FEC2F38
:103DF000CF5FF0E0EB51F74F8081EC2F8111F8CFCE
:103E0000D7CFCDB7DEB7E6E00C94B0330E94CA1628
:103E10000E94A30AC3DF41E752E06BE38BE20E94FA
:103E20009E120E94A00A0E94D0168830E1F71092DC
:103E3000650981E0809366098DE1809367090895A3
:103E4000A0E8B0E0E6E2FFE10C949033AE01435706
:103E50005F4FFA0161917191AF01CE0101967C0132
:103E600038D8F701AE2EAE1881918111FBCF10E04A
:103E7000F701E10FF11D1F5F80818132CCF71082C5
:103E800000E080916509810F801B813808F0BEDF5A
:103E9000C02ED12CC7018C0D9D1D0E942B08B82E61
:103EA000809167098B3340F0809166098B0D9927CB
:103EB000991F8B970CF0AADFD701AC0DBD1D011720
:103EC00068F4E091650981E08E0F809365098D911A
:103ED000F0E0EB51F74F80830F5FF1CF80916609DF
:103EE0008B0D9927991F8134910544F081E08093CF
:103EF0006609809167098A5F8093670980916609E6
:103F00008E5F8B0D809366091A1560F4812FF7017F
:103F1000E80FF11D8F5F90819132CCF71082012F55
:103F2000182FAFCFC058DF4FEAE00C94AC33CF93DB
:103F3000DF93282F30E0A901440F551FFA01E55403
:103F4000F94F90819F70973010F568E772E0962FD7
:103F5000672F4654594FFA01408147FF1BC043E881
:103F600052E0220F331FF901E654F94F81818F93FC
:103F700080818F936F939F935F934F9361DF0F9037
:103F80000F900F900F900F900F9080E024C060EA88
:103F900072E0DDCF49EC58E0EA014F5F5F4F788176
:103FA00078131CC049EA52E0220F331FF901E6548E
:103FB000F94F81818F9380818F936F939F935F934C
:103FC0004F933EDF8FEF88830F900F900F900F90ED
:103FD0000F900F9081E0DF91CF910895F8E04F3C72
:103FE0005F07D1F6D2CF0F931F93CF93082F10E026
:103FF00095E0899FF0011124E450F94F908192FDE2
:104000001EC00E948810882379F088EB92E01F92EE
:104010000F931F920F939F938F9312DF0F900F9028
:104020000F900F900F900F9085E0809FF001819F7F
:10403000F00D1124E450F94F808184608083CF918A
:104040001F910F9108950F931F93CF93C82F811144
:1040500006C065E081E00E94691081112FC00C2F1D
:1040600010E08C2F0E9488108823A9F028EC32E001
:104070008FEC92E03F932F931F92CF931F92CF9399
:104080009F938F93DDDE8DB79EB708960FB6F89499
:104090009EBF0FBE8DBFC11106C00E94A60E8370C9
:1040A0008C5F8093C60885E0809FF001819FF00DB2
:1040B0001124E450F94F808181608083CF911F915A
:1040C0000F910895A8E0B0E0E8E6F0E20C94923396
:1040D000D82E062FC42EBE016F5F7F4F0E942E0B7D
:1040E000E02EF12C25E02E9DC0012F9D900D112476
:1040F0008650994FFC01148101110BC084E080931C
:10410000B8052D9DF0011124E650F94F848180936C
:10411000B905802F0E94881095E09E9DF0019F9D1B
:10412000F00D1124E650F94F9381C91608F4BFC071
:10413000882309F4B4C02FED32E083EE92E03F9380
:104140002F931F920F931F920F939F938F9378DE5D
:104150000FB6F894DEBF0FBECDBF85E08E9DF00197
:104160008F9DF00D1124E650F94F13821482E091D7
:10417000BC0850E1E59FF0011124E254FA4FC70159
:1041800023E0969587952A95E1F7E80FF91F202FF0
:10419000277081E090E0AC0102C0440F551F2A95C2
:1041A000E2F78081842B808385E08E9DF0018F9DD6
:1041B000F00D1124E650F94F848181117DC0D1109A
:1041C0006AC058E0159FF0011124EF5AF14F149185
:1041D0008091D3080FE08F3008F4082F0295007FFC
:1041E000065FE091C408202F30E0E12EF12C2E195B
:1041F0003F09E217130609F00CF45CC08F5F80934F
:10420000D3082AEE32E090E001969F938F933F937C
:104210002F9316DE8091C3088C5F8093C308809132
:10422000D3080F900F900F900F908431F8F48370A3
:10423000823061F483E093E09F938F9301DE80915D
:10424000BF088F5F8093BF080F900F908091D308B5
:10425000837061F486E193E09F938F93F1DD809109
:10426000C0088F5F8093C0080F900F9080E00E947D
:10427000B1118093FD06E091C408E10FE01BE093CB
:10428000C4088091B6059091B705E80EF91EF0922A
:10429000B705E092B6052896E8E00C94AE3388E2C4
:1042A00093E09F938F93CCDD0F900F9056CF9C1986
:1042B00093837ACFE10FE3CF011137C0898185FF66
:1042C00034C00E94A60E883208F02FC085E493E027
:1042D0001F92DF929F938F93B3DD8091C8088D5F0B
:1042E0008093C80880E00E94B1119091FD060F9064
:1042F0000F900F900F90891708F4982F9093FD0658
:10430000911113C02CE533E080E693E03F932F93A7
:104310001F921F921F921F929F938F9391DD0FB652
:10432000F894DEBF0FBECDBFB6CF898186FF06C031
:104330000E94A60E883210F4802F85DE898184FFCA
:10434000AACF0E94A60E843108F0A5CF802F4BDEA5
:10435000A2CFCF92DF92FF920F931F93CF93DF9361
:10436000C82FD62FC82ED12C0E94B111182F85E04E
:104370008C9DF0018D9DF00D1124E650F94F838145
:10438000811718F5D33048F587E693E0082FF92E0A
:10439000C11126C081E793E0FF920F939F938F9303
:1043A0004FDD0F900F900F900F9085E08C9DF001E6
:1043B0008D9DF00D1124E650F94F6381212F261BAE
:1043C000330BD21713060CF11383DF91CF911F919A
:1043D0000F91FF90DF90CF90089584E893E0D6CFBF
:1043E0008C2F0E948810882301F385E893E0FF92C8
:1043F0000F931F92CF939F938F9322DD0F900F9077
:104400000F900F900F900F90D0CF6D0F6383DDCF83
:1044100095E0899FF0011124DF01A450B94F9C91D0
:1044200092FF0BC09B7F9C93811107C088E993E0AA
:104430009F938F9305DD0F900F900895CF93DF9397
:10444000C82FE62FF0E083E0F695E7958A95E1F72F
:10445000E153F74F262F277081E090E0AC0102C0B6
:10446000440F551F2A95E2F78081842B80836230A8
:1044700089F138F46623D9F0613049F1DF91CF91A9
:104480000895633051F16430C9F7C11106C00E942C
:10449000A60E8F70845F8093C50885E0C89FF001E9
:1044A0001124E450F94F808180618083E7CF8C2F05
:1044B0000E94B111D82F86950E94140FD695D695DB
:1044C0006D2F680F8C2F45DF8C2FA2DFD7CF8C2F5D
:1044D000BADDD4CF8C2F87DDD1CF55E0C59FF00159
:1044E0001124E450F94F808182FDEECFC111C6CF77
:1044F0008FEA93E09F938F93A3DC8091BF088F5F37
:104500008093BF080F900F90B9CFA9E0B0E0EBE81F
:10451000F2E20C948D33182F4B01A82EB12CFB0125
:104520008181837089878081882321F185E08A9D3C
:10453000F0018B9DF00D1124E450F94F808181FF33
:104540000AC0112311F011E05CC382EC93E09F9349
:104550008F9376DC87C180FF0DC00E94A60E83700A
:104560008987111107C085ED93E09F938F9368DCD5
:104570000F900F90298530E0F901E058F24F7490C8
:10458000F901EC57F24F049125E02A9DC0012B9DC3
:10459000900D11249C012650394F7901D901EC91DD
:1045A0007E0EF9018181080F602F872D0E94890CF2
:1045B0006C01BE016F5F7F4F812F0E942E0BD401D3
:1045C0008C91833009F440C238F4882309F410C276
:1045D0008130E9F110E015C3853009F449C108F4D0
:1045E00098C28630B9F7602F872D0E94A80CFC0175
:1045F000892B09F45EC1818187FD5BC1908197FDA4
:1046000058C19A8191FF55C180688183A091BC08EF
:1046100020E1A29FD0011124AA53BA4FEA57F840D3
:10462000F595E795CF01992723E0969587952A95EB
:10463000E1F7A80FB91FE770FF2721E030E001C0C4
:10464000220FEA95EAF78C91822B8C937CCFF401B0
:10465000F180CF2CD12CF601EE0FFF1FE554F94F5E
:104660001081012F02950F701F70133009F44DC097
:1046700050F4123009F0AECF8F2D0E945B0C602FEA
:1046800080E0DCDE60CFEBEFE10FA9ECB8E0E730D3
:1046900008F0A0CF8D91F81609F4B8C238E0AF3C0D
:1046A000B307C1F7F0E0E45FFE4FA080B12C9501A5
:1046B0002753374F5901D9018C91803220F437DCD0
:1046C000882309F487CF8F2D0E94A60AF601EE0FEA
:1046D000FF1FE654F94F173008F0C7C087EE93E08C
:1046E0009C018DEE93E041814F9340814F933F9326
:1046F0002F939F938F93A4DBD501FC920F900F9083
:104700000F900F900F900F901ECF8F2D0E945B0C7B
:10471000802F90E00596FC0173E0F695E7957A9579
:10472000E1F7E153F74F8770992721E030E001C0AE
:10473000220F8A95EAF78081822B8083023009F468
:1047400058C0E0F4002309F42AC0013009F0FBCE80
:104750008CEF93E061E47DE0D4D8803260F4E82F00
:10476000F0E08F01000F111FD801A554B94F8C91B3
:104770008F708530F0F480E194E0E9CE033009F4E5
:1047800064C0E0EBF4E0043009F0DDCE8FEF8193FC
:1047900025E0E03BF207D1F781E294E0D8CE88E44F
:1047A00094E061E47DE0ADD8803228F70E94A60A4B
:1047B000CACE8DE594E0EE0FFF1FE654F94F21813C
:1047C0002F9320812F939F938F933ADBF801E65428
:1047D000F94F8081982F9F730F900F900F900F903B
:1047E0009F3309F4B0CE9F5F9F73807C892B8083B9
:1047F000AACE8DE794E061E47DE083D8803208F0B2
:10480000BACF282F30E0D901AA0FBB1FCD018554A4
:10481000994FFC0180818F70853008F4ACCFA6548D
:10482000B94F8C9187FFA7CF80748C9381E994E076
:10483000FD0121812F932C912F939F938F9300DB68
:104840000F900F900F900F907ECE6BEF76E08AEF77
:1048500096E00E94950F82EB94E09F938F93F0DA9D
:1048600080E0F1DB0F900F906ECE89ED94E038CFB1
:10487000602F872D0E94A80CFC01892BB9F0808144
:1048800087FD14C0918197FD08C080EE94E09F934E
:104890008F93D6DA0F900F909DCEC114D10419F0EA
:1048A0008CEF94E0F4CF9F7791834DCE81E195E03A
:1048B000EECF602F872D0E94EE0C81118BCEC1149C
:1048C000D10409F48AC0C6018A5F96402DEC3CEC05
:1048D000829F5001839FB00C929FB00C1124812FB6
:1048E0000E941511082F8A2D0E941511F82E802F75
:1048F000880F8F0D0E94140FE82E6501DD248A2D8C
:104900000E948810082FEF1408F087C18823A1F0B7
:1049100028E235E08DE295E0DF92CF923F932F932E
:104920001F921F931F921F939F938F9389DA0FB645
:10493000F894DEBF0FBECDBF111105CE85E08C9D72
:10494000F0018D9DF00D1124E450F94F80818860B5
:104950008083EF1408F4F7CD812F0E948E11F82E7A
:104960008A2D0E94C110E82E8F2D0E94A810F82ECB
:104970008E2D0E94A8102F2D269530E0FF9C200D33
:10498000311D11242F5F3F4FAF2DA80FBB27BB1F39
:10499000BD016F5F7F4FC9010E946F33F62E662302
:1049A00009F438C10023A1F027E335E08BE395E05B
:1049B000DF92CF923F932F931F921F931F921F93CB
:1049C0009F938F933DDA0FB6F894DEBF0FBECDBF35
:1049D0004F2D6A2D812F76DBB6CD85E08A9DF001C3
:1049E0008B9DF00D1124E650F94F70820183ABCD01
:1049F0001111A9CD00E81DE0B4E8CB2EBDE0DB2EFF
:104A0000F801949134966491E091FB066E0F8091C9
:104A1000FA06890F0E94A80C7C01009779F0DC014E
:104A20008C9187FF0BC085E495E09F938F9308DA04
:104A3000F70180818F7780830F900F900F5F1F4F5A
:104A4000C016D106E9F67FCDF4018181E82FF0E0B0
:104A5000EE0FFF1FE654F94F00811181183461F405
:104A60008EE595E01F930F939F938F93E9D90F9055
:104A70000F900F900F90AECD8DE795E01F930F93A1
:104A80009F938F93DDD9F701918120810F900F9033
:104A90000F900F90812F8F70853000F5EAE9F7E0D5
:104AA0008181181316C080818F738F3309F08F5F57
:104AB0008F739081907C892B8083F4018181E82F12
:104AC000F0E0EE0FFF1FE654F94F8181807F818374
:104AD0003ACD349638E0EA31F30711F7EAE9F7E026
:104AE00081818F7029F42283938300831183E5CF22
:104AF000349648E0EA31F40799F78EE895E01F9381
:104B00000F939F938F939CD90F900F900F900F90BE
:104B1000D4CF6DE975E0CE010996A5D8182F88236A
:104B200009F46FC0898590E0FC01E058F24FB49021
:104B3000FC01EC57F24FD490F4018181282F30E032
:104B4000220F331FF901E654F94FA080018125544B
:104B5000394FD901CC90C2945FE0C5220E945B0C12
:104B6000BA2DB07CAB2EF7018080918068E0762E64
:104B70008B0C9D0C692D882D0E94EE0C811131C08B
:104B8000692D882D0E94890C009741F1FC0122813A
:104B9000286022838A5F96402DEC3CEC829F700156
:104BA000839FF00C929FF00C11242EE935E00F70DA
:104BB0008C2D8295807F082BC70199279F938F9317
:104BC0000F93AF923F932F933BD96C2D8E2D36DCF4
:104BD0000F900F900F900F900F900F907A9471108C
:104BE000C7CF8EEA95E0C29420EFC2220F700C2945
:104BF0000F93AF929F938F9323D90F900F900F90A5
:104C00000F90812F2996EDE00C94A9338F2D8FD929
:104C1000182FF7CFFF24F394C5CE11119DCE8ECE61
:104C20000E94CA160E94A30AB9D80C94A00A08953B
:104C3000CF93DF93EC018FEB95E06AE27DE00E9479
:104C4000811C803240F494E098838983E9DF81E01D
:104C5000DF91CF91089580E0FBCF8F929F92BF921A
:104C6000CF92DF92EF92FF920F931F93CF93DF9338
:104C7000CDB7DEB7C058D1090FB6F894DEBF0FBE6E
:104C8000CDBF8E0102571F4FF801E190F1908F01C7
:104C90000E94CC1DA801B7018E010F5F1F4FC801F4
:104CA0000E946917F801BE2EB01A81918111FBCFC5
:104CB0008B1548F4F801E80FF11D8F5F9081913258
:104CC000CCF71082F5CFF12C9DE1C92EEE24E394B0
:104CD000FB1428F548018F0C911CC4010E942B087D
:104CE000D82E2E2D280F3327331F2134310524F0E1
:104CF00036E0C30EEE24E39420E0A4016C2D8E2D4B
:104D00000E947C12D394D394ED0CEF2DF394E00F1A
:104D1000F12FF11D8081EF2D8111F8CFD9CF83E2E2
:104D2000E82E8DE0F82ED8016E0188E0C80ED11C67
:104D3000F70184918D933196AC15BD05D1F728E329
:104D400047E067E0C8010E944813D801F701849149
:104D50008D93FFEFEF1AFF0ACA16DB06B9F728E3B7
:104D600047E267E0C8010E94481341E469E389E033
:104D70000E94371242E469E389E20E9437124BEC49
:104D800055E069E382E10E949E124FEC55E069E331
:104D900082E30E949E120E94A00A0E94D016182F41
:104DA0008C70D9F33DDF81E0183009F080E0C05805
:104DB000DF4F0FB6F894DEBF0FBECDBFDF91CF91AE
:104DC0001F910F91FF90EF90DF90CF90BF909F9039
:104DD0008F900895A4E0B0E0E0EFF6E20C948F33FA
:104DE0008091B4059091B5059093AF018093AE0189
:104DF00010E08091BC08181738F409ED0E94A60E47
:104E00000150E1F71F5FF5CFE0EBF3E08FEF819307
:104E100024E0E03BF207D1F760E071E080EB94E042
:104E20000E94601060E870E08AE997E00E946010DC
:104E300060E670E08AE198E00E94601060E470E053
:104E40008AE798E00E9460101092BA081092BB089E
:104E5000E7DE0E9429104DE06DE10E94F10DE12C8A
:104E600040E1F42E8091BA08803208F048C00E94D8
:104E7000140F43E0849FF0011124E65EF74FD080C9
:104E8000C180B2800E94A60E182F13700E942910B4
:104E9000082F9E012D5F3F4FAE014C5F5F4F6B2D82
:104EA000812F0E94E00F9E012F5F3F4FAE014E5FAA
:104EB0005F4F602F81E081270E94E00F412F50E07B
:104EC000FA01E058F24F94914C57524FFA01449135
:104ED0001C81190F1D0DDB80D40EDC0C8981481B51
:104EE0004D0D8A81E92FE81B6E2F610F802F0E94E4
:104EF000F10D882321F06D2D812F0E94BF0EF1E06E
:104F0000EF1AF10809F0AECFC12C34E0D32E809116
:104F1000BA080E94140F23E0829FF0011124E65E7C
:104F2000F74F10810181F2800E94A60E8370B82E87
:104F30009E012F5F3F4FAE014E5F5F4F6F2D0E946E
:104F4000E00F6B2D70E0FB01E058F24F8491810F70
:104F5000EA818E0F8A836C57724FFB016491600F58
:104F6000E9816E0F69830E94EE0C882349F1A12C20
:104F700009811A818091BA08A81608F095C08A2D77
:104F800090E0F3E0AF9E90011124A901465E574FD7
:104F90007A01FC01EE0FFF1FE80FF91FE65EF74FE5
:104FA0008081181B9180CA010E94220C181710F0F2
:104FB000A394DECFC7010E940A0C09190817C0F795
:104FC000A1E0CA1AD10809F0A2CFE0EBF4E0DF01BA
:104FD000BA9580819C91892B8193B5E0E03BFB07DA
:104FE000B1F70E94A50B8091BC088F3008F0ABC0D0
:104FF00061EB75E080EB95E00E94950F63EB75E047
:1050000082EB95E00E94950F0FEF16E0EE24E394FB
:10501000F12CDE2C85E08E9DF0018F9DF00D11248A
:10502000E650F94FDF011D928A95E9F7B8016F5FED
:105030007F4FC8010E941D0F882341F10E94A60ED8
:10504000E091BC08B8E0EB9F90011124E82FE770D5
:10505000E20FF32FF11DE357F34F8491882371F38F
:10506000F80184838D2D0E94B111F8018383809112
:10507000BC08F0E18F9FC0011124B70182549A4F00
:105080000E94790B882311F0F8011482FFEFEF1AC8
:10509000FF0A0B5F1F4F20E2E216F10409F0B9CFBF
:1050A0002496EBE00C94AB3351E05B1540F16FEFCD
:1050B000600F812F0E94EE0C811182CF61E0600FA2
:1050C000812F0E94EE0C81117BCFF12C602F812F5C
:1050D0008F190E94EE0C882309F472CF602F812F64
:1050E0008F0D0E94EE0C882309F46ACFF39484E0BC
:1050F000F812ECCF602F812F0E94BF0E61CF602F7E
:105100008FEF810F0E94EE0C81115ACF602F81E04A
:10511000810F0E94EE0C811153CFF12C602F6F197B
:10512000812F0E94EE0C882309F44ACF602F6F0D67
:10513000812F0E94EE0C882309F442CFF39494E06F
:10514000F912ECCFD7CF8FEF8093B1058093B005E4
:1051500055CFA3E1B0E0EFEAF8E20C948833A82E33
:10516000B12C25E0829F40011124F401E650F94F53
:105170007F019481992309F482C1182FBE01675FD2
:105180007F4F0E942E0BAA20A9F094012450394F82
:105190004901F901808181FD0DC080FF8FC086E04B
:1051A000898B0E94A60E83708A8BBE016F5E7F4F33
:1051B000812FABD985E08A9DF0018B9DF00D1124E4
:1051C000E450F94F808180FF24C0111146C18091C5
:1051D000C60881508093C60881111BC085E08A9D56
:1051E000F0018B9DF00D1124E450F94F80818E7FEA
:1051F000808382ED95E01F921F931F921F939F93D0
:105200008F930E94201F0F900F900F900F900F9080
:105210000F9085E08A9DF0018B9DF00D1124E450E4
:10522000F94F808181FF24C011111BC18091C708F3
:1052300081508093C70881111BC085E08A9DF001D1
:105240008B9DF00D1124E450F94F80818D7F808378
:105250008CEE95E01F921F931F921F939F938F9345
:105260000E94201F0F900F900F900F900F900F90A3
:1052700085E08A9D70018B9DF00C1124F701E450AC
:10528000F94F808184FFFBC0898583FDF8C011112F
:10529000ECC08091C50881508093C5088111EFC092
:1052A0008091FC068F7E8093FC0687E096E09F93BA
:1052B0008F930E94201F0F900F90E1C0F701008193
:1052C000F180BE016F5F7F4F8A2D0E942E0B198ADD
:1052D000D980D1FE04C0F401808183FF66CF809124
:1052E000FE06882309F461CF85E08A9D90018B9D9D
:1052F000300D1124D901A650B94FFD01E180409035
:10530000FA068C91841987FD81952090FB06E2189E
:10531000E7FCE194D0FADD24D0F8F901E450F94F2C
:10532000908193FB992790F9D92A41F09091BD087B
:1053300093FD04C0E80EF9E0FE15F8F40E94A60EF5
:1053400083708A8B682F70E0FB01E058F24F8491E4
:105350006C57724FFB0164916F0D800F0E94890C96
:10536000009741F0DD2009F420CFFC0184818130D9
:1053700009F01BCF86E0898B18CF8A8180FF30C06F
:1053800090E8C92E9DE0D92EF601F491FB8B4601E1
:1053900024E0820E911CF40134906F2C702E512C5D
:1053A000FB897F0E630C741003C0621409F46BC098
:1053B000662D872D0E94EE0C81110AC0662D872D67
:1053C0000E94890C892B21F4539424E05212E8CFD7
:1053D0003FEFC31AD30A84E89DE08C159D05A1F622
:1053E00080E8882E8DE0982EC12CF4018491702ED7
:1053F000780E3496D490DF0C6D2D872D0E94EE0C24
:1054000081111CC06D2D872D0E94890C009721F001
:10541000FC018481813091F48091FA06781A872DFD
:1054200087FD81959091FB06D91AD7FCD194D80EAF
:10543000DE1460F486E0898BCA8AED2CC394FFEFFA
:105440008F1A9F0A24E0C212D0CFAFCEDE10F6CF63
:105450000E94A60E80FDEECFF1CF0E94A60E8770AF
:10546000BBCE0E94A60E8770E6CE0E94A60E8F705D
:1054700031F4F701E450F94F80818F7E8083639689
:10548000E2E10C94A4330E94A60E80FFA9CF84E22F
:1054900096E01F921F939F938F930E94201FC0DB63
:1054A000F6018491F4016491E82EEE0CEE0CE80E06
:1054B0000A5FC02EC718C80E0C2D000F000FC00EBB
:1054C000062F000F000F060FF6E0FF0EF618F60E7F
:1054D0006F2D660F660FF60E0F900F900F900F90C6
:1054E0000E94CA164F2D6C2D8EEA9EE00E946D130D
:1054F0000E94A30A84E690E00E94710A5A94CE0C9E
:10550000F00E2FEF5212ECCF88E00E94140F48E00B
:10551000480F60E0812F0E94622047CE1F93CF93F7
:10552000DF93EC01162F0E943933181721F0612FF9
:10553000CE010E944133DF91CF911F9108950C94C9
:10554000393308950F931F93CF93DF9304EB15E046
:10555000CCECD0E0CE01F3DFF80181938F012196EE
:10556000CD3FF3E0DF07B1F7DF91CF911F910F91AE
:1055700008950F931F93CF93DF930CEC10E0CFEFC0
:10558000DFEFC801DCDF9D2F9827892F82958F7070
:105590008927282F30E09C2FA901542F44275295AA
:1055A000507F84279527E90175E0CC0FDD1F7A95A0
:1055B000E1F7C827D9270F5F1F4F0E3F83E0180779
:1055C00001F7CE01DF91CF911F910F9108950F93B5
:1055D0001F93CF93DF9304EB15E0CCECD0E0F80100
:1055E00061918F01CE019ADF2196CD3FF3E0DF0775
:1055F000B1F761E08DEF93E091DFBBDFC92F682F3A
:105600008EEF93E08BDF6C2F8FEF93E087DFDF91DE
:10561000CF911F910F910895DACF08951F920F92A5
:105620000FB60F9211248F939F938091E100909178
:10563000E100937F9093E10083FF0FC01092E90097
:1056400091E09093EB001092EC0092E39093ED00C8
:105650001092AD0198E09093F00082FF22C093E099
:105660009093E9009091F200992319F09AE39093B6
:10567000E80090914E01992341F090914E01915094
:1056800090934E01911101C05D9A9091AC019923C4
:1056900041F09091AC0191509093AC01911101C0F7
:1056A000289A84FF18C08091E2008E7E81608093EA
:1056B000E2008091E1008F7E8093E10080914F01B4
:1056C0008E7E806180934F019F918F910F900FBECE
:1056D0000F901F90189580FFF7CF8091E2008E7E8B
:1056E00080618093E2008091E1008E7E8093E100F2
:1056F00080914F018E7E8160E5CF1F920F920FB691
:105700000F921124CF92DF92EF92FF920F931F938B
:105710002F933F934F935F936F937F938F939F93B9
:10572000AF93BF93EF93FF93CF93DF93CDB7DEB7E4
:105730006C97DEBFCDBF1092E9008091E80083FF37
:1057400025C068E0CE0145960E949D0982EF8093B6
:10575000E8008D8987FF39C09091E80090FFFCCF69
:10576000982F907609F032C19E894F89588D2F89E4
:10577000F88C911131C0803861F580914D01809392
:10578000F1001092F1008EEF8093E8006C960FB656
:10579000F894DEBF0FBECDBFDF91CF91FF91EF91A7
:1057A000BF91AF919F918F917F916F915F914F9139
:1057B0003F912F911F910F91FF90EF90DF90CF902D
:1057C0000F900FBE0F901F9018959EEF9093E800DA
:1057D000C7CF1092F100D5CF913059F48111D3CFBA
:1057E0004130510581F680914D018D7F80934D01AF
:1057F000CACF933049F48111C6CF4130510519F613
:1058000080914D018260F2CF953041F48091E800A3
:1058100080FFFCCF20682093E300B5CF963009F0DD
:10582000A7C00B8D1C8D22E01092E90010924B0155
:1058300010924A01F2122EC01092490110924801B2
:105840000E9472091F8299E09983FA8291E09E83F7
:1058500090EA98879AEF998720914A0130914B01FD
:10586000275F3F4F3C832B838D831092E90010927A
:105870004B0110924A01109349010093480149E0FD
:1058800050E0BE016F5F7F4F80E00E9451090E948F
:10589000720979CF10934901009348010E9488084A
:1058A000FC01028113810115110509F44FC1D801D2
:1058B000ED91FC910480F581E02DBE016B5E7F4F80
:1058C000C8010995009709F03CC1F80100851185D0
:1058D000EACFF3E0FF120EC08F89882309F43FC09E
:1058E000823061F440E867E08EE39FE00E94240983
:1058F000811149CF81E28093EB0048CF813029F4B8
:1059000040E86BE082E39FE0F1CF833099F70E949B
:105910008808FC01E280F3808E010F5F1F4F680151
:10592000E114F10479F0D701ED91FC910680F78143
:10593000E02DB801C7010995080F111DF701E0849A
:10594000F184EECFD8011C92F60101900020E9F716
:105950003197BF016C197D0940E0C601C7CF6CE1EA
:105960007FE0FB01449150E080E80E9451090BCF99
:10597000973009F4BFCF983021F481E08093F10093
:1059800002CF993009F0FFCE837009F0B3CFE4E184
:10599000F1E081E09191992381F08093E90091E019
:1059A0009093EB00DF0111979C919093EC0096E3AC
:1059B0009093ED008F5F873069F78EE78093EA0060
:1059C0001092EA008F898093AD01DDCE8B8D9C8D86
:1059D0001092E90010924B0110924A0190934901F4
:1059E00080934801898D811192C08E899D89913A59
:1059F00049F4813209F07ECF47E050E064E071E085
:105A000080E0B3CF913209F075CF833269F48F898A
:105A1000988DB0E0A0E08093000190930101A093E5
:105A20000201B0930301AFCE803269F48091E800A7
:105A300082FFFCCF67E084E091E00E949D098BEF3C
:105A40008093E800A0CE823209F09DCE8F898093AA
:105A50000B01EEEFFFE7859194918B3F9C4D51F147
:105A6000E0E0F8E08091040190910501A091060129
:105A7000B0910701803B9440A105B105F1F48091FC
:105A80000B0180FD1AC0EE3F8AE0F80789F587E731
:105A900097E7918380838091600080934C0188E137
:105AA0009BE00FB6F894A895809360000FBE90938A
:105AB000600069CEEEEFFAE0D5CF80819181873723
:105AC000974709F060CEA895809160008861809327
:105AD000600080914C0180936000EE3F2AE0F20765
