:100000000C942F070C9457070C9457070C94570720
:100010000C9457070C9457070C9457070C945707E8
:100020000C9457070C9457070C94842C0C94F32CC5
:100030000C9457070C9457070C9457070C945707C8
:100040000C9457070C9457070C9457070C945707B8
:100050000C9457070C9457070C9457070C94252FB2
:100060000C9457070C9457070C9457070C94570798
:100070000C9457070C9457070C9457070C94570788
:100080000C9457070C9457070C9457070C94570778
:100090000C9457070C9457070C9457070C94570768
:1000A0000C9457070C9457070C9457074C6F6164D6
:1000B000696E672E2E2E006F6D657468696E67001D
:1000C0006172650069730063757273656420006610
:1000D0006F6F6420726174696F6E006172726F7706
:1000E00000626F770073776F726400205B4064205A
:1000F0006465665D0072696E67206F66200000208F
:100100005B40634075207374725D00205B40634008
:1001100075206465785D00205B406340755D00205C
:1001200072696E6700616D756C6574206F66200082
:10013000205B40634075207370645D0020616D75C5
:100140006C657400706F74696F6E00206F662000BC
:10015000706F74696F6E007363726F6C6C00206FE8
:100160006620007363726F6C6C0052616E643A209B
:10017000407840782F4078407800537461636B3A40
:100180002040750057616C6C205374796C653A207F
:100190007B204075207D00407520282B407529006C
:1001A000407520282D40752900407500506C6179FC
:1001B000657220496E666F726D6174696F6E004C76
:1001C0006576656C3A004D6178204865616C7468AD
:1001D0003A00537472656E6774683A0044657874C7
:1001E00065726974793A0041747461636B3A0044D2
:1001F0006566656E73653A0053706565643A0040E4
:100200007500456666656374733A00636F6E667564
:1002100073656400706172616C797A6564007765FA
:10022000616B656E656400696E76697369626C65A1
:10023000006E6F6E6500406900496E76656E746F82
:100240007279005573652077686963682069746501
:100250006D3F0044756E67656F6E204C6576656C0A
:100260002040750048500058500057686963682066
:10027000646972656374696F6E3F005363726F6C7B
:100280006C2044756E67656F6E005B6D6F72655DA7
:1002900000596F757220737472656E67746820728E
:1002A000657475726E732E00736C696768746C790F
:1002B0002000596F75206665656C2040706265741A
:1002C0007465722E000073746F70207573696E67A9
:1002D00000596F752061726520756E61626C6520D2
:1002E000746F204070207468652040692E0074612E
:1002F0006B65206F666600596F75204070207468CA
:10030000652040692E004053204041207765616B95
:10031000656E656421006265636F6D650040532002
:10032000405620636F6E66757365642100596F7562
:100330002061726520706172616C797A6564210058
:10034000596F752061726520636F6E6675736564A1
:1003500021007769656C6400596F752040702074C6
:1003600068652040692E00596F75206665656C20B0
:100370007374726F6E6765722100456E6368616E9B
:1003800074207768696368206974656D3F004E6FFB
:100390007468696E672068617070656E732E0059AD
:1003A0006F75206265636F6D65206177617265208E
:1003B0006F6620796F757220737572726F756E64D7
:1003C000696E67732E004964656E7469667920777B
:1003D00068696368206974656D3F005468652040F2
:1003E0006920676C6F777320626C756520666F7229
:1003F0002061206D6F6D656E742E00556E63757291
:100400007365207768696368206974656D3F00547F
:10041000686520406920676C6F777320776869741E
:100420006520666F722061206D6F6D656E742E00A1
:10043000596F752066696E6420796F757273656C8B
:100440006620696E20616E6F74686572206C6F63E0
:100450006174696F6E2E00707574206F6E00546841
:100460006520646F6F7220697320616C72656164CE
:100470007920636C6F7365642E0054686520646F27
:100480006F7220697320626C6F636B65642E005914
:100490006F7520736565206E6F20646F6F722074B6
:1004A000686572652E006D69737300405320407655
:1004B00020404F2E00686974004053204056204071
:1004C0004F2E006469650040532040562100596F4B
:1004D0007520616476616E636520746F206C65764B
:1004E000656C2040752100596F75206665656C202C
:1004F0007374726F6E6765722E00596F7520666532
:10050000656C20717569636B65722E00596F75207B
:10051000686561722074686520736F756E64206F02
:10052000662064656174682E0040532064726169BE
:100530006E7320796F7572206865616C7468210034
:100540006469650040532040562100596F7520664C
:100550006F756E6420612068696464656E20646FE5
:100560006F722100626C6F636B0040532040562015
:1005700040502061747461636B2E004053204041F1
:10058000206E6F206C6F6E67657220636F6E66758C
:100590007365642E004053204041206E6F206C6FC5
:1005A0006E67657220706172616C797A65642E0085
:1005B000596F7520617265206E6F206C6F6E676574
:1005C0007220696E76697369626C652E0059657375
:1005D000004E6F00006261636B200057656C636FB3
:1005E0006D65204070746F2041726475526F67753D
:1005F000652E005069636B2075702074686520401B
:10060000693F00596F752063616E277420686F6CB5
:100610006420616E79206D6F7265206F662074684A
:100620006F73652E0041726475526F677565005077
:1006300072657373204120746F20706C61792E0095
:10064000596F752063616E277420686F6C64206138
:100650006E79206D6F7265206974656D732E005917
:100660006F75206E6F7720686176652040692E0077
:10067000476F20646F776E20746F20746865206EFA
:100680006578742064756E67656F6E3F005265749F
:1006900075726E20746F2074686520737572666160
:1006A00063653F00476F206261636B207570207443
:1006B0006865207374616972733F007B20416374C5
:1006C000696F6E73207D007B2047616D65204D65ED
:1006D0006E75207D00596F7520676F742074686592
:1006E0002040692E004D697363005363726F6C6C18
:1006F0007300506F74696F6E73004A6577656C7232
:10070000790041726D6F727300576561706F6E731F
:10071000007368696D6D6572696E6700676C6F77ED
:10072000696E670074617474657265640079656CE4
:100730006C6F776564006661646564006D6167690C
:1007400063206D617070696E670074656C65706FB1
:1007500072746174696F6E0072656D6F7665206387
:100760007572736500656E6368616E74696E6700AB
:100770006964656E7469667900626C75650067729C
:1007800065656E006F72616E676500636C656172AE
:100790000072656400696E7669736962696C697478
:1007A0007900737472656E67746800706F69736F37
:1007B0006E00636F6E667573696F6E006865616C5D
:1007C000696E670059656E646F7200726567656E69
:1007D00065726174696F6E00636F6E7365727661C6
:1007E00074696F6E00636C6172697479007370650F
:1007F000656400746F70617A00656D6572616C6428
:100800000072756279006469616D6F6E6400707268
:100810006F74656374696F6E00646578746572697E
:10082000747900737472656E67746800736565200F
:10083000696E76697369626C6500626F6F747300CC
:1008400068656C6D0061726D6F72004C6F72642030
:100850006F66204461726B6E6573730064726167CA
:100860006F6E0066616C6C656E20616E67656C0012
:100870006772696666696E0074726F6C6C00696E8F
:100880006375627573006D696D696300686F626797
:100890006F626C696E00746172616E74756C610078
:1008A0006F7263007068616E746F6D00676F626C69
:1008B000696E007A6F6D62696500726174746C654F
:1008C000736E616B6500736E616B650062617400CD
:1008D000446562756720496E666F005361766520D6
:1008E00050726F677265737300506C617965722026
:1008F000496E666F00496E76656E746F727900534B
:1009000063726F6C6C2044756E67656F6E0056691C
:100910006577204D696E696D6170005468726F77FC
:10092000204974656D0044726F70204974656D00D4
:1009300053686F6F7400557365202F205B556E5D93
:1009400065717569700057616974202F2053656166
:1009500072636800FFFF0101000001FFFF01FF015A
:1009600001FF0000090549850101090506052685E5
:10097000040406050000F66FA40FD00B5A0FB99DB2
:10098000F00B520F9F0FA0072C0FBEEFF909F101DA
:100990009D065E0E96F9880F00002994B00BB301F6
:1009A00021846009F404AA0A0606900F900F900FA4
:1009B000BEEF1EE1010204081A264985000000006E
:1009C0000A060905010410020800000000000101E8
:1009D00001010102020202020808080808141414A6
:1009E00014141F0000000000060000000000001F9B
:1009F00000000016001F000000180800001C04146E
:100A00001800000000041C000000000000010100AC
:100A100000030202010000000002030000001700B2
:100A2000030CCE390000994C000003002E02D101C6
:100A30000000C411100184101000980C2E3AF243EB
:100A4000B94AB12A877CB726AE22211FAA2AA23A28
:100A50000A00500184284A298A10A10A0000BE78A1
:100A6000BF2A2E463F3ABF46BF042E669F7CF14701
:100A7000F1019F6C1F425F7C3F783F7EBF082E7A5A
:100A8000BF68B226E1071F7E071F1F7D9B6C833E58
:100A9000B94E3F028360F1032208104241004C7AB4
:100AA0005F324C4A4C7E4C53BE00D6035F701D0033
:100AB000B0019F681F009E785E704C325E114479D1
:100AC0009E0856034F020E7A061B1E799249823AFF
:100AD000DA02C47D0000DF110404F0F0F0F0FFFF43
:100AE000FFFF0505E0E0E0E0E0FFFFFF0606C0C015
:100AF000C0C0C0C0FFFF0606E1C0CCCCC0E1FFFF14
:100B00000606E1C0C0C0C0E1FFFF0707808080800B
:100B1000808080FF0707F7E3C180C1E3F7FF070785
:100B2000E3E3808080E3E3FF0707E3E3889C88E357
:100B3000E3FF0808C3810000000081C30808E7E75D
:100B4000C30000C3E7E708080066420000426600F1
:100B500010101FF807E003C001800180E0072004A7
:100B600020042004200460060180018003C007E007
:100B70001FF810101FF807E003C00180318C300C03
:100B80000000000000000000300C318C018003C028
:100B900007E01FF80D0DBFFF1FFF0FFE07FC03F856
:100BA00001F000E001F003F807FC0FFE1FFFBFFF9C
:100BB000FFFFFFFFFFFF0C0C03FC01F800F000F04B
:100BC00000F000F000F000F000F000F001F803FC8D
:100BD000FFFFFFFFFFFFFFFF020303000000000015
:100BE00003040000000000000203000000000000F9
:100BF00002030000000000000203000000000000EB
:100C000002030000000000000203000000000000DA
:100C100002030000000000000203000000000000CA
:100C200002030000000000000203000000000000BA
:100C300002030000000000000203000000000000AA
:100C4000020300000000000002030000000000009A
:100C5000020300000000000009070207FA06F2067E
:100C6000EA06E5061C3E7F7F7F3E1C436C6F736582
:100C700020446F6F720053657474696E6773006D02
:100C80006173746572206463356261353620323079
:100C900032322D30342D3130000000FF01FF0100D1
:100CA0000036072D0724071C071107700765075832
:100CB000074A073C0791078B0784077E077907BC23
:100CC00007B207AB07A2079507ED07E507D807CBE3
:100CD00007C40706080108F907F3072C08230819B9
:100CE000080E08450840083A0800000000CC08C675
:100CF00008BA08B308AC08A408A00896088C0886AF
:100D0000087E087808700863085C084B08303132A8
:100D10003334353637383941424344454600D5F0FF
:100D20008D14A1C881CFD9F1AF2000C418DF20EB0A
:100D30001F191EB01C3C2CA11C180BEF1F120B1608
:100D40000B140B1E210E09FF08F508E908760CDBD1
:100D500008D00846093609300926091B096B0C081A
:100D60000B00020202000009040000010202000060
:100D700005240010010524010101042402060524B4
:100D80000600010705810310004009040100020A62
:100D90000000000705020240000007058302400032
:100DA000000403090412010002EF0201404123364E
:100DB0008000010102030141726475696E6F204C6D
:100DC0004C430041726475626F79000000000000BE
:100DD0000000000102040404000A000000010608EB
:100DE00000010101000203030002021100030303DA
:100DF00000030301020402020006050102050404C7
:100E0000010A060902060404010C07010207040492
:100E10000210078100050404000C07010208040405
:100E2000031408030008040403140841020904041D
:100E300003180A05020C030305200B010007060630
:100E400001180CC1020A060603181001011404045B
:100E5000083014F502180608084032006F2F1124DC
:100E60001FBECFEFDAE0DEBFCDBF11E0A0E0B1E002
:100E7000E8EEF7E602C005900D92AC32B107D9F763
:100E800029E0ACE2B1E001C01D92AD37B207E1F755
:100E900017E0CFE2D7E004C02197FE010E94EC33B7
:100EA000CE32D107C9F70E94842F0C94F2330C94F0
:100EB000000031E0A82FB0E0461708F1962F977098
:100EC000532F01C0550F9A95EAF7E62FE695E69560
:100ED000E69590E4E99FF0011124EA0FFB1FE2552B
:100EE000FE4F982F262F292B207C19F422812527AD
:100EF00022839F5F31969034A9F76F5FDDCF08950D
:100F0000FC018091AD01882311F13FB7F89482E094
:100F10008093E9002091F200822F90E018161906C4
:100F200014F481E090E0882339F0289844E6409357
:100F3000AC014091F1004083222339F02091F2006E
:100F4000211103C02BE62093E8003FBF08958FEFE7
:100F50009FEF08952FB7F89483E08093E900909174
:100F6000E800892F807295FF04C09091F20080E420
:100F7000891B2FBF08958091A40181110DC082E0CB
:100F80008093A00184E08093A1011092A3011092AC
:100F9000A20181E08093A40180EA91E00895CF93BB
:100FA000DF931F92CDB7DEB76983DC01ED91FC9131
:100FB0000280F381E02D41E050E0BE016F5F7F4F82
:100FC00009950F90DF91CF91089583E08093E90018
:100FD0008091F200882319F08AE38093E800089555
:100FE0000E94AA0790E00895CF93DF931F92CDB798
:100FF000DEB7FC018485958597FD08C02FEF3FEF94
:10100000358724870F90DF91CF910895CE01019607
:101010000E948007019719F4898190E0F3CF8FEF48
:101020009FEFF0CF0F931F93CF93DF931F92CDB716
:10103000DEB78C01FC018485958597FF0BC0CE013E
:1010400001960E948007019771F4898190E0F80170
:1010500095878487F801848595850F90DF91CF91DE
:101060001F910F9108958FEF9FEFF1CFFC018485C1
:10107000958597FD0BC09FB7F89482E08093E900B7
:101080008091F2009FBF90E0019608959FB7F89479
:1010900082E08093E9008091F2009FBF90E0089584
:1010A00040914A0150914B012091480130914901F2
:1010B00042175307B4F49091E8009570E1F39091D2
:1010C000E80092FD19C08093F10080914A0190914F
:1010D0004B0101968F739927892B19F48EEF80931A
:1010E000E80080914A0190914B01019690934B0149
:1010F00080934A0181E0089580E00895EF92FF9285
:101100000F931F93CF93DF93F82E192FE62E042F02
:1011100081E0860F880F0E94500883E00E945008EB
:10112000CF2DD12FEC0EFD2EF11CCE15DF05B9F021
:1011300007FF13C0FE0184910E945008182F80E021
:101140000E945008812321968111EFCFDF91CF912A
:101150001F910F91FF90EF9008958881EDCF81E06E
:10116000F5CFDF92EF92FF920F931F93CF93DF9310
:10117000D82E8A01EB017B01E40EF51ECE15DF05AA
:1011800059F0D7FE12C0FE0184910E9450082196AA
:101190008111F4CF0FEF1FEFC801DF91CF911F91A5
:1011A0000F91FF90EF90DF9008958881EECF0F931D
:1011B0001F93CF93DF931F92CDB7DEB782E0898371
:1011C00042E450E06FE57DE080E80E94B1080E94B3
:1011D000BB07DC0112960D911C910115110589F0D8
:1011E000D801ED91FC910280F381E02DBE016F5F8B
:1011F0007F4FC801099597FD04C0F801008511854E
:10120000ECCF89810F90DF91CF911F910F910895BD
:10121000615030F02091F100FC0120830196F8CF5D
:10122000289884E68093AC0108953FB7F8948091A4
:10123000440190914501A0914601B091470126B526
:10124000A89B05C02F3F19F00196A11DB11D3FBFFE
:10125000BA2FA92F982F8827BC01CD01620F711DCD
:10126000811D911D42E0660F771F881F991F4A95C7
:10127000D1F708958F929F92AF92BF92CF92DF9253
:10128000EF92FF926B017C010E9415094B015C01FA
:10129000C114D104E104F104B9F00E9415096819E0
:1012A00079098A099B09683E73408105910580F39D
:1012B00021E0C21AD108E108F10888EE880E83E027
:1012C000981EA11CB11CE4CFFF90EF90DF90CF904F
:1012D000BF90AF909F908F90089565E070E080E0A0
:1012E00090E00C943A098F929F92AF92BF92CF9266
:1012F000DF92EF92FF920F931F93CF93DF936C01D6
:101300007B018A0180910B01882309F45CC08091E4
:10131000AD01882309F457C080914F0180FF05C0BB
:101320008091E00082608093E000E801B12C8AEFB8
:10133000A82E93E0892E2AE3922E209711F4BB2049
:10134000D9F10E94AA0781110AC0AA94AA20D9F152
:1013500061E070E080E090E00E943A09EECF8C17E7
:101360001D0611F00CF08C2F9FB7F8948092E900C5
:101370002091E80025FD02C09FBFDFCF282F30E07D
:10138000C21BD30BF701815020F041914093F10033
:10139000FACFE20EF31EBB2021F09092E800B12CB0
:1013A000EBCF8091E80085FDE7CF9092E800BB2469
:1013B000B394209709F3F3CF5D9884E680934E01B0
:1013C000101611063CF081E090E0F60193838283D1
:1013D00010E000E0C801DF91CF911F910F91FF90C5
:1013E000EF90DF90CF90BF90AF909F908F90089537
:1013F0000F931F93CF93DF93809164008E7F809330
:10140000640080917A00806480937A0080917A00F1
:1014100086FDFCCFC0917800D09179000E9415091B
:10142000AB01BC0180916400816080936400CE01B7
:10143000B0E0A0E0DC01992788278C019D01040F12
:10144000151F261F371FC901B801DF91CF911F91CA
:101450000F9108958FB18095807F669B88601C9B5B
:10146000846008958EBD00000DB407FEFDCF089581
:10147000CF93C82F5C9881E20E94320A8C2F0E9481
:10148000320A8FE38C0F0E94320A5C9AE0EBF1E0A3
:1014900081E0A0E0B4E000800EBC8111012C119726
:1014A000A0FDFDCF0192B9F70DB4CF91089580E46E
:1014B0000C94380A80E00C94380A90E0880F991F49
:1014C000FC01E854F94F2181206421838081982F09
:1014D0009F709330F9F018F4923031F008959730FE
:1014E00041F1983059F1089582958F70E82FF0E01E
:1014F00033E0F695E7953A95E1F7EF52F74F8770AD
:1015000021E030E001C0220F8A95EAF78081822B2A
:101510008083089582958F7090E00596FC0123E00A
:10152000F695E7952A95E1F7EF52F74F87709927DF
:10153000E7CF82958F7090E00A96F0CF82958F70FA
:1015400090E00E96EBCFFB0124916F5F7F4F22233B
:1015500021F0FC012193CF01F6CF08951F93CF9383
:10156000DF93FC01E90161110FC0BA010E94A30AD7
:10157000209751F120E2FC012083BE010196DF910A
:10158000CF911F910C94A30A81E0860F6AE00E941C
:10159000CC33882319F0805D80833196905D9083F1
:1015A00010E21183BA01CF0102960E94A30AFC0146
:1015B000209731F01083BE0101960E94A30AFC011E
:1015C000CF01019623E72083DF91CF911F910895EA
:1015D000CF93DF9381110BC088E0EFEBF8E0DB01E4
:1015E00001900D928A95E1F7DF91CF91089525E062
:1015F000829FF0011124E450F94F808128E0829FFE
:10160000C00111248553924FEB0130E020E0FC0132
:10161000E20FF31FE491E9932F5F3F4F283031052C
:10162000B1F7E2CF80E0089580E0089580E008956A
:10163000FC01108281E008958034C0F46032B0F47F
:10164000E62FE695E695E69590E4E99FF0011124F2
:10165000E80FF11DE055FB4F677021E030E001C05D
:10166000220F6A95EAF78081822B808308959B017F
:1016700043E0369527954A95E1F7820F931FFC01C9
:10168000808190E06770772702C0959587956A956D
:10169000E2F781700895E62FE695E695E69590E4E9
:1016A000E99FF0011124E80FF11DE055FC4F677030
:1016B00081E090E001C0880F6A95EAF780959081FB
:1016C0008923808308950F931F93CF93DF9310E0B6
:1016D00000E0C1E0D0E08091BD088017110661F103
:1016E0005CF19801220F331FF901E358F74F908105
:1016F000692F6F772458374FF9012081822F8F7718
:1017000027FF05C00E944B0B0F5F1F4FE4CF66956C
:101710006695669520E4629FF0011124E80FF11DA3
:10172000E055FC4F97709E0101C0220F9A95EAF791
:101730008081822B8083E8CFDF91CF911F910F9121
:101740000895FC019281E42F97FF19C0EE0F462FF8
:10175000469546954695E40FF0E09F7782E2989F84
:10176000E00DF11D1124EE5AF44F849190E0677062
:1017700002C0959587956A95E2F781700895F0E02B
:101780008AE0989FE00DF11D1124E652F54F8491F7
:1017900090E0EECFDC011296EC91E7FF09C0EF7705
:1017A000B2E2EB9FF0011124EF5AF44F84910895B7
:1017B0008AE0E89FF0011124E752F54FF7CFDC01F2
:1017C0001296EC91E7FF09C0EF77B2E2EB9FF001D0
:1017D0001124E05BF44F849108958AE0E89FF001C2
:1017E0001124E852F54FF7CFFF920F931F93CF9339
:1017F000DF93EC01042F8881162F181BF980CE018E
:101800000E94DF0B181738F080E0DF91CF911F9115
:101810000F91FF9008950F19CE010E94CA0B08176F
:1018200098F7402F612FCE010E94A10B91E08927EC
:10183000ECCF680F791FFC011192CF01E617F70773
:10184000D1F70895E82FF0E09F01220F331FA9017F
:1018500042555E4FDA01A65FBA4F9C919F7095305A
:1018600060F0EE0FFF1FE854F94F8F31E8F422814A
:101870003381219331938F5FF8CF455F5A4FDA015F
:101880009C919F7371F3F901E155FE4FDF01A65F53
:10189000BA4F8C91815C982F9F73E75FFA4F8181DB
:1018A000807C892B818308958091F606807F8093C8
:1018B000F6060895ECEFF6E030E020E09081992301
:1018C00079F0938198130CC09481961309C045E078
:1018D000429FC001439F900D11248450994F089559
:1018E0002F5F3F4F35962032310541F790E080E081
:1018F0000895F091BD0830E020E090E070E02F17EF
:10190000E0F4A901440F551FDA01A458B74FEC9138
:10191000EF77E817190671F44358574FDA014C91E5
:101920004F774617170631F4C901880F991F84585D
:10193000974F08952F5F3F4FE2CF90E080E00895EA
:101940008034C8F46032B8F4962F969596959695A3
:1019500040E4949F9001112420553B4F280F311DE6
:10196000F901808190E0677002C0959587956A952E
:10197000E2F78170089580E008958034C8F4603201
:10198000B8F4962F96959695969540E4949F90017D
:10199000112420553C4F280F311DF901808190E022
:1019A000677002C0959587956A95E2F781700895F2
:1019B00081E008956F927F928F929F92AF92BF9233
:1019C000CF92DF92EF92FF920F931F93CF93DF930B
:1019D000D82FC62F742E622E88248394841730F05B
:1019E00081E0D41301C080E0882E8194EE24E3943A
:1019F000C61530F081E0C61101C080E0E82EE19408
:101A00001D2F171917FD11950C2F061907FD0195AC
:101A1000902E9694F12EF694C02ED12CA12EB12C9E
:101A2000D71102C0C615D9F06C2F8D2F0E94BD0CA6
:101A3000811125C0910EF00E892D092C000C990BF7
:101A40008C159D0514F0D80D901A8F2D0F2C000CBD
:101A5000990B8A159B0524F3CE0DF11AE1CF81E095
:101A6000DF91CF911F910F91FF90EF90DF90CF907A
:101A7000BF90AF909F908F907F906F90089580E07F
:101A8000EFCF6F927F928F929F92AF92BF92CF9241
:101A9000DF92EF92FF920F931F93CF93DF93F0901B
:101AA000FF06E090000724E0CBEFCE0D2E1508F0E6
:101AB000C0E034E06BEFB62EBF0C3F1508F0B12C40
:101AC00085E08F0D55E0C52ECE0C9FE19C1510F4DE
:101AD0004FE1C42ED82E2FE3281710F43FE3D32E66
:101AE000CC1650F10C2F0E1907FF02C00E2D0C1B47
:101AF000009F80011124DB2DDD16E0F08D2F8F1962
:101B000087FF02C08F2D8D1B9801889F200D311DEE
:101B100011242B31310564F42C2F4D2F6E2D8F2D78
:101B20000E94DA0C882321F06C2F8D2F0E941C0B51
:101B3000DF5FE2CFCF5FD4CF10E023E0922E882486
:101B400083948091BC08181708F059C0E12EF12C3D
:101B50008091BE0830E1839FC0011124B7018054F9
:101B60009A4F0E94370B811148C0199DC001112462
:101B70009C01245E374F6901E701CC0FDD1FCE0DBC
:101B8000DF1DC45ED74FB880C9010E94DF0BB80EBD
:101B9000A980C6010E94CA0BA80E098193E0F694A1
:101BA000E7949A95E1F7812F8770782C01C0770C24
:101BB0008A95EAF70A1508F568806B14E0F4602F3F
:101BC000862D0E94A00C8823A1F0402F662DC6010F
:101BD0000E94F40B882369F0E091BE0830E1E39F96
:101BE000F0011124E054FA4FEE0DFF1D808187298A
:101BF00080836394E2CF0F5FDDCF1F5FA2CFDF91C1
:101C0000CF911F910F91FF90EF90DF90CF90BF90F9
:101C1000AF909F908F907F906F900895482F262FC0
:101C20008091FF0660910007382F341BE62FE21BDE
:101C3000EE02F00111243302E00DF11D11247B9717
:101C400014F40C94DA0C80E00895282F30E095E02D
:101C5000899FF0011124E350F94F808184FF0EC069
:101C6000E091CF08F0E0EE0FFF1FE854F94F8081BC
:101C7000982F9F70973071F4807F61F485E0829F88
:101C8000F001839FF00D1124E450F94F64818381AA
:101C90000C940E0E80E008958F929F92AF92BF92A7
:101CA000CF92DF92EF92FF920F931F93CF93DF9328
:101CB000E62EC42F0091BC08202F30E0F901EE0F72
:101CC000FF1FE20FF31FE45EF74F6083C18382833F
:101CD0002FE3261770F480E0DF91CF911F910F91D1
:101CE000FF90EF90DF90CF90BF90AF909F908F903C
:101CF0000895C03280F783E0089F80011124045EBC
:101D0000174FC8010E94DF0BBE2CB80EC8010E94FD
:101D1000CA0B9FE39B15F8F2FC2EF80EEFE1EF15CE
:101D2000D0F2CF1510F5DE2DDB15E8F44C2F6D2F1A
:101D3000C8010E94F40B8823A1F0DD24DA94CC249E
:101D4000CA94AC2EAD0C6A2D8C2D8D0F0E94BD0C4B
:101D5000882309F2C394F2E0CF12F5CFD394DF12B7
:101D6000EECFDF5FE1CFCF5FDCCF0091BC08E02E8C
:101D7000F12C8091BE0820E1829FC0011124B7019F
:101D800080549A4F0E94370B982E83E0089F800161
:101D90001124045E174FE701CC0FDD1FCE0DDF1DB0
:101DA000C45ED74FD880C8010E94DF0BD80EC9800F
:101DB000C8010E94CA0BC80EF980F3945E01EE249C
:101DC000EA94EF0CEC1478F5F501D0818EEF882EB3
:101DD0008F0CDD1510F0F394F2CF4E2D6D2FC8014E
:101DE0000E94F40BC1E0CD0F8823D9F06E2D8D2F0A
:101DF0000E944B0B9920A9F06E2D8D2F0E941C0B79
:101E00006E2D8FEF8D0F0E941C0B6E2D8C2F0E945C
:101E10001C0B682D8D2F0E941C0B6F2D8D2F0E9487
:101E20001C0BDC2FD6CF8091BC088F5F8093BC0841
:101E300081E052CF803440F5603230F5262F269570
:101E40002695269590E4299F90011124820F932FC7
:101E5000911DFC01E055FB4F208130E0209530952D
:101E600080559C4FFC018081282B677081E090E0B9
:101E700002C0880F991F6A95E2F72823392381E071
:101E8000232B19F480E0089581E00895EEEAF1E053
:101E9000808191819C013695322F22273795279595
:101EA00028273927C901892F992786952827392777
:101EB000922F882782279327918380830895FF920A
:101EC0000F931F93CF93DF93082F162F0E944B0B76
:101ED0000E94460F843CD8F5C091BD08C032B8F5C9
:101EE000612F802F0E94790C892B89F5D0E00E9408
:101EF000460FF82E6091BD0870E08091BE0820E189
:101F0000829FC00111248C539A4F0E94370BCC0F33
:101F1000DD1F882311F1612F802F0E941C0BFE0111
:101F2000E458F74F808180688083FE01E458F74FC2
:101F30000F7780818078082B00831F7781818078DC
:101F4000182B11838091BD088F5F8093BD08DF91AE
:101F5000CF911F910F91FF900895FE01E155FE4F23
:101F600091E08FE28F1508F490E0E353F94F8181FF
:101F700090FB87F98183D9CFCF93C82F0E94460F5A
:101F80008C1710F08C1BFCCFCF910895CF92DF926D
:101F9000EF92FF920F931F93CF93DF937C018B01FE
:101FA000C12CF4E0DF2E80E40E94BC0FD82F80E229
:101FB0000E94BC0FC82F682F8D2F0E94BD0C81116D
:101FC00010C08091B005D81304C08091B105C81726
:101FD00041F08091B205D81312C08091B305C813A7
:101FE0000EC0E1E0CE1AD108F1F680E0DF91CF918A
:101FF0001F910F91FF90EF90DF90CF900895ECEF3D
:10200000F6E08081882331F08381D81303C0848176
:10201000C81739F33596B7E0EC39FB0791F7ECE9CF
:10202000F7E080818F7031F08281D81303C0838103
:10203000C817B9F2349688E0EC31F80791F7F091BF
:10204000BD0890E080E04D2F50E06C2F70E08F17BE
:10205000B0F49C01220F331FD901A458B74FEC9163
:10206000EF77E417150649F42358374FD9012C911F
:102070002F772617170609F4B4CF0196E8CFD701BA
:10208000DC93F801C08381E0B1CF0F931F93CF930E
:10209000DF93EC018B01B801CE010E94C60F8823AB
:1020A000D1F3DF91CF911F910F9108950F931F935B
:1020B000CF93DF938B01C82FD0E08091BE0820E141
:1020C000829FC0011124BE0188549A4F0E94370B91
:1020D000811110C0CC0FDD1FCC0FDD1FBE0161567A
:1020E000784FCE018256984F0E944510C456D84F63
:1020F00019830883DF91CF911F910F910895CF929B
:10210000DF92EF92FF921F93CF93DF9300D01F9245
:10211000CDB7DEB7182F6A01790119821A821B82A6
:102120006B83CE0101960E94DF0B0E94BC0F898356
:10213000CE0101960E94CA0B0E94BC0F8A83123006
:1021400029F1133029F11130D1F01A824A816981C5
:10215000CE0101960E94A10B8111E3CF8981F60186
:1021600080838A81F70180830F900F900F90DF9119
:10217000CF911F91FF90EF90DF90CF900895CE0107
:1021800001960E94CA0B81508A83E0CF1982DECF6C
:10219000CE0101960E94DF0B81508983D7CF0E9428
:1021A000460F803428F484E00E94BC0F80580895C4
:1021B0008CE00C94BC0FEF92FF920F931F93CF9380
:1021C000DF937C01FC01C0E0C193CF5F6C13FCCFB7
:1021D000D0E00D2F10E083E090E0C43011F084E0F7
:1021E00090E00817190784F48C2F8D1B0E94BC0FF8
:1021F000D701A80FB11DF701E00FF11F80819C915D
:1022000090838C93DF5FE5CFDF91CF911F910F918A
:10221000FF90EF900895DC0181E06623E9F0FD0175
:1022200094919923F9F011969032A1F0E92FEE0FD5
:10223000FF0BE452F64F25913491932F9695969586
:102240009F7161F495E0369527959A95E1F72F7186
:1022500092E029F491E003C09C91E3CF93E09F5F6B
:10226000890FDBCF0895AF92BF92CF92DF92EF92AA
:10227000FF920F931F93CF93DF9300D01F92CDB7A0
:10228000DEB7E42FEE0FFF0BE452F64F4591549169
:10229000942F9F7199839A01F5E036952795FA95C9
:1022A000E1F72F712A83952F969596959F719B83C1
:1022B00073E0911104C072E0211101C071E0DE01F0
:1022C0001196E72EE80E41E050E0ED91962F082F91
:1022D00010E0EE2321F1AE2EB12CE0FF1AC0E92F61
:1022E000E82BE07CB1F4E92FE695E695E69520E44D
:1022F000E29FF0011124E00FF11FE255FE4F292F5C
:1023000027706A0101C0CC0C2A95EAF7F280FC2400
:10231000F2829F5F950135952795E22FDACF8F5F87
:102320008E11D3CF872F0F900F900F90DF91CF9109
:102330001F910F91FF90EF90DF90CF90BF90AF90E3
:102340000895FF920F931F93CF93DF93C82FD62F3B
:10235000F22E8A01F801FF2049F0449140327CF0CE
:10236000403231F4CE5F0F5F1F4FF4CF4081F6CF84
:102370006D2F8C2F0E943311CF5FC80FF4CFDF91E8
:10238000CF911F910F91FF900895EF92FF920F93BD
:102390001F93CF93DF93C0E00DE1D1E080916709F7
:1023A000C81730F58C2F90E09C012951374F7901E7
:1023B00060E0C9010E940B11182F2D2F280F332721
:1023C000331F2134310514F00A5FD1E020E0A7016A
:1023D000602F8D2F0E94A1111E5FD10FEC2FCF5FB8
:1023E000F0E0E951F74F8081EC2F8111F8CFD6CF83
:1023F000DF91CF911F910F91FF90EF900895809101
:10240000C5089091CA08981708F080E00895CF9306
:10241000DF9381114DC08091C4082091CF082032F4
:10242000D0F430E0220F331FA90142555E4FFA016C
:10243000E65FFA4F9081907F903369F42754394FCB
:10244000E90198819F739F5F455F5A4FFA01208190
:1024500027FF2CC0891BACECB8E06FEC78E05EEF96
:102460002D912032D8F430E0220F331FF901E854C7
:10247000F94FE181E901C854D94F48814F70275481
:10248000394FE90198819F73E7FF03C0D52FD91B0E
:102490009D2FECE0E80FE41B892F8E0F6A177B0756
:1024A000F9F687FD80E0DF91CF910895890FD3CFB2
:1024B00025E0829FF0011124E450F94FE08188E08B
:1024C000E89FF0011124E053F24F8491EACF81118B
:1024D00025C08091C2082091CF082032D0F430E08E
:1024E000220F331FA90142555E4FFA01E65FFA4FF2
:1024F0009081907F903269F42754394FF90190818F
:102500009F739F5F455F5A4FFA01208127FF04C0E8
:10251000891B87FD80E00895890FFBCF95E0899F97
:10252000F0011124E450F94FE08188E0E89FF001C8
:102530001124E253F24F8491ECCF282F30E0E09148
:10254000C108882381F095E0929FF001939FF00DE0
:102550001124E450F94FE08198E0E99FF001112443
:10256000E353F24FE49195E0929FD001939FB00D19
:102570001124A350B94F9C9192FF04C0F0E0319612
:10258000F595E79581111EC08091CF088032D0F477
:1025900090E0880F991F9C0122553E4FD901A65FFC
:1025A000BA4F4C91407F403169F48754994FDC0118
:1025B0008C918F738F5F255F3A4FD9019C9197FF64
:1025C00005C0E81BE7FDE0E08E2F0895E80FFACF85
:1025D000811126C08091C3082091D0082032D0F408
:1025E00030E0220F331FA90142555E4FFA01E65F2A
:1025F000FA4F9081907F71F42754394FF9019081FF
:102600009F7396959F5F455F5A4FFA01208127FF80
:1026100005C0891B18160CF081E00895890FFACFC8
:1026200095E0899FF0011124E450F94FE08188E0A2
:10263000E89FF0011124E153F24F8491EBCFFF9218
:102640000F931F93CF93DF93D82FF62E10E000E067
:1026500080E0C82FCC0FF801E45AF64F8491F801BE
:10266000EC5AF64F64916F0D8D0F0E941A0F8C2B50
:102670000F5F1F4F0830110561F7DF91CF911F9158
:102680000F91FF900895982F962B907CB9F4E62F28
:10269000E695E695E69590E4E99FF0011124E80FB0
:1026A000F11DE255FE4F677081E090E001C0880F98
:1026B0006A95EAF780959281892382830895BF9273
:1026C000CF92DF92EF92FF920F931F93CF93DF93FE
:1026D000D62EC42E7C01C0E0BD2CBC0EF70181912A
:1026E0007F01DC2D882369F0082F10E080FF04C0F3
:1026F0006D2F8B2D0E944313C80195958795DF5F41
:10270000F1CFCF5FC43041F7DF91CF911F910F918F
:10271000FF90EF90DF90CF90BF900895FF920F93BE
:102720001F93CF93DF93182F062FC42FF22EFC1682
:1027300058F0D12F0D1730F06C2F8D2F0E944313BE
:10274000DF5FF8CFCF5FF3CFDF91CF911F910F9174
:10275000FF900895982F962B907CB1F4E62FE69584
:10276000E695E69590E4E99FF0011124E80FF11D4C
:10277000E255FE4F677021E030E001C0220F6A95FC
:10278000EAF78281822B82830895BF92CF92DF92F3
:10279000EF92FF920F931F93CF93DF93B62ED42E19
:1027A0008C01C0E0CB2CCC0EF8018491DD2D882368
:1027B00069F0E82EF12C80FF04C06D2F8C2D0E9453
:1027C000AA13C70195958795DF5FF1CFF80135967C
:1027D000E491DD2DEE2369F0EE2EF12CE0FF04C034
:1027E0006D2F8C2D0E944313F701F595E795DF5F60
:1027F000F1CFCF5F0F5F1F4FC530A1F6DF91CF91B3
:102800001F910F91FF90EF90DF90CF90BF900895B0
:10281000CF92DF92EF92FF920F931F93CF93DF93AC
:10282000C42F022F6C01D42FD60FF60181916F01B6
:10283000102F882369F0E82EF12C80FF04C0612F4F
:102840008C2F0E94AA13C701959587951F5FF1CF22
:10285000CF5FCD13EACFDF91CF911F910F91FF9002
:10286000EF90DF90CF900895DF92EF92FF920F9359
:102870001F93CF93DF9300D000D0CDB7DEB7162FD4
:10288000042F292F22952F702983292F2F702A8317
:102890009C0194E0369527959A95E1F72F702B834C
:1028A0008F708C83FF24FA94F40EDD24DA94D60E14
:1028B0004F2D6D2DCE0101960E945F134F2D612F7C
:1028C000CE0101960E945F13EE24E394E10E4F2D9A
:1028D0006E2DCE0101960E945F13402F6D2DCE010B
:1028E00001960E945F13402F6E2DCE0101960E942B
:1028F0005F13202F412F64E0CE0101960E9408143F
:102900000F900F900F900F90DF91CF911F910F912B
:10291000FF90EF90DF900895FC0125913491942F62
:10292000990F990F490F962F990F990F690FC901A8
:102930000C9434141F93CF93DF93D82FC62F142FEA
:102940001C1730F06C2F8D2F0E94AA13CF5FF8CF89
:10295000DF91CF911F9108951F93CF93DF93C82FDD
:10296000162FD42F1C1730F06D2F8C2F0E94AA1316
:10297000CF5FF8CFDF91CF911F9108952F923F92B3
:102980004F925F926F927F928F929F92AF92BF927F
:10299000CF92DF92EF92FF920F931F93CF93DF932B
:1029A00000D000D01F92CDB7DEB7482E10E021E056
:1029B000298301E01A8269818A81810F0E94AA130A
:1029C0004A814E5F4A834034B1F789818E5F8983A3
:1029D0001027813479F791E09D83712C1C8237E6B2
:1029E000E32E39E0F32E4BE6C42E49E0D42E5FE609
:1029F000A52E59E0B52E63E7862E69E0962EEC8170
:102A0000EE0FE983FD81FF5FFA83612C272D217092
:102A10002B83142D160D562C550C6C81812F0E9482
:102A20001A0F882309F497C06C81812F0E94BD0C76
:102A3000882309F43EC06C81812F0E941F13382E19
:102A40004FEF841709F435C02A81498162E0650D92
:102A5000852D0E948E1322242394250C6D81822DB6
:102A60000E94AA1310E000E0F701E01BF10B849133
:102A7000F601E01BF10B9491E32DE823E91304C068
:102A80006981822D0E94AA13F501E01BF10B84914C
:102A9000F401E01BF10B9491E32DE823E91304C04A
:102AA0006D81852D0E94AA130F5F1F4F0430110501
:102AB000D9F6639480E26812ACCF9C819F5F9C83BF
:102AC0007394E72DE1707E2EFD81FE5FFD839032D1
:102AD00009F095CFF12C042D8091BD08F81608F06F
:102AE00040C08F2D90E0880F991F9C0122553E4FCA
:102AF000F901E153F94F408147FD2BC02253394F73
:102B0000F901F081F983F7FD24C08358974FFC0148
:102B1000F081FF77FA8329812F7729836F2F822F06
:102B20000E94A00C8823A9F04981401B440F4983CF
:102B30008A81880F8A83282F2E5F642F6E5F482F2B
:102B400089810E948E136A816F5F89818F5F0E94E5
:102B5000AA13F394C1CF6D818B81850D0E9443131D
:102B6000A8CF9091B1059A83E091B005E983692FD0
:102B70008E2F0E94A00C882391F0F981F419FF0F89
:102B8000F9832A81220F2A83422F4F5F6F2F6F5FB5
:102B90008F2F0E94AC146A8189810E94AA134091F0
:102BA000B3054A838091B2058983642F0E94A00CEB
:102BB000882349F189818419880F9A81990F998313
:102BC000E1E0E80FEA83492F4F5F6E2F0E94AC14BB
:102BD00069818A810F900F900F900F900F90DF9175
:102BE000CF911F910F91FF90EF90DF90CF90BF900A
:102BF000AF909F908F907F906F905F904F903F909D
:102C00002F900C94AA130F900F900F900F900F908D
:102C1000DF91CF911F910F91FF90EF90DF90CF90B8
:102C2000BF90AF909F908F907F906F905F904F90EC
:102C30003F902F9008950F931F93CF93DF93082F0A
:102C4000C62FD42F122F0E94AC14412F6C2F802F2F
:102C50000E94AC14412F6D2F802F0E949A14412F97
:102C60006D2F8C2FDF91CF911F910F910C949A149F
:102C70004F925F926F927F928F929F92AF92BF928C
:102C8000CF92DF92EF92FF920F931F93CF93DF9338
:102C9000EAEFFE2EF80EFAEFEF2EE60EA9EF9A2ECF
:102CA000960E1E2DD0E066246394BAE07B2EA12EF2
:102CB000A694A694A69480E4A89E50011124212FE6
:102CC0002770562C01C0550C2A95EAF70F2DC0E04D
:102CD00088248A948D0EF501E055FB4F5F01003486
:102CE00008F093C0103208F090C0F501E00FF11D1C
:102CF0008081852109F089C04D2F6C2F84EC99E0EB
:102D00000E94C5130F5FCB5FC13449F71F5FDB5FC4
:102D10009394D13461F6A12C8091BD08A81608F0D7
:102D2000EAC0CA2DD0E0CC0FDD1FCE0182559E4FE8
:102D3000FC01E153F94F208127FD65C08253994F73
:102D4000FC018081D82EE894D7F89D2C9F18FCE0D8
:102D5000F91508F458C0FE01E358F74F00810F77CA
:102D6000802E8E188CE0881508F44DC0602F8D2DB4
:102D70000E94A00C882309F446C0B92CBB0CBB0CE4
:102D8000B90C182D110F110F180D61E0600F8D2D6A
:102D90000E941A0F8111ADC08091D60824E0210F46
:102DA000280F412F64E06B0D8FEF8B0D0E948E1367
:102DB000FE01E458F74F6F01808187FB882780F977
:102DC00090E0880F991F482D692D8055964F0E94DD
:102DD0008C14C358D74F68816F77F60180818F7745
:102DE00081500E94BD0C882371F0C3E0C10F4C2FAD
:102DF000612F8EEF8B0D0E949A144C2F612F85E06E
:102E00008B0D0E949A14A39487CF612F802F0E946C
:102E10001F13482E612F802F0E941A0F811142C06C
:102E2000612F802F0E940E0E882361F061E0809157
:102E3000D608833009F060E06E5F6D0F82E08C0F82
:102E40000E94AA13692D802F0E94BD0C882309F4CB
:102E500059CF8FEF8C0F47FE8C2F46FE15C074E0C4
:102E6000472E4C0ED82EDD1CDD24DD1CD80EC12CC7
:102E70006091D608C61658F4482D4C0D642D8D2D42
:102E80000E94AC14C394F4CF63E0462EEACFC82C62
:102E9000C60E4D1408F436CF6C2D8D2D0E944313B1
:102EA000D394F7CF4D2F6C2F84EC99E00E94C5137B
:102EB000D12CC12CF601EC54F64F8491F601E45468
:102EC000F64F9491E42DE823E9130BC07C9CC001DC
:102ED0007D9C900D11244D2F6C2F8253964F0E9494
:102EE000C513FFEFCF1ADF0A88E0C816D10411F727
:102EF00009CF80E053CF8091B005C82FCF19CD30D6
:102F0000B0F46091B105D62FDE19DD3080F40E9457
:102F1000A00C882361F04D2F440F440F4D0F6C2FF0
:102F2000660F660F6C0F88EC9EEF0E943414809140
:102F3000B205C82FCF19CD30B0F46091B305D62FAC
:102F4000DE19DD3080F40E94A00C882361F04D2F43
:102F5000440F440F4D0F6C2F660F660F6C0F8FEEF2
:102F60009CE80E9434140CE917E0F801C081CF708E
:102F7000C9F08281D82FDF19DD30A0F46381D62E0D
:102F8000DE18FCE0FD1570F00E94A00C882351F0C3
:102F90008C2F90E0880F991F4D2D6D2F8856964FDE
:102FA0000E948C140C5F1F4F88E00C311807E9F663
:102FB000CCEFD6E018811123F1F0113019F089819E
:102FC00084FD19C08B81082F0F190D30A0F46C817E
:102FD000D62EDE189CE09D1570F00E940E0E882300
:102FE00051F0812F90E0880F991F4D2D602F8C5844
:102FF000964F0E948C142596E7E0CC39DE07D1F677
:103000008091B2058F3F69F52AE247E166E389E0E6
:103010000E948E1328E248E164E38AE00E941B16B6
:1030200049E265E38BE00E94AC1449E269E185E383
:103030000E949A144CEA50E021E06EE181E1DF91B8
:10304000CF911F910F91FF90EF90DF90CF90BF90A5
:10305000AF909F908F907F906F905F904F900C9467
:10306000A111DF91CF911F910F91FF90EF90DF9011
:10307000CF90BF90AF909F908F907F906F905F9018
:103080004F9008950F931F93CF93DF93D1E010E5F6
:1030900008E28091600083FF07C0F89487E780937F
:1030A000000880930108FFCFC0913E01CC2359F066
:1030B0008FEF8C0F8C2380933E018C27DF91CF9173
:1030C0001F910F9108952FB7F8948091400190912E
:1030D0004101A0914201B09143012FBF2FB7F89455
:1030E0004091400150914101609142017091430132
:1030F0002FBF481B590B4430510520F4D3BF88958E
:1031000013BEECCF0E942A0A90913D018927E5E386
:10311000F1E030E020E041E0542F582369F1508184
:103120005F5F533010F55083440F2F5F3F4F319650
:103130002830310589F7C927C0933D01EDE2F1E060
:1031400081E02C2F282321F020812150B9F0208309
:10315000880F319621E0E533F20799F790932C011F
:103160009095C923C0933E0194CF1082C42BD901FE
:10317000A35DBE4F1C93D8CF1082D6CF0083282FDB
:1031800020952F609223E4CF80E00E94BE140E941D
:103190005A0A80E20E94BE140E94570A0E944218F6
:1031A0008430E1F708950F931F93CF93DF9304EBDF
:1031B00015E0CAECD0E0CE010E94B633F80181934D
:1031C0008F012196CD3FF3E0DF07A9F7DF91CF9183
:1031D0001F910F9108950F931F93CF93DF930AECE4
:1031E00010E0CFEFDFEFC8010E94B6339D2F982784
:1031F000892F82958F708927282F30E09C2FA90175
:10320000542F44275295507F84279527E90175E074
:10321000CC0FDD1F7A95E1F7C827D9270F5F1F4F25
:103220000E3F83E01807F9F6CE01DF91CF911F9191
:103230000F910895CF93DF93CDB7DEB7AE01475F0F
:103240005F4F6F8178858D819E810E942A19DF9161
:10325000CF9108952F923F924F925F926F927F92FB
:103260008F929F92AF92BF92CF92DF92EF92FF9296
:103270000F931F93CF93DF934C015B01DA01EC01B5
:1032800015E0E12E03E7302E85E6582E9AE0792EE0
:10329000A5014F5F5F4FF5012491203449F0CE0125
:1032A00001962883222309F4B9C26D015A0113C083
:1032B000F2E0AF0EB11CFA011491133609F46EC09E
:1032C00080F5113558F41F3408F0A4C0113409F406
:1032D000F1C06D01CE01D601EC01DACF1335C8F390
:1032E000153508F497C01635A1F7EC91EE9DF00165
:1032F0001124E450F94F00816D0184E0C80ED11C07
:1033000012966D917C91CE010E94A30A013019F3AF
:10331000163719F4FC0150820196FC0130820196A7
:10332000DACF133709F45FC080F5193609F4D5C038
:10333000103709F465C0143661F66D0192E0C90ECC
:10334000D11C2C91143631F48DE227FF8BE2888357
:103350002F772196822F672D0E94CC33392F882317
:1033600079F00E94CC33492F822F64E60E94CC333F
:10337000882319F0805D88832196405D48832196DB
:10338000CE010196305D3883A6CF163709F4ADCF54
:10339000183769F0153709F09CCFCFCF6D01F2E0F7
:1033A000CF0ED11CCE0101962C91288394CF6D01B4
:1033B00022E0C20ED11C8D919C91FC01B4E0F595E8
:1033C000E795BA95E1F7EF70FF27E35FF24FE491DD
:1033D000E883FC01EF70FF27E35FF24FE491CE0139
:1033E0000296E98378CF6D0182E0C80ED11CED9181
:1033F000FC91CE012191222309F46DCF2993F9CFBD
:103400006D0192E0C90ED11C6D917C91CE010E949C
:10341000A30A61CF6D01E2E0CE0ED11C0C91F12F19
:10342000F170FF2E011112C089E513350CF489E704
:1034300088838FE6898385E78A83CE01FF2011F098
:10344000039649CF049622E72B8345CF802F0E9415
:10345000250E882319F184E513350CF484E70E9DBD
:10346000F0011124E450F94FE081888328E6298394
:103470005A82CE010496F0E2FB83F0E0EE0FFF1FCC
:10348000E751F34F659174910E94A30AF11023CF85
:1034900027E2FC012083318202961DCF93E513358C
:1034A0000CF493E79E012F5F3F4F988367EB70E02A
:1034B000C901EACF6D01F2E0CF0ED11CEC91EE9D77
:1034C000F0011124E450F94F8081813019F460EC4F
:1034D00070E09CCF64EC70E099CF6D0122E0C20EE9
:1034E000D11C0C9111964C90102F1F70602E62947D
:1034F000EFE06E22842D8F73F82E082F7DE2272EA9
:1035000047FC02C06BE2262E842D807C803C31F487
:1035100067EC70E0CE010E94A30AEC01EFEFE10F2F
:10352000EB3008F0D7CEF0E0E856F54E0C94EC33D3
:10353000A31AA11BD81BAC1AAF1AB61AE31A461B62
:10354000B91AB91AB91A4FEC50E030E020E06F2DEB
:10355000CE010E94AE0A08C04BED50E0F6CF61EEFE
:1035600070E0CE010E94A30AEC01B4CE65EE70E0DB
:10357000F8CF812F8950990BFC01EE0FFF1FED5101
:10358000F34F65917491CE010E94A30AEC0146FEAF
:10359000A1CE47FE02C00EEF0F192BEE30E08CE0FB
:1035A000811B080F1F920F933F932F93DF93CF93AD
:1035B0000E941A19C80FD11D0F900F900F900F90F5
:1035C0000F900F9087CE062D10E09801265F3F4F99
:1035D000F90143E0F695E7954A95E1F7EF52F74F89
:1035E000808190E02770332702C0959587952A95B2
:1035F000E2F780FF3AC065EF70E0CE010E94A30AB7
:10360000F801EE0FFF1FE552F34F659174910E9490
:10361000A30AEC0146FE5ECE8EEF90E0F394F2E05A
:103620006F16E9F023E06216E9F0E1E06E1202C0E5
:103630008FEF90E01F92FF921F922F929F938F9394
:10364000DF93CF930E941A19C80FD11D8DB79EB773
:1036500008960FB6F8949EBF0FBE8DBF3BCE8BE091
:1036600091E0E8CF87E191E0E5CFF801EC58F64F23
:10367000E081F0E0EE0FFF1FED52F34F6591749182
:10368000CE010E94A30A6FE171E06CCF062D10E01D
:103690009801225F3F4FF90183E0F695E7958A95FF
:1036A000E1F7EF52F74F808190E02770332702C097
:1036B000959587952A95E2F780FF32C065E271E023
:1036C000CE010E94A30AF801EE0FFF1FE753F34F4C
:1036D000659174910E94A30AEC0146FEFBCD611036
:1036E000F9CD8F2D90E09595879501964DE247FE97
:1036F0004BE220E331E09F938F931F924F933F93D0
:103700002F93DF93CF930E941A19C80FD11D8DB745
:103710009EB708960FB6F8949EBF0FBE8DBFDACD48
:10372000F801E858F64FE081F0E0EE0FFF1FED5290
:10373000F34F65917491CE010E94A30A6CE371E08E
:1037400011CF062D10E0F80173E0F695E7957A9514
:10375000E1F7EF52F74F808190E0E62DE77002C06D
:1037600095958795EA95E2F780FF14C044E451E00F
:1037700030E020E06F2DCE010E94AE0A6BE471E0D4
:103780000E94A30AF801EE0FFF1FE154F34F659169
:103790007491E8CE20E531E0F801E659F64FE0817A
:1037A000F0E0EE0FFF1FEB54F34F45915491CFCE55
:1037B000062D10E098012B5F3F4FF90143E0F6958D
:1037C000E7954A95E1F7EF52F74F808190E0277037
:1037D000332702C0959587952A95E2F780FF12C09E
:1037E00047E551E030E020E06F2DCE010E94AE0AA7
:1037F0006EE571E00E94A30AF801EE0FFF1FE55588
:10380000F34FC5CF23E631E0F801E159F64FE081EF
:10381000F0E0EE0FFF1FEF55F34FC7CF881999095E
:103820008150DF91CF911F910F91FF90EF90DF902A
:10383000CF90BF90AF909F908F907F906F905F9050
:103840004F903F902F900895CF93DF93CDB7DEB781
:10385000C054D1090FB6F894DEBF0FBECDBFAE0184
:10386000475B5F4F29966EAD7FAD2997CE010196DC
:103870000E942A1920E0AE014F5F5F4F27966FAD7F
:10388000279726968FAD26970E94A111C05CDF4F27
:103890000FB6F894DEBF0FBECDBFDF91CF91089574
:1038A000CF93C82F21E04FE75CE060E00E94A111B8
:1038B0004091AE015091AF012091B4053091B50512
:1038C0008AE691E0BA0177277F936F931F925F9307
:1038D000A90155275F934F931F923F939F938F9317
:1038E00086E08F93CF930E94241C2DE739E08DB79B
:1038F0009EB70C960FB6F8949EBF0FBE8DBF80E0AA
:10390000F9014DB75EB74217530740F02F5F3F4FA5
:103910009081953A19F48F5F8F3F91F72AE731E054
:103920001F928F933F932F938CE08F93CF930E949E
:10393000241C0F900F900F900F900F900F90CF912D
:10394000089580E00E94501C0E945A0A80EC0E9458
:10395000501C0E94570A0E9442188430E1F70895D3
:103960001F93CF93DF93C091D608D9E013E08091E5
:10397000D60883708093D608609100078091FF0677
:103980000E9438160E945A0A21E046E75CE061E096
:1039900084E10E94A11184E891E02091D6081F9251
:1039A0002F939F938F93DF931F930E94241C0E9459
:1039B000570A0E9442180F900F900F900F900F908F
:1039C0000F909091D6089150803229F0803429F4DC
:1039D0009091D6089F5F9093D608982F9C7009F419
:1039E000C6CF843011F4C093D608DF91CF911F91D8
:1039F0000895E42FF0E02417B8F4A7E9B1E0E21B42
:103A0000F109FF93EF931F924F93BF93AF936F937F
:103A10008F930E94241C8DB79EB708960FB6F8941A
:103A20009EBF0FBE8DBF08954217C0F4A0EAB1E05B
:103A300030E02E1B3F0B3F932F931F924F93BF936A
:103A4000AF936F938F930E94241C8DB79EB70896F7
:103A50000FB6F8949EBF0FBE8DBF089529EA31E0DE
:103A60001F924F933F932F936F938F930E94241C29
:103A70000F900F900F900F900F900F9008951F933D
:103A8000CF93DF93C82F4CEA51E021E060E08EE154
:103A90008C0F0E94A11146E06FE380E00E94AC14FD
:103AA0004FEB51E021E069E08C2F0E94A11146EC20
:103AB00051E021E06FE08C2F0E94A11142ED51E016
:103AC00021E065E18C2F0E94A1114CED51E021E035
:103AD0006BE18C2F0E94A11147EE51E021E061E2E1
:103AE0008C2F0E94A1114FEE51E021E067E28C2F54
:103AF0000E94A11148EF51E021E06DE28C2F0E945D
:103B0000A1112FEF31E0D8E2DC0F8091D50890E0D1
:103B100001969F938F933F932F9389E08F93DF9329
:103B20000E94241C1091C5080E94FF11212F482FCC
:103B30006FE08D2F0E94F91C1091C10880E00E9457
:103B40009D12212F482F65E18D2F0E94F91C1091A5
:103B5000C10880E00E946712212F482F6BE18D2F52
:103B60000E94F91C1091C40880E00E940712212FC6
:103B7000482F67E28D2F0E94F91C1091C30880E046
:103B80000E94E812212F482F6DE28D2F0E94F91C10
:103B900042E052E021E069E086E48C0F0E94A1112E
:103BA0008091FD060F900F900F900F900F900F9047
:103BB000D9E080FF09C04BE052E021E06FE08BE4E8
:103BC0008C0F0E94A111DFE08091FD0681FF09C0EA
:103BD00044E152E0DA5F21E06D2F8BE48C0F0E940C
:103BE000A1118091FD0682FF09C04EE152E0DA5F2B
:103BF00021E06D2F8BE48C0F0E94A1118091FD06B6
:103C000084FF0CC047E252E066E06D0F21E08BE4D8
:103C10008C0FDF91CF911F910C94A111D93029F411
:103C200041E352E021E06FE0F2CFDF91CF911F91AD
:103C3000089580E00E943F1D0E945A0A80EC0E9475
:103C40003F1D0E94570A0E9442188430E1F70895F0
:103C5000BF92CF92DF92EF92FF920F931F93CF9379
:103C6000DF93E82EEA01F22E21E0AB0160E00E9432
:103C7000A11147E06FE380E00E94AC141AE0DD245C
:103C8000D394DE0C37E0C32ECE0C85E28F1508F4FA
:103C900036C0FE01EF0DF11DB0809FEFB91679F12E
:103CA0008FE18B1508F43AC0EBECF8E08191B8167F
:103CB00009F446C098E0E13DF907C1F786E392E0D8
:103CC000EB2DF0E0EE0FFF1FE854F94F21812F9309
:103CD00020812F939F938F931F93CF920E94241C38
:103CE0000F900F900F900F900F900F900F1107C033
:103CF00045E0410F6FEF610F80E00E9459071A5FA6
:103D0000F394103409F0C1CFDF91CF911F910F913F
:103D1000FF90EF90DF90CF90BF900895E110EFCF2C
:103D20008B2D8052990BFC01EE0FFF1FE85AF34FC9
:103D30004591549121E0612F80E00E94A111DFCFD5
:103D400043E2612F8D2D0E943311B8CF8F929F9245
:103D5000AF92BF92CF92DF92EF92FF920F931F9399
:103D6000CF93DF93CDB7DEB7A7970FB6F894DEBF3A
:103D70000FBECDBF6C0180E2898390E080E0FE0140
:103D80003296AF01DC01AA0FBB1FA854B94F2C918A
:103D90002F702450233010F48083319601968032A6
:103DA000910581F7E417F50711F4FE013196AF0193
:103DB0004F5F5F4F81E28083BA0190E080E09C0119
:103DC000220F331F2854394FD9012C912F702950BD
:103DD000233020F4DB018C936F5F7F4F019680329C
:103DE000910569F76417750709F0FB01AF014F5F93
:103DF0005F4F82E28083BA0190E080E09C01220F55
:103E0000331F2854394FD9012C912F70275022305D
:103E100020F4DB018C936F5F7F4F01968032910518
:103E200069F76417750709F0FB01AF014F5F5F4F3A
:103E300083E28083BA0190E080E09C01220F331F6F
:103E40002854394FD9012C912F70223021F4DB01F5
:103E50008C936F5F7F4F01968032910571F76417E5
:103E6000750709F0FB01AF014F5F5F4F84E280836C
:103E7000BA0190E080E09C01220F331F2854394F93
:103E8000D9012C912F70233021F4DB018C936F5FCB
:103E90007F4F01968032910571F76417750709F01D
:103EA000FB01AF014F5F5F4F85E28083BA0190E075
:103EB00080E09C01220F331F2854394FD9012C91E7
:103EC0002F70213021F4DB018C936F5F7F4F0196BF
:103ED0008032910571F76417750709F0FB019E01A7
:103EE0002F5F3F4F7901CF01821B930BA82EAE01AC
:103EF000485D5F4F2FEFE417F50710F42193FBCFD8
:103F0000B12C11E0AA94A82FA150BB0B4D01012F99
:103F10002B2DA701B60180E00E94281E0E945A0A9C
:103F20002B2DA701B60180EC0E94281E0E94570A83
:103F30000E944218843009F44CC08830C9F4F7015B
:103F4000E10FF11D8081A7960FB6F894DEBF0FBE7A
:103F5000CDBFDF91CF911F910F91FF90EF90DF9038
:103F6000CF90BF90AF909F908F900895182FCFCF94
:103F70008031D9F481E01815190494F4810FF70108
:103F8000E80FF11D9081903210F082E0810F482FF0
:103F900050E02B2D30E0285F3F4F24173507B4F059
:103FA0008B1520F72DEFB20EFBCF803869F48A2DE8
:103FB000123068F38FEF810FF701E80FF11D908148
:103FC000903228F38EEFE2CF812FE1CFB3E0BB0E2A
:103FD000E0CF8FEFB8CF89E392E00C94A61ECF9389
:103FE000DF93EC0183E492E00E94A61E803238F455
:103FF00091E09883898381E0DF91CF91089580E0FB
:10400000FBCFCF93DF9323E532E08091BE0890E0B1
:1040100001969F938F933F932F931F92D1E0DF934D
:104020000E94241C84E692E09F938F93C6E0CF9376
:10403000DF930E94241C87E692E09F938F93CF9397
:1040400081E28F930E94241C0E94FF11C82FD091FF
:10405000FE0629E047E06AE189E00E941B168DB761
:104060009EB70E960FB6F8949EBF0FBE8DBFCC23A1
:1040700051F020E1D29FC001112408966C2F70E00E
:104080000E94D833C62F69E06C0F48E08AE00E9496
:10409000AC14C091D508CF3008F0CFE0D091C6085D
:1040A00029E047E06AE389E20E941B1620E1D29FE3
:1040B000C00111240896C295C07FC65F6C2F70E0C6
:1040C0000E94D833675D48E08AE2DF91CF910C947B
:1040D000AC14BF92CF92DF92EF92FF920F931F9397
:1040E000CF93DF938C01EB010E940120209769F0B0
:1040F00061E0CE010E940B11869521E0AE016DE1D9
:1041000090E2981B892F0E94A1114AE652E021E01B
:1041100063E285E00E94A111C8E129E4B22E3FE3E9
:10412000C32E44E3D42E53E5E52E80E2F82EFC0E98
:10413000DB2DDC1B4F2D6D2F8C2F0E949A144F2DE1
:104140006D2F8C2D8C1B0E949A149BE0F92EFC0E77
:10415000DD2DDC1B46E14C0F6F2D8D2F0E94AC1422
:104160004E2D4C1B6F2D8D2F0E94AC14C150C431AD
:10417000E1F60E94570A0E9442188032D1F020F4E2
:10418000803151F080E00BC08034B9F08038D1F735
:10419000F801108281E003C081E0F8018083DF91A3
:1041A000CF911F910F91FF90EF90DF90CF90BF9034
:1041B000089582E0F8018083EDCF83E0FBCF0F9379
:1041C0001F93CF93DF931F92CDB7DEB71091FF06F9
:1041D00000910007602F812F0E9438160E945A0A12
:1041E0006BE772E0CE0101960E946920882301F1FD
:1041F000298130E0F901E756F34FE49184E0E802C9
:10420000F00111241E0FF901E356F34FE49184E00D
:10421000E802B0011124600F17FD10E067FD60E0B7
:10422000103408F01FE3062F6032A0F20FE1D2CF66
:104230000F90DF91CF911F910F91089525E0FC0120
:104240002193CF016BE67CE00C946920609100071C
:104250008091FF060E9438160E945A0A0E9401208F
:104260000E94C5114AE852E021E06BE38BE20E9414
:10427000A1110E94570A0E9442188830E1F710925B
:10428000670981E0809368098DE180936909089549
:10429000CF92DF92EF92FF920F931F93CF93DF9312
:1042A000CDB7DEB7C054D1090FB6F894DEBF0FBE4C
:1042B000CDBFAE01455B5F4FFA0161917191AF01D6
:1042C000CE0101967C010E942A19F701DE2EDE182C
:1042D00081918111FBCF10E0F701E10FF11D1F5F0C
:1042E00080818132CCF7108200E0CC24C39480918D
:1042F0006709810F801B813810F00E942621802FD2
:1043000090E0D701A80FB91F011768F4E091670981
:1043100021E02E0F209367092D91F0E0E951F74F2E
:1043200020830F5FF1CF60E08E0D9F1D0E940B1167
:10433000082F8091690920916809402F50E08B3344
:10434000E0F0BA01620F711D6B327105B4F00E948A
:104350002621809168098E5F800F809368091D1562
:10436000C0F4812FF701E80FF11D8F5F908191322A
:10437000CCF71082012F182FBACF240F352F311D03
:104380002134310534F3C09268098A5F809369094A
:10439000E0CFC05CDF4F0FB6F894DEBF0FBECDBFDD
:1043A000DF91CF911F910F91FF90EF90DF90CF9011
:1043B00008958091FD0682FF0BC08B7F8093FD06E0
:1043C00081E992E09F938F930E9448210F900F9074
:1043D0000895CF93DF93C82F0E94FF11D82F8091AB
:1043E000FE068D17D8F4C330E0F488EA92E09C0111
:1043F00082EB92E03F932F939F938F930E944821EB
:104400008091FE064D2F481B550B0F900F900F907B
:104410000F90C417150644F0D093FE06DF91CF919C
:10442000089585EC92E0E3CFC80FC093FE06F6CF67
:10443000CF93DF93282F30E0A901440F551FFA01D5
:10444000E854F94F90819F70973018F566EC72E050
:10445000962F672F4754594FFA01408147FF1CC0E0
:1044600041ED52E0220F331FF901E854F94F8181E9
:104470008F9380818F936F939F935F934F930E944D
:1044800048210F900F900F900F900F900F9080E0A9
:1044900025C06EEE72E0DCCF4BEC58E0EA014F5FD6
:1044A0005F4F788178131DC047EF52E0220F331F12
:1044B000F901E854F94F81818F9380818F936F9335
:1044C0009F935F934F930E9448218FEF88830F90B3
:1044D0000F900F900F900F900F9081E0DF91CF9190
:1044E0000895F8E0413D5F07C9F6D1CF0F931F93C0
:1044F000CF93082F10E095E0899FF0011124E3503D
:10450000F94F908192FD1FC00E94250E882381F0F3
:1045100086E093E01F920F931F920F939F938F93C8
:104520000E9448210F900F900F900F900F900F90C6
:1045300085E0809FF001819FF00D1124E350F94F39
:10454000808184608083CF911F910F9108950F9394
:104550001F93CF9381110EC0E091D008E03250F448
:10456000F0E0EE0FFF1FE854F94F9081907F9031FB
:1045700009F430C0C82F082F10E00E94250E8823B0
:10458000B1F026E133E08DE193E03F932F931F924A
:10459000CF931F92CF939F938F930E9448218DB703
:1045A0009EB708960FB6F8949EBF0FBE8DBFC1117F
:1045B00006C00E94460F83708C5F8093C80885E018
:1045C000809FF001819FF00D1124E350F94F80810D
:1045D00081608083CF911F910F9108958F929F9258
:1045E000AF92BF92CF92DF92FF920F931F93CF9320
:1045F000DF93CDB7DEB760970FB6F894DEBF0FBE7E
:10460000CDBFF82E5B01C82ED12CFB011181137098
:104610008081882321F185E08C9DF0018D9DF00D36
:104620001124E350F94F808181FF09C0F1109AC035
:104630008DE293E09F938F930E9448210EC180FFEB
:104640000EC00E94460F182F1370F11008C080E4AE
:1046500093E09F938F930E9448210F900F90212FFA
:1046600030E0F901E756F34F0491F901E356F34FB7
:10467000149185E08C9DD0018D9DB00D1124A45026
:10468000B94F1396EC9113970E0F1496EC911E0FE1
:10469000612F802F0E945A0C4C01BE01675F7F4F33
:1046A0008F2D0E94E80AF50180818130D9F008F44D
:1046B0009EC3853009F49FC1863009F4BDC180E0F6
:1046C00060960FB6F894DEBF0FBECDBFDF91CF91DD
:1046D0001F910F91FF90DF90CF90BF90AF909F9070
:1046E0008F900895F180CF2CD12CF601EE0FFF1F93
:1046F000DF01A854B94F1C9112951F70FD018181F3
:10470000806481838C918F70B82EF3E08F1709F449
:10471000A7C0F81748F142E08413D1CF8F2D0E9433
:10472000220CE12FF0E003E0F695E7950A95E1F71A
:10473000EF52F74F212F277081E090E0AC0102C0CB
:10474000440F551F2A95E2F78081842B8083123015
:1047500009F470C008F04BC0112309F459C011309E
:1047600009F464C081E0ACCFEBEFE80FABECB8E04C
:10477000E73008F0A4CF8D91F81609F462C358E031
:10478000A13DB507C1F7F0E0E45FFE4F008110E006
:104790000553174FF8018081803228F40E941822B7
:1047A000882309F48CCF8F2D0E945D0AF601EE0F4D
:1047B000FF1FE854F94F86E08B1508F419C182E514
:1047C00093E09C0188E593E041814F9340814F93B2
:1047D0003F932F939F938F930E944821F801F0827B
:1047E0000F900F900F900F900F900F90BBCF133042
:1047F00029F1143009F0B6CF0E94460F8F70845F04
:104800008093C7088091FD0680618093FD06AACF42
:104810000E94FF11182F86950E94BC0F16951695C1
:10482000810F0E94E9210E94D9219CCF80E00E9443
:10483000A72298CF80E00E94762294CF8091FD0637
:1048400082FDF1CF87E693E09F938F930E944821EA
:104850008091C1088F5F8093C1080F900F9082CF25
:104860008F2D0E94220C812F90E00596FC01B3E071
:10487000F695E795BA95E1F7EF52F74F87709927CC
:1048800021E030E001C0220F8A95EAF78081822B77
:104890008083123009F465C0F8F4112309F42DC0A7
:1048A000113009F05FCF8AE793E00E94A61E8032A4
:1048B00080F4E82FF0E08F01000F111FC80182552E
:1048C0009E4F6C01DC01A65FBA4F8C918F708530D2
:1048D000E8F48EE893E0AECE133009F479C0E0EB53
:1048E000F4E08FEF143009F03DCF819345E0E03BD9
:1048F000F407D9F78FE993E09DCE86EC93E00E9410
:10490000A61E803230F70E945D0A2CCF8BED93E01B
:10491000EE0FFF1FE854F94F21812F9320812F9331
:104920009F938F930E944821F601E55FFA4F8081A3
:104930008F730F900F900F900F908F3309F412CF59
:10494000F801E155FE4FDF01A65FBA4F8C918F5FF2
:10495000E75FFA4F982F9F738181807C892B818339
:1049600001CF8BEF93E00E94A61E803208F4B1CFF6
:10497000482F50E0DA01AA0FBB1FCD0182559E4F90
:104980009C01265F3A4FF90120812F70253008F4F1
:10499000A0CF855F9A4FFC01808187FF9ACFA854F2
:1049A000B94F11968C911197807411968C93119731
:1049B0008FE094E0FD0121812F9320812F939F931D
:1049C0008F930E9448210F900F900F900F90CACEA6
:1049D00060E077E08FEF96E00E94451080E394E07E
:1049E0009F938F930E94482180E00E94A72235CF99
:1049F00087E594E0E6CE612F802F0E94790CFC01C0
:104A0000892BB9F0818187FD14C0908197FD09C081
:104A10008EE594E09F938F930E9448210F900F9012
:104A20004ECE892819F08AE794E0F4CF9F779083DF
:104A300099CE8FE894E0EECF612F802F0E94790C01
:104A4000DC01892B71F18C9187FD2BC011969C9113
:104A5000119797FD26C09A8591FF23C080688C939B
:104A6000E091BE0840E1E49FF0011124EC53FA4FBD
:104A7000AC57B840B595A795CD01992743E09695D9
:104A800087954A95E1F7E80FF91FA770BB2721E04A
:104A900030E001C0220FAA95EAF78081822B808343
:104AA00061CE612F802F0E94BD0C811108CE811430
:104AB000910409F491C1C4018C5F96402DEC3CEC4B
:104AC000829F5001839FB00C929FB00C11249A2CAE
:104AD0008F2D0E946712182F8A2D0E946712D82EE0
:104AE000812F880F8D0D0E94BC0F882E8501112704
:104AF0008A2D0E94250EC82E8D1408F0BFC1882370
:104B0000A9F026EA34E08BEA94E01F930F933F93D9
:104B10002F931F92FF921F92FF929F938F930E9459
:104B200048210FB6F894DEBF0FBECDBFF1101ACEEC
:104B300085E0809FF001819FF00D1124E350F94F33
:104B40008081886080838D1408F40CCE8F2D0E94A4
:104B50009D12D82E8A2D0E940712882E8D2D880D29
:104B60000E94BC0F8F5F881508F46FC1D82ED8182B
:104B7000CC20C1F0DD2009F46AC125EB34E089EBDB
:104B800094E01F930F933F932F931F92FF921F92D6
:104B9000FF929F938F930E9448210FB6F894DEBF37
:104BA0000FBECDBFBE016F5F7F4F8F2D0E94E80A01
:104BB0008A2D0E94250E95E0909FF001919FF00DA7
:104BC0001124E450F94F9281D91608F4ABC0882320
:104BD00009F49DC023EC34E087EC94E03F932F93DD
:104BE0001F930F931F930F939F938F930E944821BE
:104BF0000FB6F894DEBF0FBECDBF85E0809FD00119
:104C0000819FB00D1124A450B94FEC9112961C92C3
:104C100012971C92A091BE0890E1A99FD001112487
:104C2000A454BA4FC80123E0969587952A95E1F7D9
:104C3000A80FB91F0770112721E030E001C0220F33
:104C40000A95EAF78C91822B8C93F1108BCD48E07A
:104C5000E49FF0011124EE52F24F04918091D508A7
:104C60001FE08F3008F4182F1295107F165FE09127
:104C7000C608412F401B550BE417150609F00CF42C
:104C80004FC08F5F8093D5082EEC34E090E0019602
:104C90009F938F933F932F930E9448218091C50843
:104CA0008C5F8093C5088091D5080F900F900F906E
:104CB0000F90843108F58370823069F487EE94E0B8
:104CC0009F938F930E9448218091C1088F5F8093AA
:104CD000C1080F900F908091D508837069F48AEF16
:104CE00094E09F938F930E9448218091C2088F5F28
:104CF0008093C2080F900F900E94FF118093FE06D0
:104D0000E091C608E00FE11BE093C6082BCD8CE0D4
:104D100095E09F938F930E9448210F900F906DCF45
:104D2000E00FF2CF911038C0898185FF35C00E9415
:104D3000460F883208F030C089E295E01F92FF925A
:104D40009F938F930E9448218091CA088D5F809322
:104D5000CA080E94FF119091FE060F900F900F90CD
:104D60000F90891708F4982F9093FE06911114C0A4
:104D700020E435E084E495E03F932F931F921F9247
:104D80001F921F929F938F930E9448210FB6F89411
:104D9000DEBF0FBECDBFE6CC898186FF07C00E9473
:104DA000460F883218F48A2D0E94A722898184FF39
:104DB00007C00E94460F843118F48A2D0E94762283
:104DC00085E0809FF001819FF00D1124E450F94FA0
:104DD00082818D198283C6CC85E08C9DF0018D9DEA
:104DE000F00D1124E450F94F03831483BBCCF11070
:104DF000B9CC09E91CE0F801949134966491E091F2
:104E000000076E0F8091FF06890F0E94790C6C01DC
:104E1000009781F0FC01818187FF0CC08BE495E055
:104E20009F938F930E944821F60181818F77818320
:104E30000F900F900F5F1F4FFCE00D391F07D9F641
:104E400091CC8F2D0E9418223BCCCC20A9F024E6D7
:104E500035E08AE695E01F92FF923F932F931F93D0
:104E60000F931F930F939F938F930E9448210FB628
:104E7000F894DEBF0FBECDBFD12C94CEF11066CE1C
:104E800057CE4F925F926F927F928F929F92AF9286
:104E9000BF92CF92DF92EF92FF920F931F93CF9327
:104EA000DF93CDB7DEB762970FB6F894DEBF0FBEC3
:104EB000CDBFE82EF12C95E0899F60011124F60109
:104EC000E450F94F9081992309F46CC1182FBE0169
:104ED000675F7F4F0E94E80AEE20A9F0D601A35039
:104EE000B94F6D018C9181FD0EC080FF90C086E0AE
:104EF000898B0E94460F83708A8BBE016F5E7F4F45
:104F0000812F0E94EE2285E08E9DF0018F9DF00D95
:104F10001124E350F94F808180FF24C0111130C16A
:104F20008091C80881508093C80881111BC085E01A
:104F30008E9DF0018F9DF00D1124E350F94F80817B
:104F40008E7F80838BE795E01F921F931F921F93A4
:104F50009F938F930E9448210F900F900F900F9076
:104F60000F900F9085E08E9DF0018F9DF00D112424
:104F7000E350F94F808181FF24C0111105C1809158
:104F8000C90881508093C90881111BC085E08E9D9E
:104F9000F0018F9DF00D1124E350F94F80818D7F3A
:104FA000808385E995E01F921F931F921F939F9323
:104FB0008F930E9448210F900F900F900F900F90A9
:104FC0000F9085E08E9D60018F9DD00C1124F6011D
:104FD000E350F94F808184FFE5C0898583FDE2C0FD
:104FE0001111D6C08091C70881508093C7088111E4
:104FF000D9C08091FD068F7E8093FD0680EB95E001
:105000009F938F930E9448210F900F90CBC0BE01B9
:105010006F5F7F4F8E2D0E94E80A198A998191FF58
:1050200004C0F601808183FF68CF8091FC0688234D
:1050300009F463CF85E08E9D90018F9D300D112482
:10504000F901E450F94F748083814091FF06841B7D
:1050500087FD819540910007741A77FC719490FD4B
:1050600006C02350394FD9019C9193FF0AC09091FB
:10507000BF0893FD04C0780EB9E0B71578F501E0DC
:1050800001C000E00E94460F83708A8B682F70E099
:10509000FB01E756F34F84916356734FFB01649114
:1050A00095E09E9DD0019F9DB00D1124A450B94F55
:1050B0001496EC9114976E0F13969C91890F0E9491
:1050C0005A0C009741F0002309F417CFDC018C91B2
:1050D000813009F012CF86E0898B0FCF89E9A82EA5
:1050E0008CE0B82E612C85E08E9D60018F9DD00CE8
:1050F0001124F601E450F94F6F014F01F3E08F0ED8
:10510000911C84E0C80ED11C96E0592EF501449004
:10511000D4018C91480E34960491D601EC910E0F77
:10512000602F842D0E94BD0C81111BC0602F842D27
:105130000E945A0C009721F0FC018081813089F493
:105140008091FF06481A842D87FD81959091000774
:10515000091B07FD0195080F071558F4598A6A8A3B
:10516000702E6394FFEFAF1ABF0A84E06812CECFAF
:10517000C4CE0711F6CF0E94460F80FDEFCFF1CFCE
:105180000E94460F8770D1CE0E94460F8770FCCEDA
:105190000E94460F8F7031F4F601E350F94F808181
:1051A0008F7E808362960FB6F894DEBF0FBECDBFB0
:1051B000DF91CF911F910F91FF90EF90DF90CF90F3
:1051C000BF90AF909F908F907F906F905F904F9027
:1051D0000895609100078091FF060E9438160E9492
:1051E0005A0A0E9401200E94C5110C94570A8F92FE
:1051F0009F92BF92CF92DF92EF92FF920F931F93F5
:10520000CF93DF93CDB7DEB7C058D1090FB6F8946E
:10521000DEBF0FBECDBF8E0102571F4FF801E190D8
:10522000F1908F010E940120A801B7018E010F5F4C
:105230001F4FC8010E942A19F801BE2EB01A819191
:105240008111FBCF8B1548F4F801E80FF11D8F5F3A
:1052500090819132CCF71082F5CFF12C9DE1C92ECF
:10526000EE24E394FB1430F548018F0C911C60E0B0
:10527000C4010E940B11D82E2E2D280F3327331F67
:105280002134310524F036E0C30EEE24E39420E00F
:10529000A4016C2D8E2D0E94A111D394D394ED0CFA
:1052A000EF2DF394E00FF12FF11D8081EF2D81118F
:1052B000F8CFD8CF84E6E82E8CE0F82ED8016E0126
:1052C00088E0C80ED11CF70184918D933196AC15FE
:1052D000BD05D1F728E347E067E0C8010E94081444
:1052E000D801F70184918D93FFEFEF1AFF0ACA16D8
:1052F000DB06B9F728E347E267E0C8010E9408141B
:1053000041E469E389E00E94331142E469E389E200
:105310000E9433114DEC55E021E069E382E10E94E7
:10532000A11141ED55E021E069E382E30E94A11162
:105330000E94570A0E944218182F8C70D9F30E94BD
:10534000E92881E0183009F080E0C058DF4F0FB63F
:10535000F894DEBF0FBECDBFDF91CF911F910F91AB
:10536000FF90EF90DF90CF90BF909F908F90089527
:105370008F929F92AF92BF92CF92DF92EF92FF9265
:105380000F931F93CF93DF9300D000D0CDB7DEB73C
:105390008091BE0887FD2EC28091B4059091B5051D
:1053A0009093AF018093AE0110E08091BE08181772
:1053B00038F409ED0E94460F0150E1F71F5FF5CF69
:1053C000E0EBF3E01FEF119344E0E03BF407D9F783
:1053D00060E071E080EB94E00E94190C60E870E0FE
:1053E0008CE997E00E94190C60E670E08CE198E08F
:1053F0000E94190C60E470E08CE798E00E94190CA0
:105400001092BC081092BD081093B3051093B2051A
:105410001093B1051093B0050E94E9280E94CF10A7
:105420004DE06DE10E944C0EE12C30E1F32EBB24E7
:10543000B3948091BC08803208F051C00E94BC0F28
:10544000C82ED12C0E94460F182F13700E94CF1027
:10545000082FC601880F991FC80ED91EC601845E89
:10546000974F6C019E012D5F3F4FAE014C5F5F4F28
:10547000DC0112966C91812F0E947F109E012F5F9C
:105480003F4FAE014E5F5F4F602F812F8B250E94F3
:105490007F10812F90E0FC01E756F34F2491FC012F
:1054A000E356F34FE4911C81120FD6018C91180F33
:1054B0008B818E0F1196DC90D80E8981E81B4E2FC0
:1054C0004D0D8A81E22FE81B6E2F610F802F0E9405
:1054D0004C0E882321F06D2D812F0E945F0FB1E0CB
:1054E000EB1AF10809F0A5CFE12C14E0F12E03E04E
:1054F000C02E8091BC080E94BC0F082F10E00E94B3
:10550000460F8370D82EC801880F991F080F191FE6
:10551000045E174F9E012F5F3F4FAE014E5F5F4FFE
:10552000F80162818D2D0E947F106D2D70E0FB01CE
:10553000E756F34F8491D801EC918E0FEA818E0FDC
:105540008A836356734FFB0164911196EC916E0F41
:10555000E9816E0F69830E94BD0C882341F1912C73
:1055600009811A818091BC08981608F085C0892DA0
:1055700090E09C9C90011124F901E45EF74F5F01DB
:10558000FC01EE0FFF1FE80FF91FE45EF74F80816B
:10559000181B8180C5010E94DF0B181710F093942F
:1055A000DFCFC5010E94CA0B08190817C0F781E0B8
:1055B000E81AF10809F09DCFE0EBF4E020EB35E0CC
:1055C000DF01BA9580819C91892B81932E173F072B
:1055D000B9F70E94630B8091BE088F3030F461EB05
:1055E00075E080EB95E00E94451063EB75E082EB7F
:1055F00095E00E94451063E170E080E00E94561043
:1056000062E070E081E00E94561062E370E082E0A8
:105610000E94561061E070E083E00E94561074E032
:10562000E72E10E08CE00E94BC0FF82E982F9F70A0
:10563000D92E092F0E94460FBB24B394803208F064
:10564000B12C0E94460FCC24C394803408F0C12CA6
:10565000EEEFEF0DEA3008F063C0F0E0EE5CF44DE1
:105660000C94EC330F2C0F2C8B2B1E2C1E2C0B2C84
:10567000172C1E2C1E2C1E2CF1E0FD1540F16FEF97
:10568000600F812F0E94BD0C811191CF61E0600FEE
:10569000812F0E94BD0C81118ACFD12C602F812FC8
:1056A0008D190E94BD0C882309F481CF602F812FB2
:1056B0008D0D0E94BD0C882309F479CFD39444E06A
:1056C000D412ECCF602F812F0E945F0F70CF602F1C
:1056D0008FEF810F0E94BD0C811169CF602F81E097
:1056E000810F0E94BD0C811162CFD12C602F6D19EA
:1056F000812F0E94BD0C882309F459CF602F6D0DB6
:10570000812F0E94BD0C882309F451CFD39454E01B
:10571000D512ECCFD7CF0E94460F182F13701D5F04
:10572000B8018E2D0E945610E394E394ACE1EA1286
:1057300078CF04E017E0EE24E394F12C65E0C62E68
:10574000CE9CF001CF9CF00D1124E450F94FDF0105
:105750004C2D1D924A95E9F7B8016F5F7F4FC80144
:105760000E94C60F882379F10E94460F9091BE08CF
:10577000E82FE770892F90E09C0143E0220F331F50
:105780004A95E1F7E20FF32FF11DE852F44FD49060
:10579000DD2051F324E0880F991F2A95E1F7B70126
:1057A00084549A4F0E94370B81110DC0F801339732
:1057B000D08258E0D59EF0011124EF52F24FE491CF
:1057C000D8011197EC938FEFE81AF80A0B5F1F4F7F
:1057D00090E2E916F10409F0B3CFE0EBF1E01192A9
:1057E000A3E0E03BFA07D9F70E94F8097093AF01F4
:1057F0006093AE010F900F900F900F90DF91CF91BB
:105800001F910F91FF90EF90DF90CF90BF90AF90DE
:105810009F908F900895B0FA17F9107C1C2985E0AD
:105820000E94BC0F8295807F0D2D082B79CF84E0DC
:105830000E94BC0F8295807F0D2D082BB0FA17F9BE
:10584000107C1C296DCFFF920F931F93CF93DF9392
:10585000EC01F62E08811981C8010E94B633F816B2
:1058600021F06F2DC8010E94BE33CE01DF91CF9190
:105870001F910F91FF900895DF92EF92FF920F9387
:105880001F93CF93DF9300D0CDB7DEB784EBE82E24
:1058900085E0F82E0AEC10E0F701D1907F01C801F5
:1058A0000E94B633D81621F06D2DC8010E94BE3378
:1058B0000F5F1F4F0D3FF3E01F0771F71A83098336
:1058C00061E0CE0101960E94232C0E94EB18192F53
:1058D0002EEF33E03A832983682FCE0101960E9490
:1058E000232C8FEF93E09A838983612FCE01019659
:1058F0000E94232C0F900F90DF91CF911F910F9159
:10590000FF90EF90DF9008951F920F920FB60F92C5
:1059100011248F939F938091E1009091E100937FF8
:105920009093E10083FF0FC01092E90091E0909303
:10593000EB001092EC0092E39093ED001092AD0119
:1059400098E09093F00082FF22C093E09093E900EA
:105950009091F200992319F09AE39093E8009091C6
:105960004E01992341F090914E01915090934E0138
:10597000911101C05D9A9091AC01992341F09091F1
:10598000AC0191509093AC01911101C0289A84FF11
:1059900018C08091E2008E7E81608093E200809149
:1059A000E1008F7E8093E10080914F018E7E8061C7
:1059B00080934F019F918F910F900FBE0F901F907A
:1059C000189580FFF7CF8091E2008E7E80618093F2
:1059D000E2008091E1008E7E8093E10080914F0192
:1059E0008E7E8160E5CF1F920F920FB60F92112429
:1059F000CF92DF92EF92FF920F931F932F933F93DB
:105A00004F935F936F937F938F939F93AF93BF93C6
:105A1000EF93FF93CF93DF93CDB7DEB76C97DEBFE5
:105A2000CDBF1092E9008091E80083FF25C068E0B7
:105A3000CE0145960E94080982EF8093E8008D8987
:105A400087FF39C09091E80090FFFCCF982F9076A7
:105A500009F034C19E894F89588D2F89F88C911196
:105A600031C0803861F580914D018093F100109232
:105A7000F1008EEF8093E8006C960FB6F894DEBFCD
:105A80000FBECDBFDF91CF91FF91EF91BF91AF914D
:105A90009F918F917F916F915F914F913F912F9146
:105AA0001F910F91FF90EF90DF90CF900F900FBE5E
:105AB0000F901F9018959EEF9093E800C7CF10921B
:105AC000F100D5CF913059F48111D3CF4130510538
:105AD00081F680914D018D7F80934D01CACF933027
