:100000000C949A040C94C2040C94C2040C94C20480
:100010000C94C2040C94C2040C94C2040C94C20448
:100020000C94C2040C94C2040C94CE200C943D2178
:100030000C94C2040C94C2040C94C2040C94C20428
:100040000C94C2040C94C2040C94C2040C94C20418
:100050000C94C2040C94C2040C94C2040C946F233C
:100060000C94C2040C94C2040C94C2040C94C204F8
:100070000C94C2040C94C2040C94C2040C94C204E8
:100080000C94C2040C94C2040C94C2040C94C204D8
:100090000C94C2040C94C2040C94C2040C94C204C8
:1000A0000C94C2040C94C2040C94C2044C6F61649E
:1000B000696E672E2E2E0061726500697300666F8F
:1000C0006F6420726174696F6E006172726F770085
:1000D000626F770073776F726400626F6F74730082
:1000E00068656C6D0061726D6F720072696E672079
:1000F0006F66200072696E6700616D756C657420B3
:100100006F662000616D756C657400706F74696F47
:100110006E00206F662000706F74696F6E007363ED
:10012000726F6C6C00206F6620007363726F6C6C72
:1001300000537461636B3A2040750044756E6765C7
:100140006F6E204C6576656C2040750048500058F5
:1001500050005B6D6F72655D00596F75206172654F
:1001600020706172616C797A65642100596F752025
:1001700061726520636F6E66757365642100596FE7
:100180007520666F756E6420612068696464656EB1
:1001900020646F6F72210054686520646F6F722055
:1001A000697320616C726561647920636C6F73653B
:1001B000642E0054686520646F6F7220697320623A
:1001C0006C6F636B65642E00596F752073656520D5
:1001D0006E6F20646F6F722074686572652E006D9B
:1001E00069737300405320407620404F2E006869A9
:1001F0007400405320405620404F2E006469650033
:1002000040532040562100596F7520616476616E1D
:10021000636520746F206C6576656C2040752100E5
:10022000596F75206665656C207374726F6E6765B3
:10023000722E00596F75206665656C207175696353
:100240006B65722E00596F75206865617220746845
:100250006520736F756E64206F66206465617468D5
:100260002E00405320647261696E7320796F75723D
:10027000206865616C7468210064696500405320E2
:10028000405621006265636F6D6500405320405603
:1002900020636F6E66757365642100405320404192
:1002A000207765616B656E65642100626C6F636BBE
:1002B0000040532040562040502061747461636BAD
:1002C0002E004053204041206E6F206C6F6E67659A
:1002D0007220636F6E66757365642E004053204014
:1002E00041206E6F206C6F6E676572207061726165
:1002F0006C797A65642E00596F7520617265206E85
:100300006F206C6F6E67657220696E7669736962C3
:100310006C652E0057686963682064697265637450
:10032000696F6E3F00596573004E6F0057656C63CF
:100330006F6D6520746F2041726475526F677565CB
:100340002E00476F206261636B20757020746865B2
:10035000207374616972733F00476F20646F776E1A
:1003600020746F20746865206E6578742064756EE3
:1003700067656F6E3F00676C6F77696E67007461C9
:100380007474657265640079656C6C6F7765640080
:1003900066616465640074656C65706F7274617425
:1003A000696F6E0072656D6F766520637572736537
:1003B00000656E6368616E74696E67006964656E7E
:1003C0007469667900626C756500677265656E00B8
:1003D0006F72616E676500636C656172007265645F
:1003E00000696E7669736962696C69747900737407
:1003F00072656E67746800666C616D6500636F6E30
:10040000667573696F6E006865616C696E6700730D
:1004100070656564006469616D6F6E640073656525
:1004200020696E76697369626C6500647261676FDA
:100430006E006772696666696E0074726F6C6C003C
:10044000686F62676F626C696E006F726300676FDE
:10045000626C696E007A6F6D6269650072617474B6
:100460006C65736E616B6500736E616B65006261D4
:100470007400446562756720496E666F005361764B
:10048000652050726F677265737300536574746989
:100490006E677300506C6179657220496E666F00FB
:1004A00044756E67656F6E204D6170005468726FA1
:1004B00077204974656D0044726F70204974656DD2
:1004C0000053686F6F7400557365202F205B556E65
:1004D0005D65717569700057616974202F205365DF
:1004E0006172636800FFFF0101000001FFFF01FF6F
:1004F0000101FF00000000F66FA40FD00B5A0FB9E6
:100500009DF00B9F0F2C0FBEEFF1019D0696F90099
:10051000002994B000B30121846009F404AA0A06FA
:1005200006900F900F900FBEEF1EE101041002081D
:10053000000000000002020202001D1D1D1D1D081A
:10054000080808081414141414010101010102021E
:100550000202020000001F00000016001F1F000022
:1005600000000006000000000000180800001C0445
:10057000141800000000041C00000000000001012D
:100580000000030202010000000002030000001747
:1005900000030C00000000994C000003002E02D163
:1005A000010000C411100184101000980C2E3AF2C2
:1005B00043B94AB12A877CB726AE22211FAA2AA2B4
:1005C0003A0A00500184284A298A10A10A0000BE74
:1005D00078BF2A2E463F3ABF46BF042E669F7CF165
:1005E00047F1019F6C1F425F7C3F783F7EBF082E22
:1005F0007ABF68B226E1071F7E071F1F7D9B6C83B1
:100600003EB94E3F028360F1032208104241004C84
:100610007A5F324C4A4C7E4C53BE00D6035F701D4D
:1006200000B0019F681F009E785E704C325E1144DE
:10063000799E0856034F020E7A061B1E7992498254
:100640003ADA020404F0F0F0F0FFFFFFFF0505E0E6
:10065000E0E0E0E0FFFFFF0606C0C0C0C0C0C0FF92
:10066000FF0606E1C0CCCCC0E1FFFF0606E1C0C03A
:10067000C0C0E1FFFF070780808080808080FF0787
:1006800007F7E3C180C1E3F7FF0707E3E38080805A
:10069000E3E3FF0707E3E3889C88E3E3FF0808C37D
:1006A000810000000081C30808E7E7C30000C3E73A
:1006B000E70808006642000042660010101FF807B5
:1006C000E003C001800180E0072004200420042012
:1006D0000460060180018003C007E01FF810101FAE
:1006E000F807E003C00180318C300C0000000000EE
:1006F000000000300C318C018003C007E01FF80DB2
:100700000DBFFF1FFF0FFE07FC03F801F000E00123
:10071000F003F807FC0FFE1FFFBFFFFFFFFFFFFF07
:10072000FF0C0C03FC01F800F000F000F000F000FA
:10073000F000F000F000F001F803FCFFFFFFFFFF06
:10074000FFFFFFFF0100000000FF010203030000A4
:10075000000000030400000000000002030000008D
:10076000000000020300000000000002030000007F
:10077000000000020300000000000002030000006F
:10078000000000020300000000000002030000005F
:10079000000000020300000000000002030000004F
:1007A000000000020300000000000002030000003F
:1007B000000000020300000000000002030000002F
:1007C0000000000203000000000000436C6F73652E
:1007D00020446F6F720056657273696F6E3A2030F5
:1007E000303100900387037E037603BC03B103A47A
:1007F000039603DD03D703D003CA03C5030704FD33
:1008000003F703EE03E1030F0415041D04000000C9
:10081000006E0468045C0455044E044A0440043A23
:100820000432042B04D5F08D14A1C881CFD9F1AFC7
:1008300020006614060808080708B51611080908FC
:100840000F080D080B086F1DA00494048B047D0491
:100850007204D704C704C104B704AC04CB0700007A
:100860000000000000000101040404000A00000070
:100870000106080001010100020303000202110049
:100880000303030003030101040202000605010142
:10089000050404010A06010107040402100701010E
:1008A00008040403140803010804040314080501E0
:1008B0000C030305200B010107060601180C0101BA
:1008C000140404083014080B00020202000009049A
:1008D00000000102020000052400100105240101AE
:1008E0000104240206052406000107058103100007
:1008F0004009040100020A0000000705020240004E
:1009000000070583024000000403090412010002ED
:10091000EF020140412336800001010203014172D0
:100920006475696E6F204C4C430041726475626F50
:100930007900B92311241FBECFEFDAE0DEBFCDBFAF
:1009400011E0A0E0B1E0E6EBFDE402C005900D92FD
:10095000A632B107D9F729E0A6E2B1E001C01D92A5
:10096000AE35B207E1F714E0CAE9D4E004C021973C
:10097000FE010E94CE26C939D107C9F70E94CE23B5
:100980000C94D9260C940000EAEAF1E081E0A0E0A2
:10099000B4E000800EBC8111012C1197A0FDFDCFA9
:1009A0000192B9F70DB40895FC018091A701882345
:1009B00011F13FB7F89482E08093E9002091F200B2
:1009C000822F90E01816190614F481E090E0882335
:1009D00039F0289844E64093A6014091F100408305
:1009E000222339F02091F200211103C02BE620933D
:1009F000E8003FBF08958FEF9FEF08952FB7F89459
:100A000083E08093E9009091E800892F807295FF40
:100A100004C09091F20080E4891B2FBF089580915B
:100A20009E0181110DC082E080939A0184E0809341
:100A30009B0110929D0110929C0181E080939E0188
:100A40008AE991E00895CF93DF931F92CDB7DEB787
:100A50006983DC01ED91FC910280F381E02D41E09E
:100A600050E0BE016F5F7F4F09950F90DF91CF91EE
:100A7000089583E08093E9008091F200882319F0C3
:100A80008AE38093E80008950E94FE0490E00895B0
:100A9000CF93DF931F92CDB7DEB7FC018485958598
:100AA00097FD08C02FEF3FEF358724870F90DF9128
:100AB000CF910895CE0101960E94D404019719F4B4
:100AC000898190E0F3CF8FEF9FEFF0CF0F931F93CB
:100AD000CF93DF931F92CDB7DEB78C01FC018485E5
:100AE000958597FF0BC0CE0101960E94D404019713
:100AF00071F4898190E0F80195878487F8018485F5
:100B000095850F90DF91CF911F910F9108958FEFF1
:100B10009FEFF1CFFC018485958597FD0BC09FB7B2
:100B2000F89482E08093E9008091F2009FBF90E00A
:100B3000019608959FB7F89482E08093E900809130
:100B4000F2009FBF90E0089540914401509145010B
:100B5000209142013091430142175307B4F4909120
:100B6000E8009570E1F39091E80092FD19C0809340
:100B7000F100809144019091450101968F7399276E
:100B8000892B19F48EEF8093E800809144019091B5
:100B900045010196909345018093440181E00895B9
:100BA00080E00895EF92FF920F931F93CF93DF930E
:100BB000F82E192FE62E042F81E0860F880F0E9451
:100BC000A40583E00E94A405CF2DD12FEC0EFD2EAD
:100BD000F11CCE15DF05B9F007FF13C0FE018491AB
:100BE0000E94A405182F80E00E94A405812321966D
:100BF0008111EFCFDF91CF911F910F91FF90EF9077
:100C000008958881EDCF81E0F5CFDF92EF92FF92DA
:100C10000F931F93CF93DF93D82E8A01EB017B01B3
:100C2000E40EF51ECE15DF0559F0D7FE12C0FE0109
:100C300084910E94A40521968111F4CF0FEF1FEF3C
:100C4000C801DF91CF911F910F91FF90EF90DF903E
:100C500008958881EECF0F931F93CF93DF931F9258
:100C6000CDB7DEB782E0898342E450E066EC78E0FD
:100C700080E80E9405060E940F05DC0112960D9186
:100C80001C910115110589F0D801ED91FC910280AC
:100C9000F381E02DBE016F5F7F4FC801099597FD7D
:100CA00004C0F80100851185ECCF89810F90DF9198
:100CB000CF911F910F910895615030F02091F10074
:100CC000FC0120830196F8CF289884E68093A60142
:100CD00008953FB7F89480913E0190913F01A09113
:100CE0004001B091410126B5A89B05C02F3F19F0E6
:100CF0000196A11DB11D3FBFBA2FA92F982F88279C
:100D0000BC01CD01620F711D811D911D42E0660F76
:100D1000771F881F991F4A95D1F708958F929F9248
:100D2000AF92BF92CF92DF92EF92FF926B017C0164
:100D30000E9469064B015C01C114D104E104F10475
:100D4000B9F00E946906681979098A099B09683E09
:100D500073408105910580F321E0C21AD108E108B2
:100D6000F10888EE880E83E0981EA11CB11CE4CF28
:100D7000FF90EF90DF90CF90BF90AF909F908F90BB
:100D8000089565E070E080E090E00C948E068F920C
:100D90009F92AF92BF92CF92DF92EF92FF920F930A
:100DA0001F93CF93DF936C017B018A0180910B012C
:100DB000882309F45CC08091A701882309F457C0F7
:100DC0008091490180FF05C08091E000826080939E
:100DD000E000E801B12C8AEFA82E93E0892E2AE3E7
:100DE000922E209711F4BB20D9F10E94FE048111AC
:100DF0000AC0AA94AA20D9F161E070E080E090E0F6
:100E00000E948E06EECF8C171D0611F00CF08C2F71
:100E10009FB7F8948092E9002091E80025FD02C078
:100E20009FBFDFCF282F30E0C21BD30BF7018150CB
:100E300020F041914093F100FACFE20EF31EBB2067
:100E400021F09092E800B12CEBCF8091E80085FD75
:100E5000E7CF9092E800BB24B394209709F3F3CF37
:100E60005D9884E680934801101611063CF081E0FD
:100E700090E0F6019383828310E000E0C801DF91E7
:100E8000CF911F910F91FF90EF90DF90CF90BF9087
:100E9000AF909F908F9008958FB18095807F669BD3
:100EA00088601C9B846008958EBD00000DB407FE11
:100EB000FDCF08955C9808955C9A08950E945A07A2
:100EC00081E20E94540780E00E9454078FE30E9451
:100ED00054070E945C070C94C4040E945A0781E2E4
:100EE0000E94540780E40E9454078FE70E94540731
:100EF0000E945C070C94C404FB0124916F5F7F4F38
:100F0000222321F0FC012193CF01F6CF0895CF9346
:100F1000DF93FC01862FE901613059F4BA01CF015A
:100F20000E947C07209709F1BE01DF91CF910C94BC
:100F30007C076AE00E94AE26882319F0805D8083DA
:100F40003196905D908380E28183BA01CF01029651
:100F50000E947C07FC01209721F0BE010E947C07C3
:100F6000FC01CF01019623E72083DF91CF91089503
:100F7000CF93DF93CDB7DEB760970FB6F894DEBF9F
:100F80000FBECDBF81111AC088E0E9EBF8E0DE01A9
:100F9000199601900D928A95E1F729853A854B853E
:100FA0005C856D857E858F85988960960FB6F894EF
:100FB000DEBF0FBECDBFDF91CF91089525E0829FA8
:100FC000F0011124EC50F94F808128E0829FC0018C
:100FD0001124825A974FDE01199630E020E0FC017F
:100FE000E20FF31FE491ED932F5F3F4F283031055F
:100FF000B1F788E0FE013996DE01119601900D925D
:101000008A95E1F788E0FE013196C1CF08950895F1
:10101000089580E0089580E0089580E0089580E0DC
:101020000895FC01108281E008958034C0F460329C
:10103000B0F4E62FE695E695E69590E4E99FF00199
:101040001124E80FF11DE655FB4F677021E030E0F9
:1010500001C0220F6A95EAF78081822B8083089570
:10106000E62FE695E695E69590E4E99FF0011124D8
:10107000E80FF11DE655FC4F677081E090E001C07C
:10108000880F6A95EAF78095908189238083089577
:101090000F931F93CF93DF9310E000E0C1E0D0E007
:1010A0008091B7088017110661F15CF19801220F59
:1010B000331FF901EB58F74F9081692F6F772C5848
:1010C000374FF9012081822F8F7727FF05C00E94BB
:1010D00030080F5F1F4FE4CF66956695669520E454
:1010E000629FF0011124E80FF11DE655FC4F977047
:1010F0009E0101C0220F9A95EAF78081822B80839E
:10110000E8CFDF91CF911F910F910895FC0192815B
:10111000E42F97FF19C0EE0F462F4695469546954A
:10112000E40FF0E09F7782E2989FE00DF11D11241B
:10113000E354F94F849190E0677002C095958795CC
:101140006A95E2F781700895F0E08AE0989FE00DDB
:10115000F11D1124EB5BF94F849190E0EECFDC019F
:101160001296EC91E7FF09C0EF77B2E2EB9FF00136
:101170001124E454F94F849108958AE0E89FF00126
:101180001124EC5BF94FF7CFDC011296EC91E7FFED
:1011900009C0EF77B2E2EB9FF0011124E554F94F5B
:1011A000849108958AE0E89FF0011124ED5BF94FE6
:1011B000F7CFFF920F931F93CF93DF93EC01042F90
:1011C0008881162F181BF980CE010E94C4081817B9
:1011D00038F080E0DF91CF911F910F91FF9008953B
:1011E0000F19CE010E94AF08081798F7402F612F02
:1011F000CE010E94860891E08927ECCF680F791F05
:10120000FC011192CF01E617F707D1F70895E4EF3B
:10121000F6E030E020E09081992379F093819813F3
:101220000CC09481961309C045E0429FC001439FC2
:10123000900D11248C50994F08952F5F3F4F359694
:101240002032310541F790E080E00895F091B70831
:1012500030E020E090E070E02F17E0F4A901440FA7
:10126000551FDA01AC58B74FEC91EF77E817190624
:1012700071F44B58574FDA014C914F7746171706C8
:1012800031F4C901880F991F8C58974F08952F5F2B
:101290003F4FE2CF90E080E008958034C8F46032A0
:1012A000B8F4962F96959695969540E4949F900164
:1012B000112426553B4F280F311DF901808190E004
:1012C000677002C0959587956A95E2F781700895D9
:1012D00080E008958034C8F46032B8F4962F969573
:1012E0009695969540E4949F9001112426553C4F85
:1012F000280F311DF901808190E0677002C095953B
:1013000087956A95E2F78170089581E008956F925C
:101310007F928F929F92AF92BF92CF92DF92EF9285
:10132000FF920F931F93CF93DF93D82FC62F742E66
:10133000622E88248394841730F081E0D41301C096
:1013400080E0882E8194EE24E394C61530F081E08D
:10135000C61101C080E0E82EE1941D2F171917FD7A
:1013600011950C2F061907FD0195902E9694F12EDC
:10137000F694C02ED12CA12EB12CD71102C0C615C7
:10138000D9F06C2F8D2F0E946A09811125C0910E12
:10139000F00E892D092C000C990B8C159D0514F06D
:1013A000D80D901A8F2D0F2C000C990B8A159B05C8
:1013B00024F3CE0DF11AE1CF81E0DF91CF911F919F
:1013C0000F91FF90EF90DF90CF90BF90AF909F90E4
:1013D0008F907F906F90089580E0EFCF6F927F9213
:1013E0008F929F92AF92BF92CF92DF92EF92FF9235
:1013F0000F931F93CF93DF93F090F706E090F806DA
:1014000024E0CBEFCE0D2E1508F0C0E034E0EBEF7A
:10141000BE2EBF0C3F1508F0B12C85E08F0D75E096
:10142000C72ECE0C9FE19C1510F46FE1C62ED82E6E
:101430002FE3281710F45FE3D52ECC1650F10C2FB4
:101440000E1907FF02C00E2D0C1B009F80011124F6
:10145000DB2DDD16E0F08D2F8F1987FF02C08F2D59
:101460008D1B9801889F200D311D11242B313105D2
:1014700064F42C2F4D2F6E2D8F2D0E948709882309
:1014800021F06C2F8D2F0E941508DF5FE2CFCF5F18
:10149000D4CF10E043E0942E882483948091B60842
:1014A000181708F062C0C12FD0E06E0133E0D69467
:1014B000C7943A95E1F7312F3770732EE091B80851
:1014C00080E1E89FF0011124E854FA4FEC0DFD1D76
:1014D000808190E002C0959587953A95E2F780FD6E
:1014E00042C0199DC00111249C012C5E374F790127
:1014F000CE01880F991FC80FD91FCC5ED74FB88077
:10150000C7010E94C408B80EA980C7010E94AF0895
:10151000A80E0981382D01C0330F7A94EAF7732E93
:101520000A1508F568806B14E0F4602F862D0E9480
:101530004D098823A1F0402F662DC7010E94D908CC
:10154000882369F0E091B80880E1E89FF001112458
:10155000E854FA4FEC0DFD1D808187298083639448
:10156000E2CF0F5FDDCF1F5F99CFDF91CF911F914A
:101570000F91FF90EF90DF90CF90BF90AF909F9032
:101580008F907F906F900895482F262F8091F706B7
:101590006091F806382F341BE62FE21BEE02F001B3
:1015A00011243302E00DF11D11247B9714F40C94E7
:1015B000870980E00895CF93DF93C82FD62F0E942C
:1015C0006A09811111C09091AA059C1304C09091E1
:1015D000AB059D1741F09091AC059C1308C090910C
:1015E000AD059D1304C081E0DF91CF910895E4EF34
:1015F000F6E09081992331F093819C1303C094818C
:101600009D1789F3359697E0E439F90791F7E4E9F6
:10161000F7E090819F7031F09281C91303C09381EC
:10162000D91709F3349698E0E431F90791F77091EE
:10163000B708B0E0A0E02C2F30E0ED2FF0E0A717C6
:1016400098F6AD01440F551FEA01CC58D74F988149
:101650009F779217130649F44B58574FEA01988128
:101660009F779E171F0609F4BECF1196E8CF8F9281
:101670009F92AF92BF92CF92DF92EF92FF920F9321
:101680001F93CF93DF93E62EC42F0091B608202F2F
:1016900030E0F901EE0FFF1FE20FF31FEC5EF74F92
:1016A0006083C18382832FE3261770F480E0DF918B
:1016B000CF911F910F91FF90EF90DF90CF90BF904F
:1016C000AF909F908F900895C03280F783E0089F7D
:1016D000800111240C5E174FC8010E94C408BE2C63
:1016E000B80EC8010E94AF089FE39B15F8F2FC2ECC
:1016F000F80EEFE1EF15D0F2CF1510F5DE2DDB156A
:10170000E8F44C2F6D2FC8010E94D9088823A1F05E
:10171000DD24DA94CC24CA94AC2EAD0C6A2D8C2D29
:101720008D0F0E946A09882309F2C394F2E0CF1258
:10173000F5CFD394DF12EECFDF5FE1CFCF5FDCCF09
:101740000091B608C02FD0E0E091B80820E1E29FF8
:10175000F0011124E854FA4FCE0123E096958795C5
:101760002A95E1F7E80FF91F808190E0202F27707C
:1017700002C0959587952A95E2F7E82FE170DE2E55
:10178000F3E00F9F800111240C5E174FCE01880FEC
:10179000991FC80FD91FCC5ED74FC880C8010E94BF
:1017A000C408C80E9980C8010E94AF08980EF9803D
:1017B000F3945E01EE24EA94EF0CE91478F5F50158
:1017C000D0818EEF882E8F0CDC1510F0F394F2CFC1
:1017D0004E2D6D2FC8010E94D908C1E0CD0F88237E
:1017E000D9F06E2D8D2F0E943008DD20A9F06E2DCE
:1017F0008D2F0E9415086E2D8FEF8D0F0E941508FA
:101800006E2D8C2F0E941508682D8D2F0E941508B3
:101810006F2D8D2F0E941508DC2FD6CF8091B60832
:101820008F5F8093B60881E042CF803440F560320C
:1018300030F5262F26952695269590E4299F900130
:101840001124820F932F911DFC01E655FB4F20813F
:1018500030E02095309586559C4FFC018081282BE7
:10186000677081E090E002C0880F991F6A95E2F7E7
:101870002823392381E0232B19F480E0089581E0A7
:101880000895E8EAF1E0808191819C013695322F3C
:1018900022273795279528273927C901892F992786
:1018A000869528273927922F882782279327918387
:1018B000808308950F931F93CF93DF93082F162FE4
:1018C0000E9430080E94410C843C08F049C0C0913D
:1018D000B708C03208F044C0612F802F0E9426094B
:1018E000892BF1F5D0E00E94410C9091B708E0916E
:1018F000B80820E1E29FF0011124E454FA4F292FA7
:1019000030E043E0369527954A95E1F7E20FF31F63
:10191000208130E0977002C0359527959A95E2F7BF
:10192000CC0FDD1F20FF21C0612F802F0E941508E2
:10193000FE01EC58F74F808180688083FE01EC58EF
:10194000F74F0F7780818078082B00831F77818184
:101950008078182B11838091B7088F5F8093B70828
:10196000DF91CF911F910F910895FE01E755FE4F32
:1019700091E0803208F090E0E553F94F818190FBCF
:1019800087F98183DBCFCF93C82F0E94410C8C173E
:1019900010F08C1BFCCFCF9108950F931F93CF9322
:1019A000DF9300E014E080E40E94C30CD82F80E2B3
:1019B0000E94C30CC82F682F8D2F0E94DB0A88233A
:1019C00099F00150110979F7C0E0D0E06C2F8D2F0C
:1019D0000E94DB0A882341F0DF5FD034B9F7CF5F84
:1019E000C03299F7CFEFDFEF8D2F9C2FDF91CF9192
:1019F0001F910F910895CF92DF92EF92FF921F9364
:101A0000CF93DF9300D01F92CDB7DEB7182F6A01B6
:101A1000790119821A821B826B83123089F1CE01FF
:101A200001961330A9F11130F9F00E94C4080E9408
:101A3000C30C89831A824A816981CE0101960E9472
:101A400086088111EACF8981F60180838A81F701B6
:101A500080830F900F900F90DF91CF911F91FF9097
:101A6000EF90DF90CF9008950E94C4080E94C30CAD
:101A70008983CE0101960E94AF0881508A83DBCF13
:101A80001982CE0101960E94AF080E94C30CF6CFC6
:101A90000E94C40881508983F4CF0E94410C803495
:101AA00028F484E00E94C30C805808958CE00C94C4
:101AB000C30CCF92DF92EF92FF920F931F93CF93BD
:101AC000DF937C01FC01C0E0C193CF5F6C13FCCFBE
:101AD000D0E08C2F8150990B6C010D2F10E00C156C
:101AE0001D0584F48C2F8D1B0E94C30CD701A80FF9
:101AF000B11DF701E00FF11F80819C9190838C93C1
:101B0000DF5FEBCFDF91CF911F910F91FF90EF90AF
:101B1000DF90CF900895DC0181E06623E9F0FD01BC
:101B200094919923F9F011969032A1F0E92FEE0FDC
:101B3000FF0BE35BFA4F25913491932F9695969581
:101B40009F7161F495E0369527959A95E1F72F718D
:101B500092E029F491E003C09C91E3CF93E09F5F72
:101B6000890FDBCF08958091BF089091C408981722
:101B700008F080E00895FF920F931F93CF93DF93B7
:101B8000D82FF62E10E000E080E0C82FCC0FF8012F
:101B9000E351FB4F8491F801EB51FB4F64916F0DC2
:101BA0008D0F0E94150C8C2B0F5F1F4F08301105F5
:101BB00061F7DF91CF911F910F91FF900895982FBA
:101BC000962B907CB9F4E62FE695E695E69590E4A1
:101BD000E99FF0011124E80FF11DE855FE4F6770F1
:101BE00081E090E001C0880F6A95EAF780959281C4
:101BF000892382830895BF92CF92DF92EF92FF9262
:101C00000F931F93CF93DF93D62EC42E7C01C0E099
:101C1000BD2CBC0EF70181917F01DC2D882369F07A
:101C2000082F10E080FF04C06D2F8B2D0E94DF0D68
:101C3000C80195958795DF5FF1CFCF5FC43041F73D
:101C4000DF91CF911F910F91FF90EF90DF90CF9098
:101C5000BF900895982F962B907CB1F4E62FE695CF
:101C6000E695E69590E4E99FF0011124E80FF11D57
:101C7000E855FE4F677021E030E001C0220F6A9501
:101C8000EAF78281822B828308959F92AF92BF925E
:101C9000CF92DF92EF92FF920F931F93CF93DF9338
:101CA00000D01F92CDB7DEB7182FF62EE42FEE0F1F
:101CB000FF0BE35BFA4F25913491822F8F7189835B
:101CC000C90145E0969587954A95E1F78F718A831A
:101CD000932F969596959F719B8303E0911104C075
:101CE00002E0811101C001E0CE0101965C01902E5D
:101CF000910EF50181915F01EF2C882369F0C82EC8
:101D0000D12C80FF04C06E2D812F0E942A0EE394F7
:101D1000C60195958795F1CF1F5F1911EACF802FE6
:101D20000F900F900F90DF91CF911F910F91FF9027
:101D3000EF90DF90CF90BF90AF909F900895FF926B
:101D40000F931F93CF93DF93C82FD62FF22E8A01C4
:101D5000F801FF2049F0449140327CF0403231F4E8
:101D6000CE5F0F5F1F4FF4CF4081F6CF6D2F8C2FCA
:101D70000E94450ECF5FC80FF4CFDF91CF911F9126
:101D80000F91FF900895EF92FF920F931F93CF93BF
:101D9000DF93D0E08DE1F82EC1E080915009D81793
:101DA00060F50D2F10E00053174F60E0C8010E944E
:101DB0008B0DE82E2C2F280F3327331F21343105AC
:101DC0009CF036E0F30E20E0A8016F2D81E00E9428
:101DD0009F0EC1E0ED2FDF5FF0E0E053F74F808111
:101DE000ED2F8111F8CFD9CF20E0A8016F2D8C2FD6
:101DF0000E949F0ECE5FCE0DEDCFDF91CF911F9150
:101E00000F91FF90EF9008959F92AF92BF92CF9263
:101E1000DF92EF92FF920F931F93CF93DF9300D047
:101E200000D0CDB7DEB7E62ED42E292F22952F7005
:101E30002983292F2F702A839C0144E0369527950A
:101E40004A95E1F72F702B838F708C831FEF1D0D48
:101E5000FF24FA94F60E412F6F2DCE0101960E94B9
:101E6000FB0D412F6E2DCE0101960E94FB0D01E06E
:101E70000E0D412F602FCE0101960E94FB0D4D2DBE
:101E80006F2DCE0101960E94FB0D4D2D602FCE01CE
:101E900001960E94FB0D8E010F5F1F4FF12C9E2CAF
:101EA0009F0CF80181918F01CD2C882369F0A82E19
:101EB000B12C80FF04C06C2D892D0E942A0EC50113
:101EC00095958795C394F1CFF394F4E0FF12E7CF93
:101ED0000F900F900F900F90DF91CF911F910F9166
:101EE000FF90EF90DF90CF90BF90AF909F900895BC
:101EF000BF92CF92DF92EF92FF920F931F93CF93F7
:101F0000DF93B62ED42E8C01C0E0CB2CCC0EF80182
:101F10008491DD2D882369F0E82EF12C80FF04C028
:101F20006D2F8C2D0E942A0EC70195958795DF5F36
:101F3000F1CFF8013596E491DD2DEE2369F0EE2E18
:101F4000F12CE0FF04C06D2F8C2D0E94DF0DF701F6
:101F5000F595E795DF5FF1CFCF5F0F5F1F4FC5307E
:101F6000A1F6DF91CF911F910F91FF90EF90DF903D
:101F7000CF90BF9008951F93CF93DF93D82FC62F94
:101F8000142F1C1730F06C2F8D2F0E942A0ECF5F5C
:101F9000F8CFDF91CF911F9108951F93CF93DF93D7
:101FA000C82F162FD42F1C1730F06D2F8C2F0E94A6
:101FB0002A0ECF5FF8CFDF91CF911F9108956F92D6
:101FC0007F928F929F92AF92BF92CF92DF92EF92C9
:101FD000FF920F931F93CF93DF93F82ED0E0C0E0D2
:101FE000EC2E8E0115950795017010E06E2D802F57
:101FF000810F0E942A0E1E5F1034C1F72296C03452
:10200000D10571F7EE24E394D12CD0E01D2F110FF0
:10201000882483948E0CC12CB12C8D2D8170782E48
:10202000AF2CAC0CCC2DCC0F6D2F8A2D0E94150C33
:10203000982E882309F49EC06D2F8A2D0E94BB0D17
:10204000082F6D2F8A2D0E946A09882309F498C0F1
:102050000F3F09F497C032E0632E6C0EA12E8A1454
:1020600058F09C2E691430F06A2D892D0E94DF0DE6
:102070009394F8CFA394F3CF992493949C0EA12E1C
:102080004A2D692D8C2F0E94CD0FA394EA14C0F71E
:1020900000FD08C0AC2E612F8A2D0E94DF0DA39495
:1020A0009A14C8F702FD08C0612F8C2F0E94DF0D23
:1020B0006E2D8C2F0E94DF0D0578053021F4612FE5
:1020C0008C2F0E94DF0DB1104AC0B12CC394E0E206
:1020D000CE12A6CFDF5FD394FD2DF170DF2EE394F7
:1020E000E394D03209F092CFE12C0F2D8091B70804
:1020F000E81608F053C08E2D90E0880F991F9C01C0
:1021000028553E4FF901E353F94F408147FD44C044
:102110002453394FF901C081C7FD3EC08B58974FFA
:10212000FC01D081DF77CF776D2F8C2F0E944D0976
:10213000882391F1C01BCC0FDD0F82E0B82EBD0EBD
:1021400092E0A92EAC0EDD2EBD1400F1CC2EAC1405
:10215000D8F06D2D8C2D0E94DF0DC394F8CFC150A7
:10216000012F801608F4B1CF602F8C2F0E94DF0D55
:102170000F5FF7CF612F872D8C0F0E94DF0DA6CF49
:10218000B92CA4CFB82EA2CFD394DECF61E06D0FCF
:1021900081E08C0F0E942A0EE394A8CFD091AB056A
:1021A000C091AA056D2F8C2F0E944D09882371F0D4
:1021B000CF19CC0FDD0F41E04D0F61E06C0F8C2F7C
:1021C0000E94CD0F6D2F8C2F0E942A0ED091AD054D
:1021D000C091AC056D2F8C2F0E944D098823F1F022
:1021E0008C2F8F19880FCD2FCC0FD1E0D80F41E065
:1021F0004C0F6D2F0E94CD0F6C2F8D2FDF91CF9143
:102200001F910F91FF90EF90DF90CF90BF90AF9014
:102210009F908F907F906F900C942A0EDF91CF91BA
:102220001F910F91FF90EF90DF90CF90BF90AF90F4
:102230009F908F907F906F9008950F931F93CF93EF
:10224000DF93082FC62FD42F122F0E94CD0F412FBE
:102250006C2F802F0E94CD0F412F6D2F802F0E9459
:10226000BB0F412F6D2F8C2FDF91CF911F910F91BD
:102270000C94BB0F2F923F924F925F926F927F927E
:102280008F929F92AF92BF92CF92DF92EF92FF9286
:102290000F931F93CF93DF93C82FA62EDAEFD80F9B
:1022A000BAEFFB2EF60E10E000E08091B708801721
:1022B0001106E1F0DCF09801220F331FC9018855A7
:1022C0009E4FFC01E353F94F408147FD0CC02B5852
:1022D000374FF90160816F778453994FFC018081FA
:1022E0008F770E9430080F5F1F4FDFCFF9EFAF0EDF
:1022F000BF2CF4E09F2E5524539486E0882E8C1A30
:102300007CEFE72EE90CCB2CC694C694C69480E4EF
:10231000C89E600111242B2D2770452C01C0440C50
:102320002A95EAF70D2FC0E0662463946B0CEBEF5F
:102330003E2E390CF601E655FB4F6F01772473945E
:10234000700E003408F09FC0FFE1FB1508F49BC03D
:10235000F601E00FF11D8081842109F094C04E2D1B
:102360006C2F8BE295E00E94780F072DCB5FC13474
:1023700029F7B39485E0980EA39495E49912C0CF01
:102380000E9448080F2D10E0C0E0ED2EEC0E602FEB
:102390008E2D0E94150C811115C0602F8E2D0E946C
:1023A000C40A882379F061E08091CF08833009F076
:1023B00060E06E5F610F8C2F880F880F8C0F8E5F2F
:1023C0000E942A0ECF5FCD3001F70F5F1B5F1134E3
:1023D000D9F6C12C8091B708C81608F012C10C2D8F
:1023E00010E0000F111FC80188559E4FFC01E353F8
:1023F000F94F208127FD03C18453994FFC0180814F
:10240000B82EE894B7F8EB2CED1AFCE0FE1508F4B2
:10241000F6C0F801EB58F74FC081CF77DC2EDF18FC
:102420008CE08D1508F4EBC06C2F8B2D0E944D09AC
:10243000882309F4E4C08E2D880F880FE80E8D2DB7
:10244000880F880FD80E61E06C0F8B2D0E94150C41
:10245000A090CF088111A12C84E08D0DA80E34E04E
:10246000932E9E0C88248A948E0CCD2DAC1608F4E5
:10247000B4C0B82C9B1408F4AEC06C2F8B2D0E94F6
:10248000DF0DB394F7CF6B2D802F0E94150C8111B7
:102490002DC06A2D802F0E946A09882309F465CF18
:1024A000882D800F49F06A2D8FEF800F0E946A09F6
:1024B0000FEF0C0F811101C00C2F6A2D872D0E9488
:1024C0006A0964E0262E811102C053E0252E2C0EED
:1024D00010E08091CF08181708F047CF432D410F27
:1024E000622D802F0E94CD0F1F5FF3CF4E2D6C2FDA
:1024F0008BE295E00E94780F6B2D802F0E94BB0D20
:10250000182F80FD06C04E2D6C2F89E495E00E94A7
:10251000780F11FD06C04E2D6C2F8FE395E00E94C1
:10252000780F12FD06C04E2D6C2F8DE595E00E94B0
:10253000780F13FD06C04E2D6C2F83E595E00E94A9
:10254000780F812F8A718A3061F4662D802F0E9466
:102550006A09882331F04E2D6C2F87E695E00E94A2
:10256000780F812F8672863061F4662D802F0E944D
:102570006A09882331F04E2D6C2F81E795E00E9487
:10258000780F812F8974893061F46B2D872D0E941B
:102590006A09882331F04E2D6C2F8BE795E00E945D
:1025A000780F812F8578853031F44E2D6C2F85E89A
:1025B00095E00E94780F812F867021F4692D8C2F71
:1025C0000E94DF0D1A7009F0D0CE692D83E08C0FC8
:1025D0000E94DF0DCACECF5F49CFF801EC58F74F0C
:1025E000E081E7FBEE27E0F9F0E0EE0FFF1FE95D89
:1025F000FA4F859194914D2D6E2D0E94040FC39436
:10260000E9CE8091AA05C82FCD1BCE30B0F46091E1
:10261000AB05162F1F191D3080F40E944D09882329
:1026200061F0412F440F440F410F6C2F660F660F6E
:102630006C0F88EC9EEF0E94040F8091AC05C82FB0
:10264000CD1BCE30B0F46091AD05162F1F191D3093
:1026500080F40E944D09882361F0412F440F440FFC
:10266000410F6C2F660F660F6C0F8FEE9CE80E9477
:10267000040F04E917E0F801C081CF7019F18281DD
:10268000E82EED1AFCE0FE15E8F0F8016381D62E85
:10269000DF18FCE0FD15B0F00E94C40A882391F019
:1026A000EC2FF0E0EE0FFF1FE15FFA4F8591949160
:1026B0004D2D440F440F4D0D6E2D660F660F6E0DA0
:1026C0000E94040F0C5F1F4F88E00431180799F631
:1026D00004EF16E0F801C081CC2319F18381E82EC4
:1026E000ED1AFCE0FE15E8F0F8016481D62EDF1843
:1026F000FCE0FD15B0F00E94C40A882391F0EC2F95
:10270000F0E0EE0FFF1FEB50FB4F859194914D2DA4
:10271000440F440F4D0D6E2D660F660F6E0D0E9417
:10272000040F0B5F1F4F87E00439180799F680915B
:10273000AC058F3F09F035C0C7E1D9E06C2F8D2F74
:102740000E94DF0DDF5FD733C9F7CF5FCB32A9F728
:1027500028E248E164E38AE00E941D1149E265E352
:102760008BE00E94CD0F49E269E185E30E94BB0F37
:102770004CEA50E021E06EE181E1DF91CF911F91C1
:102780000F91FF90EF90DF90CF90BF90AF909F9010
:102790008F907F906F905F904F903F902F900C9410
:1027A0009F0EDF91CF911F910F91FF90EF90DF90DF
:1027B000CF90BF90AF909F908F907F906F905F90E1
:1027C0004F903F902F9008950F931F93CF93DF93D7
:1027D000D1E010E508E28091600083FF07C0F89423
:1027E00087E78093000880930108FFCFC0913801EC
:1027F000CC2359F08FEF8C0F8C23809338018C27DA
:10280000DF91CF911F910F9108952FB7F894809188
:102810003A0190913B01A0913C01B0913D012FBF45
:102820002FB7F89440913A0150913B0160913C01DF
:1028300070913D012FBF481B590B4430510520F4C6
:10284000D3BF889513BEECCF0E944C0790913701FF
:102850008927EFE2F1E030E020E041E0542F5823F7
:1028600069F150815F5F533010F55083440F2F5F43
:102870003F4F31962830310589F7C927C09337017A
:10288000E7E2F1E081E02C2F282321F02081215084
:10289000B9F02083880F319621E0EF32F20799F7E3
:1028A000909326019095C923C093380194CF10824C
:1028B000C42BD901A95DBE4F1C93D8CF1082D6CFAF
:1028C0000083282F20952F609223E4CF80E00E9480
:1028D000DF0F0E945E0780E20E94DF0F0E946D07FB
:1028E0000E94E4138430E1F708952F923F924F92B3
:1028F0005F926F927F928F929F92AF92BF92CF9290
:10290000DF92EF92FF920F931F93CF93DF93DC013F
:102910006B0163E7B62E75E6A72EEAE09E2EF4E67D
:102920002F2EC8E63C2ED0E24D2E17E2512E0FE698
:10293000802E85E7782E92E7692EE6012196F60132
:102940008491803449F08C93882309F4D7C111967F
:102950007A016E01A701F1CFF2E0CF0ED11CFE018A
:10296000C491C63509F4A0C048F5C13538F4CF3458
:1029700048F4C13409F4AFC07A01ECCF8DEA8C0F72
:102980008230D0F77A01D2E0ED0EF11CFA012081FD
:102990003181DC2FD170213009F064C089E5C33565
:1029A0000CF489E78C9311968C92119712967C9275
:1029B0001297DD2309F451C01396CCCFC03709F428
:1029C00040C028F5C33609F43AC0C936A9F67A01E1
:1029D000D2E0ED0EF11CEA01E8816981CE2FC295AB
:1029E000CF706F73EF70E150EB3008F0B3CFF0E0D1
:1029F000E450FB4E0C94CE267915F9152C16811552
:102A0000841587159315C71590158D158A15C5372B
:102A100009F455C1C63709F447C0C33709F0ACCF34
:102A20007A01F2E0EF0EF11CFA01C081D181FD01C3
:102A3000DF018991882309F48DCF8193F9CF0E941A
:102A4000D4267A01F2E0EF0EF11CEA016881798167
:102A5000CD010E947C07DC017DCF13966C92139709
:102A6000149678CF84E5C3350CF484E78C931196E3
:102A70003C9211971296AC921297CD010496139640
:102A80004C92F901FF27EE0FFF1FE35FF74F6591AF
:102A900074910E947C07DC01D1115CCF5C9211968D
:102AA000BC921197129656CFFA01D0817A01F4E0C8
:102AB000EF0EF11CFA0162817381CD010E947C0747
:102AC000DC01D13009F446CFC63711F4AC9211962F
:102AD000BC9211963FCF7A01F2E0EF0EF11CEA01B1
:102AE0008881813019F467EB70E0B2CF6BEB70E056
:102AF000AFCF4EEB50E030E020E0CD010E948707E1
:102B0000AACF4AEC50E0F7CF60ED70E0A1CF64EDC2
:102B100070E09ECF6AED70E09BCF60EE70E098CFE2
:102B200065EE70E095CFD0E09E01275F3F4FF90141
:102B300043E0F695E7954A95E1F7E553F74F808135
:102B400090E02770332702C0959587952A95E2F784
:102B500080FF0DC06BEE70E0CD010E947C07FE018E
:102B6000EE0FFF1FE55FF74F6591749172CFC45A66
:102B7000D64FE881F0E0EE0FFF1FE75FF74F65915A
:102B80007491CD010E947C0764EF70E062CFD0E0C9
:102B90009E01265F3F4FF90113E0F695E7951A95E0
:102BA000E1F7E553F74F808190E02770332702C0AB
:102BB000959587952A95E2F780FF0BC069EF70E045
:102BC000CD010E947C07FE01EE0FFF1FE95FF74F6A
:102BD000CBCFC35AD64FE881F0E0EE0FFF1FE75F7F
:102BE000F74F65917491CD010E947C0764E071E01C
:102BF00030CF0C2F10E0F80173E0F695E7957A9549
:102C0000E1F7E553F74F808190E0C77002C09595DA
:102C10008795CA95E2F780FF11C04BE051E030E0A4
:102C200020E0CD010E94870762E171E00E947C07ED
:102C3000F801EE0FFF1FE350F84F96CF27E131E088
:102C4000F801ED5AF64FE081F0E0EE0FFF1FED5076
:102C5000F84F4591549151CFD0E09E012B5F3F4FEB
:102C6000F90143E0F695E7954A95E1F7E553F74F0B
:102C7000808190E02770332702C0959587952A952B
:102C8000E2F780FF11C04EE151E030E020E0CD01DD
:102C90000E94870765E271E00E947C07FE01EE0F4B
:102CA000FF1FE551F84F60CF2AE231E0C85AD64FF6
:102CB000E881F0E0EE0FFF1FED51F84FCACF7A0127
:102CC000D2E0ED0EF11CFA014081842F692D0E94A3
:102CD000AE26292F882379F00E94AE26392F842F23
:102CE000622D0E94AE26882319F0805D8C93119688
:102CF000305D3C931196205D2C93EBCEDF91CF910C
:102D00001F910F91FF90EF90DF90CF90BF90AF9009
:102D10009F908F907F906F905F904F903F902F90FB
:102D20000895CF93DF93CDB7DEB7A0970FB6F89491
:102D3000DEBF0FBECDBFAE01475D5F4F6FA178A56F
:102D4000CE0101960E94751420E0AE014F5F5F4FE7
:102D50006EA18DA10E949F0EA0960FB6F894DEBFC3
:102D60000FBECDBFDF91CF91089521E046ED57E032
:102D700061E081E00E949F0E2EE539E080E0F901DC
:102D80004DB75EB74217530740F02F5F3F4F90811A
:102D9000953A19F48F5F8F3F91F721E331E01F924D
:102DA0008F933F932F9387E08F9381E08F930E94BF
:102DB00091160E945E070E946D070F900F900F9072
:102DC0000F900F900F900E94E4138430E1F7089564
:102DD000CF93DF932BE331E08091B80890E0019628
:102DE0009F938F933F932F931F92D1E0DF930E9485
:102DF00091168CE491E09F938F93C6E0CF93DF937D
:102E00000E9491168FE491E09F938F93CF9381E27C
:102E10008F930E9491160E94B30DC82FD091F60691
:102E200029E047E06AE189E00E941D118DB79EB755
:102E30000E960FB6F8949EBF0FBE8DBFCC2351F0F7
:102E400020E1D29FC001112408966C2F70E00E94EF
:102E5000BA26C62F69E06C0F48E08AE00E94CD0FC9
:102E6000C091CE08CF3008F0CFE0D091C00829E063
:102E700047E06AE389E20E941D1120E1D29FC00170
:102E800011240896C295C07FC65F6C2F70E00E9427
:102E9000BA26675D48E08AE2DF91CF910C94CD0FAE
:102EA0006091F8068091F7060E943A110E945E0731
:102EB0000E94E8160E94C30E42E551E021E06BE358
:102EC0008BE20E949F0E0E946D070E94E4138830DF
:102ED000E1F71092500981E0809351098DE18093D0
:102EE00052090895CF92DF92EF92FF920F931F93B2
:102EF000CF93DF93CDB7DEB7C054D1090FB6F894A6
:102F0000DEBF0FBECDBFAE01455B5F4FFA016191E1
:102F10007191AF01CE0101967C010E947514F701F9
:102F20000E2F0E1981918111FBCF10E0F701E10FF7
:102F3000F11D1F5F80818132CCF71082C12CDD240E
:102F4000D39480915009810F8C19813810F00E9420
:102F500050172C2D30E0D701A20FB31F9C2D9117D5
:102F600068F4E091500981E08E0F809350098D91B3
:102F7000F0E0E053F74F80839F5FF1CF60E0C7013F
:102F8000820F931F0E948B0D20915209909151093D
:102F9000482F50E02B3348F0BA01690F711D6B3296
:102FA00071051CF00E945017CCCF490F511D4134C0
:102FB000510534F0D09251092A5F20935209C1CFB4
:102FC0009E5F890F80935109101760F4812FF701DC
:102FD000E80FF11D8F5F90819132CCF71082C12EE6
:102FE000182FAFCFC05CDF4F0FB6F894DEBF0FBE17
:102FF000CDBFDF91CF911F910F91FF90EF90DF90A8
:10300000CF9008958F929F92AF92BF92CF92DF920E
:10301000EF92FF920F931F93CF93DF93CDB7DEB75D
:1030200060970FB6F894DEBF0FBECDBFD82E5B0100
:10303000E82EF12CDB0111961C9111978C918823BD
:1030400039F185E08E9DF0018F9DF00D1124EB503C
:10305000F94F808181FF0CC0D11008C089E591E053
:103060009F938F930E9472170F900F9081E08CC0F6
:1030700080FF0EC00E94410C182F1370D11008C0A1
:103080008CE691E09F938F930E9472170F900F90A0
:103090001370212F30E0F901E95BF84F0491F90139
:1030A000ED5BF84F149185E08E9DD0018F9DB00DA2
:1030B0001124AC50B94F1396EC9113970E0F149640
:1030C000EC911E0F8D2D0E94B807C32E29873A87D9
:1030D0004B875C876D877E878F87988BF501808112
:1030E000853009F437C0863009F472C081114BC0B5
:1030F000D110BCCFF12CE12CF701E95BF84F8491A2
:10310000F701ED5BF84F6491E091F8066E0F909136
:10311000F706890F0E9426098C01009799F0FC019F
:10312000818187FF0FC08EE791E09F938F930E946C
:103130007217D80111968C9111978F7711968C93F5
:103140000F900F90BFEFEB1AFB0AE4E0EE16F104CC
:1031500099F68CCF612F802F0E9426096C01009771
:1031600009F433C0DC0111968C91119787FD2DC0B5
:10317000FC90F7FC1CC087E991E09F938F930E941D
:1031800072170F900F9080E060960FB6F894DEBF34
:103190000FBECDBFDF91CF911F910F91FF90EF90A8
:1031A000DF90CF90BF90AF909F908F900895612F48
:1031B000802F0E940709892B19F083EB91E0DDCF66
:1031C000E894F7F8F601F08251CF88EC91E0D5CF82
:1031D000612F802F0E942609DC01892B69F18C91D7
:1031E00087FD2AC011969C91119797FD25C0C0FEBE
:1031F00023C080688C93E091B80840E1E49FF0011F
:103200001124E454FA4FA457B840B595A795CD01C1
:10321000992763E0969587956A95E1F7E80FF91F7E
:10322000A770BB2721E030E001C0220FAA95EAF782
:103230008081822B80831ACF612F802F0E946A09A0
:103240008111A1CF612F802F0E9407095C0185E0C9
:10325000A114B10409F45BC28E9D80018F9D100DF5
:1032600011240C50194FD80114966C911497139691
:103270008C910E94C40AC82EC501845F96404DEC13
:103280005CEC849F9001859F300D949F300D11243C
:10329000B22E8091BC08DD2049F0D801EC91B8E055
:1032A000EB9FF0011124EF59F74F84918901112709
:1032B000A090BC08BB2081F095E0909FF001919F09
:1032C000F00D1124EC50F94FE08148E0E49FF0014B
:1032D0001124EF59F74FA490880F8A0D0E94C30C58
:1032E0008A1508F048C2CC2031F14FED51E035E0AD
:1032F0003E9DF0013F9DF00D1124EC50F94F2081CF
:1033000084EE91E0309FF001319FF00D1124EC50DC
:10331000F94F30811F923F935F934F931F922F93EA
:103320001F922F939F938F930E9472170FB6F8945A
:10333000DEBF0FBECDBFD11099CE85E0809FF001DA
:10334000819FF00D1124EB50F94F8081886072CF7E
:1033500085E0809FF001819FF00D1124EB50F94F23
:103360008081886080838091BB0895E09E9DF001FC
:103370009F9DF00D1124EB50F94F908192FF04C0F6
:1033800090E0019695958795A090BE08BB2081F0AE
:1033900095E0909FF001919FF00D1124EC50F94FB2
:1033A000E081A8E0EA9FF0011124ED59F74FA490C5
:1033B0008A0D0E94C30C8F5F8A1508F4B2C18A1966
:1033C000A82ECC2049F185E0809FF001819FF00D6F
:1033D0001124EC50F94F30818E9DF0018F9DF00D3E
:1033E0001124EC50F94F2081AA2009F49CC14EEE23
:1033F00051E082EF91E01F923F935F934F931F92B2
:103400002F931F922F939F938F930E9472170FB643
:10341000F894DEBF0FBECDBF8D2D0E94B807922E4F
:1034200035E0832E809EF001819EF00D1124EC503A
:10343000F94F82818A1508F0A9C0CC2009F49BC0FD
:103440004CEF51E0208180E092E05F934F931F9218
:103450002F931F922F939F938F930E9472170FB6F3
:10346000F894DEBF0FBECDBF85E0809FD001819F65
:10347000B00D1124AC50B94FEC911C92A091B8083A
:1034800090E1A99FD0011124AC54BA4FC80123E0A8
:10349000969587952A95E1F7A80FB91F0770112710
:1034A00021E030E001C0220F0A95EAF78C91822BCF
:1034B0008C93D110DBCDA8E0EA9FF0011124EB59E9
:1034C000F74F04918091CE081FE08F3008F4182F39
:1034D0001295107F165FE091C008412F401B550BDD
:1034E000E417150609F00CF44FC08F5F8093CE08E7
:1034F00027E032E090E001969F938F933F932F93C4
:103500000E9472178091BF088C5F8093BF088091E2
:10351000CE080F900F900F900F90843108F58370B4
:10352000823069F480E292E09F938F930E94721739
:103530008091BB088F5F8093BB080F900F908091A4
:10354000CE08837069F483E392E09F938F930E9487
:1035500072178091BC088F5F8093BC080F900F900A
:103560000E94B30D8093F606E091C008E00FE11BC6
:10357000E093C0087BCD85E492E09F938F930E94F7
:1035800072170F900F9070CFE00FF2CFB11048C0BC
:1035900095FE46C00E94410C883208F041C082E688
:1035A00092E08E9CF0018F9CF00D1124EC50F94FAD
:1035B00020811F922F939F938F930E947217809167
:1035C000C4088D5F8093C4080E94B30D9091F606E5
:1035D0000F900F900F900F90891708F4982F9093E9
:1035E000F60691111DC049E752E085E0809FF00189
:1035F000819FF00D1124EC50F94F20818DE792E06E
:103600005F934F931F922F931F922F939F938F93AC
:103610000E9472170FB6F894DEBF0FBECDBF26CD45
:1036200096FE36C00E94410C883208F031C0CC2092
:10363000E1F044E852E085E0809FF001819FF00DC9
:103640001124EC50F94F20818BE892E05F934F9367
:103650001F922F931F922F939F938F930E94721705
:103660000FB6F894DEBF0FBECDBFB11006C00E94EA
:10367000410C83708C5F8093C20885E0809FF001CD
:10368000819FF00D1124EB50F94F80818160808380
:1036900094FE31C085E0809F7001819FF00C112461
:1036A000F701EB50F94F808182FD25C00E94410C4B
:1036B000843108F5CC20A1F0F701EC50F94F2081BE
:1036C0008BE992E01F922F931F922F939F938F93DA
:1036D0000E9472170F900F900F900F900F900F9005
:1036E00085E0809FF001819FF00D1124EB50F94F90
:1036F00080818460808385E0809FF001819FF00D50
:103700001124EC50F94F82818A198283AFCC8E9DAF
:10371000F0018F9DF00D1124EC50F94F03831483B9
:10372000A5CCCC2031F18BEA92E055E0509FF0011E
:10373000519FF00D1124EC50F94F408121EB32E004
:103740005E9DF0015F9DF00D1124EC50F94F50810A
:103750001F925F939F938F931F924F931F924F934C
:103760003F932F930E9472170FB6F894DEBF0FBEDF
:10377000CDBFA12C51CEDD2009F4EACD85E08E9D90
:10378000F0018F9DF00D1124EC50F94FE08198E08D
:10379000E99FF0011124E05AF74F8491E6CD4F9252
:1037A0005F926F927F928F929F92AF92BF92CF92D1
:1037B000DF92EF92FF920F931F93CF93DF93CDB7DA
:1037C000DEB72C970FB6F894DEBF0FBECDBFE82E44
:1037D000F12C95E0899F90011124F901EC50F94FEB
:1037E0009081992309F465C0082F8823A9F0D90195
:1037F000AB50B94F6D018C9181FD0EC080FF70C040
:1038000086E089870E94410C83708A87BE01675FCA
:103810007F4F802F0E94021885E08E9DF0018F9DC2
:10382000F00D1124EB50F94F808180FF29C0011168
:1038300016C18091C20881508093C208811120C0B6
:1038400025E02E9DC0012F9D900D1124FC01EB5011
:10385000F94F20812E7F20838C50994FDC012C91D1
:1038600082EC92E01F922F931F922F939F938F933E
:103870000E9472170F900F900F900F900F900F9063
:1038800085E08E9DF0018F9DF00D1124EB50F94FD6
:10389000808181FF0DC10111E6C08091C308815074
:1038A0008093C308882309F4E3C08091C108811183
:1038B00003C12C960FB6F894DEBF0FBECDBFDF91CB
:1038C000CF911F910F91FF90EF90DF90CF90BF901D
:1038D000AF909F908F907F906F905F904F900895E2
:1038E0008E2D0E94B80729833A834B835C836D83B6
:1038F0007E838F839887198621FF04C0F60180811B
:1039000083FF84CF8091F406882309F47FCF85E07C
:103910008E9DA0018F9D500D1124FA01EC50F94F9E
:10392000748083819091F706891B87FD8195909122
:10393000F806791A77FC719420FD06C04B50594F58
:10394000DA019C9193FF0AC09091B90893FD04C0DD
:10395000780EB9E0B71578F511E001C010E00E94CB
:10396000410C83708A87682F70E0FB01E95BF84F98
:1039700084916D5B784FFB01649195E09E9DD00131
:103980009F9DB00D1124AC50B94F1496EC91149733
:103990006E0F13969C91890F0E940709009741F0C2
:1039A000112309F433CFDC018C91813009F02ECF43
:1039B00086E089872BCFD12CC12C85E08E9D5001CC
:1039C0008F9DB00C1124F501EC50F94F5F014F01B0
:1039D000F3E08F0E911C84E0A80EB11C86E0682EE7
:1039E0005C2CF601E95BF84F8491D4014C90480EB1
:1039F000F601ED5BF84F1491D501EC911E0F612F8C
:103A0000842D0E946A0981111BC0612F842D0E94A0
:103A10000709009721F0FC018081813089F48091B1
:103A2000F706481A842D87FD81959091F806191B99
:103A300017FD1195180F171558F469865A86712EBF
:103A4000FFEFCF1ADF0A84E0C816D10449F6DECEB4
:103A50001711F6CF0E94410C80FDEFCFF1CF0E94ED
:103A6000410C8770EBCE0E94410C877009F021CF8A
:103A700025E02E9DC0012F9D900D1124FC01EB50DF
:103A8000F94F20812D7F20838C50994FFC0120819C
:103A90008CED92E01F922F931F922F939F938F9301
:103AA0000E9472170F900F900F900F900F900F9031
:103AB000002309F4FACEFDCE81508093C108811114
:103AC000F8CE8091B908877F8093B90887EF92E09C
:103AD0009F938F930E9472170F900F90EACEBF9220
:103AE000CF92DF92EF92FF920F931F93CF93DF93CA
:103AF0008C0185E0F80180830E94E81661E08BEC80
:103B000097E00E948B0D869521E04BEC57E06DE12C
:103B100090E2981B892F0E949F0E44E153E021E020
:103B200063E285E00E949F0EC8E129E4B22E3FE3E4
:103B3000C32E44E3D42E53E5E52E80E2F82EFC0E8E
:103B4000DB2DDC1B4F2D6D2F8C2F0E94BB0F4F2DBB
:103B50006D2F8C2D8C1B0E94BB0F9BE0F92EFC0E51
:103B6000DD2DDC1B46E14C0F6F2D8D2F0E94CD0FFC
:103B70004E2D4C1B6F2D8D2F0E94CD0FC150C43187
:103B8000E1F60E946D070E94E4138032D1F020F428
:103B9000803151F080E00BC08034B9F08038D1F72B
:103BA000F801118281E003C081E0F8018183DF9197
:103BB000CF911F910F91FF90EF90DF90CF90BF902A
:103BC000089582E0F8018183EDCF83E0FBCF60911F
:103BD000F8068091F7060E943A110E945E070E9443
:103BE000E8160E94C30E0C946D079F92AF92BF928D
:103BF000CF92DF92EF92FF920F931F93CF93DF93B9
:103C0000CDB7DEB7C054D1090FB6F894DEBF0FBEF2
:103C1000CDBF8E01025B1F4FF801E190F1908F0143
:103C20000E94E816A801B7019E012F5F3F4F79015E
:103C3000C9010E947514F7019E2E9E188191811171
:103C4000FBCF891548F4F701E80FF11D8F5F9081D4
:103C50009132CCF71082F5CF10E08DE1D82E01E043
:103C6000191560F55701A10EB11C60E0C5010E9455
:103C70008B0DC82EE02FE80FFF27FF1FE134F10561
:103C8000B4F0F6E0DF0E20E0A5016D2D81E00E948A
:103C90009F0E01E0C394C3940C0DE12F1F5FEE0D46
:103CA000FF2DF11D8081E12F8111F8CFD9CF20E0C8
:103CB000A5016D2D802F0E949F0EECCF4DE369E38F
:103CC00086E00E94BB0F4DE369E38EE00E94BB0FCC
:103CD00047E36CE088E00E94CD0F4FE36CE088E0A2
:103CE0000E94CD0F68E387E00E942A0E68E38DE012
:103CF0000E942A0E6EE387E00E942A0E6EE38DE09A
:103D00000E942A0E41E469E389E00E94450E4DE3DA
:103D100069E386E20E94BB0F4DE369E38EE20E94F5
:103D2000BB0F47E36CE288E20E94CD0F4FE36CE2E9
:103D300088E20E94CD0F68E387E20E942A0E68E3C2
:103D40008DE20E942A0E6EE387E20E942A0E6EE345
:103D50008DE20E942A0E42E469E389E20E94450E48
:103D600045E253E021E069E382E10E949F0E49E2CF
:103D700053E021E069E382E30E949F0E0E946D07F9
:103D80000E94E413182F8C70D9F30E94E71D81E084
:103D9000183009F080E0C05CDF4F0FB6F894DEBF4A
:103DA0000FBECDBFDF91CF911F910F91FF90EF908C
:103DB000DF90CF90BF90AF909F9008958F929F9289
:103DC000AF92BF92CF92DF92EF92FF920F931F9329
:103DD000CF93DF9300D000D0CDB7DEB78091B80885
:103DE00087FD7CC18091AE059091AF059093A901AC
:103DF0008093A80110E08091B808181738F409EDF5
:103E00000E94410C0150E1F71F5FF5CFEAEAF3E0B1
:103E10001FEF119344E0EA3AF407D9F760E071E04C
:103E20008AEA94E00E94FE0860E870E084E997E086
:103E30000E94FE0860E670E084E198E00E94FE08BF
:103E400060E470E084E798E00E94FE0881E08093DF
:103E5000B4081092B6081092B7081093AD051093ED
:103E6000AC051093AB051093AA050E94E71D0E94B4
:103E70004D0D4DE06DE10E94370B00E010E1BB24D9
:103E8000B3948091B608803208F053C00E94C30CEE
:103E9000E82EF12C0E94410C8370D82E0E944D0D0B
:103EA000C82EC701880F991FE80EF91EC7018C5E46
:103EB000974F7C019E012D5F3F4FAE014C5F5F4FDE
:103EC000DC0112966C918D2D0E94FB0C9E012F5FE0
:103ED0003F4FAE014E5F5F4F6C2D8D2D8B250E94A5
:103EE000FB0C4D2D50E0BA01695B784FFB01D4907B
:103EF0002C81D20ED7012C91D20E4D5B584FFA0176
:103F000024913B81230F1196FC90F20EFB016491EA
:103F1000FA0144918981481B4F0D8A81681B6D0D00
:103F20008C2D0E94370B882321F06F2D8D2D0E9440
:103F30005A0C0150110909F0A4CF00E014E043E04D
:103F4000C42E8091B6080E94C30CE82EF12C0E946A
:103F5000410C8370D82EC701880F991FE80EF91EF7
:103F6000A7014C5E574F7A019E012F5F3F4FAE0174
:103F70004E5F5F4FD70112966C918D2D0E94FB0C06
:103F80006D2D70E0FB01E95BF84F8491D701EC9156
:103F90008E0FEA818E0F8A836D5B784FFB016491EF
:103FA0001196EC916E0FE9816E0F69830E946A0988
:103FB000882341F1912CA980BA808091B608981687
:103FC00008F09DC0892D90E09C9C90011124F9017E
:103FD000EC5EF74F7F01FC01EE0FFF1FE80FF91FAA
:103FE000EC5EF74F8081B81A8180C7010E94C40837
:103FF000B81610F09394DFCFC7010E94AF08A8183D
:10400000A816C0F70150110909F09BCFEAEAF4E0C5
:10401000DF01BA9580819C91892B819385E0EA3AF2
:10402000F807B1F70E9448088091B8088F3030F443
:104030000E94CD0C8093AA059093AB050E94CD0CF5
:104040008093AC059093AD0509EF16E0EE24E39460
:10405000F12C95E0D92EDE9CF001DF9CF00D1124AF
:10406000EC50F94FDF014D2D1D924A95E9F70E9462
:10407000CD0CD80113968C93139714969C930E94A1
:10408000410CE091B808B8E0EB9F90011124E82FB3
:10409000E770E20FF32FF11DE55BF84FE491EE239B
:1040A00071F3D801EC93B8E0EB9FF0011124EC59C7
:1040B000F74FE491D8011296EC93BFEFEB1AFB0A8D
:1040C0000B5F1F4FE0E2EE16F10409F0C4CFEAEAFD
:1040D000F1E0119243E0EA3AF407D9F70F900F901C
:1040E0000F900F90DF91CF911F910F91FF90EF9064
:1040F000DF90CF90BF90AF909F908F900895F1E0A8
:10410000FD1540F16FEF6A0D8B2D0E946A09811138
:1041100079CF61E06A0D8B2D0E946A09811172CFFF
:10412000F12C6A2D8B2D8F190E946A09882309F4BE
:1041300069CF6A2D8B2D8F0D0E946A09882309F49F
:1041400061CFF39444E0F412ECCF6A2D8B2D0E94E2
:104150005A0C58CF6A2D8FEF8B0D0E946A0981117E
:1041600051CF6A2D81E08B0D0E946A0981114ACFDF
:10417000F12C6A2D6F198B2D0E946A09882309F48E
:1041800041CF6A2D6F0D8B2D0E946A09882309F497
:1041900039CFF39454E0F512ECCFD7CF1F920F92A2
:1041A0000FB60F9211248F939F938091E10090910D
:1041B000E100937F9093E10083FF0FC01092E9002C
:1041C00091E09093EB001092EC0092E39093ED005D
:1041D0001092A70198E09093F00082FF22C093E034
:1041E0009093E9009091F200992319F09AE390934B
:1041F000E80090914801992341F090914801915035
:1042000090934801911101C05D9A9091A601992364
:1042100041F09091A60191509093A601911101C097
:10422000289A84FF18C08091E2008E7E816080937E
:10423000E2008091E1008F7E8093E100809149014E
:104240008E7E8061809349019F918F910F900FBE68
:104250000F901F90189580FFF7CF8091E2008E7E1F
:1042600080618093E2008091E1008E7E8093E10086
:10427000809149018E7E8160E5CF1F920F920FB62B
:104280000F921124CF92DF92EF92FF920F931F9320
:104290002F933F934F935F936F937F938F939F934E
:1042A000AF93BF93EF93FF93CF93DF93CDB7DEB779
:1042B0006C97DEBFCDBF1092E9008091E80083FFCC
:1042C00025C068E0CE0145960E945C0682EF80938F
:1042D000E8008D8987FF39C09091E80090FFFCCFFE
:1042E000982F907609F034C19E894F89588D2F8977
:1042F000F88C911131C0803861F58091470180932D
:10430000F1001092F1008EEF8093E8006C960FB6EA
:10431000F894DEBF0FBECDBFDF91CF91FF91EF913B
:10432000BF91AF919F918F917F916F915F914F91CD
:104330003F912F911F910F91FF90EF90DF90CF90C1
:104340000F900FBE0F901F9018959EEF9093E8006E
:10435000C7CF1092F100D5CF913059F48111D3CF4E
:104360004130510581F6809147018D7F809347014F
:10437000CACF933049F48111C6CF4130510519F6A7
:10438000809147018260F2CF953041F48091E8003E
:1043900080FFFCCF20682093E300B5CF963009F072
:1043A000A9C00B8D1C8D22E01092E90010924501EE
:1043B00010924401F2122EC0109243011092420159
:1043C0000E942B061F8299E09983FA8291E09E83D6
:1043D00090EA98879AEF998720914401309145019E
:1043E000275F3F4F3C832B838D831092E90010920F
:1043F000450110924401109343010093420149E0AA
:1044000050E0BE016F5F7F4F80E00E9405060E9472
:104410002B0679CF10934301009342010E940F05B0
:10442000DC0112960D911C910115110509F451C181
:10443000D801ED91FC910480F581E02DBE016B5E09
:104440007F4FC8010995009709F03EC1F80100852A
:104450001185EACFF3E0FF120EC08F89882309F49B
:1044600040C0823061F440E867E08AE299E00E944F
:10447000D205811148CF81E28093EB0047CF813094
:1044800029F440E86BE08EE199E0F1CF833099F7B1
:104490000E940F05DC011296ED90FC908E010F5FDB
:1044A0001F4F6801E114F10479F0D701ED91FC91FF
:1044B0000680F781E02DB801C7010995080F111D8D
:1044C000F701E084F184EECFD8011C92F60101904F
:1044D0000020E9F73197BF016C197D0940E0C60162
:1044E000C6CF68E079E0FB01449150E080E80E948B
:1044F000050609CF973009F4BECF983021F481E04A
:104500008093F10000CF993009F0FDCE837009F05F
:10451000B2CFEDE0F1E081E031E096E3219122239A
:1045200071F08093E9003093EB00DF0111972C913B
:104530002093EC009093ED008F5F873079F78EE742
:104540008093EA001092EA008F898093A701DBCE66
:104550008B8D9C8D1092E9001092450110924401C0
:104560009093430180934201898D811192C08E897D
:104570009D89913A49F4813209F07DCF47E050E0BE
:1045800064E071E080E0B3CF913209F074CF833200
:1045900069F48F89988DB0E0A0E08093000190933A
:1045A0000101A0930201B0930301ADCE803269F402
:1045B0008091E80082FFFCCF67E084E091E00E94F8
:1045C0005C068BEF8093E8009ECE823209F09BCE92
:1045D0008F8980930B01EEEFFFE7859194918B3FDC
:1045E0009C4D51F1E0E0F8E08091040190910501CB
:1045F000A0910601B0910701803B9440A105B1054F
:10460000F1F480910B0180FD1AC0EE3F8AE0F807BB
:1046100089F587E797E79183808380916000809395
:10462000460188E19BE00FB6F894A895809360005E
:104630000FBE9093600067CEEEEFFAE0D5CF808199
:1046400091818737974709F05ECEA89580916000E9
:104650008861809360008091460180936000EE3F06
:104660002AE0F20789F08091FE0A9091FF0A918377
:10467000808349CE808191818737980751F290934A
:10468000FF0A8093FE0AC5CF1092FF0A1092FE0A1D
:104690003ACE0E940F05DC0112960D911C91011576
:1046A000110509F4E8CED801ED91FC910190F0815B
:1046B000E02DBE016B5E7F4FC8010995811123CEAD
:1046C000F80100851185EBCF181619060CF41BCEE6
:1046D000D2CEF1E0FF12BECE6CE079E004CF1F92A3
:1046E0000F920FB60F9211242F933F938F939F93A6
:1046F000AF93BF9380913A0190913B01A0913C010F
:10470000B0913D013091390123E0230F2D3758F549
:104710000196A11DB11D2093390180933A01909318
:104720003B01A0933C01B0933D0180913E019091EB
:104730003F01A0914001B09141010196A11DB11D21
:1047400080933E0190933F01A0934001B0934101BB
:10475000BF91AF919F918F913F912F910F900FBE7D
:104760000F901F90189526E8230F0296A11DB11DEA
:10477000D2CFEAE4F1E01382128288EE93E0A0E067
:10478000B0E084839583A683B78387E191E091832A
:1047900080838FEF9FEF958784870895CF93DF9372
:1047A00000D000D0CDB7DEB7789484B5826084BDE8
:1047B00084B5816084BD85B5826085BD85B5816025
:1047C00085BD80916E00816080936E0010928100A3
:1047D000809181008260809381008091810081605E
:1047E000809381008091800081608093800080911F
:1047F000910082608093910080919100816080930C
:104800009100809190008160809390008091C10020
:1048100084608093C1008091C10082608093C10058
:104820008091C10081608093C1008091C30081604C
:104830008093C3008091C00082608093C00080910B
:10484000C20081608093C20080917A00846080936E
:104850007A0080917A00826080937A0080917A0059
:10486000816080937A0080917A00806880937A00DA
:104870001092A70110924701109249018091D70030
:1048800081608093D70080EA8093D80089B58061E9
:1048900089BD89B5826089BD09B400FEFDCF61E0A4
:1048A00070E080E090E00E948E068091D8008F7CBE
:1048B00080618093D8008091E000807F8093E00049
:1048C0008091E1008E7E8093E1008DE08093E20094
:1048D000559A209A81EC80937C0085B1806F85B9D0
:1048E00084B1877E84B984B1876E84B95E9A5F98FB
:1048F0008AB1806D8AB9769A6E9881B3806F81BBD8
:10490000899880B38D7080BB80E58CBD81E08DBDC2
:104910000E94C1065F9A0E94C1065E980E945A07D3
:1049200005E218E0B2E3EB2EB8E0FB2EF80184912B
:104930000E9454070F5F1F4FE016F106B9F70E945F
:104940005C0781E8809364008091650081608093BA
:1049500065000E944C0787FD11C0EEE5F9E0DF011C
:1049600087E72DB73EB72A173B07A0F485EA2DB796
:104970003EB72E173F0780F08193F9CF0E945A0768
:1049800085EA0E9454070E945C072E982F982D9864
:104990002E98FFCF8D93E5CF66EB77E088EA91E024
:1049A0000E94FE088EEB9AEB9093AF058093AE05C4
:1049B00022E02093CF089093A9018093A80165E09D
:1049C00083E599E00E94590D64E088E599E00E9432
:1049D000590D61E08CE599E00E94590D61E08DE58B
:1049E00099E00E94590D1092B8080E94DE1EE1EC79
:1049F000F8E08AE0DF011D928A95E9F7A9EBB8E0BB
:104A000090E080E0FC01EA59F74FE491ED930196C4
:104A100088309105B9F70091AD05F090AC05E4EF51
:104A2000F6E085E0DF011D928A95E9F711E0109329
:104A3000F4060E94B30D8093F606F092F7060093F9
:104A4000F80610925009109351098DE18093520994
:104A50008CE293E09F938F930E9472170E94EE095D
:104A60000E94E71D0F900F90EE24E39400E010E009
:104A700010925009FF24F394F09251098DE1809334
:104A8000520919821A821B821C820E94E41380310F
:104A900009F445C0A8F5843009F457C0883009F4FA
:104AA00046C08090F7069090F806BE016F5F7F4F7A
:104AB00080E00E940218882309F4EBC00E94480895
:104AC0000E94EE09A090BD0888EAC82E81E0D82E89
:104AD000B12CF090BD08BB2059F0F601E45BFA4F11
:104AE000E08188E0E89FF0011124EE59F74FF4903F
:104AF000FA1408F4BFC08B2D0E94CF1BFA18F8CF10
:104B0000803489F0803839F0803259F686E0898324
:104B100082E08A83C6CF86E089831A82C2CF86E08C
:104B20008983FA82BECF86E0898383E0F2CFE09169
:104B3000CD08F0E0EE0FFF1FE45CF74F25913491B4
:104B4000CE010196F9010995ACCFF090CD08BB24B8
:104B5000B394E2E5CE2EE8E0DE2EF5E0AF2E0E9423
:104B6000E8167DE1872E912CE92DF0E0EE0FFF1F76
:104B7000EC0DFD1D4591549121E0682D88E00E94C7
:104B80009F0E9394F6E08F0EA91470F78F2D880F67
:104B90008F0D880F32E2380F845E381718F1982F86
:104BA00097704E2D01C0440F9A95EAF7E82FE695CD
:104BB000E695E69590E4E99FF0011124E855FE4F53
:104BC00091E0282F292B207C19F42381242723838B
:104BD0009F5F31969034A9F78F5FDFCFFA2CBFCF5C
:104BE000F12CBDCF0E946D070E94E413803109F4BF
:104BF0003CC0D8F4843009F4A1C0883009F0AFCFAC
:104C0000EF2DF0E0EE0FFF1FBB2009F4A0C0E45C25
:104C1000F74F25913491CE010196F901099588232A
:104C200009F48CC0F092CD083CCF803429F0803854
:104C3000B9F0803209F093CFF090CD0842E5C42E50
:104C400048E0D42E55E0A52EBB2039F024E0A22E5A
:104C500038E4C32E38E0D32EF12C81E0B8267FCF84
:104C6000FF2009F4BBCFFA947ACFAF1409F4B8CF80
:104C7000F39475CF8A2D0E94C30C8F1518F48B2DD9
:104C80000E94CF1BB39495E0C90ED11CA0E2BA12CA
:104C900020CF0E94E71D8091F706881205C09091F1
:104CA000F806991609F44CC09091AA05891721F1CC
:104CB0009091F7068091AC05981342C09091F80648
:104CC0008091AD0598133CC082E493E09F938F934D
:104CD0000E94F51D0F900F90882391F18091B808E4
:104CE00081508093B8080E94DE1E8091AA058093AF
:104CF000F7068091AB051EC09091F8068091AB0538
:104D00009813D6CF89E593E09F938F930E94F51D6A
:104D10000F900F90882309F4CBCF8091B8088F5F54
:104D20008093B8080E94DE1E8091AC058093F70640
:104D30008091AD058093F8060E94EE090E94E71D60
:104D40000115110509F494CE0E94000091CEEE5C8D
:104D5000F74F85919491FC010995F0CF991B79E06B
:104D600004C0991F961708F0961B881F7A95C9F7FB
:104D700080950895AA1BBB1B51E107C0AA1FBB1F4A
:104D8000A617B70710F0A61BB70B881F991F5A95D7
:104D9000A9F780959095BC01CD010895EE0FFF1FF6
:104DA0000590F491E02D099481E090E0F8940C9442
:064DB000D926F894FFCFA4
:104DB600FFFFFFFF00E100000000000000C180814E
:104DC600000000000000002305C706440539058AD7
:064DD6000548056605001A
:00000001FF
