:100000000C9457080C947F080C947F080C947F087C
:100010000C947F080C947F080C947F080C947F0844
:100020000C947F080C947F080C94572D0C94C62DCB
:100030000C947F080C947F080C947F080C947F0824
:100040000C947F080C947F080C947F080C947F0814
:100050000C947F080C947F080C947F080C94F52F67
:100060000C947F080C947F080C947F080C947F08F4
:100070000C947F080C947F080C947F080C947F08E4
:100080000C947F080C947F080C947F080C947F08D4
:100090000C947F080C947F080C947F080C947F08C4
:1000A0000C947F080C947F080C947F0859657300AA
:1000B0004E6F004C6F6164696E672E2E2E0054687F
:1000C00065200074686520006F6D657468696E67EF
:1000D0000061726500697300637572736564200066
:1000E000666F6F6420726174696F6E006172726F07
:1000F000770073776F726400205B40642061746BDB
:100100005D00626F7700205B4064206465665D007F
:1001100072696E67206F66200000205B4064207368
:1001200074725D00205B4064206465785D00205B34
:1001300040645D002072696E6700616D756C657466
:10014000206F662000205B40634075207370645D03
:100150000020616D756C657400706F74696F6E005E
:10016000206F662000706F74696F6E007363726F2A
:100170006C6C00206F6620007363726F6C6C0052B1
:10018000616E643A20407840782F40784078005380
:100190007461636B3A2040750057616C6C20537436
:1001A000796C653A207B204075207D0040752028C1
:1001B00040642900407500506C6179657220496E79
:1001C000666F726D6174696F6E00407500407500F6
:1001D000456666656374733A00636F6E6675736532
:1001E0006400706172616C797A6564007765616B37
:1001F000656E656400696E76697369626C6500732B
:1002000074617276696E67006E6F6E65004069009A
:1002100044726F70207768696368206974656D3F08
:1002200000496E76656E746F72790055736520773C
:1002300068696368206974656D3F00486967682074
:1002400053636F72657300536176652068696768F0
:100250002073636F72653F0040750044756E67657B
:100260006F6E204C6576656C2040750048500058D4
:10027000500048756E67727900576869636820643A
:100280006972656374696F6E3F005363726F6C6C63
:100290002044756E67656F6E00005B6D6F72655D03
:1002A0000073746F70207573696E6700596F7520E5
:1002B00061726520756E61626C6520746F2040709C
:1002C000207468652040692E0074616B65206F663C
:1002D0006600596F75204070207468652040692E53
:1002E00000596F75277265206E6F7420686F6C649B
:1002F000696E67206120626F772E00596F752068E4
:10030000617665206E6F206172726F77732E005474
:10031000686520406920627265616B732E004053EE
:10032000204041207765616B656E656421006265E0
:10033000636F6D6500405320405620636F6E667595
:1003400073656421006469650040532040562100B4
:10035000596F7520617265207374617276696E677A
:100360002100596F7520616476616E636520746F3A
:10037000206C6576656C2040752100596F7520668C
:1003800065656C207374726F6E6765722E00596FAD
:1003900075206665656C20717569636B65722E00EA
:1003A000405320647261696E7320796F75722068A2
:1003B00065616C7468210064696500405320405693
:1003C0002100736C696768746C792000596F75201F
:1003D0006665656C2040706265747465722E0000FD
:1003E0004053206C6F6F6B7320407062657474654E
:1003F000722E00596F757220737472656E6774681F
:100400002072657475726E732E00596F7520747545
:10041000726E20696E76697369626C652E00596F21
:1004200075206665656C207374726F6E67657221E6
:1004300000596F752061726520706172616C797A04
:1004400065642100596F752061726520636F6E6667
:10045000757365642100726561647900596F752058
:100460004070207468652040692E00596F752066C1
:1004700065656C2066756C6C2E00456E6368616EF8
:1004800074207768696368206974656D3F004E6FFA
:100490007468696E672068617070656E732E0059AC
:1004A0006F75206265636F6D65206177617265208D
:1004B0006F6620796F757220737572726F756E64D6
:1004C000696E67732E004964656E7469667920777A
:1004D00068696368206974656D3F00596F752069AC
:1004E00064656E7469666965643A2040692E0054DB
:1004F000686520406920676C6F777320626C756552
:1005000020666F722061206D6F6D656E742E0055D0
:100510006E637572736520776869636820697465B6
:100520006D3F0054686520406920676C6F777320C9
:10053000776869746520666F722061206D6F6D65E4
:100540006E742E00596F752066696E6420796F7520
:100550007273656C6620696E20616E6F7468657277
:10056000206C6F636174696F6E2E00707574206FFC
:100570006E0054686520646F6F7220697320616C2F
:10058000726561647920636C6F7365642E005468D2
:100590006520646F6F7220697320626C6F636B6596
:1005A000642E00596F7520736565206E6F20646F2F
:1005B0006F722074686572652E006D6973730040F8
:1005C0005320407620404F2E00686974004053202D
:1005D000405620404F2E00596F7520666F756E642F
:1005E00020612068696464656E20646F6F72210009
:1005F000596F752061726520756E61626C6520743B
:100600006F2064726F70207468652040692E0059F5
:100610006F752064726F70207468652040692E00C9
:10062000546865204069206869747320404F210038
:100630005468652040692073686174746572732E14
:10064000006D6973736500596F7572206172726F06
:10065000772040707320404F2E0068697400546802
:10066000726F7720776861743F00405320404120CB
:100670006E6F206C6F6E67657220636F6E66757348
:1006800065642E004053204041206E6F206C6F6ED9
:1006900067657220706172616C797A65642E0059A9
:1006A0006F7520617265206E6F206C6F6E6765726A
:1006B00020696E76697369626C652E004053206212
:1006C00072656174686573206669726521004172A4
:1006D0006475526F677565005072657373204120B1
:1006E000746F20706C61792E0057656C636F6D6557
:1006F000204070746F2041726475526F6775652E6B
:10070000005069636B207570207468652040693FF4
:1007100000596F752063616E277420686F6C6420C8
:10072000616E79206D6F7265206F662074686F73DB
:10073000652E00596F752063616E277420686F6C99
:100740006420616E79206D6F7265206974656D73C8
:100750002E00596F75206E6F772068617665204096
:10076000692E00476F20646F776E20746F20746865
:1007700065206E6578742064756E67656F6E3F00E6
:1007800052657475726E20746F207468652073757D
:1007900072666163653F00596F75206861766520F8
:1007A0006573636170656420776974682074686537
:1007B00020616D756C6574206F662059656E646F7D
:1007C0007221005072657373204220746F20636F32
:1007D0006E74696E75652E00476F206261636B20D1
:1007E000757020746865207374616972733F005975
:1007F0006F75206C6561766520776974686F7574B4
:100800002074686520616D756C6574206F66205971
:10081000656E646F722E007B20416374696F6E7326
:10082000207D007B2047616D65204D656E75207DC4
:1008300000006261636B2000596F7520676F742040
:100840007468652040692E00537461727665642077
:10085000746F206465617468000044656174682089
:10086000627920404D004162616E646F6E65642064
:100870007468652067616D650052657475726E6598
:100880006420746F20746865207375726661636597
:1008900000457363617065642077697468207468CB
:1008A0006520616D756C6574004D697363005363F9
:1008B000726F6C6C7300506F74696F6E73004A6571
:1008C00077656C72790041726D6F72005765617067
:1008D0006F6E730053706565643A00446566656EBB
:1008E00073653A0041747461636B3A0044657874CF
:1008F00065726974793A00537472656E6774683A08
:10090000004D6178204865616C74683A004C6576EA
:10091000656C3A0053636F72653A007368696D6D78
:100920006572696E6700676C6F77696E67007461E6
:100930007474657265640079656C6C6F77656400CA
:100940006661646564006D61676963206D617070E4
:10095000696E670074656C65706F72746174696F3D
:100960006E0072656D6F76652063757273650065E4
:100970006E6368616E74696E67006964656E746940
:10098000667900626C756500677265656E006F72EE
:10099000616E676500636C65617200726564006911
:1009A0006E7669736962696C6974790073747265D3
:1009B0006E67746800706F69736F6E00636F6E6648
:1009C0007573696F6E006865616C696E6700596563
:1009D0006E646F7200726567656E65726174696FCF
:1009E0006E00636F6E736572766174696F6E00631B
:1009F0006C617269747900737065656400746F70FE
:100A0000617A00656D6572616C640072756279006F
:100A10006469616D6F6E640070726F746563746990
:100A20006F6E0064657874657269747900737472AE
:100A3000656E6774680073656520696E76697369B1
:100A4000626C6500626F6F74730068656C6D006145
:100A5000726D6F72004C6F7264206F662044617219
:100A60006B6E6573730066616C6C656E20616E679A
:100A7000656C00647261676F6E00677269666669B3
:100A80006E0074726F6C6C00696E637562757300D2
:100A90006D696D696300686F62676F626C696E0093
:100AA000746172616E74756C61006F72630070685E
:100AB000616E746F6D00676F626C696E007A6F6D46
:100AC00062696500726174746C65736E616B650058
:100AD000736E616B650062617400446562756720C6
:100AE000496E666F00536176652050726F6772655C
:100AF000737300486967682053636F7265730050B1
:100B00006C6179657220496E666F00496E76656E1C
:100B1000746F7279005363726F6C6C2044756E67EA
:100B2000656F6E0056696577204D696E696D6170FD
:100B3000005468726F7720506F74696F6E00447252
:100B40006F70204974656D0053686F6F7400557342
:100B500065202F205B556E5D65717569700057616A
:100B60006974202F205365617263680009010604CF
:100B70000501050449092606850585050000F66F6F
:100B8000A40FD00B5A0FB99DF00B520F9F0FA00767
:100B90002C0F2F0FF909F1019D0696F95E0E880FB3
:100BA00000002994B00BB30121846009F404AA0A5F
:100BB0000606900F900F900FBEEF1EE10102040891
:100BC0001A264985000000000A06090501041002E2
:100BD00008000000000001010101010202020202FE
:100BE000080808080814141414141F00000000005A
:100BF000060000000000001F00000016001F00009B
:100C000000180800001C04141800000000041C0058
:100C100000000000000101000003020201000000CA
:100C20000002030000000404F0F0F0F0FFFFFFFFFB
:100C30000505E0E0E0E0E0FFFFFF0606C0C0C0C041
:100C4000C0C0FFFF0606E1C0CCCCC0E1FFFF060636
:100C5000E1C0C0C0C0E1FFFF0707808080808080C6
:100C600080FF0707F7E3C180C1E3F7FF0707E3E36E
:100C7000808080E3E3FF0707E3E3889C88E3E3FFEA
:100C80000808C3810000000081C30808E7E7C3002B
:100C900000C3E7E7080800664200004266000F0F45
:100CA0001FFC07F003E001C001C0E083E083608324
:100CB0006083608301C001C003E007F01FFCFFFFF9
:100CC00010101FF807E003C00180318C300C0000C9
:100CD000000000000000300C318C018003C007E0F0
:100CE0001FF80D0DBFFF1FFF0FFE07FC03F801F0FB
:100CF00000E001F003F807FC0FFE1FFFBFFFFFFF3E
:100D0000FFFFFFFF0C0C03FC01F800F000F000F007
:100D100000F000F000F000F000F001F803FCFFFF2D
:100D2000FFFFFFFFFFFFFF01FF0101FF0000FFFFCB
:100D30000101000001FF9108790866085A08590866
:100D40004808CC08C608BE08B608AE08A908FFFFC8
:100D500003FFFFFFFFFFFFFFFFFF436C6F73652083
:100D6000446F6F7200FF05030400000002020101DE
:100D70000114090D090109F708EC08E408DB08D49F
:100D80000853657474696E6773006D61737465727E
:100D9000203761656538383020323032322D3034BA
:100DA0002D3136000000FF01FF0100004009370926
:100DB0002E0926091B097A096F0962095409460997
:100DC0009B0995098E0988098309C609BC09B509DB
:100DD000AC099F09F709EF09E209D509CE09100A04
:100DE0000B0A030AFD09360A2D0A230A180A4F0ABC
:100DF0004A0A440A00000000D60AD00AC40ABD0A02
:100E0000B60AAE0AAA0AA00A960A900A880A820AB4
:100E10007A0A730A660A550A303132333435363766
:100E2000383941424344454600D5F08D14A1C8816C
:100E3000CFD9F1AF2000020303000000000103033B
:100E40000303040400230505050606070013050631
:100E500006070800002307070707070700320606F2
:100E600006080A00001308080A090B000022080AF5
:100E70000909090B00230A0A0A090B0C00130B0BC2
:100E80000B0B090A0032090A0B0C0C0D00120A0B9D
:100E90000C0D0D0E00130B0C0D0E0E0F00120C0D91
:100EA0000E0F0F0F00420C10100F0F0F0013101039
:100EB00010101010001250189E1F371E091D542DBF
:100EC000DE1B352DD31B8C0B3D1E0321241E342825
:100ED000961F240B150B0B0BFF0AF30A810DE50A75
:100EE000DA0A5E0B4E0B480B3E0B310B5A0D00001D
:100EF0000000000000000102040404000A000000D9
:100F000001060800010101000203030003021100B1
:100F100003030300040301020402020006050102A8
:100F2000050404010A060902060404010C07010273
:100F30000704040310088100050404000C090102E1
:100F400008040402140B030007040403140B4102F9
:100F500009040403180E05020A0303052012010008
:100F600007060601181201010C0404083019C10219
:100F70000A0606031823F50010060808405A080B55
:100F80000002020200000904000001020200000544
:100F90002400100105240101010424020605240691
:100FA00000010705810310004009040100020A0046
:100FB0000000070502024000000705830240000010
:100FC0000403090412010002EF02014041233680AC
:100FD00000010102030141726475696E6F204C4C7F
:100FE000430041726475626F79001700030CCE39BB
:100FF0000000994C000003002E02D1010000C41132
:10100000100184101000980C2E3AF243B94AB12A0C
:10101000877CB726AE22211FAA2AA23A0A005001D5
:1010200084284A298A10A10A0000BE78BF2A2E46C9
:101030003F3ABF46BF042E669F7CF147F1019F6C8B
:101040001F425F7C3F783F7EBF082E7ABF68B22682
:10105000E1071F7E071F1F7D9B6C833EB94E3F0239
:101060008360F1032208104241004C7A5F324C4AFF
:101070004C7E4C53BE00D6035F701D00B0019F68CC
:101080001F009E785E704C325E1144799E085603B4
:101090004F020E7A061B1E799249823ADA02C47D0B
:1010A0000000DF111C3E7F7F7F3E1C003F3011247B
:1010B0001FBECFEFDAE0DEBFCDBF11E0A0E0B1E0B0
:1010C000E4E4FCE602C005900D92AE32B107D9F718
:1010D00029E0AEE2B1E001C01D92AE37B207E1F700
:1010E00018E0C7E5D8E004C02197FE010E94E3356F
:1010F000C635D107C9F70E9454300C9420360C94A1
:101100000000DC0181E0ED91EE23D9F0E03299F0AE
:10111000EE0FFF0BE855F04F25913491932F9695E4
:1011200096959F7151F495E0369527959A95E1F73C
:101130002F7192E019F491E001C093E09F5F890F55
:10114000E2CF089590917D09911103C08FEF9FEF39
:1011500008954FB7F89492E09093E9009091F200CF
:10116000292F30E01216130614F421E030E0232B6F
:1011700031F0289884E680937C098091F1009923CE
:1011800039F02091F200211103C02BE62093E800F2
:101190004FBF9923D9F290E008952FB7F89483E0D8
:1011A0008093E9009091E800892F807295FF04C038
:1011B0009091F20080E4891B2FBF089580917409FB
:1011C00081110DC082E08093700984E080937109E1
:1011D000109273091092720981E08093740980E77C
:1011E00099E00895A1E0B0E0E8EFF8E00C94F9355B
:1011F0006983DC01ED91FC910280F381E02D41E0F7
:1012000050E0BE016F5F7F4F09952196E2E00C949C
:10121000153683E08093E9008091F200882319F06D
:101220008AE38093E8000895B8DF90E00895FC0118
:101230008485958597FD05C02FEF3FEF358724877F
:10124000089580CF0895CF93DF93EC018C859D8521
:1012500097FF03C077DF9D878C878C859D85DF9105
:10126000CF910895FC018485958597FD0BC09FB7AC
:10127000F89482E08093E9008091F2009FBF90E0B3
:10128000019608959FB7F89482E08093E9008091D9
:10129000F2009FBF90E0089540911A0950911B09F8
:1012A000209118093091190942175307B4F490910D
:1012B000E8009570E1F39091E80092FD19C08093E9
:1012C000F10080911A0990911B0901968F7399275B
:1012D000892B19F48EEF8093E80080911A09909180
:1012E0001B09019690931B0980931A0981E00895C8
:1012F00080E00895EF92FF920F931F93CF93DF93B7
:10130000F82E192FE62E042F81E0860F880FC4DFF8
:1013100083E0C2DFCF2DD12FEC0EFD2EF11CCE15B8
:10132000DF0599F007FF0FC0FE018491B5DF182F8C
:1013300080E0B2DF812321968111F1CFCDB7DEB7F6
:10134000E6E00C9411368881F1CF81E0F7CFB0E070
:10135000A0E0EDEAF9E00C94F435D82E8A01EB0117
:101360007B01E40EF51ECE15DF0551F0D7FE0EC051
:10137000FE01849191DF21968111F5CF0FEF1FEFD0
:10138000C801CDB7DEB7E7E00C9410368881F2CF04
:10139000A1E0B0E0EEECF9E00C94F73582E089834F
:1013A00042E450E06EE77FE080E8D1DF07DFFC0138
:1013B000028113810115110589F0D801ED91FC918D
:1013C0000280F381E02DBE016F5F7F4FC801099558
:1013D00097FD04C0F80100851185ECCF8981219625
:1013E000E4E00C941336615030F02091F100FC01E0
:1013F00020830196F8CF289884E680937C0908958D
:101400003FB7F8948091460190914701A09148011F
:10141000B091490126B5A89B05C02F3F19F0019650
:10142000A11DB11D3FBFBA2FA92F982F8827BC013E
:10143000CD01620F711D811D911D42E0660F771F66
:10144000881F991F4A95D1F708958F929F92AF9266
:10145000BF92CF92DF92EF92FF926B017C01D0DFBF
:101460004B015C01C114D104E104F104B1F0C8DF07
:10147000681979098A099B09683E734081059105BD
:1014800088F321E0C21AD108E108F10888EE880E3D
:1014900083E0981EA11CB11CE5CFFF90EF90DF9078
:1014A000CF90BF90AF909F908F900895B0E0A0E054
:1014B000ECE5FAE00C94F1356C01B62EA72E7A011A
:1014C00080910B01882309F455C080917D09882300
:1014D00009F450C080911F0980FF05C08091E00091
:1014E00082608093E000E70110E00AEF209711F49A
:1014F0001123C9F152DE811108C00150D9F161E018
:1015000070E080E090E0A1DFF1CF8C171D0611F0B4
:101510000CF08C2F9FB7F89423E02093E9002091E2
:10152000E80025FD02C09FBFE1CFC81BD109EB2D0C
:10153000FA2DBE2EAF2E815020F021912093F10084
:10154000F8CF112329F08AE38093E80010E0EBCF75
:101550008091E80085FDE7CF8AE38093E80011E001
:10156000209709F3F3CF5D9884E680931E091E143B
:101570001F043CF081E090E0F60193838283F12C1C
:10158000E12CC701CDB7DEB7EAE00C940D36BC0103
:1015900090E080E05ACF08958FB18095807F669B60
:1015A00088601C9B846008958EBD00000DB407FE0A
:1015B000FDCF089590E0880F991FFC01EA5AF94F7A
:1015C000208120642083895A994FFC018081982FC3
:1015D0009F709330F9F018F4923031F008959730FD
:1015E00041F1983059F1089582958F70E82FF0E01D
:1015F00033E0F695E7953A95E1F7E559F74F8770AF
:1016000021E030E001C0220F8A95EAF78081822B29
:101610008083089582958F7090E00596FC0123E009
:10162000F695E7952A95E1F7E559F74F87709927E1
:10163000E7CF82958F7090E00A96F0CF82958F70F9
:1016400090E00E96EBCFFB0124916F5F7F4F22233A
:1016500021F0FC012193CF01F6CF08951F93CF9382
:10166000DF93FC01E90161110EC0BA01ECDF2097A4
:1016700031F020E2FC012083BE010196E4DFDF911E
:10168000CF911F91089581E0860F6AE00E94B035E6
:10169000882319F0805D80833196905D908310E2FD
:1016A0001183BA01CF010296CEDFFC01209729F009
:1016B0001083BE010196C7DFFC01CF01019623E72D
:1016C0002083DDCFCF93DF9381110BC088E0E9E564
:1016D000F8E0DB0101900D928A95E1F7DF91CF915F
:1016E000089525E0829FF0011124EA56F94F848184
:1016F00028E0829FC00111248251914FEB0130E01C
:1017000020E0FC01E20FF31FE491E9932F5F3F4FCC
:1017100028303105B1F7E2CFFC01108281E0089555
:101720008034C0F46032B0F4E62FE695E695E69595
:1017300090E4E99FF0011124E80FF11DE45BFB4FF9
:10174000677021E030E001C0220F6A95EAF78081DE
:10175000822B808308959B0143E0369527954A9517
:10176000E1F7820F931FFC01808190E0677077277B
:1017700002C0959587956A95E2F781700895E62FE6
:10178000E695E695E69590E4E99FF0011124E80FCF
:10179000F11DE45BFC4F677081E090E001C0880FB1
:1017A0006A95EAF780959081892380830895CF9385
:1017B000DF93D0E0C0E0809157088C171D0681F1BF
:1017C0007CF19E01220F331FF901E95EF74F9081F2
:1017D000692F6F77265B3E4FF901E453F94F808103
:1017E0008F772353394FF901208127FF03C0C7DFCB
:1017F0002196E1CF66956695669520E4629FF0019B
:101800001124E80FF11DE45BFC4F977021E030E0FC
:1018100001C0220F9A95EAF78081822B8083E8CF5E
:10182000DF91CF910895FC019281E42F97FF19C0B9
:10183000EE0F462F469546954695E40FF0E09F77CC
:1018400082E2989FE00DF11D1124E056F34F849140
:1018500090E0677002C0959587956A95E2F7817070
:101860000895F0E08AE0989FE00DF11D1124E85DF5
:10187000F34F849190E0EECFCF93DF93EC01EA81B8
:10188000E7FF0BC0EF77D2E2ED9FF0011124E156A4
:10189000F34F8491DF91CF9108958AE0E89FF001A2
:1018A0001124E95DF34FF5CFCF93DF93EC01EA818B
:1018B000E7FF0BC0EF77D2E2ED9FF0011124E25673
:1018C000F34F8491DF91CF9108958AE0E89FF00172
:1018D0001124EA5DF34FF5CFFF920F931F93CF933F
:1018E000DF93EC01042F8881162F181BF980CE019D
:1018F000DBDF181730F080E0CDB7DEB7E5E00C9401
:1019000012360F19CE01B8DF0817A8F7402F612F44
:10191000CE0189DF91E08927EFCF90E0880F991FF2
:10192000FC01E95AF94F20812F70253068F4FC0141
:10193000EA5AF94F2081322F3F7331F0315C3F7307
:10194000207C232B20830895FC01EA5AF94F8181E2
:10195000807F81830895E6E9F6E030E020E094811D
:10196000992379F0908198130CC09181961309C046
:1019700045E0429FC001439F900D11248A56994F24
:1019800008952F5F3F4F35962032310541F790E0A3
:1019900080E008957091570830E020E0271700F5A7
:1019A000A901440F551FFA01EA5EF74F90819F7716
:1019B000E82FF0E09E171F0681F4495E574FFA01A9
:1019C00090819F77462F50E09417150631F4C90196
:1019D000880F991F8A5E974F08952F5F3F4FDECF84
:1019E00090E080E008958034C8F46032B8F4962F17
:1019F00096959695969540E4949F90011124245BCA
:101A00003B4F280F311DF901808190E0677002C0C3
:101A1000959587956A95E2F78170089580E008951D
:101A20008034C8F46032B8F4962F969596959695C2
:101A300040E4949F90011124245B3C4F280F311DFA
:101A4000F901808190E0677002C0959587956A954D
:101A5000E2F78170089581E00895B0E0A0E0E3E34B
:101A6000FDE00C94F1350091960610919706C02F79
:101A7000C81BD12FD61BDD0290011124CC02200DF2
:101A8000311D11242B3131050CF044C0AA24A3943C
:101A9000081730F091E0081301C090E0A92EA1943E
:101AA000CC24C394161730F091E0161301C090E0D7
:101AB000C92EC194E62EF82EC7FDC195D7FDD1954C
:101AC000BD2EB694DC2ED694F01202C0E116E1F0E1
:101AD000612F802FA5DF81111DC0BC0EDD0E8B2D67
:101AE0000B2C000C990BD817190609F014F40A0DE9
:101AF000BD1A8D2D0D2C000C990BC817190609F075
:101B00001CF71C0DDC1AE0CF81E0CDB7DEB7EAE0B0
:101B10000C940D3680E0F9CFA3E0B0E0E2E9FDE0FF
:101B20000C94F13590919606809197061BEF180F53
:101B30002BEFD22ED90E36E0F32EF80E46E0E42E2F
:101B4000E90E1F1579F00D2D0E1551F0612F802F24
:101B500084DF882319F0612F802FE2DD0F5FF4CF3F
:101B60001F5FEFCFF12C80915608F81608F057C090
:101B70000F2D10E08091580820E1829FC0011124B0
:101B8000B801825A9A4FE7DD882311F0F394EBCF26
:101B9000F801EE0FFF1FE00FF11FEA54F84F8081AC
:101BA0002181928189832A839B83C82ECE0101964D
:101BB0007BDEC80EBA80CE0101965EDEB80EEA80EA
:101BC00093E0169507959A95E1F791E08F2D877030
:101BD000A92E01C0AA0C8A95EAF7EB14B8F6D980B1
:101BE000DC14D8F46E2D8D2DFEDE8823A1F04E2D51
:101BF0006D2DCE01019670DE882369F0E0915808C2
:101C000080E1E89FF0011124E25AFA4FE00FF11F42
:101C100080818A298083D394E3CFE394DECF239617
:101C2000EAE00C940D36B0E0A0E0E9E1FEE00C94AF
:101C3000EF35E62EC42F00915608202F30E0F90131
:101C4000EE0FFF1FE20FF31FEA54F84F6083C183CA
:101C500082832FE3261730F480E0CDB7DEB7ECE0C7
:101C60000C940B36C032C0F783E0089F800111242A
:101C70000A54184FC80118DEC82ECE0CC801FCDD6E
:101C800090E49C1548F3F82EFC0EE0E2EF1520F3EB
:101C9000DC2FDF1530F5DE2CDC1408F54D2F6D2D13
:101CA000C8011ADE8823C9F086E2882E8DE0982EBE
:101CB0009EE2A92E9DE0B92EF40138966491F401BC
:101CC00084916D0F8D0DACDE882309F4C5CFFFEF35
:101CD0008F1A9F0AA814B90479F7D394DDCFDF5F78
:101CE000D8CF6091560870E08091580820E1829F1B
:101CF000C0011124825A9A4F2EDDD82ECF15A8F498
:101D0000DE2DDC1580F44C2F6D2FC801E5DD882316
:101D100041F06C2F8D2F33DDDD2019F06C2F8D2FCE
:101D2000FFDCDF5FEECFCF5FE9CF809156088F5F9A
:101D30008093560881E091CFB0E0A0E0E2EAFEE0B7
:101D40000C94F135D42E890195E0899FF00111247E
:101D5000EA56F94FC080B18070E0FB01EC55F24FBC
:101D6000A4906855724FFB01C4918FEFF9018283F3
:101D7000E12CDC2FDB0DFA2CFC0C6D2F8F2D50DEAF
:101D8000811121C0E3946D2F8F2DE5DD009771F057
:101D9000865996404DEC5CEC849F9001859F300DF8
:101DA000949F300D1124F801228304C0CF2CBD2E46
:101DB000DE10DFCFF801E382F082D183CDB7DEB74A
:101DC000EAE00C940D36DB2DFC2CF4CF803440F58A
:101DD000603230F5262F26952695269590E4299F8A
:101DE00090011124820F932F911DFC01E45BFB4FA6
:101DF000208130E020953095845B9C4FFC018081F0
:101E0000282B677081E090E002C0880F991F6A95C7
:101E1000E2F72823392381E0232B19F480E0089589
:101E200081E00895EAE4F1E0808191819C0136959A
:101E3000322F22273795279528273927C901892F3F
:101E40009927869528273927922F88278227932735
:101E5000918380830895FF920F931F93CF93DF9315
:101E6000182F062F8CDCDEDF843CC0F5C0915708AC
:101E7000C032A0F5602F812F8DDD892B79F5D0E060
:101E8000D1DFF82E6091570870E08091580820E16A
:101E9000829FC00111248E599A4F5DDCCC0FDD1F4B
:101EA000882309F1602F812F3BDCFE01EA5EF74FAA
:101EB000818180688183FE01EA5EF74F1F77808110
:101EC0008078182B1083602F6F7781818078682B42
:101ED0006183809157088F5F80935708CDB7DEB735
:101EE000E5E00C9412368FE28F1528F3FE01EA5ECE
:101EF000F74F808180688083602F812F11DCDBCFDA
:101F0000CF93C82F8FDF8C1710F08C1BFCCFCF9195
:101F10000895B0E0A0E0EFE8FFE00C94F3357C0119
:101F20008B01C12C54E0D52E80E4EADFD82F80E26B
:101F3000E7DFC82F682F8D2F73DD811151C080918D
:101F40004C05D81305C080914D05C81709F448C049
:101F500080914E05D81305C080914F05C81709F42C
:101F60003FC0E6E9F6E08481882331F08081D81310
:101F700003C08181C817A1F1359687E0E633F807E1
:101F800091F7E6E3F7E081818F7031F08281D81319
:101F900003C08381C81721F1349687E0E63BF80738
:101FA00091F75091570890E080E0851720F59C014B
:101FB000220F331FF901EA5EF74F40814F776D2FF3
:101FC00070E04617170651F4295E374FF90120815A
:101FD0002F776C2F70E02617170611F00196E5CFCA
:101FE000F1E0CF1AD10809F09FCF80E0CDB7DEB77E
:101FF000E8E00C940F36F701D083F801C08381E04C
:10200000F5CF0F931F93CF93DF93EC018B01B801B2
:10201000CE017FDF8823D9F3DF91CF911F910F91FC
:102020000895B0E0A0E0E7E1F0E10C94F435D62E9D
:10203000172FE82EF12C8091580820E1829FC001D3
:102040001124B7018A5A9A4F86DB811120C0012FD3
:102050000F70E701CC0FDD1FCC0FDD1FBE01675CE9
:10206000784FCE01885C984FCCDF8091580820E1F2
:10207000829FC0011124B7018A5A9A4F6CDB8111EB
:1020800000E0107F102BCA5CD84FD8821983CDB7DF
:10209000DEB7E7E00C941036CF92DF92EF92FF921A
:1020A0001F93CF93DF9300D01F92CDB7DEB7182FC9
:1020B0006A01790119821A821B826B83CE01019613
:1020C000F3DB1EDF8983CE010196D6DB19DF8A831D
:1020D000123019F1133019F11130C9F01A824A8106
:1020E0006981CE0101969FDB8111E8CF8981F601DC
:1020F00080838A81F70180830F900F900F90DF918A
:10210000CF911F91FF90EF90DF90CF900895CE0177
:102110000196B2DB81508A83E2CF1982E0CFCE01F3
:102120000196C2DB81508983DACF7CDE803420F4D3
:1021300084E0E6DE805808958CE0E2CE0895EF92C8
:10214000FF920F931F93CF93DF937C01FC01C0E0BC
:10215000C193CF5F6C13FCCFD0E00D2F10E083E074
:1021600090E0C43011F084E090E0081719077CF487
:102170008C2F8D1BC5DED701A80FB11DF701E00F15
:10218000F11F80819C9190838C93DF5FE6CFCDB768
:10219000DEB7E6E00C941136680F791FFC0111924E
:1021A000CF01E617F707D1F70895E62FF0E0EB59D6
:1021B000F74F20812032B0F430E0220F331FF901B5
:1021C000E95AF94F408142954F7090E0481719063F
:1021D00049F42A5A394FF90180818095881F882750
:1021E000881F089580E00895CF93DF93C82FD0E033
:1021F00095E0899FF0011124E856F94F808184FF12
:1022000005C064E080E0D1DF882359F085E08C9F31
:10221000F0018D9FF00D1124EA56F94F6181808104
:102220001CDCDF91CF9108951F93CF93DF93182F7C
:1022300090E00196EC01CC0FDD1FC80FD91F21964D
:10224000D595C795D595C7958C2F5ADE1F5F1C1B5A
:10225000810FDF91CF911F910895811143C080912B
:102260005E08209169082032B0F430E0220F331F5D
:10227000265B3E4FF901E35FFA4F9081907F9033E8
:1022800051F4245F3A4FF9012081922F9F739F5F91
:1022900027FF26C0891BA6E6B8E049E658E02D9145
:1022A0002032C0F430E0220F331FF901EA5AF94F0F
:1022B0006081962F295A394FF90120812F709F7321
:1022C00067FF03C03EEF391B932FECE0E80FE21BE2
:1022D000892F8E0F4A175B0711F787FD80E008955D
:1022E000890FD9CF95E0899FF0011124EA56F94F63
:1022F000E48188E0E89FF0011124ED50F14F8491D2
:10230000ECCF811121C080915C08209169082032B6
:10231000B0F430E0220F331F265B3E4FF901E35F3C
:10232000FA4F9081907F903251F4245F3A4FF90137
:102330002081922F9F739F5F27FF04C0891B87FD19
:1023400080E00895890FFBCF95E0899FF00111246B
:10235000EA56F94FE48188E0E89FF0011124EF503C
:10236000F14F8491ECCF282F30E0E0915B08882377
:1023700081F095E0929FF001939FF00D1124EA56B1
:10238000F94FE48198E0E99FF0011124E051F14F09
:10239000E49195E0929FD001939FB00D1124A8562F
:1023A000B94F9C9192FF04C0F0E03196F595E79506
:1023B00081111AC0809169088032B0F490E0880FD2
:1023C000991F865B9E4FDC01A35FBA4F2C91207F43
:1023D000203151F4845F9A4FDC019C91892F8F73D7
:1023E0008F5F97FF05C0E81BE7FDE0E08E2F0895A3
:1023F000E80FFACFCF93C82FB6DFC1111AC02091D2
:1024000065082032B0F430E0220F331FF901EA5A98
:10241000F94F50814181952F9F7357FF03C02EEFD5
:10242000291B922F4F7023E0453009F421E0890FDA
:10243000820F87FD80E0CF910895811108C09091AF
:102440005F0820916408291780F4892F089595E08A
:10245000899FF0011124EA56F94FE48188E0E89F52
:10246000F0011124EC50F14F84910895CF93DF9344
:1024700095E0899FE0011124FE01E856F94F908113
:1024800093FD0AC0DADFFE01EA56F94F8383C8568E
:10249000D94F888188608883DF91CF910895811119
:1024A00022C080915D0820916A082032B0F430E0AB
:1024B000220F331F265B3E4FF901E35FFA4F9081F5
:1024C000907F59F4245F3A4FF9012081922F9F7336
:1024D00096959F5F27FF05C0891B18160CF081E0B9
:1024E0000895890FFACF95E0899FF0011124EA56EB
:1024F000F94FE48188E0E89FF0011124EE50F14F9C
:102500008491EBCFFF920F931F93CF93DF93D82F3C
:10251000F62E06E21DE080E0C82FCC0FF801849172
:10252000389664916F0D8D0F51DC8C2B0F5F1F4F10
:10253000FDE00E321F0781F7CDB7DEB7E5E00C9462
:102540001236982F962B907CB1F4E62FE695E695FF
:10255000E69590E4E99FF0011124E80FF11DE65B98
:10256000FE4F677021E030E001C0220F6A95EAF764
:102570008281822782830895A3E0B0E0E2ECF2E159
:102580000C94F035182FF62EE42FEE0FFF0BE855C4
:10259000F04F25913491822F8F718983C90145E0D5
:1025A000969587954A95E1F78F718A83932F969533
:1025B00096959F719B8303E0911104C002E0811105
:1025C00001C001E0CE0101965C01902E910EF50153
:1025D00081915F01EF2C882361F0C82ED12C80FF00
:1025E00003C06E2D812FADDFE394C60195958795CD
:1025F000F2CF1F5F1911EBCF802F2396EBE00C94E5
:102600000C36FF920F931F93CF93DF93C82FD62FD3
:10261000F22E8A01F801FF2049F04491403274F013
:10262000403231F4CE5F0F5F1F4FF4CF4081F6CFC1
:102630006D2F8C2FA1DFCF5FC80FF5CFCDB7DEB7E1
:10264000E5E00C94123621E0DCCF0895982F962B0C
:10265000907CB9F4E62FE695E695E69590E4E99F3F
:10266000F0011124E80FF11DE65BFE4F677081E079
:1026700090E001C0880F6A95EAF7809592818923DE
:1026800082830895B0E0A0E0E8E4F3E10C94F23531
:10269000D62EC42E7C01C0E0BD2CBC0EF70181916A
:1026A0007F01DC2D882361F0082F10E080FF03C03C
:1026B0006D2F8B2DCBDFC80195958795DF5FF2CF0E
:1026C000CF5FC43049F7CDB7DEB7E9E00C940E36E2
:1026D0001F93CF93DF93C82F162FD42F1C1728F0EA
:1026E0006D2F8C2FB3DFCF5FF9CFDF91CF911F918B
:1026F0000895982F962B907CB1F4E62FE695E695F9
:10270000E69590E4E99FF0011124E80FF11DE65BE6
:10271000FE4F677021E030E001C0220F6A95EAF7B2
:102720008281822B82830895B0E0A0E0EAE9F3E1A0
:102730000C94F235B62ED42E8C01C0E0CB2CCC0EEE
:10274000F8018491DD2D882361F0E82EF12C80FFC3
:1027500003C06D2F8C2DCDDFC70195958795DF5F69
:10276000F2CFF8013596E491DD2DEE2361F0EE2EE7
:10277000F12CE0FF03C06D2F8C2D68DFF701F5957C
:10278000E795DF5FF2CFCF5F0F5F1F4FC530B1F628
:10279000CDB7DEB7E9E00C940E36B0E0A0E0E3ED93
:1027A000F3E10C94F335C42F022F6C01D42FD60F14
:1027B000F60181916F01102F882361F0E82EF12C32
:1027C00080FF03C0612F8C2F94DFC70195958795FB
:1027D0001F5FF2CFCF5FCD13EBCFCDB7DEB7E8E011
:1027E0000C940F36A8E0B0E0E8EFF3E10C94F2357A
:1027F000182F84EAE82E80E1F82EDE0111966E0192
:1028000088E0C80ED11CF701BA2E0B2F84918D934E
:102810003196AC15BD05D1F728E3412F67E08B2D2C
:10282000902FBBDF40E2410FAB2DB02FF701849119
:102830008D93FFEFEF1AFF0AAC15BD05B9F728E33A
:1028400067E08B2D902FA9DF41E469E382E0810FDF
:1028500093DE42E469E382E2810F8EDE4CEA50E0CF
:1028600069E38BE0810FEFDE40EB50E069E38BE240
:10287000810FE9DE2896E9E00C940E36A4E0B0E082
:10288000E4E4F4E10C94F435162F042F292F22955B
:102890002F702983292F2F702A839C0194E036956D
:1028A00027959A95E1F72F702B838F708C83FF24E7
:1028B000FA94F40EDD24DA94D60E4F2D6D2DCE0150
:1028C0000196E0DE4F2D612FCE010196DBDEEE2476
:1028D000E394E10E4F2D6E2DCE010196D3DE402FF5
:1028E0006D2DCE010196CEDE402F6E2DCE010196CC
:1028F000C9DE202F412F64E0CE0101964EDF2496E1
:10290000E7E00C9410361F93CF93DF93D82FC62F98
:10291000142F1C1728F06C2F8D2FEBDECF5FF9CF13
:10292000DF91CF911F9108951F93CF93DF93C82F0D
:10293000162FD42F1C1728F06D2F8C2FDADECF5FC7
:10294000F9CFDF91CF911F910895B0E0A0E0EBEABD
:10295000F4E10C94EF35082F10E0C0E0D12F6C2F7C
:102960008D2FC7DEDE5FD034D0F3CE5F81E0182735
:10297000C034A1F7DD24DA9410E0B12EBB0C42E0A4
:10298000942E9D0CE12CC02FCE0DFE2CFF0C612F40
:102990008C2F1CDA882309F484C0612F8C2F40D837
:1029A000882309F43FC0612F8C2FACDDA82E8FEF58
:1029B000A81609F437C0D2E0DF0DCD2D9C1630F0FB
:1029C0004C2F6D2F8F2D84DECF5FF8CF882483941A
:1029D0008F0C6B2D882D8DDE30E1C32EECEFCE0EEB
:1029E000CC2DD0E0FE01E459F44F8491FE01E3596F
:1029F000F44F9491EA2DE823E91303C06D2D882D3F
:102A000078DEFE01E259F44F8491C159D44FFE01A2
:102A1000C491EA2DE823EC1303C06B2D8F2D69DEE2
:102A2000C110DCCFE394F0E2EF12ADCF1F5FD92CE1
:102A3000103209F0A2CF10E080915708181708F063
:102A40003CC0812F90E0880F991FFC01EA5EF74F90
:102A5000C081C7FB222720F9895E974FFC01D081F6
:102A6000D7FB882780F9822B31F5CF77DF776D2F61
:102A70008C2F0E94F30C8823F1F0C01BCC0FDD0FCC
:102A8000DD24D394DD0EFF24FA94FD0E82E0E82EBF
:102A9000EC0EDF1460F04F2D6E2D8C2F19DEF394A9
:102AA000F8CF61E06F0D4B2D8F2D12DEBBCF6D2F58
:102AB00081E08C0F1EDE1F5FBFCFD0914D05C0910E
:102AC0004C056D2F8C2F0E94F30C882361F0C01BE6
:102AD000CC0FDD0F41E04D0F61E06C0F8C2F24DF38
:102AE0006D2F8C2F06DED0914F05C0914E056D2FB6
:102AF0008C2F0E94F30C882371F08C2F801B880F81
:102B0000CD2FCC0FD1E0D80F41E04C0F6D2F0CDF53
:102B10006C2F8D2FEEDDCDB7DEB7ECE00C940B36CD
:102B20000F931F93CF93DF93082FC62FD42F122F0D
:102B3000FBDE412F6C2F802FF7DE412F6D2F802F72
:102B4000E2DE412F6D2F8C2FDEDEDF91CF911F91C2
:102B50000F910895B0E0A0E0E0EBF5E10C94EE35C4
:102B60001AEF180F0AEF060FE9EF9E2E960EF02EC1
:102B7000D0E0AF2CA694A694A69480E4A89E500121
:102B8000112491E08F2D8770892E01C0880C8A95C1
:102B9000EAF7E12EC0E09FE39E1508F477C08FE1CD
:102BA0008F1508F473C0F501E45BFB4FEE0DF11DCA
:102BB0008081882109F06AC04D2F6C2F8CEC9BE03E
:102BC000B3DDE394CB5FC13431F7F394DB5F9394CF
:102BD000D13479F6C12C80915708C81608F0E9C0A5
:102BE000AC2CB12CAA0CBB1CF501EA5EF74F80811E
:102BF00087FDDDC0F82EE894F7F8EF2CE11A9CE091
:102C00009E1508F4D4C0F501E95EF74FD081DF7757
:102C1000CD2FC01BCD3008F0CAC06D2F8F2D0E9464
:102C2000F30CDF5F81110DC06D2F8F2D0E94100DF1
:102C30008111BDC06D2F8F2D0E94F30C882309F4E4
:102C4000B6C08E2D880F880FE80EDC2EDD0CDD0C53
:102C5000DC0E6D2F8F2DBAD8811182C08091710842
:102C6000D4E0DD0DD80F44E0842E8E0C99249A9484
:102C70009E0CE11001C0912CCD2DDC1708F472C020
:102C80004C2F682D892D24DDCF5FF7CF6F2D8E2D32
:102C900039DC782E6F2D8E2D99D881113BC06F2D88
:102CA0008E2D0E942D0D882359F061E080917108CE
:102CB000833009F060E06E5F6D0F82E08C0F19DDEC
:102CC000692D8E2D0E94100D882309F47ACF8FEF85
:102CD0008C0F77FE8C2F76FE15C074E0772E7C0E5D
:102CE000D82EDD1CDD24DD1CD80EC12C809171088E
:102CF0004FEF4D0FC81648F44C0D672D8D2D14DE87
:102D0000C394F4CF63E0762EEACF480F672D8D2D64
:102D1000DFDC57CF4D2F6C2F8CEC9BE005DDD12CE9
:102D2000C12CF601E454F44F8491F601EC53F44FB6
:102D30009491E72DE823E9130BC02AE02C9DC001F4
:102D40002D9D900D11244D2F6C2F8A52944FECDC49
:102D50009FEFC91AD90A88E0C816D10411F731CFFC
:102D600080E07ECFE501C95ED74FE881E7FBEE2723
:102D7000E0F9F0E0EE0FFF1FE854F44F85919491D5
:102D80004D2D6E2D7BDD68816F778FEF8F0D0E944B
:102D9000100D882361F0C3E0CD0D4C2F6D2D8EEF0B
:102DA0008E0DB1DD4C2F6D2D85E08E0DACDDC39405
:102DB00012CF80914C05C82FC11BCD30A8F4609173
:102DC0004D05D62FD01BDD3078F40E94F30C8823FC
:102DD00059F04D2F440F440F4D0F6C2F660F660FA7
:102DE0006C0F88EC9EEF4ADD80914E05C82FC11B09
:102DF000CD30A8F460914F05D62FD01BDD3078F48C
:102E00000E94F30C882359F04D2F440F440F4D0FAF
:102E10006C2F660F660F6C0F8FEE9CE82FDDC6E3FC
:102E2000D7E0E981EF70FE2E01F18A81E82EE11AE8
:102E30009CE09E15D0F06B81D62ED01A9D15A8F07F
:102E40000E94F30C882389F0EF2DF0E0EE0FFF1FB6
:102E5000E056F44F859194914D2D440F440F4D0D44
:102E60006E2D660F660F6E0D09DD249687E0C63B5A
:102E7000D807B9F6C6E9D6E0DC80DD2071F191E033
:102E8000D91619F08A8184FD28C0C880FC2CF11A5B
:102E90008CE08F1510F1B980EB2CE01A8E15E8F05C
:102EA0006B2D8C2D0E94F30C8823B9F09BE0D91276
:102EB0003CC08A8183FD39C0EB81F0E0EE0FFF1F3B
:102EC000E056F44F859194914E2D440F440F4E0DD2
:102ED0006F2D660F660F6F0DD1DC259687E0C63328
:102EE000D80751F68091560881111AC0C7E14C2FBE
:102EF00066E389E0EDDBCF5FCB32C9F728E248E13A
:102F000064E38AE00DDE49E265E38BE00DDD49E232
:102F100069E185E3F8DC43EB50E06EE181E193DBAE
:102F2000CDB7DEB7EDE00C940A366B2D8C2D0E94E8
:102F30002D0DECE7FBE0882309F4C4CFED2DF0E084
:102F4000EE0FFF1FE458F44FBDCF609197068091BC
:102F5000960600CE0895CF93DF93D82FC62F5C98A6
:102F600081E20E94D40A8D2F0E94D40A8FE38D0F34
:102F70000E94D40A5C9AECE4F1E080E094E00080E6
:102F80000EBCC111012C019780FDFDCF0192B9F754
:102F90000DB4DF91CF91089561E080E4DCCF089516
:102FA000682F80E0D8CF0895CF938091600083FF91
:102FB00007C0F89487E78093000880930108FFCF4B
:102FC000C0914001CC2341F08FEF8C0F8C23809374
:102FD00040018C27CF9108952FB7F894809142013A
:102FE00090914301A0914401B09145012FBF2FB7AB
:102FF000F8944091420150914301609144017091D5
:1030000045012FBF481B590B4430510528F421E0DE
:1030100023BF889513BEEBCF0E94CC0A90913F014D
:103020008927E7E3F1E030E020E041E0542F582326
:1030300071F150815F5F533010F55083440F2F5F63
:103040003F4F31962830310589F7C927C0933F019A
:10305000EFE2F1E081E02C2F282321F020812150A4
:10306000C1F02083880F319621E0E733F20799F70A
:1030700090932E019095C923C093400196CF108262
:10308000C42B50E5D901A15DBE4F5C93D7CF108210
:10309000D5CF28E22083282F20952F609223E2CFDE
:1030A00080E053DC81E07CDF80E24FDC75DF7CDF99
:1030B0008430E9F70895B0E0A0E0E1E6F8E10C948F
:1030C000F935AE01475F5F4F6F8178858D819E81B5
:1030D00003D0E2E00C941536A5E0B0E0E2E7F8E1B9
:1030E0000C94EB353C015B018C01B5016F5F7F4FA8
:1030F000F5012491203451F0C8010196D8012C9398
:10310000222309F4DAC24A015B0122C0B2E0AB0E0D
:10311000B11CFB01F4904A01F2E08F0E911CDA0120
:10312000CD90DC90B3E6FB1609F492C0BF15E8F130
:10313000E0E5EF1580F0FFE4FF1608F0BFC021E4E2
:10314000F21609F40EC18DE4F81609F4ABC0C801FB
:10315000A4018C01CACF93E5F916C8F3A4E5AF1515
:1031600008F0ACC0B6E5FB12F2CF25E0C29EF0013C
:103170001124EA56F94FE4804A0184E0880E911C3C
:10318000FA0162817381C8010E94230BF1E0EF16FE
:10319000F9F226E7F21204C025E6DC012C93019631
:1031A00023E7FC0120830196D3CFE3E7FE1609F461
:1031B0006CC0EF1508F440C0F9E6FF1609F4E0C052
:1031C00020E7B601F21609F475C084E6F812BFCF05
:1031D0009601207833278DE2C7FE8BE278019FEFBE
:1031E000E91AF90AD8018C93232B11F0C194D12C40
:1031F00020E041E0420F30E08E010F5F1F4FF801E9
:10320000E20FF31FC6016AE070E00E94BC358083C4
:103210006B01672B09F04FC22F5F3F4FF801E20FA0
:10322000F31FC70101962291205DD7012C937C01E9
:103230000E171F07B1F78CCF96E7F91609F495CF53
:10324000A8E7FA1651F0B5E7FB1281CF7801D0CF8D
:10325000C8010196F801C0827BCFF601B4E0F59574
:10326000E795BA95E1F7EF70FF27E85EF14FE4913B
:10327000D801EC93F601EF70FF27E85EF14F24913F
:10328000C8010296F801218363CFF801CF01D6016E
:10329000A01BB10BAE0FBF1F2C91222309F458CFF6
:1032A0002193F4CFF601FF27EE0FFF1FEC50F24FF2
:1032B00065917491C8010E94230B4ACFC982FF2DEA
:1032C000F170EF2EC11015C022E589E52F150CF025
:1032D00089E7D8018C938FE6F801818385E78283A3
:1032E000C801EE2011F0039633CF049622E7238322
:1032F0002FCF8C2D0E94F410882329F1F2E5FF15C1
:10330000FCF46EEB70E025E0C29EF0011124EA5659
:10331000F94FF480C8010E94230BEF2DF0E0EE0F6F
:10332000FF1FEC50F24F659174910E94230BE11046
:103330000FCF27E2FC01208323E72183029608CFE9
:1033400063EC70E0E0CF82E593E58F150CF093E736
:1033500098012F5F3F4FD8019C9368EC70E0C90142
:10336000E4CF25E0C29EF0011124EA56F94F848192
:10337000813019F461ED70E09DCF65ED70E09ACF7A
:103380008D2D8F70482EED2CE2946FE0E6229C2D5F
:103390009F73F92E5C2CEC2DE07CE03C31F468ED61
:1033A00070E0C8010E94230B8C01EFEFE40DEB30BD
:1033B00008F0CDCEF0E0E152F64E0C94E335EA1978
:1033C000EE1A251BF319F619F6193E1A981A211A46
:1033D000211A211A40EE50E030E020E06F2DC801A4
:1033E0000E942E0BA3C04CEE50E0F6CFA6E04A128E
:1033F00025C062EF70E0C8010E94230B8C0156FECD
:10340000A6CE57FE03C08EEF8F19F82EB5E083E0ED
:103410004B1201C081E028EF30E0F80E1F92FF92BE
:103420003F932F931F930F9346DE080F111D0F90AC
:103430000F900F900F900F900F9089CE62E071E087
:10344000DACF842D8950990BFC01EE0FFF1FE2515A
:10345000F24F65917491C8010E94230B8C0156FEB6
:1034600076CE57FE03C08EEF8F19F82E26E031E09E
:103470008F2D8419845F1F928F93D2CFCE2CD12CA5
:103480009601265F3F4FF90143E0F695E7954A958F
:10349000E1F7E559F74F808190E02770332702C0AC
:1034A000959587952A95E2F780FF2EC060E171E03F
:1034B000C8010E94230BF601EE0FFF1FEA51F24FE5
:1034C000659174910E94230B8C0156FE40CE89E1D8
:1034D00091E057FC11C0F394A2E0EA1679F0B3E052
:1034E000EB1679F0E1E0EE1202C08AE191E01F9262
:1034F000FF929F938F9396CFF094EECF84E291E06A
:10350000F6CF8EE291E0F3CFF601E15FF64FE08176
:10351000F0E0EE0FFF1FE252F24F65917491C80187
:103520000E94230B64E371E00E94230B8C010FCEF9
:10353000CE2CD12C9601225F3F4FF90183E0F69506
:10354000E7958A95E1F7E559F74F808190E027707C
:10355000332702C0959587952A95E2F780FF2DC005
:103560006AE371E0C8010E94230BF601EE0FFF1F12
:10357000EC52F24F659174910E94230B8C0156FE20
:10358000E6CDE110E4CDF6948F2D90E001964DE26A
:1035900057FE4BE225E431E09F938F931F924F93A8
:1035A0003F932F931F930F9386DD080F111D0FB6C6
:1035B000F894DEBF0FBECDBFCACDF601ED5EF64F6B
:1035C000E081F0E0EE0FFF1FE252F24F659174913F
:1035D000C8010E94230B61E571E0A6CFCE2CD12C4F
:1035E000F60173E0F695E7957A95E1F7E559F74F1F
:1035F000808190E02E2D277002C0959587952A95A1
:10360000E2F780FF14C049E551E030E020E06F2D83
:10361000C8010E942E0B60E671E00E94230BF601A8
:10362000EE0FFF1FE653F24F659174917DCF25E6B3
:1036300031E0F601EB5FF64FE081F0E0EE0FFF1FA7
:10364000E054F24F45915491C9CECE2CD12C960125
:103650002B5F3F4FF90143E0F695E7954A95E1F777
:10366000E559F74F808190E02770332702C0959588
:1036700087952A95E2F780FF12C04CE651E030E0D2
:1036800020E06F2DC8010E942E0B63E771E00E94BD
:10369000230BF601EE0FFF1FEA54F24FC5CF28E7C8
:1036A00031E0F601E65FF64FE081F0E0EE0FFF1F3C
:1036B000E455F24FC7CF242F9CCD8619970981502E
:1036C0002596E0E10C940736A0E4B0E0EAE6FBE1E1
:1036D0000C94F935AE01475B5F4F29966EAD7FAD17
:1036E0002997CE010196F8DC20E0AE014F5F5F4FD5
:1036F00027966FAD279726968FAD26970E940113C8
:10370000C05CDF4FE2E00C941536CF93C82F4AE837
:103710005DE060E00E94231340914A0150914B010B
:1037200020915005309151058FE791E0BA0177273C
:103730007F936F931F925F93A90155275F934F93D8
:103740001F923F939F938F9386E08F93CF93BCDF1D
:103750002EE739E08DB79EB70C960FB6F8949EBF52
:103760000FBE8DBF80E0F9014DB75EB7421753071A
:1037700040F02F5F3F4F9081953A19F48F5F8F3F54
:1037800091F72FE831E01F928F933F932F938CE0B6
:103790008F93CF9399DF0F900F900F900F900F9012
:1037A0000F90CF91089580E0B0DF81E0F9DB80ECED
:1037B000ACDFF2DBF9DB8430E9F70895CF93C091F9
:1037C000710880917108837080937108BEDB81E07D
:1037D000E7DB41E85DE061E084E10E94231389E9D1
:1037E00091E0209171081F922F939F938F9389E00E
:1037F0008F9383E08F9368DFCFDBD6DB0F900F9042
:103800000F900F900F900F9090917108915080320F
:1038100029F0803429F4909171089F5F909371088A
:10382000982F9C7009F4CDCF843011F4C0937108A7
:10383000CF910895ECEAF1E09E2F3F2F421304C090
:10384000E4EBF1E09E2F3F2FA42FA21BBB0BFD0149
:10385000FF93AF931F924F933F939F936F938F93D9
:1038600033DF8DB79EB708960FB6F8949EBF0FBE94
:103870008DBF08950F931F93CF93DF93D82F47EBFE
:1038800051E060E08EE18D0F0E94231346E06FE36C
:1038900080E04AD801E71DE0C9E0F8014591549164
:1038A0006C2F8D2F0E942313CA5F0E5F1F4FC933E9
:1038B000A1F78AEC91E0209153052F9320915205B6
:1038C0002F939F938F9389E08F93C8E2CD0FCF936F
:1038D000FBDE2DEC31E080916F0890E001969F9324
:1038E0008F933F932F938FE08F93CF93EDDE1091C3
:1038F0005F0880E00E941D12212F482F65E18C2F68
:1039000099DF80E00E94B311182F20915B08482FA7
:103910006BE18C2F8FDF00915C0880E00E948111A9
:10392000202F482F61E28C2F85DF80E00E94FA1162
:10393000212F482F67E28C2F7DDF10915E0880E0F9
:103940000E942D11212F482F6DE28C2F73DF1091D3
:103950005D0880E00E944F12212F482F63E38C2FD7
:1039600069DF40ED51E069E086E48D0F0E9423138A
:10397000809198062DB73EB7245F3F4F0FB6F8945D
:103980003EBF0FBE2DBFC9E080FF08C049ED51E02A
:103990006FE08BE48D0F0E942313CFE08091980697
:1039A00081FF08C042EE51E0CA5F6C2F8BE48D0F9F
:1039B0000E9423138091980682FF08C04CEE51E0CC
:1039C000CA5F6C2F8BE48D0F0E94231380919806A1
:1039D00084FF08C045EF51E0CA5F6C2F8BE48D0F68
:1039E0000E942313809170088F3F69F44FEF51E0DC
:1039F00066E06C0F8BE48D0F0E942313DF91CF9153
:103A00001F910F910895C930C9F748E052E06FE067
:103A1000F1CF80E02FDF81E0C3DA80EC2BDFBCDA6E
:103A2000C3DA8430E9F70895B0E0A0E0EAE1FDE10F
:103A30000C94F235E82EEA01F22EAB0160E00E9410
:103A4000231347E06FE380E00E9494141AE085E2BC
:103A50008F1508F454C0FE01EF0DF11DD0809FEFCB
:103A6000D91609F44CC08FE18D1508F438C0E5E68D
:103A7000F8E08191D81609F44CC098E0EB36F907CC
:103A8000C1F78DE092E0ED2DF0E0EE0FFF1FEA5A56
:103A9000F94F21812F9320812F939F938F931F9311
:103AA00087E08E0D8F9310DE0F900F900F900F9088
:103AB0000F900F900F1123C095E0B92EB10EDD24A9
:103AC000DA94D10EBD14D8F0C12C6D2D8C2D0E942E
:103AD000A112C39480E4C812F8CFD394F3CFE110BD
:103AE0000EC08D2D8052990BFC01EE0FFF1FEE5B77
:103AF000F24F45915491612F80E00E9423131A5F89
:103B0000F394103409F0A3CFCDB7DEB7E9E00C94FD
:103B10000E3643E2612F81E08E0D0E94BC12B1CFC0
:103B2000A7E2B0E0E6E9FDE10C94EF355C0110E0BE
:103B3000DE0111967D01AD014F5F5F4F80E2810F85
:103B40008C93CA0130E020E0F901EE0FFF1FE95A23
:103B5000F94FE081EF70E60FF72FF11DE491E113CB
:103B600003C0FC01208301962F5F3F4F20323105B7
:103B700059F78417950709F0DC011F5F1630D9F655
:103B80006D01CE18DF088C2CCE018896A817B907D6
:103B900018F48FEF8D93F8CF912C11E0012F292D80
:103BA000A701B50180E040DF81E0FAD9292DA70106
:103BB000B50180EC39DFF0D9F7D9843009F442C07F
:103BC000883051F4F701E10FF11D8081A796ECE0F8
:103BD0000C940B36182FE2CF8031E9F42C2D2150B4
:103BE000330B121713064CF581E0810FF701E80F34
:103BF000F11D9081903210F082E0810F292D30E08C
:103C0000285F3F4F8217130609F0CCF4891510F78F
:103C10009DEF990EFBCF803871F48FEF123048F092
:103C2000810FF701E80FF11D9081903238F38EEF8C
:103C3000E4CF880DE3CF812FE1CF81E0E7CF33E000
:103C4000930EDCCF8FEFC2CFCF93DF93EC0180E1F7
:103C500092E065E67DE064DF803238F493E098839B
:103C6000898381E0DF91CF91089580E0FBCF81E2ED
:103C700092E065E67DE054CF0895CF93DF93EC01A9
:103C80008BE292E065E67DE04BDF803238F491E034
:103C90009883898381E0DF91CF91089580E0FBCF05
:103CA000A6E0B0E0E6E5FEE10C94EF35E82EC62E86
:103CB0004BE352E060E08EE28E0D0E94231346E05B
:103CC0006FE380E00E94941402E718E04BE0D42EEA
:103CD000B12CF801828181111AC0B394F7E0DF0E94
:103CE0000C5F1F4F27E2D212F4CFE3E0EC1558F03F
:103CF00047E452E060E385E28E0D0E94231387E2E1
:103D00008E0D0E94F2132696ECE00C940B36282FB1
:103D10002150330BF901EE0FFF1FEA5CF24F859142
:103D20009491F80123811F922F939F938F93DF9299
:103D3000EF92CADC88E592E0F80121812F9320817F
:103D40002F939F938F939E012F5F3F4F49013F9386
:103D50002F93B1D9982F990F990F20E0A4016D2DC1
:103D60008FE78E0D891B0E9401130FB6F894DEBFFA
:103D70000FBECDBFCB10B1CF87E0C89E802D1124E0
:103D800090E1992E980E2AE0F22EF80E9F1408F476
:103D9000A4CFA12C6F2D8A2D0E94A112A39490E490
:103DA000A912F8CFF394F2CFCF93DF932BE532E053
:103DB0008091580890E001969F938F933F932F93A3
:103DC0001F9281E08F9380DC4CE652E066E081E058
:103DD0000E9423134FE652E066E081E20E94231323
:103DE00080E00E941D12C82FD091990629E047E07B
:103DF0006AE189E00E9490150F900F900F900F904C
:103E00000F900F90CC2351F020E1D29FC0011124DC
:103E100008966C2F70E00E94BC35C62F69E06C0FCD
:103E200048E08AE00E949414C0916F08CF3008F0F7
:103E3000CFE0D091600829E047E06AE389E20E9480
:103E4000901520E1D29FC00111240896C295C07F31
:103E5000C65F6C2F70E00E94BC35675D48E08AE267
:103E60000E94941480917008893C30F042E752E03F
:103E70006CE081E00E942313DF91CF910895FF92BF
:103E80000F931F93CF93DF938C01EB018DDFAE0176
:103E90006DE185E00E94231349E752E063E285E08B
:103EA0000E942313C8E180E2F82EFC0ED9E4DC1B4B
:103EB0004F2D6D2F8C2F0E9483144F2D6D2F8FE36C
:103EC0008C1B0E9483149BE0F92EFC0ED4E3DC1BB8
:103ED00046E14C0F6F2D8D2F0E94941443E54C1B2F
:103EE0006F2D8D2F0E949414C150C431E1F654D827
:103EF0005BD88032A9F020F4803151F080E00BC013
:103F0000803491F08038D1F7F801108281E003C04D
:103F100081E0F8018083CDB7DEB7E5E00C9412367E
:103F200082E0F8018083F2CF83E0FBCF25E0FC0143
:103F30002193CF016AE57DE0A2CF0895A1E0B0E032
:103F4000E4EAFFE10C94F73510919606009197068C
:103F5000602F812F0E94AA1581E022D86AE872E0C2
:103F6000CE0101968CDF882301F1298130E0F9012F
:103F7000EC55F24FE49184E0E802F00111241E0FA9
:103F8000F901E855F24FE49184E0E802B001112410
:103F9000600F17FD10E067FD60E0103408F01FE3CC
:103FA000062F6032A8F20FE1D3CF2196E4E00C9403
:103FB000133669E972E063CF0895EF92FF920F9391
:103FC0001F93CF93DF93F0DEC0E00DE1D1E080914D
:103FD0000209C81728F58C2F90E09C012E57374F07
:103FE0007901C9010E948108182F2D2F280F33272E
:103FF000331F2134310514F00A5FD1E020E0A7011E
:10400000602F8D2F0E9401131E5FD10FEC2FCF5F09
:10401000F0E0EE57F74F8081EC2F8111F8CFD7CF2A
:10402000CDB7DEB7E6E00C9411360E94A51781E00B
:104030000E94D017C2DF4AE952E06BE38BE20E9494
:1040400023130E94CC170E94D4178830E1F71092F6
:10405000020981E0809303098DE1809304090895AA
:10406000A0E8B0E0E6E3F0E20C94F135AE0143578E
:104070005F4FFA0161917191AF01CE0101967C0110
:104080002BD8F701AE2EAE1881918111FBCF10E035
:10409000F701E10FF11D1F5F80818132CCF71082A3
:1040A00000E080910209810F801B813808F0BDDF9C
:1040B000C02ED12CC7018C0D9D1D0E948108B82EE9
:1040C000809104098B3340F0809103098B0D99276F
:1040D000991F8B970CF0A9DFD701AC0DBD1D0117FF
:1040E00068F4E091020981E08E0F809302098D91BE
:1040F000F0E0EE57F74F80830F5FF1CF8091030917
:104100008B0D9927991F8134910544F081E08093AC
:104110000309809104098A5F80930409809103094F
:104120008E5F8B0D809303091A1560F4812FF701C0
:10413000E80FF11D8F5F90819132CCF71082012F33
:10414000182FAFCFC058DF4FEAE00C940D36CF9355
:10415000DF93282F30E0A901440F551FFA01E95AD7
:10416000F94F90819F70973010F561EA72E0962FB9
:10417000672F4A5A594FFA01408147FF1BC04CEA4A
:1041800052E0220F331FF901EA5AF94F81818F93D0
:1041900080818F936F939F935F934F9361DF0F9015
:1041A0000F900F900F900F900F9080E024C069EC5B
:1041B00072E0DDCF45E658E0EA014F5F5F4F78815E
:1041C00078131CC042ED52E0220F331FF901EA5A66
:1041D000F94F81818F9380818F936F939F935F932A
:1041E0004F933EDF8FEF88830F900F900F900F90CB
:1041F0000F900F9081E0DF91CF910895F8E04B365A
:104200005F07D1F6D2CF0F931F93CF938C01E0912C
:104210006508E03248F4F0E0EE0FFF1FE95AF94F6D
:1042200080818F70853069F081EE92E09F938F934B
:1042300017DF0F900F90C0E08C2FCF911F910F913F
:10424000089590E080E0C0E0FC01EE0FFF1FE95A06
:10425000F94F20812F7031E0243009F030E0C32B7A
:1042600001968032910581F7C11108C08BEF92E071
:104270009F938F93F5DE0F900F90DECFC8010196CC
:1042800098DEC82F8823C1F282E0F8018083D4CF62
:10429000952F9F709530D8F4E6E3F7E0928198135C
:1042A00011C0938196130EC0918195130BC080812C
:1042B0008F738F3309F08F5F8F739081907C892B80
:1042C00080830895349697E0E63BF90739F7E6E3F3
:1042D000F7E091819F7029F4828363834083518347
:1042E0000895349697E0E63BF90799F78FE093E05D
:1042F0005F934F939F938F93B3DE0F900F900F9028
:104300000F9008950F931F93CF93082F10E095E01F
:10431000899FF0011124E856F94F908192FD1EC04B
:104320000E94F410882379F08EE193E01F920F939E
:104330001F920F939F938F9393DE0F900F900F9088
:104340000F900F900F9085E0809FF001819FF00DFE
:104350001124E856F94F808184608083CF911F91AA
:104360000F9108950F931F93CF93C82F811106C00B
:1043700065E081E00E94D51081112FC00C2F10E064
:104380008C2F0E94F4108823A9F02EE233E085E3FD
:1043900093E03F932F931F92CF931F92CF939F93BE
:1043A0008F935EDE8DB79EB708960FB6F8949EBFCA
:1043B0000FBE8DBFC11106C00E94120F83708C5FAB
:1043C0008093620885E0809FF001819FF00D1124A9
:1043D000E856F94F808181608083CF911F910F91C2
:1043E0000895EF92FF920F931F93CF93082F10E041
:1043F00045E0849F90011124F901EA56F94F7F01AD
:104400009381691708F438C0C82F25E433E089E4A4
:1044100093E03F932F931F920F931F920F939F93BD
:104420008F931EDEF70113821482E091580840E159
:10443000E49FF0011124E65AFA4F83E016950795A0
:104440008A95E1F7E00FF11FC77021E030E001C06D
:10445000220FCA95EAF78081822B80838DB79EB7A1
:1044600008960FB6F8949EBF0FBE8DBFCF911F91D7
:104470000F91FF90EF900895961B9383F7CF809153
:1044800070088F3F21F08F5F8093700808958091AE
:104490009906882389F080E593E09F938F93E0DD70
:1044A00086E0809354050E94120F817061E0680FCE
:1044B00080E097DF0F900F900895A8E0B0E0E3E66A
:1044C000F2E20C94F335F82E162FE42EBE016F5F46
:1044D0007F4F0E94620BC12ED12C25E02C9DC00184
:1044E0002D9D900D11248A56994FFC0104811111C4
:1044F0000BC084E0809354052F9DF0011124EA56EF
:10450000F94F8481809355056E2D812F6ADF85E0F8
:104510008C9DF0018D9DF00D1124EA56F94F848198
:10452000811172C0F1106AC088E0089FF001112467
:10453000EB50F14F049180916F081FE08F3008F429
:10454000182F1295107F165FE0916008212F30E040
:10455000E02EF12C2E193F09E217130609F00CF496
:1045600051C08F5F80936F0822E633E090E00196A0
:104570009F938F933F932F9373DD80915F088C5FA0
:1045800080935F0880916F080F900F900F900F90AD
:104590008431F8F48370823061F48BE793E09F9369
:1045A0008F935EDD80915B088F5F80935B080F9037
:1045B0000F9080916F08837061F48EE893E09F9371
:1045C0008F934EDD80915C088F5F80935C080F9025
:1045D0000F9080E00E941D1280939906E091600880
:1045E000E00FE11BE0936008809152059091530524
:1045F000E80EF91EF0925305E09252052896E8E085
:104600000C940F36E00FEECF111137C0898185FF72
:1046100034C00E94120F883208F02FC080EA93E065
:104620001F92FF929F938F931BDD809164088D5F93
:104630008093640880E00E941D12909199060F906B
:104640000F900F900F90891708F4982F9093990668
:10465000911113C027EB33E08BEB93E03F932F9343
:104660001F921F921F921F929F938F93F9DC0FB698
:10467000F894DEBF0FBECDBFC1CF898186FF06C0D3
:104680000E94120F883210F4812F6CDE898184FF22
:10469000B5CF0E94120F843108F0B0CF812F32DEE7
:1046A000ADCFCF92DF92FF920F931F93CF93DF9303
:1046B000C82FD62FC82ED12C0E941D12182F85E08E
:1046C0008C9DF0018D9DF00D1124EA56F94F8381E8
:1046D000811718F5D33048F582EC93E0082FF92EB6
:1046E000C11126C08CEC93E0FF920F939F938F93A0
:1046F000B7DC0F900F900F900F9085E08C9DF0012C
:104700008D9DF00D1124EA56F94F6381212F261B50
:10471000330BD21713060CF11383DF91CF911F9146
:104720000F91FF90DF90CF9008958FED93E0D6CF5B
:104730008C2F0E94F410882301F380EE93E0FF9207
:104740000F931F92CF939F938F938ADC0F900F90BC
:104750000F900F900F900F90D0CF6D0F6383DDCF30
:1047600095E0899FF0011124DF01A856B94F9C9173
:1047700092FF0BC09B7F9C93811107C083EF93E056
:104780009F938F936DDC0F900F900895CF93DF93DD
:10479000C82FE62FF0E083E0F695E7958A95E1F7DC
:1047A000E559F74F262F277081E090E0AC0102C059
:1047B000440F551F2A95E2F78081842B8083623055
:1047C00009F439C038F4662319F1613089F1DF91B9
:1047D000CF910895633009F431C06430C1F7C1113D
:1047E0000DC00E94120F8F70845F809361088AE071
:1047F00094E09F938F9334DC0F900F9085E0C89FD7
:10480000F0011124E856F94F808180618083DFCF69
:104810008C2F0E941D12D82F86950E94800FD6954E
:10482000D6956D2F680F8C2F3CDF8C2F99DFCFCF63
:104830008C2F98DDCCCF8C2F65DDC9CF55E0C59F7F
:10484000F0011124E856F94F808182FDEECFC111AD
:10485000BECF8EE194E09F938F9302DC80915B0842
:104860008F5F80935B080F900F90B1CFADE0B0E009
:10487000ECE3F4E20C94EE35182F7B01C82ED12C1A
:10488000FB01818183708D878081882309F42AC090
:1048900085E08C9DF0018D9DF00D1124E856F94FB7
:1048A000808181FF10C0112331F011E0812F2D96FE
:1048B000EDE00C940A3681E394E09F938F93D0DB74
:1048C0000F900F90F2CF80FF0DC00E94120F8370E7
:1048D0008D87111107C084E494E09F938F93C0DB10
:1048E0000F900F902D8530E0F901EC55F24F949028
:1048F000F901E855F24F049185E08C9DF0018D9D02
:10490000F00D1124EA56F94F8081980EE1810E0FC7
:10491000602F892D0E94AB0C5C01BE016F5F7F4F41
:10492000812F0E94620BD701EC91E73020F5F0E077
:10493000E456FB4D0C94E335A526A3249427D126F9
:104940001727B825D925F701F180CF2CD12CF601F6
:10495000EE0FFF1FE95AF94F1081012F02950F70DA
:104960001F70133009F458C040F4113009F445C0E9
:10497000123009F44AC010E099CFEBEFE10FA5E641
:10498000B8E0E730C0F78D91F81609F455C358E048
:10499000AB36B507C1F7F0E0E25FFE4FA080B12C67
:1049A000A5014B59574F5A01DA018C91803218F406
:1049B000CEDB882301F38F2D0E94DA0AF601EE0F79
:1049C000FF1FEA5AF94F173008F0CFC086E594E090
:1049D0009C018CE594E041814F9340814F933F933C
:1049E0002F939F938F933CDBD501FC920F900F90F8
:1049F0000F900F900F900F9058CF80E20E94800F81
:104A0000109270088BE694E058CF8F2D0E948D0C89
:104A1000602F80E0BBDE49CF8F2D0E948D0C802F50
:104A200090E00596FC0173E0F695E7957A95E1F73D
:104A3000E559F74F8770992721E030E001C0220F38
:104A40008A95EAF78081822B8083023009F45EC068
:104A5000F0F4002309F42CC0013009F026CF8AE7D6
:104A600094E065E67DE05CD8803270F4282F30E079
:104A7000D901AA0FBB1FCD01895A994FFC01808132
:104A80008F70853008F032C08EE894E016CF033086
:104A900009F45DC0ECE4F4E0043009F006CF8FEFD8
:104AA000819345E0EC34F407D1F78FE994E005CF2A
:104AB00086EC94E065E67DE033D8182F803220F74D
:104AC0000E94DA0A8BED94E0E12FF0E0EE0FFF1F79
:104AD000EA5AF94F21812F9320812F939F938F932F
:104AE000BFDA0F900F900F900F90DFCEAA5AB94FF8
:104AF0008C91982F9F739F3329F09F5F9F73807CC9
:104B0000892B8C938FEE94E0F901E0CF8FE095E054
:104B100065E67DE005D8803208F0B6CF282F30E07A
:104B2000D901AA0FBB1FCD01895A994FFC01808181
:104B30008F70853008F4A8CFAA5AB94F8C9187FF9F
:104B4000A3CF80748C9383E295E0FD01C3CF67E926
:104B500076E086E996E00E94011084E495E09F9358
:104B60008F937EDA80E0FEDBABCE8BE695E030CF34
:104B7000602F892D0E94CA0CFC01892BB9F080811D
:104B800087FD14C0918197FD08C082E795E09F934F
:104B90008F9366DA0F900F90EECEA114B10419F046
:104BA0008EE895E0F4CF9F7791837FCE83EA95E0FE
:104BB000EECF602F892D0E94CA0CFC01892B61F178
:104BC000818187FD29C0908197FD26C09A8191FF40
:104BD00023C080688183A091580840E1A49FD00140
:104BE0001124AE59BA4FE651F840F595E795CF013B
:104BF000992723E0969587952A95E1F7A80FB91F85
:104C0000E770FF2721E030E001C0220FEA95EAF7C4
:104C10008C91822B8C9349CE602F892D0E94100D90
:104C20008111A9CEA114B10409F484C0C50186592B
:104C300096402DEC3CEC829F7001839FF00C929F7C
:104C4000F00C1124812F0E948111D82E8E2D0E94EC
:104C50008111082F8D2D880F800F0E94800FC82E84
:104C60008E2D0E94F410D82EC01608F0F0C18823B3
:104C7000B1F02AEB35E08FEB95E0A70155275F9364
:104C80004F933F932F931F921F931F921F939F93B6
:104C90008F93E6D90FB6F894DEBF0FBECDBF1111CA
:104CA00004CE8E2D0E943612C01608F4FECD812F40
:104CB0000E94FA11082F8E2D0E942D11C82E802FD0
:104CC0000E941411082F8C2D0E941411202F26955C
:104CD00030E0009F200D311D11242F5F3F4FA02F8A
:104CE000A80FBB27BB1FBD016F5F7F4FC9010E948B
:104CF000D035062F662309F4A3C1DD20B1F029ECDD
:104D000035E08DEC95E0A70155275F934F933F93D6
:104D10002F931F921F931F921F939F938F93A0D93E
:104D20000FB6F894DEBF0FBECDBF402F6E2D812F82
:104D3000C4DBBBCD85E08C9DF0018D9DF00D112471
:104D4000EA56F94F90820183B0CD1111AECD04EA3D
:104D50001DE0B8EACB2EBDE0DB2EF801949134962D
:104D60006491E09197066E0F80919606890F0E94DC
:104D7000CA0C7C01009779F0DC018C9187FF0BC095
:104D800087ED95E09F938F936BD9F70180818F77A3
:104D900080830F900F900F5F1F4FC016D106E9F66A
:104DA00084CDF7018181E82FF0E0EE0FFF1FEA5A72
:104DB000F94FB0800181E5E6F8E0083461F480EF56
:104DC00095E00F93BF929F938F934AD90F900F90C6
:104DD0000F900F90D0CD9191891709F433C148E01D
:104DE000EB36F407C1F78FE096E00F93BF929F93E5
:104DF0008F9336D9F70181810E948D0C85E08C9DBF
:104E0000F0018D9DF00D1124EA56F94F4B2D502FD6
:104E1000618180813DDAF7018181E82FF0E0EE0FBA
:104E2000FF1FEA5AF94F8181807F81835ACECE01DC
:104E30000D96BFD8182F882309F438CD8D8590E0C2
:104E4000FC01EC55F24FB490FC01E855F24FA490F0
:104E5000F7018181282F30E0220F331FF901EA5A30
:104E6000F94FE0800181295A394FD901FC90F29421
:104E70005FE0F5220E948D0CBE2DB07CEB2E85E00C
:104E80008C9DF0018D9DF00D1124EA56F94F808024
:104E9000918068E0762E8B0C9A0C692D882D0E94EB
:104EA000100D811130C0692D882D0E94AB0C009728
:104EB00039F1865996402DEC3CEC829F6001839F2E
:104EC000D00C929FD00C11248C2D0E94361220E21F
:104ED00036E00F708F2D8295807F082BC6019927B1
:104EE0009F938F930F93EF923F932F93B9D86F2D8A
:104EF0008C2D4CDC0F900F900F900F900F900F9017
:104F00007A947110C8CF80E396E0F29430EFF322E8
:104F10000F700F290F93EF929F938F93A1D80F904B
:104F20000F900F900F90C2CC90E080E0E82FDC0152
:104F3000AA0FBB1FA95AB94F2C912F70243029F00A
:104F400001968032910591F7E0E2F0E0EE0FFF1F4D
:104F5000DF01AA5AB94F8C91982F9F7309F047C06F
:104F6000FD018181807F81839E01275F3F4F48E063
:104F7000F701618180E00E949C0EFB84FFE1FF1538
:104F800008F42AC080E00E948111082F8F2D0E9412
:104F90008111182F802F880F800F810F0E94800FA2
:104FA000811708F02AC08B8590E021E436E0A90142
:104FB00010E027E436E09F938F935F934F933F93E6
:104FC0002F934ED8412F6B8580E077DA0F900F90AA
:104FD0000F900F900F900F900E94120F803408F4E2
:104FE00064CC40E054E06A85898552D95ECC91500A
:104FF0009F73807C892B8C93B7CF802F0E94800F6A
:10500000E82E80E00E94B311102F16951F5F1E0D31
:1050100086958695180F8F2D0E942D1186958F5F8E
:105020000E94800F181B8B8590E0111101C011E0C8
:105030002AE536E0A901BDCF8F2D89D8182F36CCAF
:1050400001E05BCE84D8182F8111CDCE2FCC111169
:105050002ECE27CE0E94A51781E00E94D0170E9475
:10506000DD1F0C94CC170895CF93DF93EC018EE5F0
:1050700096E06EE47DE00E94901D803240F494E062
:1050800098838983E7DF81E0DF91CF91089580E005
:10509000FBCF8F929F92BF92CF92DF92EF92FF92BF
:1050A0000F931F93CF93DF93CDB7DEB7C058D109CD
:1050B0000FB6F894DEBF0FBECDBF8E0102571F4F53
:1050C000F801E190F1908F010E94D41EA801B70170
:1050D0009E012F5F3F4F7901C9010E946C18F701B3
:1050E000BE2EBE1881918111FBCF8B1548F4F701BC
:1050F000E80FF11D8F5F90819132CCF71082F5CFD0
:1051000010E08DE1C82E01E01B1520F54701810E4E
:10511000911CC4010E948108D82EE02FE80FFF27C0
:10512000FF1FE134F1051CF0F6E0CF0E01E020E0B6
:10513000A4016C2D802F0E940113D394D3940D0DE4
:10514000E12F1F5FEE0DFF2DF11D8081E12F8111F9
:10515000F8CFDACF87E00E94F2130E94CC170E94AA
:10516000D417182F8C70D9F375DF81E0183009F04F
:1051700080E0C058DF4F0FB6F894DEBF0FBECDBF42
:10518000DF91CF911F910F91FF90EF90DF90CF9023
:10519000BF909F908F900895A4E0B0E0E2EDF8E218
:1051A0000C94F035809150059091510590934B01EE
:1051B00080934A0110E080915808181738F409EDDF
:1051C0000E94120F0150E1F71F5FF5CFECE4F3E00E
:1051D0008FEF819324E0EC34F207D1F760E071E0C7
:1051E0008CE494E00E94CC1060E870E086E397E0E5
:1051F0000E94CC1060E670E086EB97E00E94CC1035
:1052000060E470E086E198E00E94CC1010925608AD
:10521000109257081FDF0E949510909158089F30F8
:1052200009F480E84DE06DE10E94130EE12C60E18D
:10523000F62E80915608803208F048C00E94800FF8
:1052400043E0849FF0011124EA54F84FD080C180DC
:10525000B2800E94120F182F13700E949510082F11
:105260009E012D5F3F4FAE014C5F5F4F6B2D812F35
:105270000E944C109E012F5F3F4FAE014E5F5F4F6B
:10528000602F81E081270E944C10412F50E0FA01ED
:10529000EC55F24F94914855524FFA0144911C81BC
:1052A000190F1D0DDB80D40EDC0C8981481B4D0DC0
:1052B0008A81E92FE81B6E2F610F802F0E94130E49
:1052C000882321F06D2D812F0E942B0FF1E0EF1A22
:1052D000F10809F0AECFC12C54E0D52E80915608CC
:1052E0000E94800F23E0829FF0011124EA54F84FBE
:1052F00010810181F2800E94120F8370B82E9E01EE
:105300002F5F3F4FAE014E5F5F4F6F2D0E944C10DD
:105310006B2D70E0FB01EC55F24F8491810FEA8117
:105320008E0F8A836855724FFB016491600FE9818B
:105330006E0F69830E94100D882349F1A12C098109
:105340001A8180915608A81608F0D1C08A2D90E0E5
:10535000F3E0AF9E90011124A9014A54584F7A01FD
:10536000FC01EE0FFF1FE80FF91FEA54F84F808190
:10537000181B9180C7010E94540C181710F0A394B9
:10538000DECFC7010E943C0C09190817C0F741E0A5
:10539000C41AD10809F0A2CFECE4F4E0DF01BA9519
:1053A00080819C91892B819355E0EC34F507B1F70E
:1053B0000E94D70B809158088F3008F000C16DE42F
:1053C00075E08CE495E00E9401106FE475E08EE4D6
:1053D00095E00E940110809158088F30A1F59091BE
:1053E000B607995F8091B70720910C0130910D01AC
:1053F0003093B3072093B2079093B40727E0280FA8
:105400002093B50721E120939F0690939B0628E007
:10541000280F20939C06E0915708E03209F4D5C08C
:1054200021E02E0F20935708F0E0EE0FFF1FDF0161
:10543000AA5EB74F9F779C93875FFD018F7791811D
:105440009078892B8183809158088F3008F04BC069
:105450000BE916E0EE24E394F12C85E08E9DF0013B
:105460008F9DF00D1124EA56F94FDF011D928A95A8
:10547000E9F7B8016F5F7F4FC8010E94890F882349
:1054800041F186E00E94800FE0915808B8E0EB9F60
:10549000F0011124E80FF11DEA5CF14F849188239B
:1054A00081F3F80184838B3029F40E94800F8F5F91
:1054B000F801838380915808F0E18F9FC001112487
:1054C000B701865A9A4F0E94AB0B882311F0F8015E
:1054D0001482FFEFEF1AFF0A0B5F1F4F20E2E21664
:1054E000F10409F0BACF2496EBE00C940C3651E0AD
:1054F0005B1508F440C06FEF600F812F0E94100D04
:10550000811145CF61E0600F812F0E94100D811144
:105510003ECFF12C602F812F8F190E94100D882310
:1055200009F435CF602F812F8F0D0E94100D882335
:1055300009F42DCFF39484E0F812ECCF34EAE32E93
:105540003DE0F32EF70134966491F7018491600FEA
:10555000810F0E94CA0C892B09F019CFFFEFEF1AB7
:10556000FF0A28EAE2162DE0F20661F7602F812F8C
:105570000E942B0F0CCF602F8FEF810F0E94100D18
:10558000811105CF602F81E0810F0E94100D8111E4
:10559000FECEF12C602F6F19812F0E94100D8823F1
:1055A00009F4F5CE602F6F0D812F0E94100D882316
:1055B00009F4EDCEF39494E0F912ECCFBFCF8FEF66
:1055C00080934D0580934C0500CFEFE12DCFA6E1F0
:1055D000B0E0EDEEFAE20C94EE35C82ED12C25E0C9
:1055E000829F50011124F501EA56F94F4F01948131
:1055F000992309F4B8C1182FBE01675F7F4F0E943D
:10560000620BCC20A9F095012856394F5901F901B8
:10561000808181FD0DC080FF8FC086E08D8B0E9450
:10562000120F83708E8BBE016B5E7F4F812F1ED950
:1056300085E08C9DF0018D9DF00D1124E856F94F09
:10564000808180FF24C011117CC18091620881504B
:105650008093620881111BC085E08C9DF0018D9DB7
:10566000F00D1124E856F94F80818E7F80838AE601
:1056700096E01F921F931F921F939F938F930E94F8
:1056800030200F900F900F900F900F900F9085E0AB
:105690008C9DF0018D9DF00D1124E856F94F80810D
:1056A00081FF24C0111151C1809163088150809302
:1056B000630881111BC085E08C9DF0018D9DF00D6C
:1056C0001124E856F94F80818D7F808384E896E02D
:1056D0001F921F931F921F939F938F930E943020BE
:1056E0000F900F900F900F900F900F9085E08C9D72
:1056F00070018D9DF00C1124F701E856F94F80815F
:1057000084FF31C1898583FD2EC1111122C1809191
:105710006108815080936108811125C180919806AC
:105720008F7E809398068FE996E09F938F930E94D7
:1057300030200F900F9017C1F401E0809180BE01DE
:105740006F5F7F4F8C2D0E94620B1D8A098101FFC4
:1057500004C0F501808183FF66CF80919A0688237B
:1057600009F461CF85E08C9D90018D9D300D112451
:10577000D901AA56B94FFD018180B09096068C914F
:105780008B1987FD8195A09097068A1887FC8194D4
:105790000170F901E856F94F908193FB992790F930
:1057A000092B41F09091590893FD04C0880EF9E04F
:1057B000F815F8F40E94120F83708E8BA82FB0E0BA
:1057C000FD01EC55F24F8491FD01E855F24F6491D3
:1057D000690D8E0D0E94AB0C009741F0002309F477
:1057E00022CFFC018481813009F01DCF86E08D8BB2
:1057F0001ACF8A8180FF10C000E09E012F5E3F4FCC
:1058000045E0602F812F0E949C0E8B89882309F42C
:1058100039C00F5F053089F784EAA82E8DE0B82ED5
:1058200000E0F50184917E2C780E3496F490F90C0A
:105830006F2D872D0E94100D81111DC06F2D872D9A
:105840000E94AB0C009721F0FC018481813099F417
:1058500080919606781A872D87FD819590919706FD
:10586000F91AF7FCF194F80EF81408F063C086E01A
:105870008D8B0E8B8F2C0F5FFFEFAF1ABF0A04309A
:1058800081F6D1CE0E94120F80FFC6CF8CEB96E03E
:105890001F921F939F938F930E943020DBDBFC8825
:1058A000E6E06E2F6A19960EEB19EE0E202F30E00F
:1058B000F901EC55F24FB490F901E855F24F04911B
:1058C0000E94A517AB2CAA0CAA0CAB0CEE2DEB0D6D
:1058D000EE2EEE0CEE0CEE0EB02EBB0CBB0CB00E92
:1058E000900E892D880F880F980E0F900F900F90B3
:1058F0000F90FA94FFEFFF1681F0492D6E2D8EEA7E
:105900009EE00E943E1480E00E94D01784E690E062
:105910000E94C70AEA0C9B0CECCF81E00E94D017D2
:1059200088E00E94800F48E0480F60E0812F0E94CD
:105930005D2279CEF8109FCF0E94120F80FD97CF85
:105940009ACF0E94120F877085CE0E94120F877027
:10595000B0CE0E94120F8F7031F4F701E856F94F64
:1059600080818F7E80836696EDE00C940A361F93CB
:10597000CF93DF93EC01162F0E949A35181721F070
:10598000612FCE010E94A235DF91CF911F91089522
:105990000C949A3508950F931F93CF93DF9300E5EE
:1059A00015E0CBECD0E0CE01F3DFF80181938F015D
:1059B0002196CD3FF3E0DF07B1F7DF91CF911F9143
:1059C0000F9108950F931F93CF93DF930BEC10E08B
:1059D000CFEFDFEFC801DCDF9D2F9827892F82955D
:1059E0008F708927282F30E09C2FA901542F44273E
:1059F0005295507F84279527E90175E0CC0FDD1F74
:105A00007A95E1F7C827D9270F5F1F4F0E3F83E034
:105A1000180701F7CE01DF91CF911F910F910895E3
:105A20000F931F93CF93DF9300E515E0CBECD0E00D
:105A3000F80161918F01CE019ADF2196CD3FF3E00D
:105A4000DF07B1F761E08DEF93E091DFBBDFC92F96
:105A5000682F8EEF93E08BDF6C2F8FEF93E087DF63
:105A6000DF91CF911F910F910895DACF0895CF93D1
:105A7000DF93D82F682F81E00E94501E81E00E94A2
:105A8000D0176D2F81EC0E94501E0E94CC170E94EF
:105A9000D417C82FD43018F4883009F4C1DFCC7083
:105AA000B1F3DF91CF9108958FEFE1CF08951F9269
:105AB0000F920FB60F9211248F939F938091E10064
:105AC0009091E100937F9093E10083FF0FC01092CB
:105AD000E90091E09093EB001092EC0092E3909338
