:100000000C94E4080C940C090C940C090C940C0945
:100010000C940C090C940C090C940C090C940C090C
:100020000C940C090C940C090C94012F0C94702F57
:100030000C940C090C940C090C940C090C940C09EC
:100040000C940C090C940C090C940C090C940C09DC
:100050000C940C090C940C090C940C090C949C3114
:100060000C940C090C940C090C940C090C940C09BC
:100070000C940C090C940C090C940C090C940C09AC
:100080000C940C090C940C090C940C090C940C099C
:100090000C940C090C940C090C940C090C940C098C
:1000A0000C940C090C940C090C940C0920617265D9
:1000B000006F6D657468696E670020697300637511
:1000C000727365642000666F6F6420726174696F7B
:1000D0006E00626F7700205B40642061746B5D008E
:1000E00073776F726400206F66207370656564209B
:1000F0005B2B3220737064204064206465665D0071
:1001000077616E64206F6620002077616E640072F4
:10011000696E67206F662000205B406420737472F4
:100120005D00205B4064206465785D002072696E2C
:100130006700205B4064206D68705D00205B406458
:10014000207370645D00596573004E6F004C6F61E1
:1001500064696E672E2E2E0057616C6C2053747983
:100160006C653A207B204075207D0040752028403A
:10017000642900456666656374733A006E6F6E6548
:100180000040690053617665206869676820736381
:100190006F72653F004058202040750044756E67BF
:1001A000656F6E204C6576656C204075004C56205E
:1001B000407520202048503A2040752F4075005748
:1001C0006869636820646972656374696F6E3F0073
:1001D0005B6D6F72655D0073746F70207573696E0F
:1001E000670074616B65206F666600405520407043
:1001F00021006469650040572100405420666F72F9
:100200006D206D6F7270687320696E746F00405559
:1002100020626C6173746564206261636B210040CD
:1002200053206372617368657320696E746F004058
:1002300053206869747320612077616C6C2E0040D4
:100240005320646973617070656172732100736C0F
:10025000696768746C7920004053206C6F6F6B7312
:100260002040706265747465722E00546865726512
:10027000206973206120706F69736F6E6F757320D2
:10028000626C6173742E00405320666C6565732147
:100290000040552073747269636B656E2100707540
:1002A00074206F6E007265616479006D697373000C
:1002B000405720404F2E0068697400647261696E77
:1002C000004057204050206865616C746821006DC3
:1002D00069737365005468726F7720776861743F43
:1002E0000041726520796F75207375726520796F92
:1002F000752077616E7420746F20656E6420746859
:1003000069732067616D653F0040532062726561CB
:100310007468657320666972652100507265737335
:10032000204120746F006C6F61642E00706C6179E5
:100330002E005072657373204220746F20636F6EBD
:1003400074696E75652E007B20416374696F6E73EE
:10035000207D007B2047616D65204D656E75207D99
:10036000005374617276656420746F2064656174F3
:100370006800436F6D6D697474656420737569639B
:1003800069646500446561746820627920404D00AD
:100390004162616E646F6E6564209167616D650096
:1003A00052657475726E65648F004590209192005D
:1003B0004D697363004A6577656C727900536372A7
:1003C0006F6C6C7300506F74696F6E730057616E61
:1003D00064730041726D6F7200576561706F6E7368
:1003E0000053706565643A00446566656E73653AEE
:1003F0000041747461636B3A004465787465726996
:1004000074793A0053843A004D6178204865616CF4
:1004100074683A004C6576656C3A0070696E6B00E2
:10042000626C61636B0076696F6C65740079656CF2
:100430006C6F7700776869746500626C756500673A
:100440007265656E006F72616E676500636C6561F1
:10045000720072656400746F726D656E740066651B
:100460006172006D61676963206D617070696E67AC
:100470000072656D6F766520637572736500656ED9
:100480006368616E74696E67006964656E7469663D
:100490007900657870657269656E636500736C6F6D
:1004A00077696E6700706172616C79736973006857
:1004B00061726D696E67006D61737320706F69732F
:1004C0006F6E006D61737320636F6E667573696F15
:1004D0006E006865616C696E670059656E646F7265
:1004E00000776973646F6D00766974616C69747903
:1004F0000069726F6E626C6F6F64009176616D70EF
:1005000069726500726567656E65726174696F6EA8
:1005100000636F6E736572766174696F6E00636CF1
:1005200061726974790073706565640069726F6ED9
:1005300000706C6174696E756D0073696C766572BC
:1005400000676F6C6400746F70617A00656D65722E
:10055000616C640072756279006469616D6F6E64CC
:10056000006272696C6C69616E74006272696768BE
:1005700074006461726B0068756D6D696E670073FD
:1005800068696D6D6572696E6700676C6F77696E1B
:10059000670074617474657265640079656C6C6F72
:1005A00077656400666164656400696E7669736985
:1005B00062696C6974790073757374656E616E63DA
:1005C000650061747461636B006669726520696DB2
:1005D0006D756E6974790070726F74656374696F9C
:1005E0006E0064657874657269747900738400675D
:1005F0006C6F7373790063757276656400747769E4
:100600007374656400746869636B00736C656E6411
:1006100065720073686F7274006C6F6E6700706F44
:100620006C796D6F727068006963650073747269CC
:100630006B696E6700666972650064696767696EF9
:10064000670074656C65706F72746174696F6E00B9
:10065000666F72636500626F6F74730068656C6DBE
:100660000061726D6F72004C6F7264206F6620447F
:1006700061726B6E6573730066616C6C656E206190
:100680006E67656C00647261676F6E0067726966A1
:1006900066696E0074726F6C6C00696E637562756A
:1006A00073006D696D696300686F62676F626C6982
:1006B0006E00746172616E74756C61006F726300BC
:1006C0007068616E746F6D00676F626C696E007A3E
:1006D0006F6D62696500726174746C65736E616BD5
:1006E0006500626174008B646973636F7665722064
:1006F0006974200057656C636F6D65200064726FCC
:1007000070209140692E0073656520696E7669736B
:1007100069626C6500616D756C657400736361700E
:10072000656420776974680020746F209173757216
:1007300066616365008B6861766520002091922078
:100740006F662059656E646F720093646F6F7220DC
:1007500069732000596F7520008B63616E277420C8
:10076000686F6C6420616E79206D6F726520008BFC
:100770006665656C200085756E61626C6520746FBE
:1007800020008B61726520007472656E677468006A
:100790007374617276696E670093406920676C6F4D
:1007A0007773200020666F722061206D6F6D656E1B
:1007B000742E00207768696368206974656D3F0056
:1007C0005361766520616E642045786974004162EA
:1007D000616E646F6E2047616D65005669657720B4
:1007E0004D696E696D6170005468726F7720506F4B
:1007F00074696F6E0044726F70204974656D0053A8
:10080000686F6F7400557365202F205B556E5D65B2
:10081000717569700057616974202F20536561728A
:1008200063680009010604050105044909260685D7
:1008300005850500002994B00BB30121844812609E
:1008400009F404AA0A0606900F900F900FBEEF1E3F
:10085000E10000F66FA40FD00B5A0FB99DF00B52B8
:100860000F9F0FA0072C0F2F0FF909F1019D06967E
:10087000F95E0E880F9669010204081A2649850060
:100880000000000A0609050104100208000000002B
:100890000001010101010202020202080808080821
:1008A00014141414141F00000000000600000000BF
:1008B00000001F00000016001F00000018080000C4
:1008C0001C04141800000000041C000000000000BC
:1008D0000101000003020201000000000203000009
:1008E00000596F75722073842072657475726E730F
:1008F0002E008B6665656C2040706265747465724D
:100900002E008B6265636F6D652061776172652073
:100910006F6620796F757220737572726F756E6471
:10092000696E67732E008277686974658100556E01
:100930006375727365800082626C75658100456EB7
:100940006368616E7480004E6F7468696E672068BA
:10095000617070656E732E008B6964656E74696674
:100960006965643A2040692E004964656E74696661
:1009700079800098697320612040692E0093406956
:10098000206372756D626C657320746F206475737B
:10099000742E0068756E67727900596F75722088C1
:1009A0002040707320404F2E00934069207368618F
:1009B00074746572732E00934069206869747320A3
:1009C000404F21008B95008695008B66696E6420F0
:1009D000612068696464656E20646F6F7221008CA9
:1009E000626C6F636B65642E008C616C7265616410
:1009F0007920636C6F7365642E001700030CCE3989
:100A00000000994C000003002E02D1010000C41127
:100A1000100184101000980C2E3AF243B94AB12A02
:100A2000877CB726AE22211FAA2AA23A0A005001CB
:100A300084284A298A10A10A0000BE78BF2A2E46BF
:100A40003F3ABF46BF042E669F7CF147F1019F6C81
:100A50001F425F7C3F783F7EBF082E7ABF68B22678
:100A6000E1071F7E071F1F7D9B6C833EB94E3F022F
:100A70008360F1032208104241004C7A5F324C4AF5
:100A80004C7E4C53BE00D6035F701D00B0019F68C2
:100A90001F009E785E704C325E1144799E085603AA
:100AA0004F020E7A061B1E799249823ADA02C47D01
:100AB0000000DF118B616476616E636520746F20C6
:100AC0006C6576656C2040752100934069206272E8
:100AD00065616B732E000404F0F0F0F0FFFFFFFF80
:100AE0000505E0E0E0E0E0FFFFFF0606C0C0C0C093
:100AF000C0C0FFFF0606E1C0CCCCC0E1FFFF060688
:100B0000E1C0C0C0C0E1FFFF070780808080808017
:100B100080FF0707F7E3C180C1E3F7FF0707E3E3BF
:100B2000808080E3E3FF0707E3E3889C88E3E3FF3B
:100B30000808C3810000000081C30808E7E7C3007C
:100B400000C3E7E7080800664200004266000F0F96
:100B50001FFC07F003E001C001C0E0832082208277
:100B60002082608301C001C003E007F01FFCFFFF8B
:100B700010101FF807E003C00180318C300C00001A
:100B8000000000000000300C318C018003C007E041
:100B90001FF80D0DBFFF1FFF0FFE07FC03F801F04C
:100BA00000E001F003F807FC0FFE1FFFBFFFFFFF8F
:100BB000FFFFFFFF0C0C03FC01F800F000F000F059
:100BC00000F000F000F000F000F001F803FCFFFF7F
:100BD000FFFFFFFFFFFF0000FF01FF010000FF011B
:100BE000FF0101FF0000FFFF0101000001FF020201
:100BF00002020202020202020203030303030303CE
:100C00000505040401010607070A0B0C0809020385
:100C10000300000000100303030304040032050571
:100C2000050606070031050606070800003207071B
:100C3000070707070024060606080A00003108080F
:100C40000A090B000022080A0909090B00320A0AE6
:100C50000A090B0C00310B0B0B0B090A0024090AC3
:100C60000B0C0C0D00210A0B0C0D0D0E00310B0CA2
:100C70000D0E0E0F00210C0D0E0F0F0F00290C1082
:100C8000100F0F0F00310C0C10101010002132301B
:100C90003232303530322020424639423431382029
:100CA000203030303100AA03A00390038403720384
:100CB0006103486967682053636F72657300D903E5
:100CC000D303CD03C503BD03B503B003FF0603047F
:100CD0000602000005050101015573658000856E5F
:100CE0006F7420686F6C64696E67206120626F7733
:100CF0002E008E6E6F2088732E0044726F708000FD
:100D0000FFFF03FFFFFFFFFFFFFFFFFFFF436C6FCE
:100D1000736520446F6F7200496E76656E746F72F2
:100D20007900736C6F776564007765616B656E65DC
:100D30006400706172616C797A656400636F6E66DD
:100D40007573656400140408040404F903F103E8EE
:100D500003E103506C617965722053746174730010
:100D600053657474696E6773008E6162616E646F3F
:100D70006E656420746869732067616D652E005329
:100D800063726F6C6C2044756E67656F6E00520401
:100D90004C0445043F043A0434042D042604200482
:100DA0001B0489047E047104420663045E04560435
:100DB000C304B704D204C804BC04AF04EC05E205C4
:100DC000A5049D049204AA05206F662000706F742C
:100DD000696F6E0020920026051E0511050405FBB3
:100DE00004F104E804E104DA0492206F662000595B
:100DF0000554054C05460541053A0531052C05A469
:100E0000059B0592058A057F05770572056B0561CF
:100E100005000707EC05E205D705C905C205B705BA
:100E2000AA05190613060B060506FD05F605EF05CE
:100E30007363726F6C6C00500642063A0635062CDE
:100E40000628061E06205B4064206465665D00611E
:100E5000065C0656066172726F7700546865200062
:100E6000746865200000000000E206DC06D606CFAC
:100E700006C806C006BC06B206A806A2069A0694D4
:100E8000068C0685067806670630313233343536EF
:100E900037383941424344454600B307A407990710
:100EA00090078807820776074A0F550E6F07590784
:100EB00054074A073C07350728071C07600E15072B
:100EC0005B0E0B07FD064911F406E606596F7572B5
:100ED0002063757273656420926275726E7320610F
:100EE0007420796F752E00856E6F206C6F6E67654C
:100EF000722040702E0093666C616D657320646F84
:100F0000206E6F742061666665637420404F2E000A
:100F10008B66696E6420796F757273656C66206983
:100F20006E20616E6F74686572206C6F63617469A6
:100F30006F6E2E000000FFFF00FF01FF01000101A6
:100F40000001FF01FF008687008B407020914069FF
:100F50002E008B7475726E20942E00896D6F7265F1
:100F6000206167696C652E00897374726F6E6765A6
:100F7000722E004055206861726D65642062792090
:100F800091706F74696F6E21009877617320612092
:100F900040692E00D5F08D14A1C881CFD9F1AF20C2
:100FA000008E40692E008A6974656D732E008A6F09
:100FB000662074686F73652E008B676F7420914094
:100FC000692E00C116FA1F931E891DFE2E661CC5D0
:100FD0002ADB2EE30BA81E9921971E342AF21FDB71
:100FE000077F0D180D530DB20C600DCE07C007150D
:100FF000080508FF07F507E8070D0D858321008E1A
:101000006C65667420776974686F75748D2E008EB8
:1010100065908D2100476F206261636B20757020A1
:10102000917374616972733F0052657475726E8F4B
:101030003F00476F20646F776E20746F20916E655C
:1010400078742064756E67656F6E3F005069636BDE
:10105000207570209140693F0097746F20962E0094
:1010600000000000000000000102040404000A0067
:101070000000010608000101010002030300030251
:101080001100030303000403010204020200060529
:101090000102050404010A060906060404010C07FE
:1010A00001020704040310088100050404000C0970
:1010B000010208040402140B030007040403140BC8
:1010C000410609040403180E05020A030305201251
:1010D000010007060601181201010C04040830196A
:1010E000C1060A0606031823D50410060808805A0C
:1010F000976261636B20746F20962E205468652080
:10110000736176652066696C65206861732062652D
:10111000656E2064656C657465642E20446F6E276F
:101120007420666F7267657420746F2073617665D2
:1011300020616761696E207768656E20796F752719
:10114000726520646F6E65210041726475526F672D
:10115000756500080B00020202000009040000018E
:1011600002020000052400100105240101010424ED
:10117000020605240600010705810310004009044A
:101180000100020A000000070502024000000705F6
:1011900083024000000403090412010002EF02016F
:1011A00040412336800001010203014172647569E8
:1011B0006E6F204C4C430041726475626F79001C65
:1011C0003E7F7F7F3E1CE63111241FBECFEFDAE069
:1011D000DEBFCDBF11E0A0E0B1E0E2E9FDE602C074
:1011E00005900D92AA33B107D9F729E0AAE3B1E03F
:1011F00001C01D92A535B207E1F718E0C4EED8E0B2
:1012000004C02197FE010E948A36C33ED107C9F768
:101210000E94FB310C94C7360C940000FC0123E0C3
:10122000F695E7952A95E1F7E357F74F208130E0EF
:1012300087709927A90102C0559547958A95E2F7CD
:10124000CA018170089530E020E0FB01E20FF31F36
:10125000E491DC01ED93CD012F5F3F4F2830310544
:10126000A1F70895FC0123E0F695E7952A95E1F7AB
:10127000E357F74F8770992721E030E001C0220F34
:101280008A95EAF78081822B80830895FC01809102
:10129000BC01882311F13FB7F89422E02093E900C4
:1012A0005091F200852F90E01816190614F481E091
:1012B00090E0882339F0289844E64093BB01609180
:1012C000F1006083552339F07091F200711103C071
:1012D000ABE6A093E8003FBF08958FEF9FEF08951E
:1012E0002FB7F89483E08093E9009091E800892F6C
:1012F000807295FF04C03091F20080E4831B2FBF01
:1013000008958091B30181110DC022E02093AF01B7
:1013100034E03093B0011092B2011092B10141E07B
:101320004093B3018FEA91E00895A1E0B0E0EBE9CA
:10133000F9E00C94A0366983DC01ED91FC91028008
:10134000F381E02D41E050E0BE016F5F7F4F0995D2
:101350002196E2E00C94BC3683E08093E900209172
:10136000F200222319F03AE33093E8000895B8DF41
:1013700090E00895A1E0B0E0E0ECF9E00C94A03634
:10138000FC018485958597FD08C02FEF3FEF3587D9
:1013900024872196E2E00C94BC36CE01019676DFDC
:1013A000019719F4898190E0F4CF8FEF9FEFF1CF8F
:1013B000A1E0B0E0EEEDF9E00C949E368C01FC016A
:1013C0008485958597FF0AC0CE0101965FDF01975E
:1013D00061F4898190E0F80195878487F80184851C
:1013E00095852196E4E00C94BA368FEF9FEFF3CF0A
:1013F000FC018485958597FD0BC03FB7F89442E0CA
:101400004093E9008091F2003FBF90E0019608957B
:101410009FB7F89422E02093E9008091F2009FBFEB
:1014200090E008954091590150915A01209157013F
:101430003091580142175307B4F49091E800957029
:10144000E1F33091E80032FD19C08093F100809102
:10145000590190915A0101968F739927892B19F49C
:101460005EEF5093E800A0915901B0915A01119696
:10147000B0935A01A093590181E0089580E0089546
:10148000EF92FF920F931F93CF93DF93F82E192FB4
:10149000E62E042F81E0860F880FC4DF83E0C2DFD1
:1014A000CF2DD12FEC0EFD2EF11CCE15DF0599F0BE
:1014B00007FF0FC0FE018491B5DF182F80E0B2DF77
:1014C000812321968111F1CFCDB7DEB7E6E00C94F0
:1014D000B8368881F1CF81E0F7CFB0E0A0E0E3E754
:1014E000FAE00C949B36D82E8A01EB017B01E40EC6
:1014F000F51ECE15DF0551F0D7FE0EC0FE0184911A
:1015000091DF21968111F5CF0FEF1FEFC801CDB705
:10151000DEB7E7E00C94B7368881F2CFA1E0B0E007
:10152000E4E9FAE00C949E3682E0898342E450E0DC
:1015300063E571E180E8D1DFE4DEFC010281138123
:101540000115110589F0D801ED91FC910280F3811C
:10155000E02DBE016F5F7F4FC801099597FD04C064
:10156000F80100851185ECCF89812196E4E00C9487
:10157000BA36615030F02091F100FC0120830196D1
:10158000F8CF289884E68093BB010895FC0187D0AA
:10159000319728F068517C4F8F4F9F4FF9CFAB01A7
:1015A000FC017DD0641775078E079F07D0F308955F
:1015B00085E090E0EBCF0895B0E0A0E0E2EEFAE045
:1015C0000C9496366C017B018A0180910B01882373
:1015D00009F458C02091BC01222309F453C0809023
:1015E0005E0180FE05C03091E00032603093E00083
:1015F000E801B12C8AEFA82E93E0892E2AE3922EDF
:10160000209711F4BB20B9F16BDE811107C0AA94B9
:10161000AA20C1F181E090E0B9DFF2CF8C171D065E
:1016200011F00CF08C2F9FB7F8948092E900409154
:10163000E80045FD02C09FBFE3CF282F30E0C21B6A
:10164000D30BF701815020F061916093F100FACF44
:10165000E20EF31EBB2021F09092E800B12CEBCFFC
:101660005091E80055FDE7CF9092E800BB24B39479
:10167000209709F3F3CF5D9874E670935D0110161F
:1016800011063CF001E010E0E6011B830A8310E044
:1016900000E0C801CDB7DEB7ECE00C94B236A3E5AC
:1016A000B1E02FB7F8947D918D919C9166B52FBFD5
:1016B000A89B05C06F3F18F47F5F8F4F9F4F22E0BC
:1016C000660F771F881F991F2A95D1F708958FB14C
:1016D0008095807F669B88601C9B846008958EBD8A
:1016E00000000DB407FEFDCF0895E6E8F8E0919103
:1016F000981731F098E0ED38F907C9F780E00895C0
:1017000081E00895282F30E0220F331FF901E757B9
:10171000F94F9181892F8F70903518F04081406882
:1017200040832757394FF901218122952F702530A9
:10173000B9F028F4223041F0233049F008952830E0
:1017400049F0293051F0089590E08CCD089590E053
:101750000A96FBCF90E04396F8CF90E04B96F5CFFA
:1017600090E08396F2CF1092270981E080932809B8
:1017700027E12093290908959C01F901E60FF11D45
:101780006F5F90819132CCF71082862F0895E82FF9
:10179000811109C0ECE7F8E0DB0188E001900D92CF
:1017A0008A95E1F70895CB0124E0E29FF00111242E
:1017B000E754F94F638138E0639FB0011124605A08
:1017C0007F4E41CD0895FC01108281E00895803460
:1017D000C0F46032B0F4E62FE695E695E69590E425
:1017E000E99FD0011124A80FB11DA354BB4F67700E
:1017F00021E030E001C0220F6A95EAF78C91822B3C
:101800008C930895282F30E0F901E252F44F84912F
:10181000F901EA51F44F94910895282F30E0F9012D
:10182000EA52F44F8491F901E652F44F94910895ED
:10183000FC019281E42F97FF19C0EE0F462F4695C9
:1018400046954695E40FF0E09F7722E2929FE00DE7
:10185000F11D1124E05BF44F849190E0677002C0A9
:10186000959587956A95E2F781700895F0E08AE092
:10187000989FE00DF11D1124E852F54F849190E0FE
:10188000EECFCF93DF93EC01EA81E7FF0BC0EF7758
:10189000D2E2ED9FF0011124E15BF44F8491DF91DE
:1018A000CF9108958AE0E89FF0011124E952F54FA5
:1018B000F5CFCF93DF93EC01EA81E7FF0BC0EF7721
:1018C000D2E2ED9FF0011124E25BF44F8491DF91AD
:1018D000CF9108958AE0E89FF0011124EA52F54F74
:1018E000F5CFFF920F931F93CF93DF93EC01142F4B
:1018F0008881062F081BF980CE01DBDF081730F442
:10190000CE01BFDF1F1991E0181708F090E0892F72
:10191000CDB7DEB7E5E00C94B936FF920F931F9375
:10192000CF93DF93EC01042F8881162F181BF980C9
:10193000CE01BFDF181730F080E0CDB7DEB7E5E0AD
:101940000C94B9360F19CE019CDF0817A8F7402F69
:10195000612FCE016DDF91E08927EFCF90E0FC0190
:10196000EE0FFF1FE757F94F2181880F991F203590
:1019700048F4FC01E757F94F2081222319F0215048
:10198000208308958757994FFC0111820895209173
:10199000C5053091C605820F932F911D81152FEF3C
:1019A000920728F49093C6058093C505089580E0BA
:1019B0009FEFF8CFE9EBF6E030E020E09381992348
:1019C00071F0408148130BC05181561308C0C90102
:1019D000880F991F880F991F8754994F08952F5F7B
:1019E0003F4F34962032310549F790E080E008956A
:1019F00040917A08E9E3F8E030E020E0241790F421
:101A000090819F7798130AC051815F77651306C054
:101A1000C901880F991F875C974F08952F5F3F4F2B
:101A20003296ECCF90E080E008958034A0F46032EC
:101A300090F498E0699FF0011124E07CE82BE354D6
:101A4000FB4F208181E0677019F0880F6A95E9F7F4
:101A5000282381E009F480E008958034B0F46032F6
:101A6000A0F498E0699FF0011124E07CE82BE35496
:101A7000FC4F208181E0677019F0880F6A95E9F7C3
:101A8000282381E019F480E0089581E00895B0E012
:101A9000A0E0EDE4FDE00C9498360091B9061091B9
:101AA000BA06C02FC81BD12FD61BDD02900111240E
:101AB000CC02200D311D11242B3131050CF03EC01C
:101AC000AA24A394081730F091E0081301C090E015
:101AD000A92EA194CC24C394161730F031E016132C
:101AE00001C030E0C32EC194E62EF82EC7FDC1958B
:101AF000D7FDD195BD2EB694DC2ED694F01202C03F
:101B0000E11611F1612F802FA8DF811117C0BC0EE3
:101B1000DD0E8B2D0B2C000C990BD817190609F034
:101B200014F40A0DBD1A4D2D0D2C000C550BC417C5
:101B3000150609F01CF71C0DDC1AE0CF80E0CDB7CC
:101B4000DEB7EAE00C94B43681E0F9CFA3E0B0E070
:101B5000ECEAFDE00C9498369091B9068091BA06B3
:101B60001BEF180F2BEFD22ED90E36E0F32EF80E06
:101B700046E0E42EE90E1F1579F00D2D0E1551F0FB
:101B8000612F802F84DF882319F0612F802F1FDEC3
:101B90000F5FF4CF1F5FEFCF00E0209179080217AD
:101BA00008F060C0202F30E0790193E0F694E794CC
:101BB0009A95E1F7402F4770D42E50917B08F7019A
:101BC0006CE0569FE00DF11D1124E353FA4F808124
:101BD00090E002C0959587954A95E2F780FF02C094
:101BE0000F5FDBCFF901EE0FFF1FE20FF31FE7528C
:101BF000F84FC080A180B280C982AA82BB82CE0188
:101C0000019657DEC80EBA80CE0101963ADEB80EB4
:101C10001A8131E0A32E0D2C01C0AA0C0A94EAF718
:101C20001B15F0F6D980DC14D8F4612F8D2DFDDE64
:101C30008823A1F0412F6D2DCE0101966EDE882301
:101C400069F070917B08D701FCE07F9FA00DB11D6A
:101C50001124A353BA4F9C919A299C93D394E3CF18
:101C60001F5FDECF2396EAE00C94B436B0E0A0E02C
:101C7000ECE3FEE00C949836E82ED62E842FA22EAC
:101C8000E801CBDDB82EC92E8FEF8C83F12C1C2DF3
:101C90001D0D0B2D0E0D612F802FDFDE8823A9F087
:101CA0000EEF0C831D2D0E2D04C0E02ED12EAF1093
:101CB000EECFFD820A831B830B1908831C1919833D
:101CC000CDB7DEB7EAE00C94B436F394612F802FE1
:101CD00071DE009751F3895B9640959587959595B0
:101CE00087958C83E6CF0F931F9394E0899FF00133
:101CF0001124E754F94F8901242F462F61818081F7
:101D0000B5DF1F910F910895803410F5603200F512
:101D100048E0649FF0011124E07CE82BCF0171E0E2
:101D2000677019F0770F6A95E9F7E354FB4F20814C
:101D300030E02095309583549C4FDC015C91252B3D
:101D400060E02723362381E0232B19F480E00895F7
:101D500081E0089598E0699FF0011124E07CE82B70
:101D600081E0677019F0880F6A95E9F7E354FC4F3A
:101D700080952081822380830895B0E0A0E0E3EC89
:101D8000FEE00C949936D62EC42F00917908202FAE
:101D900030E0F901EE0FFF1FE20FF31FE752F84F9B
:101DA0006083C18382838FE3861730F480E0CDB7F0
:101DB000DEB7E9E00C94B536C032C0F793E0099F76
:101DC000800111240752184FC80173DDC82ECD0CB5
:101DD000C80157DD20E42C1548F3D82FDC0FD13291
:101DE00028F7FC2EFD16D0F4ED2CEC14A8F44F2DA2
:101DF0006E2DC80192DD882369F0B12C8B2D02DD98
:101E00006F2D690F8E0D29DE882389F2B39438E097
:101E1000B312F4CFE394E9CFF394E4CF409179087F
:101E2000E0907B085CE0E59ED0011124A353BA4FFB
:101E3000242F30E093E0369527959A95E1F7A20F8D
:101E4000B31FEC90F12C477002C0F594E7944A95CB
:101E5000E2F781E0E822FF24CD17B0F4BD2CBC14DA
:101E600088F44C2F6B2DC80158DD882349F06C2F66
:101E70008B2D70DFE114F10419F06C2F8B2DA7DC92
:101E8000B394EDCFCF5FE8CF609179086F5F609337
:101E9000790881E08CCF0F931F93CF93DF93C9E331
:101EA000D8E010E000E080917A0880171106F1F088
:101EB000ECF0698188818F7767FF06C06F774ADF12
:101EC0000F5F1F4F2296EFCF98E0699FF00111241A
:101ED000E07CE82B21E0677019F0220F6A95E9F7A2
:101EE000E354FC4F3081322B3083EACFDF91CF9126
:101EF0001F910F910895E3ECF5E0808191819C01A1
:101F00003695322F22273795279528273927C9015B
:101F1000892F9927869528273927922F8827822766
:101F200093279183808308950F931F93CF93DF931B
:101F3000082F162F0FDFDFDF843C08F045C0C0916B
:101F40007A08C03208F040C0612F802F51DD892B04
:101F5000D9F5D0E0D0DF90917A08E0917B082CE0B1
:101F6000E29FD0011124AF52BA4F292F30E043E055
:101F7000369527954A95E1F7A20FB31F2C9130E0D3
:101F8000977002C0359527959A95E2F7CC0FDD1F23
:101F900020FF1FC0612F802F1ADCFE01E75CF74F86
:101FA000318130683183C75CD74F488140780F77E3
:101FB000042B0883598150781F77152B1983609162
:101FC0007A086F5F60937A08DF91CF911F910F912C
:101FD0000895803340F7FE01E75CF74F8081806809
:101FE0008083612F802FF3DBDECFCF93C82F83DF79
:101FF0008C1710F08C1BFCCFCF910895B0E0A0E0BF
:10200000E4E0F0E10C949A367C018B01C12C84E071
:10201000D82E80E4EADFD82F80E2E7DFC82F682FD0
:102020008D2F1BDD811142C08091BD05D81304C0E6
:102030002091BE05C217D1F13091BF05D31304C062
:102040004091C005C41791F1E9EBF6E053815523A7
:1020500031F06081D61303C07181C71739F134960E
:1020600087E0E933F80791F7E9E5F7E09281A3818A
:10207000B181BB2321F0D91302C0CA17B9F034963D
:1020800087E0E93DF80791F720917A08E9E3F8E065
:1020900080E02817B1F030813F77D31304C041812D
:1020A0004F77C41719F08F5F3296F3CFE1E0CE1A65
:1020B000D10809F0AECF80E0CDB7DEB7E8E00C94F0
:1020C000B636D701DC93F801C08381E0F5CF0F93DA
:1020D0001F93CF93DF93C82FD0E08E01000F111F05
:1020E000000F111FB8016654794FC8018754994FEA
:1020F00085DF8823D9F086E078DFE0917B0898E0DF
:10210000E99FF0011124E80FF11DE25FF34F849184
:10211000882389F30754194FF80183838B3031F4F6
:102120008CE063DFC75CD84F8F5F8883DF91CF91EE
:102130001F910F9108950F931F93CF93DF93EC019D
:102140008B01B801CE015ADF8823D9F3DF91CF91FB
:102150001F910F910895B0E0A0E0E1EBF0E10C9445
:102160009B36D82E8B01E82EF12CE701CC0FDD1F1A
:10217000CC0FDD1FBE01645A784FCE01855A984FAF
:10218000DADFE0917B088CE0E89FD0011124A753AF
:10219000BA4F93E0F694E7949A95E1F7AE0DBF1D20
:1021A0008C9190E02D2D277002C0959587952A95EA
:1021B000E2F780FD10E0C75AD84F08831983CDB7E6
:1021C000DEB7E7E00C94B736CF92DF92EF92FF9242
:1021D0001F93CF93DF93CDB7DEB7C350CDBF182F7A
:1021E0006A01790119821A821B826B83CE010196E2
:1021F00060DBFBDE8983CE01019643DBF6DE8A835A
:10220000123011F1133011F11130C1F01A824A81EC
:102210006981CE0101960CDB8111E8CF8981F6013D
:102220008083DA80D701DC92CD5FCDBFDF91CF9183
:102230001F91FF90EF90DF90CF900895CE0101960F
:1022400020DB81508A83E3CF1982E1CFCE01019652
:1022500030DB81508983DBCF4EDE803420F484E094
:10226000C4DE805808958CE0C0CE0895EF92FF92AE
:102270000F931F93CF93DF937C01FC01C0E0C193C8
:10228000CF5F6C13FCCFD0E00D2F10E02C2F21502E
:10229000330B021713077CF48C2F8D1BA6DED7019E
:1022A000A80FB11DF701E00FF11F80819C91908371
:1022B0008C93DF5FE9CFCDB7DEB7E6E00C94B8369C
:1022C0006AE08AE299E0D2DF69E084E399E0CEDF58
:1022D00068E08DE399E0CADF68E085E499E0C6DF55
:1022E00067E08DE499E0C2CF0895680F791FFC0183
:1022F0001192CF01E617F707D1F70895DC0181E0CD
:10230000ED91EE23D9F0E03299F0EE0FFF0BE85497
:10231000F64F25913491932F969596959F7151F490
:1023200095E0369527959A95E1F72F7192E019F48B
:1023300091E001C093E09F5F890FE2CF0895282FBD
:10234000E0918C08E83168F4F0E0EE0FFF1FE757EA
:10235000F94F808191819F70291303C08F73805240
:10236000089580E00895382FE0918A08E83158F404
:10237000F0E0EE0FFF1FE757F94F908121812F709A
:102380009F739052821390E0E0918B08E83158F4EB
:10239000F0E0EE0FFF1FE757F94F808141814F704A
:1023A0008F738052341380E0890F0895CF93C82F24
:1023B000C695C6958F5F8C1B18DE8C0FCF91089544
:1023C000CF93DF93811122C0C091810883E0CBDFDE
:1023D0008C0FA7E8B8E0CD91C83178F4D0E0CC0FED
:1023E000DD1FC757D94F28812F733CEE380F320FAE
:1023F000498142954F70341B832F98E0AA38B90762
:1024000051F787FD80E0DF91CF91089594E0899F97
:10241000F0011124E754F94FE38188E0E89FF001CF
:102420001124EB59FF4E8491ECCFCF93811109C059
:10243000C0917F0882E097DF8C0F87FD80E0CF910D
:10244000089594E0899FF0011124E754F94FE38146
:1024500088E0E89FF0011124ED59FF4E8491EDCF03
:10246000CF9394E0899F90011124C0917E08882326
:1024700059F0F901E754F94FE38148E0E49FF00196
:102480001124EE59FF4EC4912754394FF90132817E
:1024900032FF06C0EC2FF0E03196F595E795CE2F90
:1024A000811103C081E05FDFC80FC7FDC0E08C2F42
:1024B000CF910895CF93DF93D82FD2DFC82FD111BA
:1024C00018C0E0918608E83188F4F0E0EE0FFF1FB5
:1024D000E757F94F818182958F70865E880F880F4C
:1024E000880F90819F739552890FC80F85E03BDF5D
:1024F000C80FC7FDC0E08C2FDF91CF910895CF9317
:10250000811118C08091820890918408C82FC91B3E
:1025100086E015DFE82FEE0FEE0F8E0F482F5527C0
:1025200041950CF450958C0FC417150609F084F4EE
:1025300081E00EC054E0859FF0011124E754F94F6B
:10254000E38188E0E89FF0011124EA59FF4E84916D
:10255000CF91089580E0D3DF90913907891710F467
:102560008093390708950F931F93CF93DF93082F1C
:1025700010E0E801CC0FDD1FCC0FDD1FC754D94F91
:102580009A8194FD08C0BBDFF801E75CF84F8083B7
:102590008A8180618A83DF91CF911F910F91089585
:1025A0001F93CF93DF9394E0899FE0011124811161
:1025B0001FC010918008C3DE8F5F8595810FE09169
:1025C0008908E83148F4F0E0EE0FFF1FE757F94FB4
:1025D0002181213C09F48E5FC754D94F3A8136FDE1
:1025E000869518160CF081E0DF91CF911F91089528
:1025F000FE01E754F94FE38188E0E89FF0011124E0
:10260000EC59FF4E8491E8CFA8E0B0E0EAE0F3E1B6
:102610000C949F36182F811104C087E0A4DE181691
:10262000ACF0BE016F5F7F4F812FB1D8998184E0FC
:10263000189FF0011124E754F94F2281292B23FB25
:10264000882780F92896E3E00C94BB3681E0FACF26
:10265000CF93882399F0C82FD7DF882321F080E01B
:1026600082DE18166CF484E0C89FF0011124E75450
:10267000F94F618180810BDACF91089581E0FCCF21
:1026800080E0FACF0F931F93CF93DF93182F062F7D
:10269000D0E080E0C82FCC0F8D2FB4D8602F690F09
:1026A000810F32DB8C2BDF5FD830A1F7DF91CF9128
:1026B0001F910F9108958034A8F4603498F498E045
:1026C000699FF0011124E07CE82B21E0677019F08C
:1026D000220F6A95E9F7E354FE4F8081411103C050
:1026E000822B80830895413019F420958223F9CFFD
:1026F0008227F7CFA3E0B0E0E0E8F3E10C9497364F
:10270000182FF62EE42FEE0FFF0BE854F64F25910D
:102710003491822F8F718983C90145E09695879501
:102720004A95E1F78F718A83932F969596959F71BD
:102730009B8303E0911104C002E0811101C001E01C
:10274000DE0111965D01902E910EF50181915F01E0
:10275000EF2C882369F0C82ED12C80FF04C042E002
:102760006E2D812FA8DFE394C60195958795F1CF53
:102770001F5F1911EACF802F2396EBE00C94B3363C
:102780000F931F93CF93DF93D62F8A01C82FF801A1
:1027900041918F01442351F0403211F4CE5FF7CFC5
:1027A0006D2F8C2FA7DFCF5FC80FF1CF8C2FDF915C
:1027B000CF911F910F9108950F931F93CF93DF93A4
:1027C000082FC62F11E0140FD02F42E06C2F8D2F51
:1027D00072DFDF5FD034C9F7CF5F1C13F5CFDF9115
:1027E000CF911F910F9108951F93CF93DF93C82F1F
:1027F000142FD1E0D60F41E0612F8C2F5CDFCF5F2B
:10280000DC13F9CFDF91CF911F91089540E053CFB2
:102810000895B0E0A0E0EFE0F4E10C949936B62E14
:10282000D42E8C01C0E0CB2CCC0EF8018491DD2D90
:10283000882361F0E82EF12C80FF03C06D2F8C2DD2
:10284000E5DFC70195958795DF5FF2CFF8013596F3
:10285000E491DD2DEE2369F0EE2EF12CE0FF04C0B3
:1028600041E06D2F8C2D27DFF701F595E795DF5FB0
:10287000F1CFCF5F0F5F1F4FC530A9F6CDB7DEB7E1
:10288000E9E00C94B536B0E0A0E0E9E4F4E10C94A2
:102890009A36C42F022F6C01D42FD60FF6018191E6
:1028A0006F01102F882361F0E82EF12C80FF03C008
:1028B000612F8C2FABDFC701959587951F5FF2CFF6
:1028C000CF5FCD13EBCFCDB7DEB7E8E00C94B636D3
:1028D000A8E0B0E0EEE6F4E10C94A036482F262FF5
:1028E000EFEBF1E1DE011196BE01685F7F4FCD0194
:1028F00034913D933196A617B707D1F767E0C3DF50
:102900002896E2E00C94BC36A4E0B0E0EAE8F4E1FA
:102910000C949236C62E942E292F22952F7029833F
:10292000092F0F700A839C0144E0369527954A953C
:10293000E1F72F702B838F708C8310E0812F0E9422
:10294000020C692C690E5C2C580ECE0101967C019C
:1029500000E0782E8F2C452C400EF70181917F01ED
:10296000D62C882369F0A82EB12C80FF04C041E04A
:102970006D2D842DA0DEC50195958795D394F1CF5B
:102980000F5F043041F71F5F1830C1F6292D4C2D21
:1029900064E0872D982D77DF2496E0E10C94AE3625
:1029A000FC0125913491942F990F990F490F562FBF
:1029B000550F550F650FC901A7CF0895242F220F7A
:1029C000220F420F362F330F330F630F9DCF089521
:1029D0001F93CF93DF93182FC62FD1E0D40F6C2F06
:1029E000812F14DFCF5FDC13FACFDF91CF911F91DE
:1029F00008951F93CF93DF93C82F142FD1E0D60FE4
:102A0000612F8C2F03DFCF5FDC13FACFDF91CF91E3
:102A10001F910895B0E0A0E0E0E1F5E10C94953657
:102A2000F82E10E0C0E0D12F6C2F8D2FEFDEDE5F8F
:102A3000D034D0F3CE5F81E01827C034A1F762E034
:102A4000D62ED0E0BD2EBB0CEF2CC0E06D2F8E2D0E
:102A50005BD952E0952E9C0E882309F482C06D2F1D
:102A60008E2D0E942D0D882309F43FC06D2F8E2DD1
:102A700009DEA82E2FEF821709F437C04DEF842E00
:102A80008D0C082D402F692D8C2FAEDE0F5FD012DC
:102A9000F9CF772473947C0E6B2D872DB7DE30E150
:102AA000C32EECEFCE0E0C2D10E0F801ED5DF74FCC
:102AB0003491F801EC5DF74F94914A2D432349136B
:102AC00003C0682D872DA2DEF801EB5DF74F54910E
:102AD0000A5D174FF80104916A2D6523601303C046
:102AE0006B2D8C2F93DEC110DCCFE394C92DC03445
:102AF00009F0ACCFDF5FD394D394D03209F0A2CFEA
:102B000010E070917A08171790F5E12FF0E0EE0FC2
:102B1000FF1FE75CF74FC081D181AD2FAC2BA7FD24
:102B20001EC0CF77DF776D2F8C2F0E94150D882365
:102B3000B1F0CF19CC0FDD0F0FEF0D0F82E0D82EC3
:102B4000DC0E92E0E92EED0E402F6D2D8C2F4CDE29
:102B50000F5FE012F9CF6D2F81E08C0F57DE1F5F02
:102B6000D0CF61E06C0F4B2D8C2F3EDEBECF60913D
:102B7000BE058091BD050E94150D882381F0C0918E
:102B8000BD05CF19CC0FD091BE05DD0F41E04D0F33
:102B900061E06C0F8C2F2DDF6D2F8C2F37DE609155
:102BA000C0058091BF050E94150D882381F080919A
:102BB000BF058F19880FC091C005CC0FD1E0D80F89
:102BC00041E04C0F6D2F15DF6C2F8D2F1FDECDB721
:102BD000DEB7EDE00C94B1360F931F93CF93DF93E4
:102BE000082FC62FD42F122F04DF412F6C2F802FD8
:102BF00000DF412F6D2F802FEBDE412F6D2F8C2FAB
:102C0000E7DEDF91CF911F910F910895CF93DF936E
:102C1000D82FC62F5C9881E20E946F0B8D2F0E94E7
:102C20006F0B8FE38D0F0E946F0B5C9AEDEBF1E061
:102C300080E094E000800EBCC111012C019780FD62
:102C4000FDCF0192B9F70DB4DF91CF91089596E0D1
:102C50002091BA06492F421B460F3091B906931BAB
:102C6000692F680F8EEA9EE0A9DE60E080E0CEDF8B
:102C700084E690E00C94C60A089561E080E4C6CF33
:102C8000089561E080E0C2CF0895CF938091600005
:102C900083FF07C0F894C7E7C0930008C0930108FA
:102CA000FFCFC0914C01CC2341F08FEF8C0F8C23D0
:102CB00080934C018C27CF9108952FB7F894809181
:102CC0004F0190915001A0915101B09152012FBF3D
:102CD0003FB7F89440914F015091500160915101DC
:102CE000709152013FBF481B590B4430510528F4E5
:102CF000F1E0F3BF889513BEEBCF0E94670B909174
:102D00004B018927E3E4F1E030E020E041E0542F7B
:102D1000582371F160816F5F633010F56083440F59
:102D20002F5F3F4F31962830310589F7C927C0936F
:102D30004B01EBE3F1E0B1E08C2F8B2321F02081FC
:102D40002150C1F02083BB0F319621E0E334F2071C
:102D500099F790933A019095C923C0934C0196CF6F
:102D60001082C42B70E5D901A55CBE4F7C93D7CFF0
:102D70001082D5CF38E230834B2F40954F6094239B
:102D8000E2CF80E047DE7DDF80E244DE76DF7DDF7C
:102D90008430E9F70895B0E0A0E0E1EDF6E10C94AD
:102DA000A036AE01475F5F4F6F8178858D819E8130
:102DB00011D0E2E00C94BC361F924F937F936F9337
:102DC0009F938F93E8DF0F900F900F900F900F90CD
:102DD0000F900895A6E0B0E0E0EFF6E10C94933692
:102DE0004C016B017A018C0136012FEF621A720AD5
:102DF000F601249127FF12C0E22FEF77F0E0EE0FEB
:102E0000FF1FE656F14F65917491A701C801E2DFFB
:102E1000080F111D570163017501E6CF203459F0E9
:102E2000C8010196D8012C93222309F49DC25701B1
:102E300063018C01F1CFB2E0CB0ED11CF3016490A1
:102E40005701F2E0AF0EB11CD7018D919C91B8E50E
:102E50006B1609F494C0B61508F443C0E0E5E61516
:102E600078F0FFE46F16A8F43DE46312D5CFFC01BF
:102E7000FF27EE0FFF1FEB59F14F659174917CC056
:102E800043E5641648F255E5561518F467E56612F1
:102E9000C3CFFC01FF27EE0FFF1FEE0FFF1FE7540C
:102EA000F94F7380762D7170572E8111A6C0F2E50F
:102EB00059E5F6150CF059E7D8015C936FE6F80177
:102EC000618375E77283552009F492C00D5F1F4F2F
:102ED00095E56912C3C041E07412BDC06CEA70E0B0
:102EE0004BC0F9E66F1609F4D4C0F615C8F153E6E5
:102EF000651609F4C9C064E666128ECFAC0140784D
:102F000055277DE287FF7BE2F8013196D8017C935B
:102F1000452B11F0819590E000E041E0400F10E07A
:102F20009E012F5F3F4F7901E00EF11E6AE070E0D5
:102F30000E947636D7018C93CB01009709F012C21C
:102F40000F5F1F4FD901A00FB11F8F010F5F1F4FE0
:102F50008E91805D8083F801A217B307B1F75CCF33
:102F600023E7621609F436C035E7631609F4F8C1A1
:102F7000B0E7BC016B1250CFC801FDD15ACFFC01A4
:102F8000EF2FFF27E295EF70E757F14FE490D8015C
:102F9000EC92E92FFF27EF70FF27E757F14F64907E
:102FA000F8016182FC0124E0F695E7952A95E1F7A6
:102FB000EF70FF27E757F14FF490F801F2828F701E
:102FC0009927FC01E757F14F6491F80163830C5F87
:102FD0001F4F22CF3801F8018F01DC01A619B70974
:102FE000AE0FBF1FFC90FF2009F416CFF192F4CF73
:102FF00082E783830C5F1F4F6BCF2ADB8823E9F0C6
:10300000B2E56BE57EE0B61514F060E67EE0C8013F
:10301000B2D1E72DF0E0EE0FFF1FEB59F14F6591B4
:103020007491A9D18C01511053CF37E2FC01308348
:1030300043E741830E5F1F4F4BCF82E593E5861533
:103040000CF093E798012F5F3F4FD8019C9361EB01
:1030500070E0C901E6CF6AEB70E08ECF27E562121F
:10306000DBCE30E2D8013C935701B4E0AB0EB11C8B
:10307000F70162817381C80101967DD18C01B1E0B5
:103080007B1609F4C9CE83E7F80180830F5F1F4FD9
:10309000C3CE682EE92EF82FFF73FE835F2E50EE0D
:1030A000550E692F6F70762E9C0146E03595279559
:1030B0004A95E1F720FF07C087FF05C06EEB70E07F
:1030C000C80159D18C01FE2CF2949FE0F922EFEF58
:1030D000EF0DEC3008F0A0CEF0E0EF58F74E0C9476
:1030E0008A367D1865198A198518C0188A188A18B1
:1030F000E4182919A618A618A61846EC50E030E0E6
:1031000020E0662DC80143D194CE30E020E045E5B3
:103110005EE0F7CFA6E0FA1216C062ED70E0C801DB
:103120002AD18C0167FE78CE66ED70E04AE14F0D42
:10313000440F440F440FFE81F5524F0FC8013CDE8F
:10314000080F111D69CE60EE70E0E9CF8F2D8A5017
:10315000990BFC01EE0FFF1FE15BF14F659174913C
:10316000C80109D18C0167FE57CE51EC65E47EE0C1
:10317000E51202C066EE70E0452D4F19445FDECFC8
:10318000E72CF12CC70183960E940E09882361F079
:1031900060E071E0C801EFD0F701EE0FFF1FE95CBE
:1031A000F14F65917491E9CEF701E35BF64FE08151
:1031B000F0E0EE0FFF1FEE5DF14F65917491C801D5
:1031C000DAD069E071E0D9CEE72CF12CC701439643
:1031D0000E940E09882309F42CC06FE071E0C80139
:1031E000CAD0F701EE0FFF1FEE5EF14F65917491AB
:1031F000C2D08C0167FE10CEB2E07B16B9F0B715D5
:1032000038F041E0741679F061E17EE0452D96CF0B
:1032100023E065E47EE07216C9F385E07812F4CF0E
:1032200066ED70E0F3CF68E171E0F0CF62E271E04B
:10323000EDCFF701E35CF64FE081F0E0EE0FFF1F0A
:10324000E151F24F65917491C80195D06CE271E043
:1032500094CEE72CF12C78E07716B1F0C7014B96AD
:103260000E940E09811110C0F701EB5BF64FE0815F
:10327000F0E0EE0FFF1FE151F24F65917491C8012C
:103280007AD064ED7DE079CE69EE7DE0C80173D03F
:10329000F701EE0FFF1FE952F24F659174916BD069
:1032A0008C0167FEB9CD772051F036E07312B4CDB2
:1032B00062E371E0452D440F440F450D3FCF6CE3B1
:1032C00071E04E814F51459539CFE72CF12CC70164
:1032D0000E940E09882381F030E020E04DEC5DE093
:1032E000662DC80154D068EC7DE045D0F701EE0FA3
:1032F000FF1FEC54F24F55CFF701E65DF64FE0812A
:10330000F0E0EE0FFF1FE257F24F459154912DEC84
:103310003DE0F7CEE72CF12CC7010A960E940E097A
:10332000882381F030E020E040E35EE0662DC801B4
:103330002ED068EC7DE01FD0F701EE0FFF1FEE5599
:10334000F24F2FCFF701EC5CF64FE081F0E0EE0F8B
:10335000FF1FE150F24F4591549120E33EE0D1CE62
:10336000F801DACD042FD9CD881999098150269614
:10337000EFE00C94AF36CF93DF93EC01AC01CE01BC
:1033800029DD8C0F9D2F911DDF91CF9108951F9303
:10339000CF93DF93FC01E90161110EC0BA01EBDFAD
:1033A000209731F030E2FC013083BE010196E3DF6B
:1033B000DF91CF911F91089581E0860F6AE00E940E
:1033C0006A36882319F0805D80833196905D908302
:1033D00010E21183BA01CF010296CDDFDC01209704
:1033E00029F01C93BE010196C6DFDC01CD010196D8
:1033F00023E72C93DDCFA0E4B0E0E1E0FAE10C9408
:103400009E36182F062FBA01AC01CE010196E2DCE0
:10341000AE014F5F5F4F602F812FB2D9C05CDF4F8D
:10342000E4E00C94BA36CF93DF93D82FC62F50DA4E
:103430006C2F80E28D0F4CDACF5F41E46C2F82E07D
:103440008D0F58D942E46C2F82E28D0F53D946E498
:1034500051E06C2F8BE08D0FCEDF4AE451E06C2FF2
:103460008BE28D0FC8DFDF91CF910895B0E0A0E02F
:10347000ECE3FAE10C949336AAEFFA2EF80EBAEFC9
:10348000EB2EE60EC9EFAC2EA60E0E2DD0E088E096
:10349000089F6001112490ECC922BF2CC0E0EFE32B
:1034A000EB1508F490C0003208F08DC0902F11E0A9
:1034B000977019F0110F9A95E9F7F601EB29E3548B
:1034C000FB4F2081122309F07EC04D2F6C2F87E81F
:1034D00098E09FD9B394CB5FC13409F70F5FDB5FEE
:1034E000A394D134A1F6B12CA0917A08BA1608F0B1
:1034F000F0C0CB2CD12CCC0CDD1CE601C75CD74F27
:10350000088107FDD5C0A02EAF18BCE0BA1508F49D
:10351000CFC019811F77912E9E18B91508F4C8C025
:10352000612F802F0E94150D1F5F882309F4B4C0FE
:10353000CA2DCC0FCC0FCA0DD92DDD0FDD0FD90D43
:10354000612F802F0E94840E8111B4C07090960864
:1035500015E01D0F64E0562E5C0E66246A946C0E16
:10356000C11101C0612C710E8D2E482D652D862D47
:103570003BD983947810F9CFF601E75CF74F6F01E0
:103580008181881F8827881F90E0880F991F492D07
:103590006A2D835B974F04DAF60161816F778FEFB5
:1035A000800F0E942D0D882309F486C013E01D0FA3
:1035B000412F6D2F8EEF8C0F0BDA412F6D2F85E091
:1035C0008C0F06DA75C0602F8B2D5CD8182F602FFA
:1035D0008B2D0E94840E811139C070909608602F47
:1035E0008B2D0E94470D882349F061E0F3E07F12A4
:1035F00060E06E5F6D0F82E08C0F08D96A2D8B2D15
:103600000E942D0D882309F465CF7FEF7C0F17FFF3
:103610007C2FF4E08F2E16FD02C0E3E08E2E8C0E80
:10362000972E991C9924991C970E10E04FEF1715AF
:1036300039F04D0F410F682D892DDBD91F5FF6CF73
:10364000410F4D0F682D892DCFD844CF4D2F6C2FB2
:1036500087E898E0DED8912C812CF401E958F74FE7
:103660003491F401E158F74F4491512F53235413EF
:103670000BC06AE0689DC001699D900D11244D2F1B
:103680006C2F8F56974FC5D88FEF881A980A98E0FD
:103690008916910411F71ECF612F802F0E942D0DE6
:1036A000811106C0612F802F0E94150D811140CF1E
:1036B000B3941ACF712C4CCF02E00C0FCF5F4EEFBA
:1036C0004D0F602F8C2F95D9412F602F8C2F91D9C2
:1036D000EFCF8091BD05C82FCF19CD3078F4609120
:1036E000BE05D62FDE19DD3048F40E94150D882363
:1036F00029F04D2F6C2F88EC9EEF60D98091BF058B
:10370000082F0F190D3078F46091C005162F1E197F
:103710001D3048F40E94150D882329F0412F602F99
:103720008FEE9CE84BD9C9E5D7E089818823C9F0A1
:103730008A81182F1F191D30A0F46B81062F0E19D6
:103740000D3078F40E94150D882359F089818295F7
:103750008F7090E0880F991F402F612F8D5C974FDD
:103760001FD92496F7E0C93DDF07F9F6C9EBD6E08B
:1037700010E000E09B81992309F18881D82EDF18A1
:103780002CE02D15D8F06981C62ECE182C15B0F07E
:103790000E94150D882391F03B81313009F437C028
:1037A0004B814B3009F43CC0802F0E9428138111BB
:1037B00044C081E598E04C2D6D2DF2D80F5F1F4F6E
:1037C000249600321105B1F66091790861111AC092
:1037D000D7E14D2F66E389E007D8DF5FDB32C9F719
:1037E00028E248E164E38AE0F7D949E265E38BE047
:1037F00000D949E269E185E3EBD84DE451E06EE19F
:1038000081E1F9DDCDB7DEB7EFE00C94AF3680E0B3
:103810000E940413882309F4C3CF85E798E0CBCF37
:103820005A8154FDC1CFD801A75CB84F8C9190E06C
:10383000880F991F8D5C974FBECF8B8190E0880FCA
:10384000991F8F5A974FB7CF6091BA068091B906EA
:103850000DCE0895FF920F931F93CF93DF93C82F40
:10386000D62F842F122F0E940D0CF82E092FECDF7B
:10387000115030F0CF0DD00F6D2F8C2FE8D9F8CF2D
:1038800000DACDB7DEB7E5E00C94B936A0E4B0E0DD
:10389000ECE4FCE10C94A036AE01475B5F4F299647
:1038A0006EAD7FAD2997CE01019694DAAE014F5FE0
:1038B0005F4F27966FAD279726968FAD26970E946C
:1038C000C013C05CDF4FE2E00C94BC36CF93C091D4
:1038D000960880919608837080939608B5DFD1D9B9
:1038E00040E65DE060E084E186DD46E06FE381E094
:1038F00080D888E591E0209196081F922F939F939E
:103900008F9339E03F9343E04F93C0DFB6D9BDD9E1
:103910000F900F900F900F900F900F90909196082E
:103920009150803229F0803429F4909196089F5F5D
:1039300090939608582F5C7009F4CBCF843011F423
:10394000C0939608CF910895AEE0B0E0EAEAFCE1BA
:103950000C949636F82E43E55DE060E08BE28F0D27
:103960004ADD46E06FE380E044D8809194088F5FA1
:103970008887898380E00E947F128A8380908208F2
:10398000898680E00E943012182F8B8390907E08E9
:103990009A8680E00E9415128C83A0907F08AB86E7
:1039A00080E00E945A128D831C8780E00E94E01103
:1039B0008E83B0908108BD8680E00E94D0128F83F4
:1039C000C0908008CE8675E4872E7DE0972EDE01BC
:1039D00011965D0119E06D01F40145915491612F3B
:1039E0008F2D09DDF501378181915F0168E26F0D4F
:1039F0004BE651E0942F252F381304C049E951E0DC
:103A0000942F252FE82FE31BFF0BAF015F93EF935C
:103A10001F928F932F939F931F936F9337DF1A5F9C
:103A2000F2E08F0E911CCDBF133309F0D5CF43E7E1
:103A300051E069E086E48F0DDEDC2091BB06860153
:103A400020FF07C00CE31DE01A8309838E010D5F80
:103A50001F4F30E0C9019595879580FF07C042E36D
:103A60005DE0D8014D935C930E5F1F4FC9019595A2
:103A700087959595879580FF07C069E27DE0F801FD
:103A8000718360830E5F1F4FC90146E0959587954E
:103A90004A95E1F780FF07C082E29DE0D8018D934F
:103AA0009C930E5F1F4F93E0359527959A95E1F70C
:103AB00020FF07C02BE037E0F801318320830E5F41
:103AC0001F4F309195083F3F39F440E957E0D80146
:103AD0004D935C930E5F1F4FFBE4FF0E89E0E82ED1
:103AE000C016D10650F456E0E50EF801529142910D
:103AF0008F016E2D8F2D7FDCF3CF79E0E71205C0AB
:103B00004CE751E06FE08F2D76DC2E96ECE00C94C4
:103B1000B23680E019DFB5D880EC16DFAED8B5D864
:103B20008430E9F70895B0E0A0E0E9E9FDE10C9404
:103B30009B36E82EEA01F22EAB0160E05CDC47E048
:103B40006FE380E00E94F9141AE08EE18F1508F40B
:103B500038C0FE01EF0DF11DD0809FEFD91689F11D
:103B600027E12D1508F437C08D2D0E94750B882391
:103B700031F043E2612F81E08E0D0E947A1381E8DB
:103B800091E0ED2DF0E0EE0FFF1FE757F94F318187
:103B90003F9340814F939F938F931F9357E05E0D08
:103BA0005F9374DE0F900F900F900F900F900F9017
:103BB0000F1107C045E0410F6FEF610F80E00E94D9
:103BC000DC131A5FF394103409F0BFCFCDB7DEB722
:103BD000E7E00C94B736E110F4CF8D2D8851990BA6
:103BE000FC01EE0FFF1FE254F34F45915491612FFA
:103BF00080E001DCE6CFA0E2B0E0E1E0FEE10C9481
:103C000096365C0110E0DE0111967D01AD014F5F3B
:103C10005F4F88E1810F8C932AE836E0CA0100E00B
:103C2000F901D080ED2DE295EF70E60FF72FF11D31
:103C3000E491E11303C0FC01008301960F5F2E5F46
:103C40003F4F083169F78417950709F0DC011F5FC2
:103C50001730E1F66D01CE18DF088C2CCE0181966D
:103C6000A817B90718F40FEF0D93F8CF912C11E0B6
:103C7000012F292DA701B50180E055DF02D8292D9C
:103C8000A701B50180EC4FDF0E943D160E9445164A
:103C9000843009F442C0883051F4D701A10FB11D1E
:103CA0008C91A096ECE00C94B236142FE1CF8031C9
:103CB000E9F42C2D2150330B121713064CF541E07B
:103CC000410FF701E40FF11D2081283110F042E08F
:103CD000410F292D30E0285F3F4F4217130609F0AE
:103CE000CCF4491510F71DEF910EFBCF803871F41D
:103CF0004FEF123048F0410FD701A40FB11D9C9136
:103D0000983138F34EEFE4CF480DE3CF412FE1CFA8
:103D100041E0E7CF33E0930EDCCF8FEFC2CF6CEC06
:103D20007CE069CF089588E19DE0F9CF0895CF93B5
:103D3000DF93EC018AEF9CE0F2DF883138F493E006
:103D40009883898381E0DF91CF91089580E0FBCF54
:103D5000CF93DF93EC0189ED9CE0E1DF883138F40B
:103D600091E09883898381E0DF91CF91089580E08D
:103D7000FBCFA6E0B0E0EFEBFEE10C949836F82E16
:103D8000C62E42EB5CE060E08EE28F0D34DB46E055
:103D90006FE380E00E94F91407E918E09BE0E92E48
:103DA000D12CF801828181111AC0D394F7E0EF0E73
:103DB0000C5F1F4F27E2E212F4CF93E09C1508F44A
:103DC00046C044E851E060E385E28F0D14DB68E310
:103DD00087E28F0D28DB2696EAE00C94B436B0809B
:103DE000A180282F2150330BF901EE0FFF1FEA5558
:103DF000F34F85919491F80123811F922F939F9304
:103E00008F93EF92FF9242DD89E991E0AF92BF92EA
:103E10009F938F939E012F5F3F4F59013F932F93A5
:103E20000E94CB16982F990F990FA5016E2D8FE741
:103E30008F0D891B0E94C013CDBFCD10B6CF45E0BA
:103E40004E0D6FEF6E0D80E00E94DC13AECF4EE89A
:103E50005CE06BE38FEF8F0DCEDA85E599E0DC0156
:103E60009C01255539404DB75EB74817590720F0DA
:103E700001965C91553A99F385E991E03F932F9330
:103E80003091C2053F936091C1056F939F938F93CB
:103E90007BE37F93B0E6BF0DBF93F8DCCDBF9BCF34
:103EA000CF932CE931E080917B0890E001969F93BD
:103EB0008F933F932F931F92C1E0CF93E7DC0F9036
:103EC0000F900F900F900F900F9020917908222360
:103ED00081F180E00E947F122DEA31E01F928F93E2
:103EE000409139071F924F9350919408852F90E08D
:103EF00001969F938F933F932F9336E03F93CF93F9
:103F0000C5DC60919508ADB7BEB71A96ADBF40E964
:103F100057E06F3F31F043E959E0693C10F441E16B
:103F20005EE06CE081E067DA44E16FE381E00E94EB
:103F3000F914CF910895FF920F931F93CF93DF93BE
:103F40008C01EB01ADDFAE0167E185E054DA4FEBA8
:103F500051E06DE185E04FDAC8E18AE1F82EFC0E10
:103F6000D3E4DC1B4F2D6D2F8C2F0E94E8144F2DB6
:103F70006D2F8FE38C1B0E94E8149BE0F92EFC0E42
:103F8000D4E3DC1B40E14C0F6F2D8D2F0E94F91400
:103F90004DE44C1B6F2D8D2F0E94F914C150C4317C
:103FA000E1F60E943D160E9445168032A9F020F4E9
:103FB000803151F080E00BC0803491F08038D1F72F
:103FC000D8011C9281E003C081E0F8018083CDB765
:103FD000DEB7E5E00C94B93682E0E8018883F2CFE1
:103FE00083E0FBCF25E0FC012193CF016DE07DE074
:103FF000A2CF0895A1E0B0E0E0E0F0E20C949E369C
:104000000091B9061091BA06612F802F2FDA0E9415
:1040100041166FE77DE0CE0101968DDF8823A1F088
:1040200089810E940D0C880F880F080F990F990F36
:10403000190F07FD00E017FD10E0003408F00FE352
:10404000103210F31FE1E0CF2196E4E00C94BA3671
:1040500065EC70E070CF0895EF92FF920F931F937D
:10406000CF93DF931DDFC0E007E1D1E08091270906
:10407000C81720F58C2F90E09C012955374F790106
:10408000C9010E947E11182F2D2F280F3327331FAF
:104090002134310514F00A5FD1E0A701602F8D2F84
:1040A0000E94C0131E5FD10FEC2FCF5FF0E0E955E7
:1040B000F74F2081EC2F2111F8CFD8CFCDB7DEB745
:1040C000E6E00C94B836C0DB0E944116C5DF40ED37
:1040D00051E06BE38BE28FD90E943D160E9445169A
:1040E0008830E1F70C94B30B0895A0E8B0E0EBE75B
:1040F000F0E20C949836FE01E357FF4FDF016D911B
:104100007D91AD018E010F5F1F4FC8010E94EA161D
:10411000F801AE2EA01A81918111FBCF60E0C80199
:104120000E94BC0BF82EE12C209127092F0D2E198F
:10413000213808F0C8DFCE2CD12CC8018C0D9D1D74
:104140000E947E11B82E309129093B3340F08091B6
:1041500028098B0D9927991F8B970CF0B4DFD80194
:10416000AC0DBD1DEF1470F44091270951E0540FC0
:10417000509327096D91E42FF0E0E955F74F6083E4
:10418000E394F0CF809128098B0D9927991F8134F2
:10419000910544F071E070932809909129099A5F84
:1041A00090932909B0912809BE5FBB0DB0932809EF
:1041B000FA1438F46F2DC8010E94BC0BEF2CF82EB6
:1041C000B3CFC058DF4FEAE00C94B4369F938F937F
:1041D00087EE9EE09F938F9388DF0F900F900F9054
:1041E0000F90089594E0899FF0011124E754F94F4E
:1041F000228120FF07C02E7F2283811103C08CE320
:104200009DE0E4CF08951F922F935F934F931F92E9
:104210006F939F938F9369DF8DB79EB708968DBF7D
:1042200008951F926F939F938F935FDF0F900F906E
:104230000F900F9008955F934F937F936F939F9389
:104240008F9353DF0F900F900F900F900F900F9060
:104250000895CF93DF93E82FF0E0EE0FFF1FE757AD
:10426000F94F4081942F518157FD0BC067ED71E0EC
:1042700026E838E096FF0CC086E49FE0DCDF80E0B3
:1042800015C062EE71E0F4CF98E02D383907B9F32C
:10429000E9012F5F3F4FA881A813F6CF89E49FE083
:1042A000CADF8FEF88830E94AA1281E0DF91CF914D
:1042B00008957F936F939F938F9317DF0F900F90C5
:1042C0000F900F9008955035B0F4E9E5F7E0928132
:1042D00098130CC02381261309C03181351306C001
:1042E0008081823608F48F5F80830895349697E04A
:1042F000E93DF90761F7E9E5F7E07181711105C062
:1043000082836383408351830895349697E0E93D27
:10431000F90799F7BA018AEC9AE0CBCF08959F93F9
:104320008F93E3DE0F900F9008958CEC9EE0F7CF13
:1043300008950F931F93CF938C01E0918608E83185
:1043400040F4F0E0EE0FFF1FE757F94F8181803610
:1043500049F08EED9CE0E3DFC0E08C2FCF911F9100
:104360000F910895EAE8F6E0C0E021E090819034F2
:1043700009F020E0C22B329686E0EA3BF807A9F765
:10438000C11104C082EF9CE0CADFE7CFC8010196EB
:104390005FDEC82F882309F332E0D8013C93DDCFDC
:1043A0001F93CF93DF93182F0E94C70CD0919408CE
:1043B000D13309F44CC02FE0DF3008F42D2F2295C3
:1043C000207FCAE0C20F87E00E949F11181634F4C4
:1043D000812F90E0019695958795180F809183081D
:1043E0004C2F411B550B84171506B9F1B4F181E030
:1043F0008D0F8093940862E06D0F84EB9AE011DFDB
:1044000010918208163F38F11AEF1093820830910C
:1044100094083370323041F488E69FE080DF4091A9
:104420007E084F5F40937E0850919408537041F48A
:104430008BE59FE074DF60917F086F5F60937F087A
:1044400080E00E947F128093390710928308DF91E9
:10445000CF911F9108951C5FD8CF180F1093830838
:10446000F6CF94E0899FF0011124E754F94F22819F
:1044700022FF07C02B7F2283811103C081EE98E0C9
:104480004ECF08952BEE31E09F938F931F926F9341
:104490003F932F932ADE0F900F900F900F900F9065
:1044A0000F9008951F93CF93DF9394E0899FE001CD
:1044B0001124FE01E754F94F128116FD0EC0182F8A
:1044C0000E942813882321F0612F82E29DE0DADF29
:1044D000C754D94F8A8180648A83DF91CF911F911D
:1044E00008951F93CF93DF93182F811105C085E0A6
:1044F0000E949F111816C4F084E0189FE001112457
:10450000FE01E754F94F228121FD0EC0812F0E9448
:104510002813882321F0612F82E39DE0B3DFC75485
:10452000D94F3A8132603A83DF91CF911F9108953C
:104530001F93CF93DF9394E0899FE0011124FE0144
:10454000E754F94F128112FD0EC0182F0E94281354
:10455000882321F0612F89E29DE094DFC754D94F71
:104560008A8184608A83DF91CF911F910895CF93D0
:10457000C82F811105C081E00E949F11181694F088
:104580008C2F0E942813882321F06C2F8CE39DE050
:1045900079DF84E0C89FF0011124E754F94F2281AC
:1045A00021602283CF910895EF92FF920F931F9382
:1045B000CF93DF93F82EE62EC82FD0E00E94B312DF
:1045C0008E01075C184FF8018081E81608F430C0AE
:1045D00022EF31E086EF91E03F932F931F92FF92FD
:1045E0009F938F9382DDF8011082CC0FDD1FCC0FDB
:1045F000DD1FFE01E754F94F0F900F900F900F90C1
:104600000F900F902381213159F4908131811092C4
:10461000D50748E94093D6079093D7073093D8073A
:10462000C754D94F1B82CDB7DEB7E6E00C94B8363D
:104630008E198083F8CF0F931F93CF93DF93D82FDA
:10464000862F94E0699F80011124F801E754F94F07
:10465000C381611111C024E02093C70534E0D39FCA
:10466000F0011124E754F94F53815093C805D1113B
:1046700003C065E06093C705642F96DFF801E75437
:10468000F94F838181110AC0D11108C018E0C19F80
:10469000F0011124E959FF4E849182DEDF91CF9120
:1046A0001F910F910895ACE0B0E0E9E5F3E20C94BE
:1046B0009836182FB62E042F23E0261708F447C08B
:1046C0009E01295F3F4F46E00E94730E023059F071
:1046D00034E0139FF0011124E754F94F2C854B2D42
:1046E00061818081B7D86A8589850E94DA0C6C0166
:1046F0000230E9F504E0109FF0011124E754F94F6E
:10470000008111818B2D0E940D0CE82ED92E56E0D0
:10471000F52E0E0D1D0D0034B0F41032A0F4612FF3
:10472000802F0E94AA0E612F802F0E94F80CFC019E
:10473000892B31F041814068418350815F775083FC
:10474000FA94F110E6CF2C96EAE00C94B43694E09B
:10475000899FF0011124E754F94F80818987B18046
:10476000BA861B870E947B0F8370B82EBCCF0330A4
:1047700009F052C069D834E3C32E3FE0D32E46E49B
:10478000A42E4FE0B42EF601F490E984FE0C31968D
:1047900004919A85090F602F8F2D0E942716602F94
:1047A0008F2D0E94DA0C7C01892BE1F088E00E94B9
:1047B000F50F08E0080FC701895B96407C01F5946E
:1047C000E794F594E794E11016C084E00E94B311D9
:1047D0001816E4F08111000F0023C1F0402F6E2D58
:1047E000812F29DF92E0C90ED11CAC14BD0459F60B
:1047F0000E944116A8CFF701FF27EE0FFF1FEE0F13
:10480000FF1FE754F94F33813F3031F76E2D86EFAC
:104810009EE007DD00E0E2CF009709F494CFAC0101
:10482000495B56407A01F594E794F594E794043097
:1048300009F47EC0E8F4002309F440C0013009F017
:1048400082CF1B85103208F07ECF111166C080E147
:104850009FE065DDF4E01F9FC0011124BC01665498
:10486000794F8754994F0E949B10812F80DE6BCF28
:10487000053009F466C0063009F065CFF6011381F2
:104880002DEF210F2E3008F05ECF8AEF91E06E2DD4
:10489000C8DC0E947B0F803408F05AC01F5FF6010D
:1048A000138383EB92E06E2DBCDC8B850E947F121C
:1048B000D701BB27A75CB84F8C9345CF8EE092E021
:1048C0006E2DAFDC8E010F5F1F4F28E04B2DF601E0
:1048D000618180810E94360E5D81503280F4A98111
:1048E000F601A083BA81B1838FE192E06E2D99DC4D
:1048F00083EB92E06D8195DC8D81F3DD24CF5E3F0B
:1049000031F48FE292E06E2D8CDC8E2DEADD6B812E
:10491000F60160837C81718316CF812F0E9428135A
:10492000882309F497CF8FE392E0612F7ADC92CF4E
:104930008CE00E94F50F4CE0480F6B85812F7BDEE9
:1049400002CF8B85AFDD88E00E94F50F48E0F4CF01
:104950001150A5CFB0E0A0E0E0EBF4E20C949B3660
:10496000D82FC62F91E1E92E9EE0F92E633018F47E
:104970002EE432E07901D1110CC083E00E949F1136
:1049800087FF07C06C2F70E06F5F7F4F759567954D
:10499000C62F8D2F0E947F12D82E0D2F10E0075C9E
:1049A000184FF80180818D1568F4D11119C0FF925C
:1049B000EF9282EF98E09F938F9397DB0F900F9089
:1049C0000F900F90F80160812D2D261B330BC2171D
:1049D0001306DCF0D082CDB7DEB7E7E00C94B73633
:1049E0008D2F0E942813882369F388E592E0FF92B7
:1049F000EF921F92DF939F938F9377DB0F900F902F
:104A00000F900F900F900F90DDCF6C0F6083E3CF6E
:104A1000FF920F931F93CF93DF93082F162FC82F6A
:104A2000D0E0CE010E940E09F82ECE010E9432097C
:104A3000F11006C060E0702F706289E89FE039DCF9
:104A40000A3010F5FE01E95DFA4D0C948A363125E5
:104A5000422549254C25652579259E25A125A42596
:104A60008425812F0E947F12C82F86958F5F0E9418
:104A7000F50FC695C6956C2F680F812F6BDF812FC0
:104A8000F0DC02C0812F73DDCDB7DEB7E5E00C941A
:104A9000B936812F4DDDF8CF812F0E947F12869588
:104AA00086958695D1E0D80F8D2F880F0E94F50F3F
:104AB000D80F612F83E79FE0B4DB4D2FDB3008F088
:104AC0004AE0612F80E0B7DDDFCF24E0129FE001F4
:104AD0001124C754D94F3A8132FDD1CF1111D4CF0F
:104AE00088E69FE01CDC40917E084F5F40937E0883
:104AF000CBCF1111C9CF8BE59FE011DC80917F08EE
:104B00008F5F80937F08C0CF11110EC087E00E9495
:104B1000B31187FDB9CF0E947B0F8F70845F8093A4
:104B2000850882E59FE0FBDB54E0159FF00111242E
:104B3000E754F94F628168606283A6CF812FD1DC90
:104B4000A3CF812FAFDCA0CF11119ECF82E328DC51
:104B50009BCFA1E1B0E0EFEAF5E20C949436082F88
:104B6000162FD72EA82EB12CF501EE0FFF1FEE0F3A
:104B7000FF1FE754F94F808071809281872F8370E7
:104B8000898B662309F44DC491FF09C0002311F0FD
:104B900011E099C060E082E39DE074DCF9CF392F29
:104BA0003170632E90FF0AC00E947B0F8370898B47
:104BB000011104C060E08CE39DE064DC89890E94FF
:104BC0000D0C982C980EC72CC90E6C2D892D0E94A7
:104BD000DA0C7C01BE01675F7F4F802F0E94C70BFC
:104BE000133009F422C350F4113041F1AAE8B6E0C1
:104BF000E0E0123009F48CC310E065C0153009F410
:104C0000EEC108F442C31630B9F76C2D892D0E940D
:104C1000F80CFC01892B49F0318137FD06C0408139
:104C200047FD03C05A8551FDF7C16C2D892D0E94A7
:104C30002D0D882309F413C2162D45C0ED2CF12C3F
:104C4000F701EE0FFF1FE757F94F5F01C08091801A
:104C5000192D1F70092D02950F700530B8F482E0F0
:104C60000E949F11882E18166CF08D2D0E94AE0C9C
:104C700087FE0CC00E947B0F803440F48D2D0E9473
:104C8000AE0C04C00E947B0F803C78F3033031F1FE
:104C900048F40130E9F0023009F0AECF60E0812F36
:104CA000B7DE76CF053009F40AC108F4A5CF0D3080
:104CB00008F0A2CF8D2D0E94750B882309F434C112
:104CC0008D2DC7DA182F812F6196EEE00C94B03647
:104CD0001092950883E999E079DA5ACFE12EF12C08
:104CE0006701FAE0CF0ED11CC6010E940E09082F01
:104CF000C6010E943209011106C060E0712F706385
:104D000089E89FE0D6DA193008F042CFF701E5577D
:104D1000F94D0C948A369426AA26DA26FA26062716
:104D2000142714271427112789E699E00E948F1E63
:104D3000182F883108F0AAC00E94820BE12FF0E002
:104D4000EE0FFF1FE757F94F6081718188E599E009
:104D5000B0DA1ECF8EE399E00E948F1E883108F0F2
:104D600095C0A82FB0E09D01220F331FB9016757EE
:104D7000794FFB011181103508F488C0AA0FBB1FC1
:104D8000818182958F70F4E0853009F0F1E0A757BA
:104D9000B94F9C91F90FFF73907C9F2BF03338F43F
:104DA0009C93DB016D917C9187E399E0D1CF907C5E
:104DB0009F62F6CF8EE299E00E948F1E883108F044
:104DC00065C090E0FC01EE0FFF1FE757F94F21810E
:104DD000203608F45BC0508156FF58C05F7B50837B
:104DE000880F991FDC01A757B94F6D917C9186E21E
:104DF00099E0AECF80E19FE092DA6AEB76E089EB52
:104E000096E00E949B1080E0B2DBC2CEADEBB4E036
:104E10004FEF4D9325E0AD3BB207D1F782E099E02B
:104E200037C08BE692E07BDA8DEBA82E81E0B82EBE
:104E3000F12CE12C00E0CE2CF501E150FB4FB081CC
:104E4000BB23C1F08E2D0E942813D82E882391F009
:104E50008E2D0E94B3121530E9F4EE2059F0F501C1
:104E6000E250FB4F70817062708387E892E06E2D94
:104E7000D8D90D2D3FEFE31AF30A84E0A80EB11C38
:104E800090E2E916F104B9F6011182CE87E499E0C7
:104E900046DA7ECE163049F4D701A75CB84F0C91A4
:104EA00006950C9381E992E0E2CF173019F48E2D2C
:104EB0005EDBDFCF1830E9F68E2D3ADBDACF91E0FA
:104EC0009C1550F18D2D0E94AE0C6C2D792D8DE727
:104ED00099E0EFD90E94241C0E944116E12EF12C8A
:104EE000F3E2EF0EF11CC7010E940E09082FC70163
:104EF0000E943209011106C060E0712F706583E7DE
:104F000099E0D7D93FEF3983CE010196A1D8412F3F
:104F1000698180E0C8DB3CCEF701EE0FFF1FE75749
:104F2000F94FCA94C082D6CFF5010181C02EC29438
:104F3000BFE0CB22EAEFEC0D8FEFE73068F4F0E052
:104F4000EC55F84D0C948A36D527D527C127D327A1
:104F5000BD27AB27BF2782E090E08A57974F7C019F
:104F6000DC018C91883128F18D2D0E94820BF7E0B5
:104F7000FC1520F56EE972E023C081E0EDCF83E0FF
:104F8000EBCF70918A08783160F4E0918B08E831BA
:104F900070F4F0E0EE0FFF1FE757F94FE080E6FEF8
:104FA00006C084E0D9CF86E0D7CF80E0D5CF85E0BA
:104FB000D3CF4FD9182F8111D7CF85CE65EA72E0B4
:104FC000F5014081518189E49FE035D9013911F41F
:104FD00080E008D90E94AA12D701DC92D9CD6C2DAD
:104FE000892D0E94F80CFC01892B49F0108117FDD6
:104FF00006C0818187FD07C089EE99E002C08CE080
:1050000091E08DD9F9CDE114F10419F08FED99E01B
:10501000F8CF8F778183BCCD3068318330917B08A6
:105020004CE0349FD0011124AF52BA4FE953F840FD
:10503000F595E7959F01332773E0369527957A9587
:10504000E1F7A20FB31FE770FF2721E030E001C0B6
:10505000220FEA95EAF75C91522B5C9399CDE1140B
:10506000F10409F4CCC09701295B36407901F5942D
:10507000E794F594E794CE2C802F0E941512D82E39
:105080008E2D0E941512182F8D2D880F8D0D61E029
:10509000610F860F0E94F50FB82E802F0E942813F3
:1050A000D82E8E2D0E942813D82AB11608F0B6C12A
:1050B000DD2049F001119CC04BEA52E080EB92E008
:1050C0002E2D602FA0D8011163CD8E2D0E94B3121A
:1050D000B11608F45DCD802F0E945A12182F8E2D24
:1050E0000E94E011B82E812F0E94D611182F8B2D0F
:1050F0000E94D611612F70E09B012F5F3F4F269FCA
:10510000A001279F500D369F500D1124212F269569
:10511000240F352F311D680F711D6F5F7F4FC9013F
:105120000E947636162F662309F476C1DD2039F009
:1051300047EB52E080EB92E02E2D602F64D8BE0149
:105140006F5F7F4F802F0E94C70B898185FD07C04D
:10515000011121C084E00E949F111816E4F44BEB6A
:1051600052E081EC92E02E2D602F4DD8C1100DC081
:1051700080E00E947F12F0918408FD5FF81708F02C
:105180003AC0F09384080E94AA1263E0011101C0A2
:1051900061E0802FDFDB412F6E2D802F4CDAF7018D
:1051A000FF27EE0FFF1FEE0FFF1FE754F94F93810C
:1051B000992309F4EDCCB981B6FF06C00E947B0F9C
:1051C000803410F48E2DD3D9A981A4FF06C00E948B
:1051D0007B0F803410F48E2DABD9798177FFD8CC3A
:1051E0000E947B0F803408F0D3CC8E2D7AD9D0CC9E
:1051F0004FEC52E063CF815080938408C4CFF50117
:10520000EE0FFF1FEE0FFF1FE754F94F9082C18290
:10521000BFCCDC018C9187FF1AC18AEC99E07FD862
:10522000F70120812F77208312C1ED2DF0E07F015F
:10523000EE0CFF1CF701E757F94FC08001810839D8
:1052400031F46C2D78E987EC99E033D8D5CC8D2DED
:105250000E94750B811112C06C2D702F84EC99E0A7
:1052600028D88D2D0E94AE0C4C2D502F672D882DE7
:105270002AD8F701E757F94F11828ACC8D2D0E9469
:105280002921182F8111E8CF1ECDCE0141960E9411
:105290002820182F882309F416CDED2DF0E0EE0F0D
:1052A000FF1FE757F94F01818D2D0E94AE0C9E0123
:1052B0002F5F3F4F48E0698980E00E94730E2E8186
:1052C00049896091BA068091B9060E942A1C8D8195
:1052D0008032B8F40E94B3126D811F926F930F93C6
:1052E0001F9287EB99E09F938F930E9475206D81A9
:1052F000802F8F708DDB0F900F900F900F900F907D
:105300000F9060E0702F89EA99E00E945921DBCC70
:105310000C91003421F0EF5F1296E831C9F7F0E00C
:10532000EE0FFF1FE757F94F4081411140C0118236
:105330009E012F5F3F4F48E06D2D80E00E94730E6D
:105340000D81003240F580E00E941512182F802F49
:105350000E941512F82E812F8F0D8F5F0E94F50F7E
:105360008F1540F55D8160E02FEC32E010E06F9327
:105370005F933F932F938AE999E09F938F930E94C5
:105380007520412F6D8180E056D90F900F900F90BE
:105390000F900F900F900E947B0F803408F4F8CB91
:1053A00040E050E46C818B810E946321F1CB41503D
:1053B0004083BECF812F0E94F50FF82E80E00E941F
:1053C0003012169516951F5F1F0D8695869586954A
:1053D000180F802F0E94E0110E94D611612F70E0FB
:1053E000FB013196E69F9001E79F300DF69F300D4F
:1053F00011241695210F311D680F711D6F5F7F4FAE
:10540000C9010E947636162F5D8160E0111101C03E
:1054100011E027EB32E0ABCF11E088CE01115BCE7B
:1054200054CE0E940D0CBE01675F7F4F802F0E94FB
:10543000C70B0111ADCB802F0E94020C672D690FA5
:10544000880D0E94F80C7C01009709F0E2CE0F5FF6
:10545000083089F79DCB0E94241C0E9441160E94AF
:105460002C200C943D160895CF93DF93EC0185ED2D
:1054700092E060E07DE00E94FB1D883140F494E002
:1054800098838983E8DF81E0DF91CF91089580E000
:10549000FBCF8F929F92BF92CF92DF92EF92FF92BB
:1054A0000F931F93CF93DF93CDB7DEB7C058CDBF17
:1054B000182F092FF62EE72E0E94501FEF92FF9211
:1054C0000F931F939E012F5F3F4F79013F932F93BF
:1054D0000E94CB160F900F900F900F900F900F908F
:1054E000F701BE2EBE1881918111FBCF8B1528F4D8
:1054F000682FC7010E94BC0BF9CF00E0DD24D394D4
:1055000017E10B1518F54701800E911CC4010E948C
:105510007E11C82E2D2D280F3327331F213431053E
:105520001CF01A5FDD24D394A401612F8D2D0E94FD
:10553000C013C394C394DC0CE02F0F5FEE0DFF2D5E
:10554000F11D8081E02F8111F8CFDBCF68E0610F82
:1055500087E00E94131A0E943D160E944516182FDC
:105560008C70D9F378DF81E0183009F080E0C05802
:10557000CDBFDF91CF911F910F91FF90EF90DF9002
:10558000CF90BF909F908F90089581EE92E081DF41
:10559000882349F089E69DE00E948F2183E0809373
:1055A000C7051092BC060895A4E0B0E0EAEDFAE267
:1055B0000C9499368091C1059091C2059093C405D1
:1055C0008093C30510E0B0907B081B1520F40E9467
:1055D0007B0F1F5FF8CFEDEBF3E00FEF019324E0BB
:1055E000ED3BF207D1F760E071E08DEB94E00E94B3
:1055F000751160E870E089E597E00E94751160E63A
:1056000070E089ED97E00E94751160E470E089E335
:1056100098E00E9475111092790810927A081BDFA9
:105620000E942C1190917B089F3009F480E84DE096
:105630006DE10E94BD0EE12CF0E1FF2E8091790812
:10564000803208F041C00E94F50F23E0829FF001F4
:105650001124E752F84F0081C180B2800E947B0F75
:10566000182F13700E942C11D82E9E012D5F3F4FD2
:10567000AE014C5F5F4F6B2D812F0E94E4109E01A5
:105680002F5F3F4FAE014E5F5F4F6D2D81E0812751
:105690000E94E410812F0E940D0CBC80B80EB00E49
:1056A0000B81090F0C0D3981931B492F400F5A8133
:1056B000851B682F6B0D8D2D0E94BD0E882321F058
:1056C000602F8B2D0E94940FE1E0EE1AF10809F093
:1056D000B5CFE12CE4E0FE2E809179080E94F50F11
:1056E00043E0849FF0011124E752F84F00811181BB
:1056F000D2800E947B0F8370B82E9E012F5F3F4F98
:10570000AE014E5F5F4F6D2D0E94E4108B2D0E9405
:105710000D0C6A81860F800F8A836981690F610F82
:1057200069830E942D0D882309F446C000E0709122
:105730007908071770F4A3E00A9FC001112449817A
:105740006A818752984F0E94710C811135C00F5F9A
:10575000EECF10E000E0802F0E940D0CDA80D80E12
:10576000C980C90E6C2D8D2D0E94F80C892B21F556
:10577000110F6C2D8D2D0E942D0D182B0F5F0430F5
:1057800051F7F1E0FB1508F4C5C01C70A9F48A813B
:105790006981811B0E942D0D882371F08A816981A6
:1057A000810F0E942D0D882339F01F5F143079F787
:1057B00069818A810E94940F21E0E21AF10809F0C0
:1057C0008BCFEDEBF4E02DEB35E0DF01BA95F08007
:1057D000BC91FB2AF1922E173F07B9F70E944B0F9D
:1057E00080917B088F3008F0ACC06EEB75E08DEBDC
:1057F00095E00E949B1060EC75E08FEB95E00E94B5
:105800009B1030917B083F3019F55091D907595FB3
:105810004091DA07495F61E16093C0065093BD068D
:105820004093BE06E0917A08E03209F490C071E03E
:105830007E0F70937A08F0E0EE0FFF1FE75CF74FE2
:105840005F775083118110784E5F4F77412B4183F2
:1058500064ECE62E66E0F62E02E0F7011082802F5F
:105860000E9467100F5FF4E0EF0EF11C0032A9F701
:1058700060E070E280E00E94AB1060E070E181E0E7
:105880000E94AB10D0907B08F8E0DF9EF00111245D
:10589000EC5EF34F8591949142E0E42E992331F030
:1058A000BC0182E00E94AB1053E0E52E0E947B0F0A
:1058B000D82E10917B08145F110F110F110F31E2D8
:1058C000F32E0E947B0F811720F4F3942FE2F21243
:1058D000F8CFAFE1AD1518F0B0E4BF19FB2E0E9470
:1058E0007B0F8F71E82FF0E0E251F44F14918AE0C2
:1058F000123091F189E0133079F1183051F587E0D9
:105900000E94F50F082F0E947B0F853008F407E0F6
:1059100060E031C0137009F04FCF6981611B8A814B
:105920000E942D0D882309F447CF6981610F8A8178
:105930000E942D0D882309F43FCF1F5F143069F7B3
:1059400037CF9FEF9093BE059093BD0554CFEFE105
:1059500072CF193029F488E00E94F50F082FD8CFB4
:10596000153051F587E00E94F50F082F0E947B0F3C
:10597000877063E0680F712F7295707F0F70702BC6
:10598000163078F06F2D6F7381E090E03FE13D15A8
:1059900010F490E080E026E0880F991F2A95E1F747
:1059A000682B8E2D0E94AB10E3948CE1E8127ECF21
:1059B0002496E9E00C94B536143039F40E947B0F3C
:1059C000837062E0680F00E0D6CF1C3041F40E9483
:1059D0007B0F01E08C3008F49BCF00E099CF60E0B2
:1059E000F2CFA6E1B0E0E7EFFCE20C94953624E0BC
:1059F000829F60011124F601E754F94F7F019381E2
:105A0000992309F441C1182FBE01675F7F4F0E949F
:105A1000C70B112381F0F701828181FD0CC080FF4B
:105A200078C026E0A22E0E947B0F8370982E6A2DEC
:105A3000792D812F8ED8F985F2FF09C088E00E9468
:105A4000F50F811104C063E0812F0E94AA2408E1B0
:105A5000111107C083E00E949F1118160CF402C1B7
:105A60000CE0802F0E94F50F81110EC0F601E75463
:105A7000F94F728171FF08C07D7F7283111104C0DC
:105A800082E39DE00E94E620802F0E94F50F8111A5
:105A900003C0812F0E94F220802F880F880F0E9460
:105AA000F50F81110EC0F601E754F94FA281A6FF50
:105AB00008C0AF7BA283111104C082E29DE00E9466
:105AC000E6200E947B0F8F7131F4F601E754F94F05
:105AD000B281BF7DB28396012754394F6901F90124
