:100000000C94A5000C94CD000C94CD000C94CD0064
:100010000C94CD000C94CD000C94CD000C94CD002C
:100020000C94CD000C94CD000C94AF070C941E08DA
:100030000C94CD000C94CD000C94CD000C94CD000C
:100040000C94CD000C94CD000C94CD000C94CD00FC
:100050000C94CD000C94CD000C94CD000C94500A5F
:100060000C94CD000C94CD000C94CD000C94CD00DC
:100070000C94CD000C94CD000C94CD000C94CD00CC
:100080000C94CD000C94CD000C94CD000C94CD00BC
:100090000C94CD000C94CD000C94CD000C94CD00AC
:1000A0000C94CD000C94CD000C94CD00FDDFFCCF62
:1000B000F11FF00FDDDFCCCF111F000FFDDDFCCCF9
:1000C000F111F000DDDDCCCC11110000080B0002B5
:1000D00002020000090400000102020000052400E1
:1000E0001001052401010104240206052406000173
:1000F0000705810310004009040100020A00000006
:1001000007050202400000070583024000000403C7
:10011000090412010002EF02014041233680000170
:100120000102030141726475696E6F204C4C4300FB
:1001300041726475626F7900D5F08D14A1C881CFCA
:10014000D9F1AF200000A80BE10D11241FBECFEFA5
:10015000DAE0DEBFCDBF11E0A0E0B1E0EEE1FFE10B
:1001600002C005900D92AC3DB107D9F72AE0ACED85
:10017000B1E001C01D92A838B207E1F710E0C4EA6F
:10018000D0E004C02197FE010E947C0FC33AD10742
:10019000C9F70E94F30B0C94820F0C9400001F937C
:1001A000CF93DF93182FC0910E02D0910F028A30A7
:1001B00041F4E881F9810190F081E02D6DE0CE01FC
:1001C0000995E881F9810190F081E02D612FCE0140
:1001D000099521E030E0019711F430E020E0C901F9
:1001E000DF91CF911F910895CF93DF93C0910E02BD
:1001F000D0910F02E881F9810084F185E02DCE01D4
:100200000995892BB9F3E881F9810284F385E02D02
:10021000CE01DF91CF910994EAEBF2E081E0A0E01A
:10022000B4E000800EBC8111012C1197A0FDFDCF20
:100230000192B9F70DB40895FC0180910D02882355
:1002400011F13FB7F89482E08093E9002091F20029
:10025000822F90E01816190614F481E090E08823AC
:1002600039F0289844E640930C024091F100408315
:10027000222339F02091F200211103C02BE62093B4
:10028000E8003FBF08958FEF9FEF08952FB7F894D0
:1002900083E08093E9009091E800892F807295FFB8
:1002A00004C09091F20080E4891B2FBF08958091D3
:1002B000040281110DC082E08093000284E08093EB
:1002C0000102109203021092020281E08093040264
:1002D00080E092E008954091E3015091E401209183
:1002E000E1013091E20142175307B4F49091E80024
:1002F0009570E1F39091E80092FD19C08093F100B0
:100300008091E3019091E40101968F739927892BE5
:1003100019F48EEF8093E8008091E3019091E4015D
:1003200001969093E4018093E30181E0089580E0D9
:100330000895DF92EF92FF920F931F93CF93DF9375
:10034000D82E8A01EB017B01E40EF51ECE15DF05E8
:1003500059F0D7FE12C0FE0184910E946B012196D4
:100360008111F4CF0FEF1FEFC801DF91CF911F91E3
:100370000F91FF90EF90DF9008958881EECF0F935B
:100380001F93CF93DF931F92CDB7DEB782E08983AF
:1003900042E450E06CEC70E080E80E9499010E9419
:1003A0005701DC0112960D911C910115110589F080
:1003B000D801ED91FC910280F381E02DBE016F5FC9
:1003C0007F4FC801099597FD04C0F801008511858C
:1003D000ECCF89810F90DF91CF911F910F910895FC
:1003E000615030F02091F100FC0120830196F8CF9C
:1003F000289884E680930C020895DC01ED91FC912D
:100400000190F081E02D0994CF93DF931F92CDB737
:10041000DEB76983DC01ED91FC910280F381E02D70
:1004200041E050E0BE016F5F7F4F09950F90DF9173
:10043000CF91089583E08093E9008091F2008823B2
:1004400019F08AE38093E80008950E94460190E045
:100450000895CF93DF931F92CDB7DEB7FC0184855B
:10046000958597FD08C02FEF3FEF358724870F90C4
:10047000DF91CF910895CE0101960E941C01019752
:1004800019F4898190E0F3CF8FEF9FEFF0CF0F93B6
:100490001F93CF93DF931F92CDB7DEB78C01FC0182
:1004A0008485958597FF0BC0CE0101960E941C01A3
:1004B000019771F4898190E0F80195878487F801AC
:1004C000848595850F90DF91CF911F910F910895AD
:1004D0008FEF9FEFF1CFFC018485958597FD0BC0D1
:1004E0009FB7F89482E08093E9008091F2009FBF6B
:1004F00090E0019608959FB7F89482E08093E90018
:100500008091F2009FBF90E008953FB7F8948091EA
:10051000DD019091DE01A091DF01B091E00126B5EF
:10052000A89B05C02F3F19F00196A11DB11D3FBF2B
:10053000BA2FA92F982F8827BC01CD01620F711DFA
:10054000811D911D42E0660F771F881F991F4A95F4
:10055000D1F708958F929F92AF92BF92CF92DF9280
:10056000EF92FF926B017C010E9485024B015C01BE
:10057000C114D104E104F104B9F00E9485026819A4
:1005800079098A099B09683E73408105910580F3CA
:1005900021E0C21AD108E108F10888EE880E83E054
:1005A000981EA11CB11CE4CFFF90EF90DF90CF907C
:1005B000BF90AF909F908F90089565E070E080E0CD
:1005C00090E00C94AA028F929F92AF92BF92CF922A
:1005D000DF92EF92FF920F931F93CF93DF936C0103
:1005E0007B018A0180910B01882309F45CC0809112
:1005F0000D02882309F457C08091E70180FF05C0F0
:100600008091E00082608093E000E801B12C8AEFE5
:10061000A82E93E0892E2AE3922E209711F4BB2076
:10062000D9F10E94460181110AC0AA94AA20D9F1E9
:1006300061E070E080E090E00E94AA02EECF8C17AB
:100640001D0611F00CF08C2F9FB7F8948092E900F2
:100650002091E80025FD02C09FBFDFCF282F30E0AA
:10066000C21BD30BF701815020F041914093F10060
:10067000FACFE20EF31EBB2021F09092E800B12CDD
:10068000EBCF8091E80085FDE7CF9092E800BB2496
:10069000B394209709F3F3CF5D9884E68093E60145
:1006A000101611063CF081E090E0F60193838283FE
:1006B00010E000E0C801DF91CF911F910F91FF90F2
:1006C000EF90DF90CF90BF90AF909F908F90089564
:1006D0008FB18095807F669B88601C9B84600895A5
:1006E0008EBD00000DB407FEFDCF08955C980895FF
:1006F0005C9A0895CB0108954F925F926F927F921A
:10070000BF92CF92DF92EF92FF920F931F93CF93FE
:10071000DF93EC0129013A018B01C12CD12C760128
:10072000C414D504E604F7040CF03FC0F801B190FE
:100730008F018F8580FF0BC0E881F9810084F185EE
:10074000E02D20E144E070E060E0CE010995EB850A
:10075000FC858D859E85E817F90760F4B0828B854E
:100760009C8501969C878B872FEFC21AD20AE20ADA
:10077000F20AD6CF6B2D70E0E881F981028CF38DFF
:10078000E02DCE010995019679F7C701B601DF91F9
:10079000CF911F910F91FF90EF90DF90CF90BF907E
:1007A0007F906F905F904F90089573016201EDCF3D
:1007B000CF93DF93EC01E881F9810288F389E02D82
:1007C00009958F3F980731F02D813E812F5F3F4F74
:1007D0003E832D83DF91CF9108958FEF9FEF089592
:1007E00060E070E0CB01089590E080E00895FF9212
:1007F0000F931F93CF93DF938C01EB016F3F76072D
:10080000B9F0F62EEAE06E1306C06DE0F8018089BB
:1008100091890E94FD016F2DF801808991890E94C4
:10082000FD01CE01DF91CF911F910F91FF900895AF
:10083000D0E0C0E0F6CF7F928F929F92AF92BF92AE
:10084000CF92DF92EF92FF920F931F93CF93DF939C
:100850008C0149015A01EB01C12CD12C7601C8143D
:10086000D904EA04FB04B4F479908AE0781206C053
:100870006DE0F801808991890E94FD01672DF801E2
:10088000808991890E94FD01FFEFCF1ADF0AEF0AEC
:10089000FF0AE5CFC501B401DF91CF911F910F9100
:1008A000FF90EF90DF90CF90BF90AF909F908F9090
:1008B0007F900895CF93DF93EC0188899989DC01BB
:1008C000ED91FC910084F185E02D0995892BA9F328
:1008D00088899989DC01ED91FC910284F385E02DF2
:1008E000DF91CF910994CF93DF93EC0188899989A7
:1008F000DC01ED91FC910084F185E02D0995892BB7
:10090000A9F388899989DC01ED91FC910484F5852E
:10091000E02DDF91CF9109948F929F92AF92BF9279
:10092000CF92DF92EF92FF920F931F93CF93DF93BB
:100930008C0149015A01EB01C12CD12C7601D8015F
:1009400050968D919C91DC01ED91FC910284F38590
:10095000E02D09958F3F61F0C814D904EA04FB0427
:100960003CF48993BFEFCB1ADB0AEB0AFB0AE7CF13
:10097000C701B601DF91CF911F910F91FF90EF90CA
:10098000DF90CF90BF90AF909F908F900895DC0143
:1009900050968D919C91DC01ED91FC910084F18544
:1009A000E02D099490E080E0089590E080E00895C3
:1009B00090E080E0089508950895DC01ED91FC91A8
:1009C00036970190F081E02DE80FF91F8CE791E058
:1009D0009183808386E891E09783868308952CE74E
:1009E00031E0FC013183208326E831E03783268320
:1009F0000895FB0120813181FC0131832083FB01BB
:100A00004281538126503109F90120813181820FC1
:100A1000931FFC0151834083089528E931E0FC01D4
:100A20003183208322EA31E0318F208F6CE871E03E
:100A30000C94F904DC01ED91FC9136972081318111
:100A4000820F931F0C940D050895DC01ED91FC912C
:100A500036970190F081E02DE80FF91F88E691E0CC
:100A60009183808382E791E093838283089528E6CF
:100A700031E0FC013183208322E731E0338322839C
:100A80000895FB0120813181FC0131832083FB012A
:100A90004281538126503109F90120813181820F31
:100AA000931FFC0151834083089524EB31E0FC0146
:100AB000318320832EEB31E0358B248B68EA71E0A3
:100AC0000C944105DC01ED91FC9136972081318138
:100AD000820F931F0C945505089587FD19C060344B
:100AE000B8F4962F96959695969540E8949F900128
:100AF000112426543B4F280F311DF901808190E0CD
:100B0000677002C0959587956A95E2F781700895A0
:100B100081E00895E62FE695E695E69590E4E99F55
:100B2000F0011124E80FF11DE654FD4F677021E03C
:100B300030E001C0220F6A95EAF78081822B808322
:100B400008951F93CF93DF93D82FC62F142F1C1710
:100B500030F06C2F8D2F0E948A05CF5FF8CFDF9188
:100B6000CF911F9108952F923F924F925F926F9273
:100B70007F928F929F92AF92BF92CF92DF92EF922D
:100B8000FF920F931F93CF93DF93CDB7DEB7639799
:100B90000FB6F894DEBF0FBECDBF9091BC082AEF10
:100BA000290F2B878091BD086AEFD62ED80E7BEFD8
:100BB000972E980EE9EFAE2EA80EF12C412CAE0127
:100BC0004F5F5F4F5E834D8386E0882E891A8F2D9D
:100BD00086958695869550E4859FC00111242F2D1A
:100BE0002770622F70E07D876C874FEF50E0022EF8
:100BF00001C0440F0A94EAF778E0721B272FE72F11
:100C0000F0E0FF87EE876FEF70E002C075956795A3
:100C10002A95E2F79B0177247A947F0C33E0632EC8
:100C20006F0C52E0552E5F0CFC016D817E81E61B3E
:100C3000F70BF987E8870B85312C212CFC01E65452
:100C4000FD4FF98BE88BF42FF095FA8B422F4095EE
:100C50004B8B6D2D802F0E946D05882309F4A7C052
:100C60006A2D802F0E946D05B82E692D802F0E945D
:100C70006D05E82ECC24CA94C00E6D2D8C2D0E94DB
:100C80006D05EE0C54E0859FC00111241E2D182B1C
:100C90001B29BB24B394B00E6D2D8B2D0E946D05C6
:100CA00068E0869FC0011124182BE12FEE0FFF0B87
:100CB000E455FF4F84913196E491282F30E094E081
:100CC000359527959A95E1F729838F708A838E2F22
:100CD00090E024E0959587952A95E1F78B83EF7056
:100CE000EC83E22CE889F989E20DF31DDE0111960F
:100CF00065E028853985215C3F4F615001F18D9178
:100D000090E040817A897423AC010C8402C0440FC6
:100D1000551F0A94E2F7472B4193A9014A0F5B1F25
:100D20004115524050F747AD5B8945230E8402C000
:100D3000959587950A94E2F7842B87AFDECF442000
:100D400009F475C010FF73C0612F64706F8312FFC8
:100D50000BC06A2D8C2D0E946D05811105C04F2D91
:100D6000672D8E2D0E94A105712F78707A8713FF51
:100D70004FC06A2D8B2D0E946D0581110FC04F2D24
:100D8000672D83E08E0D0E94A105882D800F8C3089
:100D900029F06F2D84E08E0D0E948A058F818111CC
:100DA00046C039C0882D800F8C3009F06BC00F5FB2
:100DB000288539852B5F3F4F3987288735E0230EFB
:100DC000311C41E42416310409F043CF439455E02B
:100DD000F50E9394A394D3946DE04612F8CE6396E7
:100DE0000FB6F894DEBF0FBECDBFDF91CF911F913C
:100DF0000F91FF90EF90DF90CF90BF90AF909F90BA
:100E00008F907F906F905F904F903F902F900895BC
:100E10007F81711107C0672D8E2D0E948A058A85FA
:100E2000811105C0672D83E08E0D0E948A05912FE8
:100E300092709F8311FFB6CF12FF0BC0692D8C2DCE
:100E40000E946D05811105C0462D652D8E2D0E94D5
:100E5000A10513FFA7CF692D8B2D0E946D05811170
:100E600024C0462D652D83E08E0D0E94A105882D9E
:100E7000800F8C3009F49BCF462D652D84E08E0DBC
:100E80000E94A10513FF93CF10FD05C06F2D84E0D4
:100E90008E0D0E948A05EF81E11189CF462D652DC7
:100EA00084E08E0D0E94A10582CF882D800F8C30AA
:100EB00059F77DCF0E94760381E20E94700380E0A3
:100EC0000E9470038FE30E9470030E9478030C94C9
:100ED0000C01CF93DF93EC010E945505CE01DF9109
:100EE000CF910C94EC0EDC01ED91FC9136972081B2
:100EF0003181820F931F0C946907CF93DF93EC012C
:100F00000E940D05CE01DF91CF910C94EC0EDC0117
:100F1000ED91FC91369720813181820F931F0C94C3
:100F20007D070C94EC0E0C94EC0EDC01ED91FC9121
:100F3000369720813181820F931F0C9493070C9474
:100F4000EC0E0C94EC0EDC01ED91FC9136972081B7
:100F50003181820F931F0C94A1070C94EC0E1F9209
:100F60000F920FB60F9211248F939F938091E100FF
:100F70009091E100937F9093E10083FF0FC0109266
:100F8000E90091E09093EB001092EC0092E39093D3
:100F9000ED0010920D0298E09093F00082FF22C0C5
:100FA00093E09093E9009091F200992319F09AE36D
:100FB0009093E8009091E601992341F09091E60129
:100FC00091509093E601911101C05D9A90910C02AD
:100FD000992341F090910C02915090930C02911141
:100FE00001C0289A84FF18C08091E2008E7E816043
:100FF0008093E2008091E1008F7E8093E1008091F8
:10100000E7018E7E80618093E7019F918F910F9021
:101010000FBE0F901F90189580FFF7CF8091E200D0
:101020008E7E80618093E2008091E1008E7E8093CD
:10103000E1008091E7018E7E8160E5CF1F920F92E3
:101040000FB60F921124CF92DF92EF92FF920F937F
:101050001F932F933F934F935F936F937F938F9340
:101060009F93AF93BF93EF93FF93CF93DF93CDB74E
:10107000DEB76C97DEBFCDBF1092E9008091E8002B
:1010800083FF25C068E0CE0145960E94F00182EF03
:101090008093E8008D8987FF39C09091E80090FF28
:1010A000FCCF982F907609F034C19E894F89588DD6
:1010B0002F89F88C911131C0803861F58091E80159
:1010C0008093F1001092F1008EEF8093E8006C960F
:1010D0000FB6F894DEBF0FBECDBFDF91CF91FF9169
:1010E000EF91BF91AF919F918F917F916F915F91A0
:1010F0004F913F912F911F910F91FF90EF90DF90B3
:10110000CF900F900FBE0F901F9018959EEF909369
:10111000E800C7CF1092F100D5CF913059F481117A
:10112000D3CF4130510581F68091E8018D7F8093C6
:10113000E801CACF933049F48111C6CF413051053F
:1011400019F68091E8018260F2CF953041F48091E8
:10115000E80080FFFCCF20682093E300B5CF9630F5
:1011600009F0A9C00B8D1C8D22E01092E9001092AD
:10117000E4011092E301F2122EC01092E2011092EB
:10118000E1010E94BF011F8299E09983FA8291E0F8
:101190009E8390EA98879AEF99872091E301309196
:1011A000E401275F3F4F3C832B838D831092E9003E
:1011B0001092E4011092E3011093E2010093E10127
:1011C00049E050E0BE016F5F7F4F80E00E949901CF
:1011D0000E94BF0179CF1093E2010093E1010E94C8
:1011E0005701DC0112960D911C910115110509F4AE
:1011F00051C1D801ED91FC910480F581E02DBE0133
:101200006B5E7F4FC8010995009709F03EC1F80158
:1012100000851185EACFF3E0FF120EC08F89882385
:1012200009F440C0823061F440E867E080E391E077
:101230000E949A0A811148CF81E28093EB0047CF48
:10124000813029F440E86BE084E291E0F1CF833013
:1012500099F70E945701DC011296ED90FC908E01E7
:101260000F5F1F4F6801E114F10479F0D701ED9190
:10127000FC910680F781E02DB801C7010995080FA0
:10128000111DF701E084F184EECFD8011C92F60124
:1012900001900020E9F73197BF016C197D0940E00A
:1012A000C601C6CF6EE071E0FB01449150E080E8DA
:1012B0000E94990109CF973009F4BECF983021F4EC
:1012C00081E08093F10000CF993009F0FDCE83706A
:1012D00009F0B2CFE3ECF1E081E031E096E3219157
:1012E000222371F08093E9003093EB00DF01119726
:1012F0002C912093EC009093ED008F5F873079F76D
:101300008EE78093EA001092EA008F8980930D02A5
:10131000DBCE8B8D9C8D1092E9001092E40110922F
:10132000E3019093E2018093E101898D811192C0E4
:101330008E899D89913A49F4813209F07DCF47E049
:1013400050E064E071E080E0B3CF913209F074CFF7
:10135000833269F48F89988DB0E0A0E0809300011A
:1013600090930101A0930201B0930301ADCE8032AE
:1013700069F48091E80082FFFCCF67E084E091E0AF
:101380000E94F0018BEF8093E8009ECE823209F03C
:101390009BCE8F8980930B01EEEFFFE785919491AF
:1013A0008B3F9C4D51F1E0E0F8E080910401909179
:1013B0000501A0910601B0910701803B9440A10571
:1013C000B105F1F480910B0180FD1AC0EE3F8AE077
:1013D000F80789F587E797E791838083809160001C
:1013E0008093E50188E19BE00FB6F894A89580937F
:1013F00060000FBE9093600067CEEEEFFAE0D5CFAD
:10140000808191818737974709F05ECEA8958091BA
:1014100060008861809360008091E50180936000A6
:10142000EE3F2AE0F20789F08091FE0A9091FF0AD0
:101430009183808349CE808191818737980751F2CB
:101440009093FF0A8093FE0AC5CF1092FF0A109274
:10145000FE0A3ACE0E945701DC0112960D911C91B2
:101460000115110509F4E8CED801ED91FC91019028
:10147000F081E02DBE016B5E7F4FC801099581119F
:1014800023CEF80100851185EBCF181619060CF450
:101490001BCED2CEF1E0FF12BECE62E171E004CFEE
:1014A0001F920F920FB60F9211242F933F938F9399
:1014B0009F93AF93BF938091E9019091EA01A0912E
:1014C000EB01B091EC013091DC0123E0230F2D37CB
:1014D00058F50196A11DB11D2093DC018093E9010F
:1014E0009093EA01A093EB01B093EC018091DD01B0
:1014F0009091DE01A091DF01B091E0010196A11D64
:10150000B11D8093DD019093DE01A093DF01B093C4
:10151000E001BF91AF919F918F913F912F910F90DB
:101520000FBE0F901F90189526E8230F0296A11D5D
:10153000B11DD2CFEF92FF920F931F93CF93DF9302
:10154000F82E192FE62E042F81E0860F880F0E94B7
:101550006B0183E00E946B01CF2DD12FEC0EFD2E8D
:10156000F11CCE15DF05B9F007FF13C0FE01849111
:101570000E946B01182F80E00E946B01812321964D
:101580008111EFCFDF91CF911F910F91FF90EF90DD
:1015900008958881EDCF81E0F5CFCF93DF93EB0104
:1015A00088819981A2E1B2E011969C938E932A8161
:1015B0003B810697EC01E881F981EE5EFD4F3183B6
:1015C000208312961D921D921D921C92159781E206
:1015D00090E09483838388E192E0948B838B1582DF
:1015E000158ADF91CF910895CF93DF93C2E1D2E0C6
:1015F00081E290E09C8F8B8F1D8E1E8E1F8E86E069
:1016000090E0A0E0B0E088A399A3AAA3BBA31CA28A
:101610001DA21EA21FA28EE391E0998F888F80E207
:1016200088A71AA619A688E192E09CA78BA71DA6F9
:10163000AC016CE871E0CE010E94CD0A88E991E02E
:101640009983888382EA91E0998F888F1A86198618
:101650001C861B861E861D86188A1F861A8A198A72
:101660001C8A1B8A86E491E09F838E8380E492E04B
:101670009F8B8E8B88E08D8BDF91CF910895DB015E
:101680008D919C9111979093910280939002129664
:101690002D913C910697DC01ED91FC91E057FD4FB7
:1016A0003183208381E290E09483838382E992E016
:1016B000948B838B1582158A0895CF93DF93C0E9AD
:1016C000D2E081E290E0988F8F8B198E1A8E1B8E5C
:1016D00086E090E0A0E0B0E08C8F9D8FAE8FBF8F52
:1016E00018A219A21AA21BA28EE391E09D8B8C8BEB
:1016F00080E28CA31EA21DA282E992E098A78FA38C
:1017000019A6AC0168EA71E0CE010E943F0B84EBA0
:1017100091E0998388838EEB91E09D8B8C8B1E8268
:101720001D8218861F821A8619861C861B861E86B5
:101730001D86188A1F8686E491E09B838A8380E455
:1017400092E09B8B8A8B80E1898BDF91CF9108950A
:10175000109243021092420288EE93E0A0E0B0E0C3
:101760008093440290934502A0934602B0934702AF
:101770008DEC91E090934102809340028FEF9FEFB8
:1017800090934D0280934C0260E472E080E992E015
:101790000E945D0B60E472E082E192E00E94F40A34
:1017A000109211021092100280E492E090930F02C6
:1017B00080930E0264EF70E08FEC90E00E94E90DE0
:1017C0009093110280931002EAE9F9E0119289E006
:1017D000EA3FF807D9F7EAEFF9E011928AE0EA3335
:1017E000F807D9F70895789484B5826084BD84B5EC
:1017F000816084BD85B5826085BD85B5816085BD0C
:1018000080916E00816080936E00109281008091C3
:10181000810082608093810080918100816080934B
:101820008100809180008160809380008091910090
:1018300082608093910080919100816080939100FB
:10184000809190008160809390008091C1008460BD
:101850008093C1008091C10082608093C10080911B
:10186000C10081608093C1008091C300816080933A
:10187000C3008091C00082608093C0008091C2004C
:1018800081608093C20080917A00846080937A00A6
:1018900080917A00826080937A0080917A008160E2
:1018A00080937A0080917A00806880937A00109209
:1018B0000D021092E8011092E7018091D70081603B
:1018C0008093D70080EA8093D80089B5806189BD74
:1018D00089B5826089BD09B400FEFDCF61E070E08A
:1018E00080E090E00E94AA028091D8008F7C806105
:1018F0008093D8008091E000807F8093E000809109
:10190000E1008E7E8093E1008DE08093E200559AA5
:10191000209A81EC80937C0085B1806F85B984B179
:10192000877E84B984B1876E84B95E9A5F988AB1E4
:10193000806D8AB9769A6E9881B3806F81BB8998E1
:1019400080B38D7080BB80E58CBD81E08DBD0E9431
:10195000DD025F9A0E94DD025E980E947603C8E372
:10196000D1E0FE0184910E9470032196F1E0C5341C
:10197000DF07B9F70E94780381E8809364008091C3
:1019800065008160809365000E94680387FD0AC03E
:10199000E8E8FAE087E72DB73EB72E173F0770F06B
:1019A0008193F9CF0E94760385EA0E9470030E941A
:1019B00078032E982F982D982E98FFCFEAEBF2E01F
:1019C00084EC97E0DF019C011D9221503040E1F74B
:1019D00084E392E190937B0A80937A0A8EEF9AECEB
:1019E00090937D0A80937C0AEAEBF4E08FEF819379
:1019F00038E0EA3BF307D9F74091BA045091BB04B1
:101A00006091BC0490E080E0E1E0F0E09F01082EEE
:101A100001C0220F0A94EAF720954223813009F091
:101A20005223622301968330910581F76093BC04B1
:101A30005093BB044093BA048091BD048B7F809384
:101A4000BD048091BF048F7D8093BF040E94B305C5
:101A50000E945A070E94760381E20E94700380E48C
:101A60000E9470038FE70E9470030E9478030E9417
:101A70000C01D1E080E5D82E06EF11E098E2C92EE6
:101A800020E0E22E20E0F22E8091600083FF07C06C
:101A9000F89487E78093000880930108FFCFC091F6
:101AA000FF01CC2321F18FEF8C0F8C238093FF015A
:101AB000C827C03209F47BC058F48091BD088F5FFD
:101AC000C03171F0E114F104F9F20E940000DCCFA2
:101AD000C03409F472C08091BD088150C03891F7BC
:101AE0008093BD080E94B3050E945A07EBCF2FB721
:101AF000F8948091E9019091EA01A091EB01B091F5
:101B0000EC012FBF2FB7F8944091E9015091EA0101
:101B10006091EB017091EC012FBF481B590B4430D1
:101B2000510520F4D3BF889513BEECCF0E94680303
:101B30009091FE018927E6EFF1E030E020E041E0FE
:101B4000542F582361F150815F5F533008F5508363
:101B5000440F2F5F3F4F31962830310589F7C92751
:101B6000C093FE01EEEEF1E081E02C2F282321F05E
:101B700020812150B1F02083880F31960E171F0766
:101B8000A1F79093ED019095C923C093FF017CCFFD
:101B90001082C42BD901A251BE4FDC92D9CF108242
:101BA000D7CFC082282F20952F609223E5CF809138
:101BB000BC0881508093BC0895CF8091BC088F5F92
:101BC000F9CF82E192E00E940D0580E992E00C9449
:101BD00055050F931F93CF93DF93009759F4611529
:101BE000710541F4F0E0E0E0CF01DF91CF911F916A
:101BF0000F9108958B01EC016EE070E081E090E0C0
:101C00000E94340EFC01892B69F380E8838301155F
:101C1000110571F01387028781E8838380917E0A22
:101C200090917F0A892B21F4F0937F0AE0937E0A3A
:101C30002097D1F2D187C08783818260838380918E
:101C4000800A9091810A892B79F6F093810AE093BA
:101C5000800A8091820A9091830A892B29F6F09359
:101C6000830AE093820AC0CF0F931F93CF93DF9331
:101C7000869F8001879F100D969F100D1124C8012B
:101C80000E94500EEC01009729F0A80170E060E07E
:101C90000E94750FCE01DF91CF911F910F91089592
:101CA0000F931F93CF93DF938230910510F482E05E
:101CB00090E0E091860AF091870A30E020E0B0E001
:101CC000A0E0309799F42115310509F44AC0281B8A
:101CD000390B24303105D8F58A819B816115710556
:101CE00089F1FB0193838283FE0111C04081518100
:101CF0000281138148175907E0F04817590799F4F2
:101D0000109761F012960C93129713961C933296CB
:101D1000CF01DF91CF911F910F9108950093860A13
:101D20001093870AF4CF2115310551F0421753075C
:101D300038F0A901DB019A01BD01DF01F801C1CF33
:101D4000EF01F9CF9093870A8093860ACDCFFE01E9
:101D5000E20FF31F81939193225031093983288335
:101D6000D7CF2091840A3091850A232B41F420910A
:101D70000E0130910F013093850A2093840A20913F
:101D80000C0130910D012115310541F42DB73EB7FD
:101D90004091100150911101241B350BE091840AF0
:101DA000F091850AE217F307A0F42E1B3F0B2817CA
:101DB000390778F0AC014E5F5F4F2417350748F0C4
:101DC0004E0F5F1F5093850A4093840A819391932D
:101DD0009FCFF0E0E0E09CCFCF93DF930097E9F056
:101DE000FC01329713821282A091860AB091870A71
:101DF000ED0130E020E01097A1F420813181820FC5
:101E0000931F2091840A3091850A2817390709F019
:101E100061C0F093850AE093840ADF91CF91089521
:101E2000EA01CE17DF07E8F54A815B819E01411583
:101E30005105B1F7E901FB83EA8349915991C40F38
:101E4000D51FEC17FD0761F4808191810296840F04
:101E5000951FE90199838883828193819B838A837B
:101E6000F0E0E0E012968D919C9113970097B9F500
:101E70002D913C911197CD010296820F931F2091D5
:101E8000840A3091850A2817390739F6309751F5B9
:101E90001092870A1092860AB093850AA093840A4A
:101EA000BCCFD383C28340815181840F951FC81753
:101EB000D90761F44E5F5F4F88819981480F591FA0
:101EC000518340838A819B819383828321153105CD
:101ED00009F0B0CFF093870AE093860A9ECFFD0108
:101EE000DC01C0CF13821282D7CFDC0101C06D9319
:101EF00041505040E0F70895EE0FFF1F0590F49118
:101F0000E02D099410E0C4EAD0E004C0FE010E9474
:0E1F10007C0F2196C53AD107C9F7F894FFCF90
:101F1E00FFFFFFFF00E10000000000000000880A44
:101F2E00800018000000000000000000E8FFE8FF3D
:101F3E00000000000000140000000000000000007F
:101F4E00ECFFECFF000000000000000000006C053C
:101F5E00AD070000000024059F07DB04D804D5045C
:101F6E00D204F403C7048C0473045A047A031B04CA
:101F7E00F7030200000000003705A107FEFFFEFF79
:101F8E0000002505A307060000000000EF049307DC
:101F9E00FAFFFAFF0000DD049507980118012201EF
:101FAE00A2011800000000000D057D07E8FFE8FF04
:101FBE0000001A058707B4012C013601BE0114007A
:101FCE000000000055056907ECFFECFF00006205FC
:101FDE00730700C18081000000000000000402E3CE
:0C1FEE000225021A026B022902470200C1
:00000001FF
